{
  "_format": "hh-sol-artifact-1",
  "contractName": "TimeTokenPower",
  "sourceName": "contracts/token/TokenPower.sol",
  "abi": [
    {
      "inputs": [
        {
          "internalType": "address",
          "name": "pangu",
          "type": "address"
        },
        {
          "internalType": "uint256",
          "name": "_lockTimeLimit",
          "type": "uint256"
        }
      ],
      "stateMutability": "nonpayable",
      "type": "constructor"
    },
    {
      "anonymous": false,
      "inputs": [
        {
          "indexed": true,
          "internalType": "address",
          "name": "delegator",
          "type": "address"
        },
        {
          "indexed": true,
          "internalType": "address",
          "name": "fromDelegate",
          "type": "address"
        },
        {
          "indexed": true,
          "internalType": "address",
          "name": "toDelegate",
          "type": "address"
        }
      ],
      "name": "DelegateChanged",
      "type": "event"
    },
    {
      "anonymous": false,
      "inputs": [
        {
          "indexed": true,
          "internalType": "address",
          "name": "delegate",
          "type": "address"
        },
        {
          "indexed": false,
          "internalType": "uint256",
          "name": "previousBalance",
          "type": "uint256"
        },
        {
          "indexed": false,
          "internalType": "uint256",
          "name": "newBalance",
          "type": "uint256"
        }
      ],
      "name": "DelegateVotesChanged",
      "type": "event"
    },
    {
      "inputs": [],
      "name": "PanGu",
      "outputs": [
        {
          "internalType": "contract IERC20",
          "name": "",
          "type": "address"
        }
      ],
      "stateMutability": "view",
      "type": "function"
    },
    {
      "inputs": [
        {
          "internalType": "address",
          "name": "user",
          "type": "address"
        },
        {
          "internalType": "uint256",
          "name": "tokenId",
          "type": "uint256"
        },
        {
          "internalType": "uint256",
          "name": "lockTime",
          "type": "uint256"
        },
        {
          "internalType": "address",
          "name": "delegatee",
          "type": "address"
        }
      ],
      "name": "_lock",
      "outputs": [],
      "stateMutability": "nonpayable",
      "type": "function"
    },
    {
      "inputs": [
        {
          "internalType": "address",
          "name": "user",
          "type": "address"
        },
        {
          "internalType": "uint256",
          "name": "amount",
          "type": "uint256"
        },
        {
          "internalType": "uint256",
          "name": "tokenId",
          "type": "uint256"
        }
      ],
      "name": "_stake",
      "outputs": [],
      "stateMutability": "nonpayable",
      "type": "function"
    },
    {
      "inputs": [
        {
          "internalType": "address",
          "name": "user",
          "type": "address"
        },
        {
          "internalType": "uint256",
          "name": "tokenId",
          "type": "uint256"
        }
      ],
      "name": "_unlock",
      "outputs": [],
      "stateMutability": "nonpayable",
      "type": "function"
    },
    {
      "inputs": [
        {
          "internalType": "address",
          "name": "",
          "type": "address"
        },
        {
          "internalType": "uint256",
          "name": "",
          "type": "uint256"
        }
      ],
      "name": "checkpoints",
      "outputs": [
        {
          "internalType": "uint256",
          "name": "fromBlock",
          "type": "uint256"
        },
        {
          "internalType": "uint256",
          "name": "votes",
          "type": "uint256"
        }
      ],
      "stateMutability": "view",
      "type": "function"
    },
    {
      "inputs": [
        {
          "internalType": "address",
          "name": "delegatee",
          "type": "address"
        }
      ],
      "name": "delegate",
      "outputs": [],
      "stateMutability": "nonpayable",
      "type": "function"
    },
    {
      "inputs": [
        {
          "internalType": "address",
          "name": "",
          "type": "address"
        }
      ],
      "name": "delegates",
      "outputs": [
        {
          "internalType": "address",
          "name": "",
          "type": "address"
        }
      ],
      "stateMutability": "view",
      "type": "function"
    },
    {
      "inputs": [
        {
          "internalType": "uint256",
          "name": "amount",
          "type": "uint256"
        },
        {
          "internalType": "uint256",
          "name": "tokenId",
          "type": "uint256"
        }
      ],
      "name": "depositById",
      "outputs": [],
      "stateMutability": "nonpayable",
      "type": "function"
    },
    {
      "inputs": [
        {
          "internalType": "address",
          "name": "user",
          "type": "address"
        }
      ],
      "name": "getCurrentVotingPower",
      "outputs": [
        {
          "internalType": "uint256",
          "name": "",
          "type": "uint256"
        }
      ],
      "stateMutability": "view",
      "type": "function"
    },
    {
      "inputs": [
        {
          "internalType": "address",
          "name": "user",
          "type": "address"
        }
      ],
      "name": "getNotZeroIds",
      "outputs": [
        {
          "internalType": "uint256[]",
          "name": "validIds",
          "type": "uint256[]"
        }
      ],
      "stateMutability": "view",
      "type": "function"
    },
    {
      "inputs": [
        {
          "internalType": "address",
          "name": "user",
          "type": "address"
        },
        {
          "internalType": "uint256",
          "name": "blockNumber",
          "type": "uint256"
        }
      ],
      "name": "getVotingPowerAt",
      "outputs": [
        {
          "internalType": "uint256",
          "name": "",
          "type": "uint256"
        }
      ],
      "stateMutability": "view",
      "type": "function"
    },
    {
      "inputs": [
        {
          "internalType": "uint256",
          "name": "tokenId",
          "type": "uint256"
        },
        {
          "internalType": "uint256",
          "name": "lockTime",
          "type": "uint256"
        },
        {
          "internalType": "address",
          "name": "delegatee",
          "type": "address"
        }
      ],
      "name": "lock",
      "outputs": [],
      "stateMutability": "nonpayable",
      "type": "function"
    },
    {
      "inputs": [],
      "name": "lockTimeLimit",
      "outputs": [
        {
          "internalType": "uint256",
          "name": "",
          "type": "uint256"
        }
      ],
      "stateMutability": "view",
      "type": "function"
    },
    {
      "inputs": [
        {
          "internalType": "address",
          "name": "",
          "type": "address"
        }
      ],
      "name": "lockedPower",
      "outputs": [
        {
          "internalType": "uint256",
          "name": "",
          "type": "uint256"
        }
      ],
      "stateMutability": "view",
      "type": "function"
    },
    {
      "inputs": [
        {
          "internalType": "address",
          "name": "",
          "type": "address"
        }
      ],
      "name": "numCheckpoints",
      "outputs": [
        {
          "internalType": "uint256",
          "name": "",
          "type": "uint256"
        }
      ],
      "stateMutability": "view",
      "type": "function"
    },
    {
      "inputs": [
        {
          "internalType": "address",
          "name": "",
          "type": "address"
        }
      ],
      "name": "power",
      "outputs": [
        {
          "internalType": "uint256",
          "name": "",
          "type": "uint256"
        }
      ],
      "stateMutability": "view",
      "type": "function"
    },
    {
      "inputs": [
        {
          "internalType": "uint256",
          "name": "amount",
          "type": "uint256"
        },
        {
          "internalType": "uint256",
          "name": "tokenId",
          "type": "uint256"
        }
      ],
      "name": "stackById",
      "outputs": [],
      "stateMutability": "nonpayable",
      "type": "function"
    },
    {
      "inputs": [
        {
          "internalType": "uint256",
          "name": "amount",
          "type": "uint256"
        }
      ],
      "name": "stake",
      "outputs": [],
      "stateMutability": "nonpayable",
      "type": "function"
    },
    {
      "inputs": [
        {
          "internalType": "address",
          "name": "",
          "type": "address"
        },
        {
          "internalType": "uint256",
          "name": "",
          "type": "uint256"
        }
      ],
      "name": "timeTokens",
      "outputs": [
        {
          "internalType": "uint256",
          "name": "stakeFromBlock",
          "type": "uint256"
        },
        {
          "internalType": "uint256",
          "name": "amount",
          "type": "uint256"
        },
        {
          "internalType": "bool",
          "name": "locked",
          "type": "bool"
        },
        {
          "internalType": "uint256",
          "name": "lockFromBlock",
          "type": "uint256"
        },
        {
          "internalType": "uint256",
          "name": "lockTime",
          "type": "uint256"
        }
      ],
      "stateMutability": "view",
      "type": "function"
    },
    {
      "inputs": [
        {
          "internalType": "address",
          "name": "",
          "type": "address"
        }
      ],
      "name": "tokenIds",
      "outputs": [
        {
          "internalType": "uint256",
          "name": "",
          "type": "uint256"
        }
      ],
      "stateMutability": "view",
      "type": "function"
    },
    {
      "inputs": [],
      "name": "totalVotingSupplyAt",
      "outputs": [
        {
          "internalType": "uint256",
          "name": "",
          "type": "uint256"
        }
      ],
      "stateMutability": "view",
      "type": "function"
    },
    {
      "inputs": [
        {
          "internalType": "uint256",
          "name": "tokenId",
          "type": "uint256"
        }
      ],
      "name": "unlock",
      "outputs": [],
      "stateMutability": "nonpayable",
      "type": "function"
    }
  ],
  "bytecode": "0x60c060405234801561001057600080fd5b5060405161165938038061165983398101604081905261002f91610045565b6001600160a01b0390911660805260a05261007f565b6000806040838503121561005857600080fd5b82516001600160a01b038116811461006f57600080fd5b6020939093015192949293505050565b60805160a0516115996100c06000396000818161038d01526108c90152600081816102230152818161076b01528181610ada0152610ccd01526115996000f3fe608060405234801561001057600080fd5b50600436106101825760003560e01c80635c45becf116100d8578063a694fc3a1161008c578063e5cc507111610066578063e5cc50711461041e578063eaeded5f146104a6578063fc97a303146104b957600080fd5b8063a694fc3a146103d8578063d35cf790146103eb578063d9542634146103fe57600080fd5b8063621f2e7c116100bd578063621f2e7c146103885780636fcfff45146103af57806375ac980c146103cf57600080fd5b80635c45becf146103555780636198e3391461037557600080fd5b80633e571d201161013a5780635470f936116101145780635470f9361461029e578063587cde1e146103195780635c19a95c1461034257600080fd5b80633e571d201461021e578063436b5e8d1461025d578063503371a51461027e57600080fd5b806320f719131161016b57806320f71913146101e557806329b19bfa146101f8578063363e5e791461020b57600080fd5b80630a49569f146101875780630cdfebfa1461019c575b600080fd5b61019a61019536600461132b565b6104d9565b005b6101cb6101aa36600461132b565b60016020818152600093845260408085209091529183529120805491015482565b604080519283526020830191909152015b60405180910390f35b61019a6101f3366004611355565b61069c565b61019a610206366004611377565b610853565b61019a610219366004611355565b610a17565b6102457f000000000000000000000000000000000000000000000000000000000000000081565b6040516001600160a01b0390911681526020016101dc565b61027061026b3660046113bd565b610b55565b6040519081526020016101dc565b61027061028c3660046113bd565b60046020526000908152604090205481565b6102ea6102ac36600461132b565b6007602090815260009283526040808420909152908252902080546001820154600283015460038401546004909401549293919260ff909116919085565b6040516101dc959493929190948552602085019390935290151560408401526060830152608082015260a00190565b6102456103273660046113bd565b6003602052600090815260409020546001600160a01b031681565b61019a6103503660046113bd565b610bba565b6103686103633660046113bd565b610bc7565b6040516101dc91906113d8565b61019a61038336600461141c565b610c60565b6102707f000000000000000000000000000000000000000000000000000000000000000081565b6102706103bd3660046113bd565b60026020526000908152604090205481565b61027060005481565b61019a6103e636600461141c565b610c6a565b61019a6103f9366004611435565b610dd9565b61027061040c3660046113bd565b60056020526000908152604090205481565b61019a61042c36600461146a565b6040805160a0810182524381526020808201948552600082840181815260608401828152608085018381526001600160a01b0399909916835260078452858320968352959092529290922090518155925160018401555160028301805460ff19169115159190911790555160038201559051600490910155565b6102706104b436600461132b565b610de5565b6102706104c73660046113bd565b60066020526000908152604090205481565b6001600160a01b0382166000908152600760209081526040808320848452909152902060018101546105525760405162461bcd60e51b815260206004820152600e60248201527f4e554c4c5f54494d45544f4b454e00000000000000000000000000000000000060448201526064015b60405180910390fd5b438160040154826003015461056791906114b3565b116105b45760405162461bcd60e51b815260206004820152600760248201527f4c4f434b494e47000000000000000000000000000000000000000000000000006044820152606401610549565b600281015460ff166106085760405162461bcd60e51b815260206004820152600e60248201527f414c52454144595f554e4c4f434b0000000000000000000000000000000000006044820152606401610549565b6002808201805460ff191690556004820154610623916114c6565b8154600383015461063491906114dd565b61063e91906114b3565b6001600160a01b038416600090815260046020526040812080549091906106669084906114dd565b90915550506001600160a01b0380841660009081526003602052604090205460018301546106979286921690610ffa565b505050565b600082116106dd5760405162461bcd60e51b815260206004820152600e60248201526d1253959053125117d05353d5539560921b6044820152606401610549565b33600090815260076020908152604080832084845290915290206001810154156107495760405162461bcd60e51b815260206004820152600f60248201527f54494d45544f4b454e5f455849535400000000000000000000000000000000006044820152606401610549565b6040516323b872dd60e01b8152336004820152306024820152604481018490527f00000000000000000000000000000000000000000000000000000000000000006001600160a01b0316906323b872dd906064016020604051808303816000875af11580156107bc573d6000803e3d6000fd5b505050506040513d601f19601f820116820180604052508101906107e091906114f0565b506040805160a081018252438152602080820186815260008385018181526060850182815260808601838152338452600786528784208a85529095529590912093518455905160018401555160028301805460ff1916911515919091179055915160038201559051600490910155505050565b6001600160a01b0384166000908152600760209081526040808320868452909152902060018101546108c75760405162461bcd60e51b815260206004820152600e60248201527f4e554c4c5f54494d45544f4b454e0000000000000000000000000000000000006044820152606401610549565b7f000000000000000000000000000000000000000000000000000000000000000083106109365760405162461bcd60e51b815260206004820152601060248201527f494e56414c49445f4c4f434b54494d45000000000000000000000000000000006044820152606401610549565b600281015460ff161561098b5760405162461bcd60e51b815260206004820152601060248201527f54494d45544f4b454e5f4c4f434b4544000000000000000000000000000000006044820152606401610549565b6002808201805460ff19166001179055436003830155600482018490556109b39084906114c6565b81546109bf90436114dd565b6109c991906114b3565b81600101546109d891906114c6565b6001600160a01b03861660009081526004602052604081208054909190610a009084906114b3565b90915550610a1090508583611141565b5050505050565b336000908152600760209081526040808320848452909152902060018101548310610a755760405162461bcd60e51b815260206004820152600e60248201526d1253959053125117d05353d5539560921b6044820152606401610549565b600281015460ff1615610a8c57610a8c33836104d9565b82816001016000828254610aa091906114dd565b90915550506040517fa9059cbb000000000000000000000000000000000000000000000000000000008152336004820152602481018490527f00000000000000000000000000000000000000000000000000000000000000006001600160a01b03169063a9059cbb906044016020604051808303816000875af1158015610b2b573d6000803e3d6000fd5b505050506040513d601f19601f82011682018060405250810190610b4f91906114f0565b50505050565b6001600160a01b03811660009081526002602052604081205480610b7a576000610bb3565b6001600160a01b038316600090815260016020819052604082209190610ba090846114dd565b8152602001908152602001600020600101545b9392505050565b610bc43382611141565b50565b60606000805b6001600160a01b038416600090815260066020526040902054811015610c59576001600160a01b03841660009081526007602090815260408083208484529091529020600181015415610c465781848481518110610c2d57610c2d611512565b602090810291909101015282610c4281611528565b9350505b5080610c5181611528565b915050610bcd565b5050919050565b610bc433826104d9565b60008111610cab5760405162461bcd60e51b815260206004820152600e60248201526d1253959053125117d05353d5539560921b6044820152606401610549565b6040516323b872dd60e01b8152336004820152306024820152604481018290527f00000000000000000000000000000000000000000000000000000000000000006001600160a01b0316906323b872dd906064016020604051808303816000875af1158015610d1e573d6000803e3d6000fd5b505050506040513d601f19601f82011682018060405250810190610d4291906114f0565b5033600090815260066020526040812080549160019190610d6383856114b3565b90915550506040805160a081018252438152602080820185815260008385018181526060850182815260808601838152338452600786528784208985529095529590912093518455905160018401555160028301805460ff19169115159190911790559151600382015590516004909101555050565b61069733848484610853565b6000438210610e365760405162461bcd60e51b815260206004820152601360248201527f424c4f434b4e554d4245525f494e56414c4944000000000000000000000000006044820152606401610549565b6001600160a01b03831660009081526002602052604081205490819003610e61576000915050610ff4565b6001600160a01b0384166000908152600160208190526040822085929091610e8990856114dd565b81526020019081526020016000206000015411610ee0576001600160a01b038416600090815260016020819052604082209190610ec690846114dd565b815260200190815260200160002060010154915050610ff4565b6001600160a01b0384166000908152600160209081526040808320838052909152902054831015610f15576000915050610ff4565b600080610f236001846114dd565b90505b81811115610fc95760006002610f3c84846114dd565b610f469190611541565b610f5090836114dd565b6001600160a01b0388166000908152600160208181526040808420858552825292839020835180850190945280548085529201549083015291925090879003610fa357602001519450610ff49350505050565b8051871115610fb457819350610fc2565b610fbf6001836114dd565b92505b5050610f26565b506001600160a01b038516600090815260016020818152604080842094845293905291902001549150505b92915050565b816001600160a01b0316836001600160a01b03161415801561101c5750600081115b15610697576001600160a01b038316156110af576001600160a01b038316600090815260026020526040812054908161105657600061108f565b6001600160a01b03851660009081526001602081905260408220919061107c90856114dd565b8152602001908152602001600020600101545b9050600061109d84836114dd565b90506110ab868484846111d3565b5050505b6001600160a01b03821615610697576001600160a01b03821660009081526002602052604081205490816110e457600061111d565b6001600160a01b03841660009081526001602081905260408220919061110a90856114dd565b8152602001908152602001600020600101545b9050600061112b84836114b3565b9050611139858484846111d3565b505050505050565b6001600160a01b03808316600081815260036020818152604080842080546004845282862054949093528787167fffffffffffffffffffffffff00000000000000000000000000000000000000008416811790915590519190951694919391928592917f3134e8a2e6d97e929a7e54011ea5485d7d196dd5f0ba4d4ef95803e8e3fc257f9190a4610b4f828483610ffa565b43831580159061121a57506001600160a01b038516600090815260016020819052604082208392909161120690886114dd565b815260200190815260200160002060000154145b15611260576001600160a01b038516600090815260016020819052604082208492909161124790886114dd565b81526020810191909152604001600020600101556112c4565b60408051808201825282815260208082018581526001600160a01b038916600090815260018084528582208a835290935293909320915182559151908201556112aa9085906114b3565b6001600160a01b0386166000908152600260205260409020555b60408051848152602081018490526001600160a01b038716917fdec2bacdd2f05b59de34da9b523dff8be42e5e38e818c82fdb0bae774387a724910160405180910390a25050505050565b80356001600160a01b038116811461132657600080fd5b919050565b6000806040838503121561133e57600080fd5b6113478361130f565b946020939093013593505050565b6000806040838503121561136857600080fd5b50508035926020909101359150565b6000806000806080858703121561138d57600080fd5b6113968561130f565b935060208501359250604085013591506113b26060860161130f565b905092959194509250565b6000602082840312156113cf57600080fd5b610bb38261130f565b6020808252825182820181905260009190848201906040850190845b81811015611410578351835292840192918401916001016113f4565b50909695505050505050565b60006020828403121561142e57600080fd5b5035919050565b60008060006060848603121561144a57600080fd5b83359250602084013591506114616040850161130f565b90509250925092565b60008060006060848603121561147f57600080fd5b6114888461130f565b95602085013595506040909401359392505050565b634e487b7160e01b600052601160045260246000fd5b80820180821115610ff457610ff461149d565b8082028115828204841417610ff457610ff461149d565b81810381811115610ff457610ff461149d565b60006020828403121561150257600080fd5b81518015158114610bb357600080fd5b634e487b7160e01b600052603260045260246000fd5b60006001820161153a5761153a61149d565b5060010190565b60008261155e57634e487b7160e01b600052601260045260246000fd5b50049056fea2646970667358221220f4347142f2fce6c3c2152de56d0fdf95d9cd90a16a05358b03d2833c78a6c1e764736f6c63430008130033",
  "linkReferences": {},
  "deployedLinkReferences": {}
}