{
  "_format": "hh-sol-artifact-1",
  "contractName": "MyLiquidityProvider",
  "sourceName": "contracts/MyLiquidityProvider.sol",
  "abi": [
    {
      "inputs": [
        {
          "internalType": "contract IPoolManager",
          "name": "_poolManager",
          "type": "address"
        }
      ],
      "stateMutability": "nonpayable",
      "type": "constructor"
    },
    {
      "inputs": [],
      "name": "OnlyPoolManager",
      "type": "error"
    },
    {
      "inputs": [],
      "name": "SwapExpired",
      "type": "error"
    },
    {
      "inputs": [],
      "name": "addLiquidity",
      "outputs": [],
      "stateMutability": "nonpayable",
      "type": "function"
    },
    {
      "inputs": [],
      "name": "amount0",
      "outputs": [
        {
          "internalType": "uint256",
          "name": "",
          "type": "uint256"
        }
      ],
      "stateMutability": "view",
      "type": "function"
    },
    {
      "inputs": [],
      "name": "amount1",
      "outputs": [
        {
          "internalType": "uint256",
          "name": "",
          "type": "uint256"
        }
      ],
      "stateMutability": "view",
      "type": "function"
    },
    {
      "inputs": [],
      "name": "donate",
      "outputs": [],
      "stateMutability": "nonpayable",
      "type": "function"
    },
    {
      "inputs": [],
      "name": "executeSwap",
      "outputs": [],
      "stateMutability": "nonpayable",
      "type": "function"
    },
    {
      "inputs": [],
      "name": "key",
      "outputs": [
        {
          "internalType": "Currency",
          "name": "currency0",
          "type": "address"
        },
        {
          "internalType": "Currency",
          "name": "currency1",
          "type": "address"
        },
        {
          "internalType": "uint24",
          "name": "fee",
          "type": "uint24"
        },
        {
          "internalType": "int24",
          "name": "tickSpacing",
          "type": "int24"
        },
        {
          "internalType": "contract IHooks",
          "name": "hooks",
          "type": "address"
        }
      ],
      "stateMutability": "view",
      "type": "function"
    },
    {
      "inputs": [
        {
          "internalType": "uint256",
          "name": "id",
          "type": "uint256"
        },
        {
          "internalType": "bytes",
          "name": "data",
          "type": "bytes"
        }
      ],
      "name": "lockAcquired",
      "outputs": [
        {
          "internalType": "bytes",
          "name": "",
          "type": "bytes"
        }
      ],
      "stateMutability": "nonpayable",
      "type": "function"
    },
    {
      "inputs": [],
      "name": "myaddress",
      "outputs": [
        {
          "internalType": "address",
          "name": "",
          "type": "address"
        }
      ],
      "stateMutability": "view",
      "type": "function"
    },
    {
      "inputs": [],
      "name": "poolManager",
      "outputs": [
        {
          "internalType": "contract IPoolManager",
          "name": "",
          "type": "address"
        }
      ],
      "stateMutability": "view",
      "type": "function"
    },
    {
      "inputs": [],
      "name": "positionParams",
      "outputs": [
        {
          "internalType": "int24",
          "name": "tickLower",
          "type": "int24"
        },
        {
          "internalType": "int24",
          "name": "tickUpper",
          "type": "int24"
        },
        {
          "internalType": "int256",
          "name": "liquidityDelta",
          "type": "int256"
        }
      ],
      "stateMutability": "view",
      "type": "function"
    },
    {
      "inputs": [
        {
          "components": [
            {
              "internalType": "Currency",
              "name": "currency0",
              "type": "address"
            },
            {
              "internalType": "Currency",
              "name": "currency1",
              "type": "address"
            },
            {
              "internalType": "uint24",
              "name": "fee",
              "type": "uint24"
            },
            {
              "internalType": "int24",
              "name": "tickSpacing",
              "type": "int24"
            },
            {
              "internalType": "contract IHooks",
              "name": "hooks",
              "type": "address"
            }
          ],
          "internalType": "struct IPoolManager.PoolKey",
          "name": "_key",
          "type": "tuple"
        },
        {
          "internalType": "uint256",
          "name": "_amount0",
          "type": "uint256"
        },
        {
          "internalType": "uint256",
          "name": "_amount1",
          "type": "uint256"
        }
      ],
      "name": "setDonateParameters",
      "outputs": [],
      "stateMutability": "nonpayable",
      "type": "function"
    },
    {
      "inputs": [
        {
          "components": [
            {
              "internalType": "Currency",
              "name": "currency0",
              "type": "address"
            },
            {
              "internalType": "Currency",
              "name": "currency1",
              "type": "address"
            },
            {
              "internalType": "uint24",
              "name": "fee",
              "type": "uint24"
            },
            {
              "internalType": "int24",
              "name": "tickSpacing",
              "type": "int24"
            },
            {
              "internalType": "contract IHooks",
              "name": "hooks",
              "type": "address"
            }
          ],
          "internalType": "struct IPoolManager.PoolKey",
          "name": "_key",
          "type": "tuple"
        },
        {
          "components": [
            {
              "internalType": "int24",
              "name": "tickLower",
              "type": "int24"
            },
            {
              "internalType": "int24",
              "name": "tickUpper",
              "type": "int24"
            },
            {
              "internalType": "int256",
              "name": "liquidityDelta",
              "type": "int256"
            }
          ],
          "internalType": "struct IPoolManager.ModifyPositionParams",
          "name": "_params",
          "type": "tuple"
        }
      ],
      "name": "setPositionParameters",
      "outputs": [],
      "stateMutability": "nonpayable",
      "type": "function"
    },
    {
      "inputs": [
        {
          "components": [
            {
              "internalType": "Currency",
              "name": "currency0",
              "type": "address"
            },
            {
              "internalType": "Currency",
              "name": "currency1",
              "type": "address"
            },
            {
              "internalType": "uint24",
              "name": "fee",
              "type": "uint24"
            },
            {
              "internalType": "int24",
              "name": "tickSpacing",
              "type": "int24"
            },
            {
              "internalType": "contract IHooks",
              "name": "hooks",
              "type": "address"
            }
          ],
          "internalType": "struct IPoolManager.PoolKey",
          "name": "_key",
          "type": "tuple"
        },
        {
          "components": [
            {
              "internalType": "bool",
              "name": "zeroForOne",
              "type": "bool"
            },
            {
              "internalType": "int256",
              "name": "amountSpecified",
              "type": "int256"
            },
            {
              "internalType": "uint160",
              "name": "sqrtPriceLimitX96",
              "type": "uint160"
            }
          ],
          "internalType": "struct IPoolManager.SwapParams",
          "name": "_params",
          "type": "tuple"
        }
      ],
      "name": "setSwapParameters",
      "outputs": [],
      "stateMutability": "nonpayable",
      "type": "function"
    },
    {
      "inputs": [],
      "name": "swapParams",
      "outputs": [
        {
          "internalType": "bool",
          "name": "zeroForOne",
          "type": "bool"
        },
        {
          "internalType": "int256",
          "name": "amountSpecified",
          "type": "int256"
        },
        {
          "internalType": "uint160",
          "name": "sqrtPriceLimitX96",
          "type": "uint160"
        }
      ],
      "stateMutability": "view",
      "type": "function"
    }
  ],
  "bytecode": "0x608060405234801561001057600080fd5b5060405161165738038061165783398101604081905261002f91610054565b600080546001600160a01b0319166001600160a01b0392909216919091179055610084565b60006020828403121561006657600080fd5b81516001600160a01b038116811461007d57600080fd5b9392505050565b6115c4806100936000396000f3fe608060405234801561001057600080fd5b50600436106100ca5760003560e01c8063d6237a571161007c578063d6237a571461028c578063dc4c90d3146102cd578063e8078d9414610216578063ed88c68e14610216578063f400fde4146102ed578063f59e8d31146102f6578063fcf814c31461030957600080fd5b80631657ab3c146100cf5780633943380c146101765780633c74bf4c146101f6578063599f581014610216578063873d80ec1461021e5780639906d17514610262578063d05de6e314610279575b600080fd5b6101746100dd3660046110bb565b8251600180546001600160a01b03199081166001600160a01b0393841617909155602085015160028054604088015160608901519386166001600160b81b031990921691909117600160a01b62ffffff928316021762ffffff60b81b1916600160b81b9190931602919091179055608090940151600380548616919092161790556009805433941693909317909255600a55600b55565b005b600154600280546003546101b1936001600160a01b03908116938382169362ffffff600160a01b82041693600160b81b90910490910b911685565b604080516001600160a01b039687168152948616602086015262ffffff9093169284019290925260020b606083015291909116608082015260a0015b60405180910390f35b6102096102043660046110ef565b61031c565b6040516101ed91906111bb565b61017461057d565b60065460075460085461023c9260ff1691906001600160a01b031683565b60408051931515845260208401929092526001600160a01b0316908201526060016101ed565b61026b600a5481565b6040519081526020016101ed565b61017461028736600461121d565b6106a1565b6004546005546102aa91600281810b926301000000909204900b9083565b60408051600294850b81529290930b6020830152918101919091526060016101ed565b6000546102e0906001600160a01b031681565b6040516101ed9190611253565b61026b600b5481565b6101746103043660046112c1565b6107a0565b6009546102e0906001600160a01b031681565b606061034c6040518060400160405280600d81526020016c06c6f636b41637175697265643609c1b815250610877565b60008080808061035e878901896112ee565b945094509450945094508360400151600014610448576000805460405163555a473360e01b81526001600160a01b039091169063555a4733906103a7908990899060040161138d565b6020604051808303816000875af11580156103c6573d6000803e3d6000fd5b505050506040513d601f19601f820116820180604052508101906103ea91906113c4565b905061041e604051806040016040528060118152602001706c6f636b4163717569726564206c69713160781b815250610877565b85516104339061042e8360801c90565b6108ba565b610442866020015161042e8390565b50610561565b6020830151156104dc5760008054604051630f140bef60e11b81526001600160a01b0390911690631e2817de9061048590899088906004016113dd565b6020604051808303816000875af11580156104a4573d6000803e3d6000fd5b505050506040513d601f19601f820116820180604052508101906104c891906113c4565b9050610433866000015161042e8360801c90565b811515806104e957508015155b15610523576000805460405163a67dd8f360e01b81526001600160a01b039091169063a67dd8f39061048590899087908790600401611419565b60405162461bcd60e51b815260206004820152600e60248201526d696e76616c696420706172616d7360901b60448201526064015b60405180910390fd5b5050604080516020810190915260008152979650505050505050565b600054600a54600b54604080516001546001600160a01b039081166020830152600280548083168486015260a081811c62ffffff16606086015260b89190911c820b608085015260035483169084015260045480820b60c085015260181c900b60e083015260055461010083015260065460ff16151561012083015260075461014083015260085481166101608301526101808201949094526101a080820193909352815180820390930183526101c0810191829052638154831960e01b909152919092169163815483199161065791906101c4016111bb565b6000604051808303816000875af1158015610676573d6000803e3d6000fd5b505050506040513d6000823e601f3d908101601f1916820160405261069e9190810190611438565b50565b60098054336001600160a01b03199182161790915582516001805483166001600160a01b039283161790556020808501516002805460408089015160608a01519487166001600160b81b031990931692909217600160a01b62ffffff938416021762ffffff60b81b1916600160b81b94831694909402939093179091556080870151600380549096169416939093179093558351600480548684015192851665ffffffffffff19909116176301000000929094169190910292909217909155828201516005558151808301909252601882527703818989898989898989898989898989898989898989898960451b9082015261079c90610877565b5050565b60098054336001600160a01b03199182161790915582516001805483166001600160a01b03928316179055602080850151600280546040808901516060808b01519588166001600160b81b031990941693909317600160a01b62ffffff928316021762ffffff60b81b1916600160b81b919095160293909317909155608087015160038054871691861691909117905585516006805460ff19169115159190911790558583015160075585820151600880549096169416939093179093558251918201909252602780825261079c92611591908301395b61069e8160405160240161088b91906111bb565b60408051601f198184030181529190526020810180516001600160e01b031663104c13eb60e21b179052610c35565b600081600f0b121561095e576000546009546001600160a01b0391821691630b0d9c09918591166108ea856114da565b6040516001600160e01b031960e086901b1681526001600160a01b0393841660048201529290911660248301526001600160801b03166044820152606401600060405180830381600087803b15801561094257600080fd5b505af1158015610956573d6000803e3d6000fd5b505050505050565b6001600160a01b038216610b93576109a4604051806040016040528060178152602001762fb9b2ba3a3632a1bab93932b731bca130b630b731b29960491b815250610877565b6109da6040518060400160405280600b81526020016a19195b1d18505b5bdd5b9d60aa1b815250826001600160801b0316610c3e565b610a066040518060400160405280600a81526020016936b9b39739b2b73232b960b11b81525033610c83565b60408051808201909152600b81526a3837b7b626b0b730b3b2b960a91b6020820152600054610a3e91906001600160a01b0316610c83565b610a6d6040518060400160405280600d81526020016c62616c616e63656f667468697360981b81525047610c3e565b60408051808201909152601281527162616c616e63656f666d796164647265737360701b6020820152600954610aad91906001600160a01b031631610c3e565b610adc6040518060400160405280600d81526020016c616464726573736f667468697360981b81525030610c83565b600054604051636a256b2960e01b81526001600160a01b0390911690636a256b29906001600160801b03841690610b17908690600401611253565b60206040518083038185885af1158015610b35573d6000803e3d6000fd5b50505050506040513d601f19601f82011682018060405250810190610b5a91906113c4565b5061079c604051806040016040528060178152602001765f736574746c6543757272656e637942616c616e63653360481b815250610877565b600954600054610bbd916001600160a01b038581169291811691166001600160801b038516610cc8565b600054604051636a256b2960e01b81526001600160a01b0390911690636a256b2990610bed908590600401611253565b6020604051808303816000875af1158015610c0c573d6000803e3d6000fd5b505050506040513d601f19601f82011682018060405250810190610c3091906113c4565b505050565b61069e81610d28565b61079c8282604051602401610c5492919061150b565b60408051601f198184030181529190526020810180516001600160e01b0316632d839cb360e21b179052610c35565b61079c8282604051602401610c9992919061152d565b60408051601f198184030181529190526020810180516001600160e01b031663319af33360e01b179052610c35565b604080516001600160a01b0385811660248301528416604482015260648082018490528251808303909101815260849091019091526020810180516001600160e01b03166323b872dd60e01b179052610d22908590610d49565b50505050565b60006a636f6e736f6c652e6c6f679050600080835160208501845afa505050565b6000610d9e826040518060400160405280602081526020017f5361666545524332303a206c6f772d6c6576656c2063616c6c206661696c6564815250856001600160a01b0316610e1e9092919063ffffffff16565b9050805160001480610dbf575080806020019051810190610dbf9190611557565b610c305760405162461bcd60e51b815260206004820152602a60248201527f5361666545524332303a204552433230206f7065726174696f6e20646964206e6044820152691bdd081cdd58d8d9595960b21b6064820152608401610558565b6060610e2d8484600085610e35565b949350505050565b606082471015610e965760405162461bcd60e51b815260206004820152602660248201527f416464726573733a20696e73756666696369656e742062616c616e636520666f6044820152651c8818d85b1b60d21b6064820152608401610558565b600080866001600160a01b03168587604051610eb29190611574565b60006040518083038185875af1925050503d8060008114610eef576040519150601f19603f3d011682016040523d82523d6000602084013e610ef4565b606091505b5091509150610f0587838387610f10565b979650505050505050565b60608315610f7f578251600003610f78576001600160a01b0385163b610f785760405162461bcd60e51b815260206004820152601d60248201527f416464726573733a2063616c6c20746f206e6f6e2d636f6e74726163740000006044820152606401610558565b5081610e2d565b610e2d8383815115610f945781518083602001fd5b8060405162461bcd60e51b815260040161055891906111bb565b634e487b7160e01b600052604160045260246000fd5b6040516060810167ffffffffffffffff81118282101715610fe757610fe7610fae565b60405290565b6001600160a01b038116811461069e57600080fd5b8035600281900b811461101457600080fd5b919050565b600060a0828403121561102b57600080fd5b60405160a0810181811067ffffffffffffffff8211171561104e5761104e610fae565b604052905080823561105f81610fed565b8152602083013561106f81610fed565b6020820152604083013562ffffff8116811461108a57600080fd5b604082015261109b60608401611002565b606082015260808301356110ae81610fed565b6080919091015292915050565b600080600060e084860312156110d057600080fd5b6110da8585611019565b9560a0850135955060c0909401359392505050565b60008060006040848603121561110457600080fd5b83359250602084013567ffffffffffffffff8082111561112357600080fd5b818601915086601f83011261113757600080fd5b81358181111561114657600080fd5b87602082850101111561115857600080fd5b6020830194508093505050509250925092565b60005b8381101561118657818101518382015260200161116e565b50506000910152565b600081518084526111a781602086016020860161116b565b601f01601f19169290920160200192915050565b6020815260006111ce602083018461118f565b9392505050565b6000606082840312156111e757600080fd5b6111ef610fc4565b90506111fa82611002565b815261120860208301611002565b60208201526040820135604082015292915050565b600080610100838503121561123157600080fd5b61123b8484611019565b915061124a8460a085016111d5565b90509250929050565b6001600160a01b0391909116815260200190565b801515811461069e57600080fd5b60006060828403121561128757600080fd5b61128f610fc4565b9050813561129c81611267565b81526020828101359082015260408201356112b681610fed565b604082015292915050565b60008061010083850312156112d557600080fd5b6112df8484611019565b915061124a8460a08501611275565b60008060008060006101a0868803121561130757600080fd5b6113118787611019565b94506113208760a088016111d5565b9350611330876101008801611275565b949793965093946101608101359450610180013592915050565b80516001600160a01b03908116835260208083015182169084015260408083015162ffffff169084015260608083015160020b9084015260809182015116910152565b610100810161139c828561134a565b825160020b60a0830152602083015160020b60c0830152604083015160e08301529392505050565b6000602082840312156113d657600080fd5b5051919050565b61010081016113ec828561134a565b8251151560a0830152602083015160c08301526040909201516001600160a01b031660e090910152919050565b60e08101611427828661134a565b60a082019390935260c00152919050565b60006020828403121561144a57600080fd5b815167ffffffffffffffff8082111561146257600080fd5b818401915084601f83011261147657600080fd5b81518181111561148857611488610fae565b604051601f8201601f19908116603f011681019083821181831017156114b0576114b0610fae565b816040528281528760208487010111156114c957600080fd5b610f0583602083016020880161116b565b6000600f82900b6001607f1b810161150257634e487b7160e01b600052601160045260246000fd5b60000392915050565b60408152600061151e604083018561118f565b90508260208301529392505050565b604081526000611540604083018561118f565b905060018060a01b03831660208301529392505050565b60006020828403121561156957600080fd5b81516111ce81611267565b6000825161158681846020870161116b565b919091019291505056fe53776170506172616d7320616e64206b6579323232323232323232323232323232323232323220a164736f6c6343000814000a",
  "linkReferences": {},
  "deployedLinkReferences": {}
}