{
  "_format": "hh-sol-artifact-1",
  "contractName": "Validator",
  "sourceName": "contracts/governance/Validator.sol",
  "abi": [
    {
      "inputs": [
        {
          "internalType": "address",
          "name": "token",
          "type": "address"
        },
        {
          "internalType": "uint256",
          "name": "propositionThreshold",
          "type": "uint256"
        }
      ],
      "stateMutability": "nonpayable",
      "type": "constructor"
    },
    {
      "inputs": [],
      "name": "GT",
      "outputs": [
        {
          "internalType": "contract GovernToken",
          "name": "",
          "type": "address"
        }
      ],
      "stateMutability": "view",
      "type": "function"
    },
    {
      "inputs": [],
      "name": "ONE_HUNDRED_WITH_PRECISION",
      "outputs": [
        {
          "internalType": "uint256",
          "name": "",
          "type": "uint256"
        }
      ],
      "stateMutability": "view",
      "type": "function"
    },
    {
      "inputs": [],
      "name": "PROPOSITION_THRESHOLD",
      "outputs": [
        {
          "internalType": "uint256",
          "name": "",
          "type": "uint256"
        }
      ],
      "stateMutability": "view",
      "type": "function"
    },
    {
      "inputs": [
        {
          "internalType": "contract IGovernance",
          "name": "governance",
          "type": "address"
        },
        {
          "internalType": "uint256",
          "name": "blockNumber",
          "type": "uint256"
        }
      ],
      "name": "getMinimumPowerNeeded",
      "outputs": [
        {
          "internalType": "uint256",
          "name": "",
          "type": "uint256"
        }
      ],
      "stateMutability": "view",
      "type": "function"
    },
    {
      "inputs": [
        {
          "internalType": "contract IGovernance",
          "name": "governance",
          "type": "address"
        },
        {
          "internalType": "address",
          "name": "user",
          "type": "address"
        },
        {
          "internalType": "uint256",
          "name": "blockNumber",
          "type": "uint256"
        }
      ],
      "name": "isPowerEnough",
      "outputs": [
        {
          "internalType": "bool",
          "name": "",
          "type": "bool"
        }
      ],
      "stateMutability": "view",
      "type": "function"
    },
    {
      "inputs": [
        {
          "internalType": "address",
          "name": "governance",
          "type": "address"
        },
        {
          "internalType": "contract IReview",
          "name": "review",
          "type": "address"
        },
        {
          "internalType": "uint256",
          "name": "proposalId",
          "type": "uint256"
        }
      ],
      "name": "isProposalPassed",
      "outputs": [
        {
          "internalType": "bool",
          "name": "",
          "type": "bool"
        }
      ],
      "stateMutability": "view",
      "type": "function"
    },
    {
      "inputs": [
        {
          "internalType": "contract IGovernance",
          "name": "governance",
          "type": "address"
        },
        {
          "internalType": "address",
          "name": "user",
          "type": "address"
        }
      ],
      "name": "validateCreateOfMarket",
      "outputs": [
        {
          "internalType": "bool",
          "name": "",
          "type": "bool"
        }
      ],
      "stateMutability": "view",
      "type": "function"
    },
    {
      "inputs": [
        {
          "internalType": "contract IGovernance",
          "name": "governance",
          "type": "address"
        },
        {
          "internalType": "address",
          "name": "user",
          "type": "address"
        },
        {
          "internalType": "uint256",
          "name": "blockNumber",
          "type": "uint256"
        }
      ],
      "name": "validateCreatorOfProposal",
      "outputs": [
        {
          "internalType": "bool",
          "name": "",
          "type": "bool"
        }
      ],
      "stateMutability": "view",
      "type": "function"
    },
    {
      "inputs": [
        {
          "internalType": "contract IGovernance",
          "name": "governance",
          "type": "address"
        },
        {
          "internalType": "address",
          "name": "user",
          "type": "address"
        },
        {
          "internalType": "uint256",
          "name": "blockNumber",
          "type": "uint256"
        }
      ],
      "name": "validateProposalCancellation",
      "outputs": [
        {
          "internalType": "bool",
          "name": "",
          "type": "bool"
        }
      ],
      "stateMutability": "view",
      "type": "function"
    }
  ],
  "bytecode": "0x60c060405234801561001057600080fd5b5060405161062338038061062383398101604081905261002f91610045565b6001600160a01b0390911660805260a05261007f565b6000806040838503121561005857600080fd5b82516001600160a01b038116811461006f57600080fd5b6020939093015192949293505050565b60805160a05161056a6100b96000396000818161017a015261032f015260008181610128015281816102a60152610350015261056a6000f3fe608060405234801561001057600080fd5b50600436106100a35760003560e01c8063baea0cc411610076578063d0d902981161005b578063d0d9029814610162578063fd58afd414610175578063ffbb0d7b1461019c57600080fd5b8063baea0cc414610110578063c79174551461012357600080fd5b806302f725f0146100a857806307e9f5fc146100d05780631d73fd6d146100e657806331a7bc41146100fd575b600080fd5b6100bb6100b6366004610405565b6101af565b60405190151581526020015b60405180910390f35b6100bb6100de366004610446565b600092915050565b6100ef61271081565b6040519081526020016100c7565b6100bb61010b366004610405565b610245565b6100bb61011e366004610405565b61025b565b61014a7f000000000000000000000000000000000000000000000000000000000000000081565b6040516001600160a01b0390911681526020016100c7565b6100bb610170366004610405565b61031b565b6100ef7f000000000000000000000000000000000000000000000000000000000000000081565b6100ef6101aa36600461047f565b610328565b6040517f06fbb3ab0000000000000000000000000000000000000000000000000000000081526001600160a01b03848116600483015260248201839052600091908416906306fbb3ab90604401602060405180830381865afa158015610219573d6000803e3d6000fd5b505050506040513d601f19601f8201168201806040525081019061023d91906104ab565b949350505050565b600061025284848461025b565b15949350505050565b60006102678483610328565b6040517feaeded5f0000000000000000000000000000000000000000000000000000000081526001600160a01b038581166004830152602482018590527f0000000000000000000000000000000000000000000000000000000000000000169063eaeded5f90604401602060405180830381865afa1580156102ed573d6000803e3d6000fd5b505050506040513d601f19601f8201168201806040525081019061031191906104d4565b1015949350505050565b600061023d84848461025b565b60006127107f00000000000000000000000000000000000000000000000000000000000000007f00000000000000000000000000000000000000000000000000000000000000006001600160a01b03166318160ddd6040518163ffffffff1660e01b8152600401602060405180830381865afa1580156103ac573d6000803e3d6000fd5b505050506040513d601f19601f820116820180604052508101906103d091906104d4565b6103da91906104ed565b6103e49190610512565b90505b92915050565b6001600160a01b038116811461040257600080fd5b50565b60008060006060848603121561041a57600080fd5b8335610425816103ed565b92506020840135610435816103ed565b929592945050506040919091013590565b6000806040838503121561045957600080fd5b8235610464816103ed565b91506020830135610474816103ed565b809150509250929050565b6000806040838503121561049257600080fd5b823561049d816103ed565b946020939093013593505050565b6000602082840312156104bd57600080fd5b815180151581146104cd57600080fd5b9392505050565b6000602082840312156104e657600080fd5b5051919050565b80820281158282048414176103e757634e487b7160e01b600052601160045260246000fd5b60008261052f57634e487b7160e01b600052601260045260246000fd5b50049056fea2646970667358221220f58af1362de1acf99f3548bff49d4e910fa0c289e117f7eafb38a155970d315064736f6c63430008130033",
  "linkReferences": {},
  "deployedLinkReferences": {}
}