{
  "_format": "hh-sol-artifact-1",
  "contractName": "LimitOrder",
  "sourceName": "contracts/LimitOrder.sol",
  "abi": [
    {
      "inputs": [
        {
          "internalType": "contract IPoolManager",
          "name": "_poolManager",
          "type": "address"
        }
      ],
      "stateMutability": "nonpayable",
      "type": "constructor"
    },
    {
      "inputs": [],
      "name": "CrossedRange",
      "type": "error"
    },
    {
      "inputs": [],
      "name": "Filled",
      "type": "error"
    },
    {
      "inputs": [],
      "name": "HookNotImplemented",
      "type": "error"
    },
    {
      "inputs": [],
      "name": "InRange",
      "type": "error"
    },
    {
      "inputs": [],
      "name": "InvalidPool",
      "type": "error"
    },
    {
      "inputs": [],
      "name": "LockFailure",
      "type": "error"
    },
    {
      "inputs": [],
      "name": "NotFilled",
      "type": "error"
    },
    {
      "inputs": [],
      "name": "NotPoolManager",
      "type": "error"
    },
    {
      "inputs": [],
      "name": "NotPoolManagerToken",
      "type": "error"
    },
    {
      "inputs": [],
      "name": "NotSelf",
      "type": "error"
    },
    {
      "inputs": [],
      "name": "ZeroLiquidity",
      "type": "error"
    },
    {
      "anonymous": false,
      "inputs": [
        {
          "indexed": true,
          "internalType": "Epoch",
          "name": "epoch",
          "type": "uint232"
        },
        {
          "components": [
            {
              "internalType": "Currency",
              "name": "currency0",
              "type": "address"
            },
            {
              "internalType": "Currency",
              "name": "currency1",
              "type": "address"
            },
            {
              "internalType": "uint24",
              "name": "fee",
              "type": "uint24"
            },
            {
              "internalType": "int24",
              "name": "tickSpacing",
              "type": "int24"
            },
            {
              "internalType": "contract IHooks",
              "name": "hooks",
              "type": "address"
            }
          ],
          "indexed": false,
          "internalType": "struct IPoolManager.PoolKey",
          "name": "key",
          "type": "tuple"
        },
        {
          "indexed": false,
          "internalType": "int24",
          "name": "tickLower",
          "type": "int24"
        },
        {
          "indexed": false,
          "internalType": "bool",
          "name": "zeroForOne",
          "type": "bool"
        }
      ],
      "name": "Fill",
      "type": "event"
    },
    {
      "anonymous": false,
      "inputs": [
        {
          "indexed": true,
          "internalType": "address",
          "name": "owner",
          "type": "address"
        },
        {
          "indexed": true,
          "internalType": "Epoch",
          "name": "epoch",
          "type": "uint232"
        },
        {
          "components": [
            {
              "internalType": "Currency",
              "name": "currency0",
              "type": "address"
            },
            {
              "internalType": "Currency",
              "name": "currency1",
              "type": "address"
            },
            {
              "internalType": "uint24",
              "name": "fee",
              "type": "uint24"
            },
            {
              "internalType": "int24",
              "name": "tickSpacing",
              "type": "int24"
            },
            {
              "internalType": "contract IHooks",
              "name": "hooks",
              "type": "address"
            }
          ],
          "indexed": false,
          "internalType": "struct IPoolManager.PoolKey",
          "name": "key",
          "type": "tuple"
        },
        {
          "indexed": false,
          "internalType": "int24",
          "name": "tickLower",
          "type": "int24"
        },
        {
          "indexed": false,
          "internalType": "bool",
          "name": "zeroForOne",
          "type": "bool"
        },
        {
          "indexed": false,
          "internalType": "uint128",
          "name": "liquidity",
          "type": "uint128"
        }
      ],
      "name": "Kill",
      "type": "event"
    },
    {
      "anonymous": false,
      "inputs": [
        {
          "indexed": true,
          "internalType": "address",
          "name": "owner",
          "type": "address"
        },
        {
          "indexed": true,
          "internalType": "Epoch",
          "name": "epoch",
          "type": "uint232"
        },
        {
          "components": [
            {
              "internalType": "Currency",
              "name": "currency0",
              "type": "address"
            },
            {
              "internalType": "Currency",
              "name": "currency1",
              "type": "address"
            },
            {
              "internalType": "uint24",
              "name": "fee",
              "type": "uint24"
            },
            {
              "internalType": "int24",
              "name": "tickSpacing",
              "type": "int24"
            },
            {
              "internalType": "contract IHooks",
              "name": "hooks",
              "type": "address"
            }
          ],
          "indexed": false,
          "internalType": "struct IPoolManager.PoolKey",
          "name": "key",
          "type": "tuple"
        },
        {
          "indexed": false,
          "internalType": "int24",
          "name": "tickLower",
          "type": "int24"
        },
        {
          "indexed": false,
          "internalType": "bool",
          "name": "zeroForOne",
          "type": "bool"
        },
        {
          "indexed": false,
          "internalType": "uint128",
          "name": "liquidity",
          "type": "uint128"
        }
      ],
      "name": "Place",
      "type": "event"
    },
    {
      "anonymous": false,
      "inputs": [
        {
          "indexed": true,
          "internalType": "address",
          "name": "owner",
          "type": "address"
        },
        {
          "indexed": true,
          "internalType": "Epoch",
          "name": "epoch",
          "type": "uint232"
        },
        {
          "indexed": false,
          "internalType": "uint128",
          "name": "liquidity",
          "type": "uint128"
        }
      ],
      "name": "Withdraw",
      "type": "event"
    },
    {
      "inputs": [
        {
          "internalType": "address",
          "name": "",
          "type": "address"
        },
        {
          "components": [
            {
              "internalType": "Currency",
              "name": "currency0",
              "type": "address"
            },
            {
              "internalType": "Currency",
              "name": "currency1",
              "type": "address"
            },
            {
              "internalType": "uint24",
              "name": "fee",
              "type": "uint24"
            },
            {
              "internalType": "int24",
              "name": "tickSpacing",
              "type": "int24"
            },
            {
              "internalType": "contract IHooks",
              "name": "hooks",
              "type": "address"
            }
          ],
          "internalType": "struct IPoolManager.PoolKey",
          "name": "",
          "type": "tuple"
        },
        {
          "internalType": "uint256",
          "name": "",
          "type": "uint256"
        },
        {
          "internalType": "uint256",
          "name": "",
          "type": "uint256"
        }
      ],
      "name": "afterDonate",
      "outputs": [
        {
          "internalType": "bytes4",
          "name": "",
          "type": "bytes4"
        }
      ],
      "stateMutability": "nonpayable",
      "type": "function"
    },
    {
      "inputs": [
        {
          "internalType": "address",
          "name": "",
          "type": "address"
        },
        {
          "components": [
            {
              "internalType": "Currency",
              "name": "currency0",
              "type": "address"
            },
            {
              "internalType": "Currency",
              "name": "currency1",
              "type": "address"
            },
            {
              "internalType": "uint24",
              "name": "fee",
              "type": "uint24"
            },
            {
              "internalType": "int24",
              "name": "tickSpacing",
              "type": "int24"
            },
            {
              "internalType": "contract IHooks",
              "name": "hooks",
              "type": "address"
            }
          ],
          "internalType": "struct IPoolManager.PoolKey",
          "name": "key",
          "type": "tuple"
        },
        {
          "internalType": "uint160",
          "name": "",
          "type": "uint160"
        },
        {
          "internalType": "int24",
          "name": "tick",
          "type": "int24"
        }
      ],
      "name": "afterInitialize",
      "outputs": [
        {
          "internalType": "bytes4",
          "name": "",
          "type": "bytes4"
        }
      ],
      "stateMutability": "nonpayable",
      "type": "function"
    },
    {
      "inputs": [
        {
          "internalType": "address",
          "name": "",
          "type": "address"
        },
        {
          "components": [
            {
              "internalType": "Currency",
              "name": "currency0",
              "type": "address"
            },
            {
              "internalType": "Currency",
              "name": "currency1",
              "type": "address"
            },
            {
              "internalType": "uint24",
              "name": "fee",
              "type": "uint24"
            },
            {
              "internalType": "int24",
              "name": "tickSpacing",
              "type": "int24"
            },
            {
              "internalType": "contract IHooks",
              "name": "hooks",
              "type": "address"
            }
          ],
          "internalType": "struct IPoolManager.PoolKey",
          "name": "",
          "type": "tuple"
        },
        {
          "components": [
            {
              "internalType": "int24",
              "name": "tickLower",
              "type": "int24"
            },
            {
              "internalType": "int24",
              "name": "tickUpper",
              "type": "int24"
            },
            {
              "internalType": "int256",
              "name": "liquidityDelta",
              "type": "int256"
            }
          ],
          "internalType": "struct IPoolManager.ModifyPositionParams",
          "name": "",
          "type": "tuple"
        },
        {
          "internalType": "BalanceDelta",
          "name": "",
          "type": "int256"
        }
      ],
      "name": "afterModifyPosition",
      "outputs": [
        {
          "internalType": "bytes4",
          "name": "",
          "type": "bytes4"
        }
      ],
      "stateMutability": "nonpayable",
      "type": "function"
    },
    {
      "inputs": [
        {
          "internalType": "address",
          "name": "",
          "type": "address"
        },
        {
          "components": [
            {
              "internalType": "Currency",
              "name": "currency0",
              "type": "address"
            },
            {
              "internalType": "Currency",
              "name": "currency1",
              "type": "address"
            },
            {
              "internalType": "uint24",
              "name": "fee",
              "type": "uint24"
            },
            {
              "internalType": "int24",
              "name": "tickSpacing",
              "type": "int24"
            },
            {
              "internalType": "contract IHooks",
              "name": "hooks",
              "type": "address"
            }
          ],
          "internalType": "struct IPoolManager.PoolKey",
          "name": "key",
          "type": "tuple"
        },
        {
          "components": [
            {
              "internalType": "bool",
              "name": "zeroForOne",
              "type": "bool"
            },
            {
              "internalType": "int256",
              "name": "amountSpecified",
              "type": "int256"
            },
            {
              "internalType": "uint160",
              "name": "sqrtPriceLimitX96",
              "type": "uint160"
            }
          ],
          "internalType": "struct IPoolManager.SwapParams",
          "name": "params",
          "type": "tuple"
        },
        {
          "internalType": "BalanceDelta",
          "name": "",
          "type": "int256"
        }
      ],
      "name": "afterSwap",
      "outputs": [
        {
          "internalType": "bytes4",
          "name": "",
          "type": "bytes4"
        }
      ],
      "stateMutability": "nonpayable",
      "type": "function"
    },
    {
      "inputs": [
        {
          "internalType": "address",
          "name": "",
          "type": "address"
        },
        {
          "components": [
            {
              "internalType": "Currency",
              "name": "currency0",
              "type": "address"
            },
            {
              "internalType": "Currency",
              "name": "currency1",
              "type": "address"
            },
            {
              "internalType": "uint24",
              "name": "fee",
              "type": "uint24"
            },
            {
              "internalType": "int24",
              "name": "tickSpacing",
              "type": "int24"
            },
            {
              "internalType": "contract IHooks",
              "name": "hooks",
              "type": "address"
            }
          ],
          "internalType": "struct IPoolManager.PoolKey",
          "name": "",
          "type": "tuple"
        },
        {
          "internalType": "uint256",
          "name": "",
          "type": "uint256"
        },
        {
          "internalType": "uint256",
          "name": "",
          "type": "uint256"
        }
      ],
      "name": "beforeDonate",
      "outputs": [
        {
          "internalType": "bytes4",
          "name": "",
          "type": "bytes4"
        }
      ],
      "stateMutability": "nonpayable",
      "type": "function"
    },
    {
      "inputs": [
        {
          "internalType": "address",
          "name": "",
          "type": "address"
        },
        {
          "components": [
            {
              "internalType": "Currency",
              "name": "currency0",
              "type": "address"
            },
            {
              "internalType": "Currency",
              "name": "currency1",
              "type": "address"
            },
            {
              "internalType": "uint24",
              "name": "fee",
              "type": "uint24"
            },
            {
              "internalType": "int24",
              "name": "tickSpacing",
              "type": "int24"
            },
            {
              "internalType": "contract IHooks",
              "name": "hooks",
              "type": "address"
            }
          ],
          "internalType": "struct IPoolManager.PoolKey",
          "name": "",
          "type": "tuple"
        },
        {
          "internalType": "uint160",
          "name": "",
          "type": "uint160"
        }
      ],
      "name": "beforeInitialize",
      "outputs": [
        {
          "internalType": "bytes4",
          "name": "",
          "type": "bytes4"
        }
      ],
      "stateMutability": "nonpayable",
      "type": "function"
    },
    {
      "inputs": [
        {
          "internalType": "address",
          "name": "",
          "type": "address"
        },
        {
          "components": [
            {
              "internalType": "Currency",
              "name": "currency0",
              "type": "address"
            },
            {
              "internalType": "Currency",
              "name": "currency1",
              "type": "address"
            },
            {
              "internalType": "uint24",
              "name": "fee",
              "type": "uint24"
            },
            {
              "internalType": "int24",
              "name": "tickSpacing",
              "type": "int24"
            },
            {
              "internalType": "contract IHooks",
              "name": "hooks",
              "type": "address"
            }
          ],
          "internalType": "struct IPoolManager.PoolKey",
          "name": "",
          "type": "tuple"
        },
        {
          "components": [
            {
              "internalType": "int24",
              "name": "tickLower",
              "type": "int24"
            },
            {
              "internalType": "int24",
              "name": "tickUpper",
              "type": "int24"
            },
            {
              "internalType": "int256",
              "name": "liquidityDelta",
              "type": "int256"
            }
          ],
          "internalType": "struct IPoolManager.ModifyPositionParams",
          "name": "",
          "type": "tuple"
        }
      ],
      "name": "beforeModifyPosition",
      "outputs": [
        {
          "internalType": "bytes4",
          "name": "",
          "type": "bytes4"
        }
      ],
      "stateMutability": "nonpayable",
      "type": "function"
    },
    {
      "inputs": [
        {
          "internalType": "address",
          "name": "",
          "type": "address"
        },
        {
          "components": [
            {
              "internalType": "Currency",
              "name": "currency0",
              "type": "address"
            },
            {
              "internalType": "Currency",
              "name": "currency1",
              "type": "address"
            },
            {
              "internalType": "uint24",
              "name": "fee",
              "type": "uint24"
            },
            {
              "internalType": "int24",
              "name": "tickSpacing",
              "type": "int24"
            },
            {
              "internalType": "contract IHooks",
              "name": "hooks",
              "type": "address"
            }
          ],
          "internalType": "struct IPoolManager.PoolKey",
          "name": "",
          "type": "tuple"
        },
        {
          "components": [
            {
              "internalType": "bool",
              "name": "zeroForOne",
              "type": "bool"
            },
            {
              "internalType": "int256",
              "name": "amountSpecified",
              "type": "int256"
            },
            {
              "internalType": "uint160",
              "name": "sqrtPriceLimitX96",
              "type": "uint160"
            }
          ],
          "internalType": "struct IPoolManager.SwapParams",
          "name": "",
          "type": "tuple"
        }
      ],
      "name": "beforeSwap",
      "outputs": [
        {
          "internalType": "bytes4",
          "name": "",
          "type": "bytes4"
        }
      ],
      "stateMutability": "nonpayable",
      "type": "function"
    },
    {
      "inputs": [
        {
          "internalType": "Epoch",
          "name": "",
          "type": "uint232"
        }
      ],
      "name": "epochInfos",
      "outputs": [
        {
          "internalType": "bool",
          "name": "filled",
          "type": "bool"
        },
        {
          "internalType": "Currency",
          "name": "currency0",
          "type": "address"
        },
        {
          "internalType": "Currency",
          "name": "currency1",
          "type": "address"
        },
        {
          "internalType": "uint256",
          "name": "token0Total",
          "type": "uint256"
        },
        {
          "internalType": "uint256",
          "name": "token1Total",
          "type": "uint256"
        },
        {
          "internalType": "uint128",
          "name": "liquidityTotal",
          "type": "uint128"
        }
      ],
      "stateMutability": "view",
      "type": "function"
    },
    {
      "inputs": [],
      "name": "epochNext",
      "outputs": [
        {
          "internalType": "Epoch",
          "name": "",
          "type": "uint232"
        }
      ],
      "stateMutability": "view",
      "type": "function"
    },
    {
      "inputs": [
        {
          "internalType": "bytes32",
          "name": "",
          "type": "bytes32"
        }
      ],
      "name": "epochs",
      "outputs": [
        {
          "internalType": "Epoch",
          "name": "",
          "type": "uint232"
        }
      ],
      "stateMutability": "view",
      "type": "function"
    },
    {
      "inputs": [
        {
          "components": [
            {
              "internalType": "Currency",
              "name": "currency0",
              "type": "address"
            },
            {
              "internalType": "Currency",
              "name": "currency1",
              "type": "address"
            },
            {
              "internalType": "uint24",
              "name": "fee",
              "type": "uint24"
            },
            {
              "internalType": "int24",
              "name": "tickSpacing",
              "type": "int24"
            },
            {
              "internalType": "contract IHooks",
              "name": "hooks",
              "type": "address"
            }
          ],
          "internalType": "struct IPoolManager.PoolKey",
          "name": "key",
          "type": "tuple"
        },
        {
          "internalType": "int24",
          "name": "tickLower",
          "type": "int24"
        },
        {
          "internalType": "bool",
          "name": "zeroForOne",
          "type": "bool"
        }
      ],
      "name": "getEpoch",
      "outputs": [
        {
          "internalType": "Epoch",
          "name": "",
          "type": "uint232"
        }
      ],
      "stateMutability": "view",
      "type": "function"
    },
    {
      "inputs": [
        {
          "internalType": "Epoch",
          "name": "epoch",
          "type": "uint232"
        },
        {
          "internalType": "address",
          "name": "owner",
          "type": "address"
        }
      ],
      "name": "getEpochLiquidity",
      "outputs": [
        {
          "internalType": "uint256",
          "name": "",
          "type": "uint256"
        }
      ],
      "stateMutability": "view",
      "type": "function"
    },
    {
      "inputs": [],
      "name": "getHooksCalls",
      "outputs": [
        {
          "components": [
            {
              "internalType": "bool",
              "name": "beforeInitialize",
              "type": "bool"
            },
            {
              "internalType": "bool",
              "name": "afterInitialize",
              "type": "bool"
            },
            {
              "internalType": "bool",
              "name": "beforeModifyPosition",
              "type": "bool"
            },
            {
              "internalType": "bool",
              "name": "afterModifyPosition",
              "type": "bool"
            },
            {
              "internalType": "bool",
              "name": "beforeSwap",
              "type": "bool"
            },
            {
              "internalType": "bool",
              "name": "afterSwap",
              "type": "bool"
            },
            {
              "internalType": "bool",
              "name": "beforeDonate",
              "type": "bool"
            },
            {
              "internalType": "bool",
              "name": "afterDonate",
              "type": "bool"
            }
          ],
          "internalType": "struct Hooks.Calls",
          "name": "",
          "type": "tuple"
        }
      ],
      "stateMutability": "pure",
      "type": "function"
    },
    {
      "inputs": [
        {
          "internalType": "PoolId",
          "name": "poolId",
          "type": "bytes32"
        }
      ],
      "name": "getTickLowerLast",
      "outputs": [
        {
          "internalType": "int24",
          "name": "",
          "type": "int24"
        }
      ],
      "stateMutability": "view",
      "type": "function"
    },
    {
      "inputs": [
        {
          "components": [
            {
              "internalType": "Currency",
              "name": "currency0",
              "type": "address"
            },
            {
              "internalType": "Currency",
              "name": "currency1",
              "type": "address"
            },
            {
              "internalType": "uint24",
              "name": "fee",
              "type": "uint24"
            },
            {
              "internalType": "int24",
              "name": "tickSpacing",
              "type": "int24"
            },
            {
              "internalType": "contract IHooks",
              "name": "hooks",
              "type": "address"
            }
          ],
          "internalType": "struct IPoolManager.PoolKey",
          "name": "key",
          "type": "tuple"
        },
        {
          "internalType": "int24",
          "name": "tickLower",
          "type": "int24"
        },
        {
          "internalType": "bool",
          "name": "zeroForOne",
          "type": "bool"
        },
        {
          "internalType": "address",
          "name": "to",
          "type": "address"
        }
      ],
      "name": "kill",
      "outputs": [
        {
          "internalType": "uint256",
          "name": "amount0",
          "type": "uint256"
        },
        {
          "internalType": "uint256",
          "name": "amount1",
          "type": "uint256"
        }
      ],
      "stateMutability": "nonpayable",
      "type": "function"
    },
    {
      "inputs": [
        {
          "internalType": "uint256",
          "name": "",
          "type": "uint256"
        },
        {
          "internalType": "bytes",
          "name": "data",
          "type": "bytes"
        }
      ],
      "name": "lockAcquired",
      "outputs": [
        {
          "internalType": "bytes",
          "name": "",
          "type": "bytes"
        }
      ],
      "stateMutability": "nonpayable",
      "type": "function"
    },
    {
      "inputs": [
        {
          "components": [
            {
              "internalType": "Currency",
              "name": "currency0",
              "type": "address"
            },
            {
              "internalType": "Currency",
              "name": "currency1",
              "type": "address"
            },
            {
              "internalType": "uint24",
              "name": "fee",
              "type": "uint24"
            },
            {
              "internalType": "int24",
              "name": "tickSpacing",
              "type": "int24"
            },
            {
              "internalType": "contract IHooks",
              "name": "hooks",
              "type": "address"
            }
          ],
          "internalType": "struct IPoolManager.PoolKey",
          "name": "key",
          "type": "tuple"
        },
        {
          "internalType": "int24",
          "name": "tickLower",
          "type": "int24"
        },
        {
          "internalType": "int256",
          "name": "liquidityDelta",
          "type": "int256"
        }
      ],
      "name": "lockAcquiredFill",
      "outputs": [
        {
          "internalType": "uint128",
          "name": "amount0",
          "type": "uint128"
        },
        {
          "internalType": "uint128",
          "name": "amount1",
          "type": "uint128"
        }
      ],
      "stateMutability": "nonpayable",
      "type": "function"
    },
    {
      "inputs": [
        {
          "components": [
            {
              "internalType": "Currency",
              "name": "currency0",
              "type": "address"
            },
            {
              "internalType": "Currency",
              "name": "currency1",
              "type": "address"
            },
            {
              "internalType": "uint24",
              "name": "fee",
              "type": "uint24"
            },
            {
              "internalType": "int24",
              "name": "tickSpacing",
              "type": "int24"
            },
            {
              "internalType": "contract IHooks",
              "name": "hooks",
              "type": "address"
            }
          ],
          "internalType": "struct IPoolManager.PoolKey",
          "name": "key",
          "type": "tuple"
        },
        {
          "internalType": "int24",
          "name": "tickLower",
          "type": "int24"
        },
        {
          "internalType": "int256",
          "name": "liquidityDelta",
          "type": "int256"
        },
        {
          "internalType": "address",
          "name": "to",
          "type": "address"
        },
        {
          "internalType": "bool",
          "name": "removingAllLiquidity",
          "type": "bool"
        }
      ],
      "name": "lockAcquiredKill",
      "outputs": [
        {
          "internalType": "uint256",
          "name": "amount0",
          "type": "uint256"
        },
        {
          "internalType": "uint256",
          "name": "amount1",
          "type": "uint256"
        },
        {
          "internalType": "uint128",
          "name": "amount0Fee",
          "type": "uint128"
        },
        {
          "internalType": "uint128",
          "name": "amount1Fee",
          "type": "uint128"
        }
      ],
      "stateMutability": "nonpayable",
      "type": "function"
    },
    {
      "inputs": [
        {
          "components": [
            {
              "internalType": "Currency",
              "name": "currency0",
              "type": "address"
            },
            {
              "internalType": "Currency",
              "name": "currency1",
              "type": "address"
            },
            {
              "internalType": "uint24",
              "name": "fee",
              "type": "uint24"
            },
            {
              "internalType": "int24",
              "name": "tickSpacing",
              "type": "int24"
            },
            {
              "internalType": "contract IHooks",
              "name": "hooks",
              "type": "address"
            }
          ],
          "internalType": "struct IPoolManager.PoolKey",
          "name": "key",
          "type": "tuple"
        },
        {
          "internalType": "int24",
          "name": "tickLower",
          "type": "int24"
        },
        {
          "internalType": "bool",
          "name": "zeroForOne",
          "type": "bool"
        },
        {
          "internalType": "int256",
          "name": "liquidityDelta",
          "type": "int256"
        },
        {
          "internalType": "address",
          "name": "owner",
          "type": "address"
        }
      ],
      "name": "lockAcquiredPlace",
      "outputs": [],
      "stateMutability": "nonpayable",
      "type": "function"
    },
    {
      "inputs": [
        {
          "internalType": "Currency",
          "name": "currency0",
          "type": "address"
        },
        {
          "internalType": "Currency",
          "name": "currency1",
          "type": "address"
        },
        {
          "internalType": "uint256",
          "name": "token0Amount",
          "type": "uint256"
        },
        {
          "internalType": "uint256",
          "name": "token1Amount",
          "type": "uint256"
        },
        {
          "internalType": "address",
          "name": "to",
          "type": "address"
        }
      ],
      "name": "lockAcquiredWithdraw",
      "outputs": [],
      "stateMutability": "nonpayable",
      "type": "function"
    },
    {
      "inputs": [
        {
          "internalType": "address",
          "name": "",
          "type": "address"
        },
        {
          "internalType": "address",
          "name": "",
          "type": "address"
        },
        {
          "internalType": "uint256",
          "name": "",
          "type": "uint256"
        },
        {
          "internalType": "uint256",
          "name": "",
          "type": "uint256"
        },
        {
          "internalType": "bytes",
          "name": "",
          "type": "bytes"
        }
      ],
      "name": "onERC1155Received",
      "outputs": [
        {
          "internalType": "bytes4",
          "name": "",
          "type": "bytes4"
        }
      ],
      "stateMutability": "view",
      "type": "function"
    },
    {
      "inputs": [
        {
          "components": [
            {
              "internalType": "Currency",
              "name": "currency0",
              "type": "address"
            },
            {
              "internalType": "Currency",
              "name": "currency1",
              "type": "address"
            },
            {
              "internalType": "uint24",
              "name": "fee",
              "type": "uint24"
            },
            {
              "internalType": "int24",
              "name": "tickSpacing",
              "type": "int24"
            },
            {
              "internalType": "contract IHooks",
              "name": "hooks",
              "type": "address"
            }
          ],
          "internalType": "struct IPoolManager.PoolKey",
          "name": "key",
          "type": "tuple"
        },
        {
          "internalType": "int24",
          "name": "tickLower",
          "type": "int24"
        },
        {
          "internalType": "bool",
          "name": "zeroForOne",
          "type": "bool"
        },
        {
          "internalType": "uint128",
          "name": "liquidity",
          "type": "uint128"
        }
      ],
      "name": "place",
      "outputs": [],
      "stateMutability": "nonpayable",
      "type": "function"
    },
    {
      "inputs": [],
      "name": "poolManager",
      "outputs": [
        {
          "internalType": "contract IPoolManager",
          "name": "",
          "type": "address"
        }
      ],
      "stateMutability": "view",
      "type": "function"
    },
    {
      "inputs": [
        {
          "internalType": "PoolId",
          "name": "",
          "type": "bytes32"
        }
      ],
      "name": "tickLowerLasts",
      "outputs": [
        {
          "internalType": "int24",
          "name": "",
          "type": "int24"
        }
      ],
      "stateMutability": "view",
      "type": "function"
    },
    {
      "inputs": [
        {
          "internalType": "Epoch",
          "name": "epoch",
          "type": "uint232"
        },
        {
          "internalType": "address",
          "name": "to",
          "type": "address"
        }
      ],
      "name": "withdraw",
      "outputs": [
        {
          "internalType": "uint256",
          "name": "amount0",
          "type": "uint256"
        },
        {
          "internalType": "uint256",
          "name": "amount1",
          "type": "uint256"
        }
      ],
      "stateMutability": "nonpayable",
      "type": "function"
    }
  ],
  "bytecode": "0x60a0604052600180546001600160e81b031916811790553480156200002357600080fd5b50604051620033b7380380620033b7833981016040819052620000469162000058565b6001600160a01b03166080526200008a565b6000602082840312156200006b57600080fd5b81516001600160a01b03811681146200008357600080fd5b9392505050565b608051613254620001636000396000818161054e0152818161064d015281816106e6015281816107960152818161082f015281816108ff015281816109b801528181610a9701528181610b2301528181610ba601528181610c3201528181610cb401528181610e8b01528181611060015281816111a00152818161123e01528181611340015281816113d50152818161149a0152818161158601528181611636015281816116df015281816119d201528181611ab001528181611c0401528181611e53015281816120f701526123bf01526132546000f3fe608060405234801561001057600080fd5b506004361061016d5760003560e01c8063624f723c116100ce578063a5aa370a11610087578063a5aa370a146104e3578063b3f97f80146104f6578063c53b81aa14610513578063cb37d85114610536578063dc4c90d314610549578063dc98354e1461057d578063f23a6e611461059a57600080fd5b8063624f723c146103b25780636fe7e6eb146104535780637d9248a814610466578063977e65aa146104795780639b9da8241461049a578063a23c0c34146104d057600080fd5b80633c74bf4c1161012b5780633c74bf4c1461026157806343c4407e146102815780634907c68e1461029f5780634dbb99a6146102c75780635aaff517146102e5578063612c39b7146102f8578063622b76ae1461037f57600080fd5b80622f79f6146101725780630dbe5dbd146101b85780630e2059f5146101e4578063323b5ae7146101f757806334eb07421461020a578063365df6b31461024c575b600080fd5b61019b61018036600461245f565b6002602052600090815260409020546001600160e81b031681565b6040516001600160e81b0390911681526020015b60405180910390f35b6101cb6101c63660046124b7565b6105ad565b6040516001600160e01b031990911681526020016101af565b6101cb6101f23660046124ff565b6105bd565b60015461019b906001600160e81b031681565b61021d61021836600461256d565b6105ce565b6040805194855260208501939093526001600160801b03918216928401929092521660608201526080016101af565b61025f61025a3660046125d6565b610a62565b005b61027461026f366004612670565b610ca7565b6040516101af919061270c565b6101cb61028f36600461271f565b6321e2203f60e11b949350505050565b6102b26102ad366004612765565b610d8f565b604080519283526020830191909152016101af565b6101cb6102d536600461271f565b6326ddccd360e11b949350505050565b61025f6102f33660046127c1565b61103c565b604080516101008082018352600080835260208084018290528385018290526060808501839052608080860184905260a080870185905260c080880186905260e09788018690528851968701895285875260019487018590529786018590529185018490528401839052830152928101839052908101919091526040516101af919061281c565b61039261038d3660046128a5565b611473565b604080516001600160801b039384168152929091166020830152016101af565b61040f6103c0366004612901565b60036020819052600091825260409091208054600182015460028301549383015460049093015460ff8316946101009093046001600160a01b039081169492169291906001600160801b031686565b6040805196151587526001600160a01b0395861660208801529390941692850192909252606084015260808301526001600160801b031660a082015260c0016101af565b6101cb61046136600461291c565b6116d2565b61019b610474366004612a30565b611796565b61048c610487366004612a7a565b6117e8565b6040519081526020016101af565b6104bd6104a836600461245f565b60009081526020819052604090205460020b90565b60405160029190910b81526020016101af565b6102b26104de366004612a7a565b611828565b6101cb6104f13660046124ff565b611aa3565b6101cb6105043660046124b7565b630167f2ff60e71b9392505050565b6104bd61052136600461245f565b60006020819052908152604090205460020b81565b61025f610544366004612ab1565b611def565b6105707f000000000000000000000000000000000000000000000000000000000000000081565b6040516101af9190612b0e565b6101cb61058b366004612b22565b636e4c1aa760e11b9392505050565b6101cb6105a8366004612b61565b6120ea565b630dbe5dbd60e01b5b9392505050565b630e2059f560e01b5b949350505050565b60008080803330146105f3576040516314e1dbf760e11b815260040160405180910390fd5b600061060560808b0160608c01612bdd565b61060f908a612c10565b90508561082b576040805160608101825260028b810b825283900b60208201526000818301819052915163555a473360e01b81526001600160a01b037f0000000000000000000000000000000000000000000000000000000000000000169163555a473391610682918f91600401612cb1565b6020604051808303816000875af11580156106a1573d6000803e3d6000fd5b505050506040513d601f19601f820116820180604052508101906106c59190612ce8565b905060006106d38260801c90565b600f0b1215610780576001600160a01b037f00000000000000000000000000000000000000000000000000000000000000001663c6c3bbe661071860208e018e612d01565b306107238560801c90565b61072c90612d1e565b9750876040518463ffffffff1660e01b815260040161074d93929190612d41565b600060405180830381600087803b15801561076757600080fd5b505af115801561077b573d6000803e3d6000fd5b505050505b600081600f0b1215610829576001600160a01b037f00000000000000000000000000000000000000000000000000000000000000001663c6c3bbe66107cb60408e0160208f01612d01565b306107d585612d1e565b9650866040518463ffffffff1660e01b81526004016107f693929190612d41565b600060405180830381600087803b15801561081057600080fd5b505af1158015610824573d6000803e3d6000fd5b505050505b505b60007f00000000000000000000000000000000000000000000000000000000000000006001600160a01b031663555a47338c60405180606001604052808e60020b81526020018660020b81526020018d8152506040518363ffffffff1660e01b815260040161089b929190612cb1565b6020604051808303816000875af11580156108ba573d6000803e3d6000fd5b505050506040513d601f19601f820116820180604052508101906108de9190612ce8565b905060006108ec8260801c90565b600f0b12156109a2576001600160a01b037f000000000000000000000000000000000000000000000000000000000000000016630b0d9c0961093160208e018e612d01565b8a61093c8560801c90565b61094590612d1e565b6001600160801b03169950896040518463ffffffff1660e01b815260040161096f93929190612d6d565b600060405180830381600087803b15801561098957600080fd5b505af115801561099d573d6000803e3d6000fd5b505050505b600081600f0b1215610a54576001600160a01b037f000000000000000000000000000000000000000000000000000000000000000016630b0d9c096109ed60408e0160208f01612d01565b8a6109f785612d1e565b6001600160801b03169850886040518463ffffffff1660e01b8152600401610a2193929190612d6d565b600060405180830381600087803b158015610a3b57600080fd5b505af1158015610a4f573d6000803e3d6000fd5b505050505b505095509550955095915050565b333014610a82576040516314e1dbf760e11b815260040160405180910390fd5b8215610b9157604051637921219560e11b81527f00000000000000000000000000000000000000000000000000000000000000006001600160a01b038181169263f242432a92610adc923092908b16908990600401612d91565b600060405180830381600087803b158015610af657600080fd5b505af1158015610b0a573d6000803e3d6000fd5b5050604051630b0d9c0960e01b81526001600160a01b037f0000000000000000000000000000000000000000000000000000000000000000169250630b0d9c099150610b5e90889085908890600401612d6d565b600060405180830381600087803b158015610b7857600080fd5b505af1158015610b8c573d6000803e3d6000fd5b505050505b8115610ca057604051637921219560e11b81527f00000000000000000000000000000000000000000000000000000000000000006001600160a01b038181169263f242432a92610beb923092908a16908890600401612d91565b600060405180830381600087803b158015610c0557600080fd5b505af1158015610c19573d6000803e3d6000fd5b5050604051630b0d9c0960e01b81526001600160a01b037f0000000000000000000000000000000000000000000000000000000000000000169250630b0d9c099150610c6d90879085908790600401612d6d565b600060405180830381600087803b158015610c8757600080fd5b505af1158015610c9b573d6000803e3d6000fd5b505050505b5050505050565b6060336001600160a01b037f00000000000000000000000000000000000000000000000000000000000000001614610cf25760405163570c108560e11b815260040160405180910390fd5b600080306001600160a01b03168585604051610d0f929190612dc9565b6000604051808303816000865af19150503d8060008114610d4c576040519150601f19603f3d011682016040523d82523d6000602084013e610d51565b606091505b50915091508115610d655791506105b69050565b8051600003610d87576040516314815f4760e31b815260040160405180910390fd5b805160208201fd5b60008080610dac610da536899003890189612dd9565b8787611796565b6001600160e81b038116600090815260036020526040902080549192509060ff1615610deb5760405163413e917360e11b815260040160405180910390fd5b3360009081526005820160205260408120546001600160801b031690819003610e2757604051630200e8a960e31b815260040160405180910390fd5b336000908152600583016020526040902080546001600160801b031916905560048201546001600160801b0316610e5e8282612df5565b8360040160006101000a8154816001600160801b0302191690836001600160801b031602179055506000807f00000000000000000000000000000000000000000000000000000000000000006001600160a01b03166381548319306001600160a01b03166334eb07428f8f896001600160801b0316610edc90612e15565b8f8a6001600160801b03168c6001600160801b031614604051602401610f06959493929190612e31565b60408051808303601f1901815291815260208201805160e094851b6001600160e01b03909116179052519184901b6001600160e01b0319168252610f4e92509060040161270c565b6000604051808303816000875af1158015610f6d573d6000803e3d6000fd5b505050506040513d6000823e601f3d908101601f19168201604052610f959190810190612e72565b806020019051810190610fa89190612f1f565b809450819550829a50839b5050505050818560020160008282540192505081905550808560030160008282540192505081905550856001600160e81b0316336001600160a01b03167f1fcdf3a63cf3db59982665c5a85b5b5d46a623a9216a89da970cbad511ff02358e8e8e896040516110259493929190612f55565b60405180910390a350505050505094509492505050565b33301461105c576040516314e1dbf760e11b815260040160405180910390fd5b60007f00000000000000000000000000000000000000000000000000000000000000006001600160a01b031663555a47338760405180606001604052808960020b81526020018a60600160208101906110b59190612bdd565b6110bf908b612c10565b60020b8152602001878152506040518363ffffffff1660e01b81526004016110e8929190612cb1565b6020604051808303816000875af1158015611107573d6000803e3d6000fd5b505050506040513d601f19601f8201168201806040525081019061112b9190612ce8565b905060006111398260801c90565b600f0b13156112d55780600f0b15611164576040516323ac68e760e01b815260040160405180910390fd5b836111825760405163b319920d60e01b815260040160405180910390fd5b61118f6020870187612d01565b6001600160a01b03166323b872dd837f00000000000000000000000000000000000000000000000000000000000000006111c98560801c90565b6001600160801b03166040518463ffffffff1660e01b81526004016111f093929190612d6d565b6020604051808303816000875af115801561120f573d6000803e3d6000fd5b505050506040513d601f19601f820116820180604052508101906112339190612f8b565b506001600160a01b037f000000000000000000000000000000000000000000000000000000000000000016636a256b296112706020890189612d01565b6040518263ffffffff1660e01b815260040161128c9190612b0e565b6020604051808303816000875af11580156112ab573d6000803e3d6000fd5b505050506040513d601f19601f820116820180604052508101906112cf9190612ce8565b5061146b565b6112df8160801c90565b600f0b15611300576040516323ac68e760e01b815260040160405180910390fd5b831561131f5760405163b319920d60e01b815260040160405180910390fd5b61132f6040870160208801612d01565b6001600160a01b03166323b872dd837f0000000000000000000000000000000000000000000000000000000000000000846001600160801b03166040518463ffffffff1660e01b815260040161138793929190612d6d565b6020604051808303816000875af11580156113a6573d6000803e3d6000fd5b505050506040513d601f19601f820116820180604052508101906113ca9190612f8b565b506001600160a01b037f000000000000000000000000000000000000000000000000000000000000000016636a256b2961140a6040890160208a01612d01565b6040518263ffffffff1660e01b81526004016114269190612b0e565b6020604051808303816000875af1158015611445573d6000803e3d6000fd5b505050506040513d601f19601f820116820180604052508101906114699190612ce8565b505b505050505050565b600080333014611496576040516314e1dbf760e11b815260040160405180910390fd5b60007f00000000000000000000000000000000000000000000000000000000000000006001600160a01b031663555a47338760405180606001604052808960020b81526020018a60600160208101906114ef9190612bdd565b6114f9908b612c10565b60020b8152602001888152506040518363ffffffff1660e01b8152600401611522929190612cb1565b6020604051808303816000875af1158015611541573d6000803e3d6000fd5b505050506040513d601f19601f820116820180604052508101906115659190612ce8565b905060006115738260801c90565b600f0b1215611620576001600160a01b037f00000000000000000000000000000000000000000000000000000000000000001663c6c3bbe66115b86020890189612d01565b306115c38560801c90565b6115cc90612d1e565b9650866040518463ffffffff1660e01b81526004016115ed93929190612d41565b600060405180830381600087803b15801561160757600080fd5b505af115801561161b573d6000803e3d6000fd5b505050505b600081600f0b12156116c9576001600160a01b037f00000000000000000000000000000000000000000000000000000000000000001663c6c3bbe661166b6040890160208a01612d01565b3061167585612d1e565b9550856040518463ffffffff1660e01b815260040161169693929190612d41565b600060405180830381600087803b1580156116b057600080fd5b505af11580156116c4573d6000803e3d6000fd5b505050505b50935093915050565b6000336001600160a01b037f0000000000000000000000000000000000000000000000000000000000000000161461171d5760405163570c108560e11b815260040160405180910390fd5b61174d6040518060400160405280600f81526020016e6166746572496e697469616c697a6560881b815250612148565b61178561176761176236879003870187612dd9565b61218e565b6117808461177b6080890160608a01612bdd565b6121be565b612208565b50636fe7e6eb60e01b949350505050565b6000600260008585856040516020016117b193929190612feb565b60408051808303601f19018152918152815160209283012083529082019290925201600020546001600160e81b0316949350505050565b6001600160e81b03821660009081526003602090815260408083206001600160a01b03851684526005019091529020546001600160801b03165b92915050565b6001600160e81b0382166000908152600360205260408120805482919060ff16611865576040516306cb6fbf60e41b815260040160405180910390fd5b3360009081526005820160205260408120546001600160801b0316908190036118a157604051630200e8a960e31b815260040160405180910390fd5b336000908152600583016020526040902080546001600160801b03191690556002820154600383015460048401546001600160801b03908116906118e990849086168361222e565b965061190882856001600160801b0316836001600160801b031661222e565b95506119148784613012565b60028601556119238683613012565b60038601556119328482612df5565b600486810180546001600160801b0319166001600160801b03939093169290921790915585546001870154604080516001600160a01b03610100909404841660248201529183166044830152606482018b9052608482018a90528b831660a4808401919091528151808403909101815260c4909201815260208201805163365df6b360e01b6001600160e01b0390911617905251638154831960e01b81527f000000000000000000000000000000000000000000000000000000000000000090921692638154831992611a0692910161270c565b6000604051808303816000875af1158015611a25573d6000803e3d6000fd5b505050506040513d6000823e601f3d908101601f19168201604052611a4d9190810190612e72565b506040516001600160801b03851681526001600160e81b038a169033907fcfd201c31748d4bd85efe95ceda3bac90f7fd44d075465d1624a5ce18bcf55889060200160405180910390a350505050509250929050565b6000336001600160a01b037f00000000000000000000000000000000000000000000000000000000000000001614611aee5760405163570c108560e11b815260040160405180910390fd5b611b186040518060400160405280600981526020016806166746572537761760bc1b815250612148565b60008080611b46611b31611762368a90038a018a612dd9565b611b4160808a0160608b01612bdd565b6122d0565b9250925092508060020b8260020b1315611b6d57506352d51b8560e11b92506105c6915050565b6000611b7c6020880188613025565b1590505b8160020b8360020b13611dbf576000611ba8611ba1368b90038b018b612dd9565b8584611796565b90506001600160e81b03811615611d9d57600060036000836001600160e81b03166001600160e81b03168152602001908152602001600020905060018160000160006101000a81548160ff0219169083151502179055506000807f00000000000000000000000000000000000000000000000000000000000000006001600160a01b03166381548319306001600160a01b031663622b76ae8f8b8860040160009054906101000a90046001600160801b03166001600160801b0316611c6c90612e15565b604051602401611c7e93929190613042565b60408051808303601f1901815291815260208201805160e094851b6001600160e01b03909116179052519184901b6001600160e01b0319168252611cc692509060040161270c565b6000604051808303816000875af1158015611ce5573d6000803e3d6000fd5b505050506040513d6000823e601f3d908101601f19168201604052611d0d9190810190612e72565b806020019051810190611d209190613064565b60028501805483019055600385018054820190559092509050611d54611d4b368e90038e018e612dd9565b88876000612335565b836001600160e81b03167f315051c5c119908100a3f90ce0f119abf8a2b85f89378f72e13c7fe0dad56f6e8d8988604051611d9193929190613088565b60405180910390a25050505b50611dae6080890160608a01612bdd565b611db89084612c10565b9250611b80565b611dda611dd4611762368b90038b018b612dd9565b85612208565b506352d51b8560e11b98975050505050505050565b611dff60a0850160808601612d01565b6001600160a01b0381163014611e275760405162820f3560e61b815260040160405180910390fd5b816001600160801b0316600003611e5157604051630200e8a960e31b815260040160405180910390fd5b7f00000000000000000000000000000000000000000000000000000000000000006001600160a01b03166381548319306001600160a01b0316635aaff517888888886001600160801b031633604051602401611eb1959493929190613096565b60408051808303601f1901815291815260208201805160e094851b6001600160e01b03909116179052519184901b6001600160e01b0319168252611ef992509060040161270c565b6000604051808303816000875af1158015611f18573d6000803e3d6000fd5b505050506040513d6000823e601f3d908101601f19168201604052611f409190810190612e72565b50600080611f56610da536899003890189612dd9565b90506001600160e81b03811661203157611f8e611f7836899003890189612dd9565b6001546001600160e81b03169250878784612335565b60016001600160e81b03821601600180546001600160e81b0319166001600160e81b03928316179055811660009081526003602090815260409091209250611fd890880188612d01565b82546001600160a01b039190911661010002610100600160a81b031990911617825561200a6040880160208901612d01565b6001830180546001600160a01b0319166001600160a01b039290921691909117905561204c565b6001600160e81b038116600090815260036020526040902091505b6004820180546001600160801b03198082166001600160801b03928316880183161790925533600081815260058601602052604090819020805494851694841689019093169390931790915590516001600160e81b03831691907f4f0ea5e4591f78ece28e0e576ad3e8430e47ef23df32f6d4a04911558b5803f5906120d9908b908b908b908b90612f55565b60405180910390a350505050505050565b6000336001600160a01b037f00000000000000000000000000000000000000000000000000000000000000001614612135576040516314fe96b960e21b815260040160405180910390fd5b5063f23a6e6160e01b9695505050505050565b61218b8160405160240161215c919061270c565b60408051601f198184030181529190526020810180516001600160e01b031663104c13eb60e21b17905261239d565b50565b6000816040516020016121a191906130d5565b604051602081830303815290604052805190602001209050919050565b6000806121cb83856130f9565b905060008460020b1280156121eb57506121e58385613133565b60020b15155b156121fe57806121fa81613155565b9150505b6105c68382613178565b600091825260208290526040909120805462ffffff191662ffffff909216919091179055565b6000838302816000198587098281108382030391505080841161225057600080fd5b80600003612263575082900490506105b6565b6000848688096000868103871696879004966002600389028118808a02820302808a02820302808a02820302808a02820302808a02820302808a02909103029181900381900460010186841190950394909402919094039290920491909117919091029150509392505050565b60008060006122e76122e1866123a6565b856121be565b600086815260208190526040902054909350600290810b9084900b81131561231d576123138585612c10565b925080915061232d565b91508161232a8585613198565b91505b509250925092565b806002600086868660405160200161234f93929190612feb565b60405160208183030381529060405280519060200120815260200190815260200160002060006101000a8154816001600160e81b0302191690836001600160e81b0316021790555050505050565b61218b8161243e565b604051633205590760e21b8152600481018290526000907f00000000000000000000000000000000000000000000000000000000000000006001600160a01b03169063c815641c9060240160c060405180830381865afa15801561240e573d6000803e3d6000fd5b505050506040513d601f19601f8201168201806040525081019061243291906131ce565b50929695505050505050565b60006a636f6e736f6c652e6c6f679050600080835160208501845afa505050565b60006020828403121561247157600080fd5b5035919050565b6001600160a01b038116811461218b57600080fd5b600060a0828403121561249f57600080fd5b50919050565b60006060828403121561249f57600080fd5b600080600061012084860312156124cd57600080fd5b83356124d881612478565b92506124e7856020860161248d565b91506124f68560c086016124a5565b90509250925092565b600080600080610140858703121561251657600080fd5b843561252181612478565b9350612530866020870161248d565b925061253f8660c087016124a5565b939692955092936101200135925050565b8060020b811461218b57600080fd5b801515811461218b57600080fd5b6000806000806000610120868803121561258657600080fd5b612590878761248d565b945060a08601356125a081612550565b935060c0860135925060e08601356125b781612478565b91506101008601356125c88161255f565b809150509295509295909350565b600080600080600060a086880312156125ee57600080fd5b85356125f981612478565b9450602086013561260981612478565b9350604086013592506060860135915060808601356125c881612478565b60008083601f84011261263957600080fd5b50813567ffffffffffffffff81111561265157600080fd5b60208301915083602082850101111561266957600080fd5b9250929050565b60008060006040848603121561268557600080fd5b83359250602084013567ffffffffffffffff8111156126a357600080fd5b6126af86828701612627565b9497909650939450505050565b60005b838110156126d75781810151838201526020016126bf565b50506000910152565b600081518084526126f88160208601602086016126bc565b601f01601f19169290920160200192915050565b6020815260006105b660208301846126e0565b600080600080610100858703121561273657600080fd5b843561274181612478565b9350612750866020870161248d565b939693955050505060c08201359160e0013590565b600080600080610100858703121561277c57600080fd5b612786868661248d565b935060a085013561279681612550565b925060c08501356127a68161255f565b915060e08501356127b681612478565b939692955090935050565b600080600080600061012086880312156127da57600080fd5b6127e4878761248d565b945060a08601356127f481612550565b935060c08601356128048161255f565b925060e086013591506101008601356125c881612478565b6000610100820190508251151582526020830151151560208301526040830151151560408301526060830151151560608301526080830151612862608084018215159052565b5060a083015161287660a084018215159052565b5060c083015161288a60c084018215159052565b5060e083015161289e60e084018215159052565b5092915050565b600080600060e084860312156128ba57600080fd5b6128c4858561248d565b925060a08401356128d481612550565b9295929450505060c0919091013590565b80356001600160e81b03811681146128fc57600080fd5b919050565b60006020828403121561291357600080fd5b6105b6826128e5565b600080600080610100858703121561293357600080fd5b843561293e81612478565b935061294d866020870161248d565b925060c085013561295d81612478565b915060e08501356127b681612550565b634e487b7160e01b600052604160045260246000fd5b803562ffffff811681146128fc57600080fd5b600060a082840312156129a857600080fd5b60405160a0810181811067ffffffffffffffff821117156129cb576129cb61296d565b60405290508082356129dc81612478565b815260208301356129ec81612478565b60208201526129fd60408401612983565b60408201526060830135612a1081612550565b60608201526080830135612a2381612478565b6080919091015292915050565b600080600060e08486031215612a4557600080fd5b612a4f8585612996565b925060a0840135612a5f81612550565b915060c0840135612a6f8161255f565b809150509250925092565b60008060408385031215612a8d57600080fd5b612a96836128e5565b91506020830135612aa681612478565b809150509250929050565b6000806000806101008587031215612ac857600080fd5b612ad2868661248d565b935060a0850135612ae281612550565b925060c0850135612af28161255f565b915060e08501356001600160801b03811681146127b657600080fd5b6001600160a01b0391909116815260200190565b600080600060e08486031215612b3757600080fd5b8335612b4281612478565b9250612b51856020860161248d565b915060c0840135612a6f81612478565b60008060008060008060a08789031215612b7a57600080fd5b8635612b8581612478565b95506020870135612b9581612478565b94506040870135935060608701359250608087013567ffffffffffffffff811115612bbf57600080fd5b612bcb89828a01612627565b979a9699509497509295939492505050565b600060208284031215612bef57600080fd5b81356105b681612550565b634e487b7160e01b600052601160045260246000fd5b600281810b9083900b01627fffff8113627fffff198212171561182257611822612bfa565b8035612c4081612478565b6001600160a01b039081168352602082013590612c5c82612478565b808216602085015262ffffff612c7460408501612983565b16604085015260608301359150612c8a82612550565b8160020b606085015260808301359150612ca382612478565b808216608085015250505050565b6101008101612cc08285612c35565b825160020b60a0830152602083015160020b60c0830152604083015160e08301529392505050565b600060208284031215612cfa57600080fd5b5051919050565b600060208284031215612d1357600080fd5b81356105b681612478565b6000600f82900b6001607f1b8101612d3857612d38612bfa565b60000392915050565b6001600160a01b0393841681529190921660208201526001600160801b03909116604082015260600190565b6001600160a01b039384168152919092166020820152604081019190915260600190565b6001600160a01b0394851681529290931660208301526040820152606081019190915260a06080820181905260009082015260c00190565b8183823760009101908152919050565b600060a08284031215612deb57600080fd5b6105b68383612996565b6001600160801b0382811682821603908082111561289e5761289e612bfa565b6000600160ff1b8201612e2a57612e2a612bfa565b5060000390565b6101208101612e408288612c35565b60029590950b60a082015260c08101939093526001600160a01b039190911660e0830152151561010090910152919050565b600060208284031215612e8457600080fd5b815167ffffffffffffffff80821115612e9c57600080fd5b818401915084601f830112612eb057600080fd5b815181811115612ec257612ec261296d565b604051601f8201601f19908116603f01168101908382118183101715612eea57612eea61296d565b81604052828152876020848701011115612f0357600080fd5b612f148360208301602088016126bc565b979650505050505050565b60008060008060808587031215612f3557600080fd5b505082516020840151604085015160609095015191969095509092509050565b6101008101612f648287612c35565b60029490940b60a082015291151560c08301526001600160801b031660e090910152919050565b600060208284031215612f9d57600080fd5b81516105b68161255f565b80516001600160a01b03908116835260208083015182169084015260408083015162ffffff169084015260608083015160020b9084015260809182015116910152565b60e08101612ff98286612fa8565b8360020b60a083015282151560c0830152949350505050565b8181038181111561182257611822612bfa565b60006020828403121561303757600080fd5b81356105b68161255f565b60e081016130508286612c35565b60029390930b60a082015260c00152919050565b6000806040838503121561307757600080fd5b505080516020909101519092909150565b60e08101612ff98286612c35565b61012081016130a58288612c35565b60029590950b60a082015292151560c084015260e08301919091526001600160a01b031661010090910152919050565b60a081016118228284612fa8565b634e487b7160e01b600052601260045260246000fd5b60008160020b8360020b80613110576131106130e3565b627fffff1982146000198214161561312a5761312a612bfa565b90059392505050565b60008260020b80613146576131466130e3565b808360020b0791505092915050565b60008160020b627fffff19810361316e5761316e612bfa565b6000190192915050565b60008260020b8260020b028060020b915080821461289e5761289e612bfa565b600282810b9082900b03627fffff198112627fffff8213171561182257611822612bfa565b805160ff811681146128fc57600080fd5b60008060008060008060c087890312156131e757600080fd5b86516131f281612478565b602088015190965061320381612550565b9450613211604088016131bd565b935061321f606088016131bd565b925061322d608088016131bd565b915061323b60a088016131bd565b9050929550929550929556fea164736f6c6343000814000a",
  "linkReferences": {},
  "deployedLinkReferences": {}
}