{
  "_format": "hh-sol-artifact-1",
  "contractName": "VaultShadow",
  "sourceName": "contracts/src/vaults/VaultShadow.sol",
  "abi": [
    {
      "inputs": [
        {
          "internalType": "contract Framework",
          "name": "framework",
          "type": "address"
        },
        {
          "internalType": "bytes",
          "name": "data",
          "type": "bytes"
        },
        {
          "internalType": "string",
          "name": "name",
          "type": "string"
        },
        {
          "internalType": "string",
          "name": "symbol",
          "type": "string"
        }
      ],
      "stateMutability": "nonpayable",
      "type": "constructor"
    },
    {
      "anonymous": false,
      "inputs": [
        {
          "indexed": true,
          "internalType": "address",
          "name": "owner",
          "type": "address"
        },
        {
          "indexed": true,
          "internalType": "address",
          "name": "spender",
          "type": "address"
        },
        {
          "indexed": false,
          "internalType": "uint256",
          "name": "value",
          "type": "uint256"
        }
      ],
      "name": "Approval",
      "type": "event"
    },
    {
      "anonymous": false,
      "inputs": [
        {
          "indexed": true,
          "internalType": "address",
          "name": "burner",
          "type": "address"
        },
        {
          "indexed": true,
          "internalType": "address",
          "name": "token",
          "type": "address"
        },
        {
          "indexed": false,
          "internalType": "uint256",
          "name": "amount",
          "type": "uint256"
        },
        {
          "indexed": false,
          "internalType": "uint256",
          "name": "blockNum",
          "type": "uint256"
        }
      ],
      "name": "Erc20ShadowBurn",
      "type": "event"
    },
    {
      "anonymous": false,
      "inputs": [
        {
          "indexed": true,
          "internalType": "address",
          "name": "minter",
          "type": "address"
        },
        {
          "indexed": true,
          "internalType": "address",
          "name": "token",
          "type": "address"
        },
        {
          "indexed": false,
          "internalType": "uint256",
          "name": "amount",
          "type": "uint256"
        },
        {
          "indexed": false,
          "internalType": "uint168",
          "name": "exitId",
          "type": "uint168"
        }
      ],
      "name": "Erc20ShadowLock",
      "type": "event"
    },
    {
      "anonymous": false,
      "inputs": [
        {
          "indexed": true,
          "internalType": "address",
          "name": "minter",
          "type": "address"
        },
        {
          "indexed": true,
          "internalType": "address",
          "name": "token",
          "type": "address"
        },
        {
          "indexed": false,
          "internalType": "uint256",
          "name": "amount",
          "type": "uint256"
        }
      ],
      "name": "Erc20ShadowMint",
      "type": "event"
    },
    {
      "anonymous": false,
      "inputs": [
        {
          "indexed": true,
          "internalType": "address",
          "name": "from",
          "type": "address"
        },
        {
          "indexed": true,
          "internalType": "address",
          "name": "to",
          "type": "address"
        },
        {
          "indexed": false,
          "internalType": "uint256",
          "name": "value",
          "type": "uint256"
        }
      ],
      "name": "Transfer",
      "type": "event"
    },
    {
      "inputs": [
        {
          "internalType": "address",
          "name": "owner",
          "type": "address"
        },
        {
          "internalType": "address",
          "name": "spender",
          "type": "address"
        }
      ],
      "name": "allowance",
      "outputs": [
        {
          "internalType": "uint256",
          "name": "",
          "type": "uint256"
        }
      ],
      "stateMutability": "view",
      "type": "function"
    },
    {
      "inputs": [
        {
          "internalType": "address",
          "name": "spender",
          "type": "address"
        },
        {
          "internalType": "uint256",
          "name": "amount",
          "type": "uint256"
        }
      ],
      "name": "approve",
      "outputs": [
        {
          "internalType": "bool",
          "name": "",
          "type": "bool"
        }
      ],
      "stateMutability": "nonpayable",
      "type": "function"
    },
    {
      "inputs": [
        {
          "internalType": "address",
          "name": "account",
          "type": "address"
        }
      ],
      "name": "balanceOf",
      "outputs": [
        {
          "internalType": "uint256",
          "name": "",
          "type": "uint256"
        }
      ],
      "stateMutability": "view",
      "type": "function"
    },
    {
      "inputs": [
        {
          "internalType": "address",
          "name": "receiver",
          "type": "address"
        },
        {
          "internalType": "uint256",
          "name": "amount",
          "type": "uint256"
        }
      ],
      "name": "burn",
      "outputs": [],
      "stateMutability": "nonpayable",
      "type": "function"
    },
    {
      "inputs": [],
      "name": "decimals",
      "outputs": [
        {
          "internalType": "uint8",
          "name": "",
          "type": "uint8"
        }
      ],
      "stateMutability": "view",
      "type": "function"
    },
    {
      "inputs": [
        {
          "internalType": "address",
          "name": "spender",
          "type": "address"
        },
        {
          "internalType": "uint256",
          "name": "subtractedValue",
          "type": "uint256"
        }
      ],
      "name": "decreaseAllowance",
      "outputs": [
        {
          "internalType": "bool",
          "name": "",
          "type": "bool"
        }
      ],
      "stateMutability": "nonpayable",
      "type": "function"
    },
    {
      "inputs": [
        {
          "internalType": "address",
          "name": "user",
          "type": "address"
        },
        {
          "internalType": "uint168",
          "name": "exitId",
          "type": "uint168"
        }
      ],
      "name": "getLockedWithdrawal",
      "outputs": [
        {
          "components": [
            {
              "internalType": "uint256",
              "name": "amount",
              "type": "uint256"
            },
            {
              "internalType": "uint256",
              "name": "blockNum",
              "type": "uint256"
            }
          ],
          "internalType": "struct VaultShadow.LockingAmount",
          "name": "",
          "type": "tuple"
        }
      ],
      "stateMutability": "view",
      "type": "function"
    },
    {
      "inputs": [],
      "name": "getMetaDataHash",
      "outputs": [
        {
          "internalType": "bytes32",
          "name": "",
          "type": "bytes32"
        }
      ],
      "stateMutability": "view",
      "type": "function"
    },
    {
      "inputs": [
        {
          "internalType": "uint256",
          "name": "blockNum",
          "type": "uint256"
        },
        {
          "internalType": "address",
          "name": "user",
          "type": "address"
        }
      ],
      "name": "getWithdrawalAt",
      "outputs": [
        {
          "internalType": "uint256",
          "name": "",
          "type": "uint256"
        }
      ],
      "stateMutability": "view",
      "type": "function"
    },
    {
      "inputs": [
        {
          "internalType": "uint256",
          "name": "startBlock",
          "type": "uint256"
        },
        {
          "internalType": "uint256",
          "name": "endBlock",
          "type": "uint256"
        },
        {
          "internalType": "address",
          "name": "target",
          "type": "address"
        }
      ],
      "name": "getWithdrawsInRange",
      "outputs": [
        {
          "internalType": "uint256",
          "name": "",
          "type": "uint256"
        }
      ],
      "stateMutability": "view",
      "type": "function"
    },
    {
      "inputs": [
        {
          "internalType": "address",
          "name": "spender",
          "type": "address"
        },
        {
          "internalType": "uint256",
          "name": "addedValue",
          "type": "uint256"
        }
      ],
      "name": "increaseAllowance",
      "outputs": [
        {
          "internalType": "bool",
          "name": "",
          "type": "bool"
        }
      ],
      "stateMutability": "nonpayable",
      "type": "function"
    },
    {
      "inputs": [
        {
          "internalType": "address",
          "name": "receiver",
          "type": "address"
        },
        {
          "internalType": "uint256",
          "name": "amount",
          "type": "uint256"
        },
        {
          "internalType": "uint168",
          "name": "exitId",
          "type": "uint168"
        },
        {
          "internalType": "uint256",
          "name": "blockNum",
          "type": "uint256"
        }
      ],
      "name": "lock",
      "outputs": [],
      "stateMutability": "nonpayable",
      "type": "function"
    },
    {
      "inputs": [
        {
          "internalType": "address",
          "name": "receiver",
          "type": "address"
        },
        {
          "internalType": "uint256",
          "name": "amount",
          "type": "uint256"
        }
      ],
      "name": "mint",
      "outputs": [],
      "stateMutability": "nonpayable",
      "type": "function"
    },
    {
      "inputs": [],
      "name": "name",
      "outputs": [
        {
          "internalType": "string",
          "name": "",
          "type": "string"
        }
      ],
      "stateMutability": "view",
      "type": "function"
    },
    {
      "inputs": [
        {
          "internalType": "address",
          "name": "losser",
          "type": "address"
        },
        {
          "internalType": "uint168",
          "name": "exitId",
          "type": "uint168"
        },
        {
          "internalType": "address",
          "name": "winner",
          "type": "address"
        }
      ],
      "name": "slash",
      "outputs": [],
      "stateMutability": "nonpayable",
      "type": "function"
    },
    {
      "inputs": [],
      "name": "symbol",
      "outputs": [
        {
          "internalType": "string",
          "name": "",
          "type": "string"
        }
      ],
      "stateMutability": "view",
      "type": "function"
    },
    {
      "inputs": [],
      "name": "totalSupply",
      "outputs": [
        {
          "internalType": "uint256",
          "name": "",
          "type": "uint256"
        }
      ],
      "stateMutability": "view",
      "type": "function"
    },
    {
      "inputs": [
        {
          "internalType": "address",
          "name": "to",
          "type": "address"
        },
        {
          "internalType": "uint256",
          "name": "amount",
          "type": "uint256"
        }
      ],
      "name": "transfer",
      "outputs": [
        {
          "internalType": "bool",
          "name": "",
          "type": "bool"
        }
      ],
      "stateMutability": "nonpayable",
      "type": "function"
    },
    {
      "inputs": [
        {
          "internalType": "address",
          "name": "from",
          "type": "address"
        },
        {
          "internalType": "address",
          "name": "to",
          "type": "address"
        },
        {
          "internalType": "uint256",
          "name": "amount",
          "type": "uint256"
        }
      ],
      "name": "transferFrom",
      "outputs": [
        {
          "internalType": "bool",
          "name": "",
          "type": "bool"
        }
      ],
      "stateMutability": "nonpayable",
      "type": "function"
    },
    {
      "inputs": [
        {
          "internalType": "address",
          "name": "receiver",
          "type": "address"
        },
        {
          "internalType": "uint168",
          "name": "exitId",
          "type": "uint168"
        }
      ],
      "name": "withdraw",
      "outputs": [],
      "stateMutability": "nonpayable",
      "type": "function"
    }
  ],
  "bytecode": "0x60806040523480156200001157600080fd5b5060405162001c0838038062001c08833981016040819052620000349162000279565b8151829082906200004d906003906020850190620000d6565b50805162000063906004906020840190620000d6565b505050600080848060200190518101906200007f919062000338565b604080518082019091528281526001600160a01b039182166020909101819052600692909255600780546001600160a01b031990811690931790556005805490921697169690961790955550620003a89350505050565b828054620000e4906200036b565b90600052602060002090601f01602090048101928262000108576000855562000153565b82601f106200012357805160ff191683800117855562000153565b8280016001018555821562000153579182015b828111156200015357825182559160200191906001019062000136565b506200016192915062000165565b5090565b5b8082111562000161576000815560010162000166565b6001600160a01b03811681146200019257600080fd5b50565b634e487b7160e01b600052604160045260246000fd5b60006001600160401b0380841115620001c857620001c862000195565b604051601f8501601f19908116603f01168101908282118183101715620001f357620001f362000195565b816040528093508581528686860111156200020d57600080fd5b600092505b858310156200023257828501516020848301015260208301925062000212565b8583111562000245576000602087830101525b5050509392505050565b600082601f8301126200026157600080fd5b6200027283835160208501620001ab565b9392505050565b600080600080608085870312156200029057600080fd5b84516200029d816200017c565b60208601519094506001600160401b0380821115620002bb57600080fd5b818701915087601f830112620002d057600080fd5b620002e188835160208501620001ab565b94506040870151915080821115620002f857600080fd5b62000306888389016200024f565b935060608701519150808211156200031d57600080fd5b506200032c878288016200024f565b91505092959194509250565b600080604083850312156200034c57600080fd5b82519150602083015162000360816200017c565b809150509250929050565b600181811c908216806200038057607f821691505b60208210811415620003a257634e487b7160e01b600052602260045260246000fd5b50919050565b61185080620003b86000396000f3fe608060405234801561001057600080fd5b506004361061012c5760003560e01c806385e26a63116100ad578063a457c2d711610071578063a457c2d7146102d3578063a9059cbb146102e6578063b5167b09146102f9578063dd62ed3e1461030c578063f34fe4f21461031f57600080fd5b806385e26a631461028a57806392f276e51461029257806395d89b41146102a557806397312ce4146102ad5780639dc29fac146102c057600080fd5b8063313ce567116100f4578063313ce56714610217578063395093511461022657806340c10f191461023957806370a082311461024e578063743771b41461027757600080fd5b806306fdde0314610131578063095ea7b31461014f57806314ca8fbe1461017257806318160ddd146101f257806323b872dd14610204575b600080fd5b610139610355565b60405161014691906114a5565b60405180910390f35b61016261015d3660046114f4565b6103e7565b6040519015158152602001610146565b6101d7610180366004611535565b604080518082018252600080825260209182018190526001600160a01b03949094168452600a81528184206001600160a81b0393909316845291825291829020825180840190935280548352600101549082015290565b60408051825181526020928301519281019290925201610146565b6002545b604051908152602001610146565b610162610212366004611568565b6103ff565b60405160128152602001610146565b6101626102343660046114f4565b610423565b61024c6102473660046114f4565b610445565b005b6101f661025c3660046115a4565b6001600160a01b031660009081526020819052604090205490565b61024c6102853660046115c6565b610530565b6101f66106b3565b61024c6102a0366004611535565b6106d3565b6101396107ae565b61024c6102bb366004611609565b6107bd565b61024c6102ce3660046114f4565b6109c6565b6101626102e13660046114f4565b610a6d565b6101626102f43660046114f4565b610ae8565b6101f661030736600461164d565b610af6565b6101f661031a366004611679565b610bd2565b6101f661032d3660046116a3565b60009182526009602090815260408084206001600160a01b0393909316845291905290205490565b606060038054610364906116c6565b80601f0160208091040260200160405190810160405280929190818152602001828054610390906116c6565b80156103dd5780601f106103b2576101008083540402835291602001916103dd565b820191906000526020600020905b8154815290600101906020018083116103c057829003601f168201915b5050505050905090565b6000336103f5818585610bfd565b5060019392505050565b60003361040d858285610d21565b610418858585610d9b565b506001949350505050565b6000336103f58185856104368383610bd2565b6104409190611717565b610bfd565b600554604051635ddb56c160e11b81523360048201526001600160a01b039091169063bbb6ad8290602401602060405180830381865afa15801561048d573d6000803e3d6000fd5b505050506040513d601f19601f820116820180604052508101906104b1919061172f565b6104d65760405162461bcd60e51b81526004016104cd90611751565b60405180910390fd5b6104e03082610f3f565b6104eb308383610ff7565b60405181815230906001600160a01b038416907fdd5181786556a0ab2318c9c309b9cbb6b1818471ce6ce3e37e0c2420b7a3734c906020015b60405180910390a35050565b600554604051635ddb56c160e11b81523360048201526001600160a01b039091169063bbb6ad8290602401602060405180830381865afa158015610578573d6000803e3d6000fd5b505050506040513d601f19601f8201168201806040525081019061059c919061172f565b6105b85760405162461bcd60e51b81526004016104cd90611751565b6001600160a01b0383166000908152600a602090815260408083206001600160a81b0386168452825291829020825180840190935280548084526001909101549183019190915261064b5760405162461bcd60e51b815260206004820152601860248201527f546865206c6f636b696e672069732077697468647261776e000000000000000060448201526064016104cd565b805161066690839061065e9060016117ae565b309190610ff7565b80516106799060009061065e90826117ae565b50506001600160a01b039091166000908152600a602090815260408083206001600160a81b03909416835292905290812081815560010155565b6006546007546000916106ce916001600160a01b031661105f565b905090565b6001600160a01b0382166000908152600a602090815260408083206001600160a81b038516845282529182902082518084019093528054808452600190910154918301919091526107665760405162461bcd60e51b815260206004820152601a60248201527f546865206c6f636b696e6720646f6573206e6f7420657869737400000000000060448201526064016104cd565b80516107759030908590610ff7565b506001600160a01b039091166000908152600a602090815260408083206001600160a81b03909416835292905290812081815560010155565b606060048054610364906116c6565b600554604051635ddb56c160e11b81523360048201526001600160a01b039091169063bbb6ad8290602401602060405180830381865afa158015610805573d6000803e3d6000fd5b505050506040513d601f19601f82011682018060405250810190610829919061172f565b6108455760405162461bcd60e51b81526004016104cd90611751565b6001600160a01b0384166000908152600a602090815260408083206001600160a81b03861684528252918290208251808401909352805480845260019091015491830191909152156108e95760405162461bcd60e51b815260206004820152602760248201527f546865207374616b696e67206f662065786974496420697320616c7265616479604482015266081b1bd8dad95960ca1b60648201526084016104cd565b600084116109325760405162461bcd60e51b81526020600482015260166024820152751a5b9d985b1a59081cdd185ada5b99c8185b5bdd5b9d60521b60448201526064016104cd565b61093c3085610f3f565b60408051808201825285815260208082018581526001600160a01b0389166000818152600a84528581206001600160a81b038a168083529085529086902094518555915160019094019390935583518881529182015230927f5214488e42fd2be76487ca7983035c8e1e10d5bd14ef50bea3e72cfe354b4533910160405180910390a35050505050565b6109d2303381846110ad565b6109dc30826110e5565b6008805460018101909155437ff3f7a9fe364faab93b216da50a3214154f22a0a2b415b23a84c8169e8b636ee390910181905560008181526009602090815260408083206001600160a01b0387168452825291829020849055815184815290810192909252309133917fd31a4cde0b956a07b9bd06be5b84b2b3b64f8e9c56c0c6e6bee64754e761f37b9101610524565b60003381610a7b8286610bd2565b905083811015610adb5760405162461bcd60e51b815260206004820152602560248201527f45524332303a2064656372656173656420616c6c6f77616e63652062656c6f77604482015264207a65726f60d81b60648201526084016104cd565b6104188286868403610bfd565b6000336103f5818585610d9b565b60008060005b600854811015610bc9578560088281548110610b1a57610b1a6117cd565b90600052602060002001541115610b8d576009600060088381548110610b4257610b426117cd565b906000526020600020015481526020019081526020016000206000856001600160a01b03166001600160a01b031681526020019081526020016000205482610b8a9190611717565b91505b8460088281548110610ba157610ba16117cd565b90600052602060002001541115610bb757610bc9565b80610bc1816117e3565b915050610afc565b50949350505050565b6001600160a01b03918216600090815260016020908152604080832093909416825291909152205490565b6001600160a01b038316610c5f5760405162461bcd60e51b8152602060048201526024808201527f45524332303a20617070726f76652066726f6d20746865207a65726f206164646044820152637265737360e01b60648201526084016104cd565b6001600160a01b038216610cc05760405162461bcd60e51b815260206004820152602260248201527f45524332303a20617070726f766520746f20746865207a65726f206164647265604482015261737360f01b60648201526084016104cd565b6001600160a01b0383811660008181526001602090815260408083209487168084529482529182902085905590518481527f8c5be1e5ebec7d5bd14f71427d1e84f3dd0314c0f7b2291e5b200ac8c7c3b925910160405180910390a3505050565b6000610d2d8484610bd2565b90506000198114610d955781811015610d885760405162461bcd60e51b815260206004820152601d60248201527f45524332303a20696e73756666696369656e7420616c6c6f77616e636500000060448201526064016104cd565b610d958484848403610bfd565b50505050565b6001600160a01b038316610dff5760405162461bcd60e51b815260206004820152602560248201527f45524332303a207472616e736665722066726f6d20746865207a65726f206164604482015264647265737360d81b60648201526084016104cd565b6001600160a01b038216610e615760405162461bcd60e51b815260206004820152602360248201527f45524332303a207472616e7366657220746f20746865207a65726f206164647260448201526265737360e81b60648201526084016104cd565b6001600160a01b03831660009081526020819052604090205481811015610ed95760405162461bcd60e51b815260206004820152602660248201527f45524332303a207472616e7366657220616d6f756e7420657863656564732062604482015265616c616e636560d01b60648201526084016104cd565b6001600160a01b03848116600081815260208181526040808320878703905593871680835291849020805487019055925185815290927fddf252ad1be2c89b69c2b068fc378daa952ba7f163c4a11628f55a4df523b3ef910160405180910390a3610d95565b6001600160a01b038216610f955760405162461bcd60e51b815260206004820152601f60248201527f45524332303a206d696e7420746f20746865207a65726f20616464726573730060448201526064016104cd565b8060026000828254610fa79190611717565b90915550506001600160a01b038216600081815260208181526040808320805486019055518481527fddf252ad1be2c89b69c2b068fc378daa952ba7f163c4a11628f55a4df523b3ef9101610524565b6040516001600160a01b03831660248201526044810182905261105a90849063a9059cbb60e01b906064015b60408051601f198184030181529190526020810180516001600160e01b03166001600160e01b031990931692909217909152611217565b505050565b6000828260405160200161108f92919091825260601b6bffffffffffffffffffffffff1916602082015260340190565b60405160208183030381529060405280519060200120905092915050565b6040516001600160a01b0380851660248301528316604482015260648101829052610d959085906323b872dd60e01b90608401611023565b6001600160a01b0382166111455760405162461bcd60e51b815260206004820152602160248201527f45524332303a206275726e2066726f6d20746865207a65726f206164647265736044820152607360f81b60648201526084016104cd565b6001600160a01b038216600090815260208190526040902054818110156111b95760405162461bcd60e51b815260206004820152602260248201527f45524332303a206275726e20616d6f756e7420657863656564732062616c616e604482015261636560f01b60648201526084016104cd565b6001600160a01b0383166000818152602081815260408083208686039055600280548790039055518581529192917fddf252ad1be2c89b69c2b068fc378daa952ba7f163c4a11628f55a4df523b3ef910160405180910390a3505050565b600061126c826040518060400160405280602081526020017f5361666545524332303a206c6f772d6c6576656c2063616c6c206661696c6564815250856001600160a01b03166112ec9092919063ffffffff16565b905080516000148061128d57508080602001905181019061128d919061172f565b61105a5760405162461bcd60e51b815260206004820152602a60248201527f5361666545524332303a204552433230206f7065726174696f6e20646964206e6044820152691bdd081cdd58d8d9595960b21b60648201526084016104cd565b60606112fb8484600085611303565b949350505050565b6060824710156113645760405162461bcd60e51b815260206004820152602660248201527f416464726573733a20696e73756666696369656e742062616c616e636520666f6044820152651c8818d85b1b60d21b60648201526084016104cd565b600080866001600160a01b0316858760405161138091906117fe565b60006040518083038185875af1925050503d80600081146113bd576040519150601f19603f3d011682016040523d82523d6000602084013e6113c2565b606091505b50915091506113d3878383876113de565b979650505050505050565b6060831561144a578251611443576001600160a01b0385163b6114435760405162461bcd60e51b815260206004820152601d60248201527f416464726573733a2063616c6c20746f206e6f6e2d636f6e747261637400000060448201526064016104cd565b50816112fb565b6112fb838381511561145f5781518083602001fd5b8060405162461bcd60e51b81526004016104cd91906114a5565b60005b8381101561149457818101518382015260200161147c565b83811115610d955750506000910152565b60208152600082518060208401526114c4816040850160208701611479565b601f01601f19169190910160400192915050565b80356001600160a01b03811681146114ef57600080fd5b919050565b6000806040838503121561150757600080fd5b611510836114d8565b946020939093013593505050565b80356001600160a81b03811681146114ef57600080fd5b6000806040838503121561154857600080fd5b611551836114d8565b915061155f6020840161151e565b90509250929050565b60008060006060848603121561157d57600080fd5b611586846114d8565b9250611594602085016114d8565b9150604084013590509250925092565b6000602082840312156115b657600080fd5b6115bf826114d8565b9392505050565b6000806000606084860312156115db57600080fd5b6115e4846114d8565b92506115f26020850161151e565b9150611600604085016114d8565b90509250925092565b6000806000806080858703121561161f57600080fd5b611628856114d8565b93506020850135925061163d6040860161151e565b9396929550929360600135925050565b60008060006060848603121561166257600080fd5b8335925060208401359150611600604085016114d8565b6000806040838503121561168c57600080fd5b611695836114d8565b915061155f602084016114d8565b600080604083850312156116b657600080fd5b8235915061155f602084016114d8565b600181811c908216806116da57607f821691505b602082108114156116fb57634e487b7160e01b600052602260045260246000fd5b50919050565b634e487b7160e01b600052601160045260246000fd5b6000821982111561172a5761172a611701565b500190565b60006020828403121561174157600080fd5b815180151581146115bf57600080fd5b6020808252603e908201527f43616c6c65642066726f6d2061206e6f6e2d72656769737465726564206f722060408201527f71756172616e74696e656420657869742067616d6520636f6e74726163740000606082015260800190565b60008160001904831182151516156117c8576117c8611701565b500290565b634e487b7160e01b600052603260045260246000fd5b60006000198214156117f7576117f7611701565b5060010190565b60008251611810818460208701611479565b919091019291505056fea264697066735822122087715cab4128bca5f8a1155360b4a4e5c9ea92b286a091865e76ce7fd62d47d764736f6c634300080a0033",
  "linkReferences": {},
  "deployedLinkReferences": {}
}