{
  "_format": "hh-sol-artifact-1",
  "contractName": "Executor",
  "sourceName": "contracts/governance/Executor.sol",
  "abi": [
    {
      "inputs": [
        {
          "internalType": "address",
          "name": "admin",
          "type": "address"
        },
        {
          "internalType": "uint256",
          "name": "delay",
          "type": "uint256"
        },
        {
          "internalType": "uint256",
          "name": "gracePeriod",
          "type": "uint256"
        },
        {
          "internalType": "uint256",
          "name": "minimumDelay",
          "type": "uint256"
        },
        {
          "internalType": "uint256",
          "name": "maximumDelay",
          "type": "uint256"
        },
        {
          "internalType": "address",
          "name": "token",
          "type": "address"
        },
        {
          "internalType": "uint256",
          "name": "propositionThreshold",
          "type": "uint256"
        }
      ],
      "stateMutability": "nonpayable",
      "type": "constructor"
    },
    {
      "anonymous": false,
      "inputs": [
        {
          "indexed": false,
          "internalType": "bytes32",
          "name": "actionHash",
          "type": "bytes32"
        },
        {
          "indexed": true,
          "internalType": "address",
          "name": "target",
          "type": "address"
        },
        {
          "indexed": false,
          "internalType": "uint256",
          "name": "value",
          "type": "uint256"
        },
        {
          "indexed": false,
          "internalType": "string",
          "name": "signature",
          "type": "string"
        },
        {
          "indexed": false,
          "internalType": "bytes",
          "name": "data",
          "type": "bytes"
        },
        {
          "indexed": false,
          "internalType": "uint256",
          "name": "executionTime",
          "type": "uint256"
        },
        {
          "indexed": false,
          "internalType": "bool",
          "name": "withDelegatecall",
          "type": "bool"
        }
      ],
      "name": "CancelledAction",
      "type": "event"
    },
    {
      "anonymous": false,
      "inputs": [
        {
          "indexed": false,
          "internalType": "bytes32",
          "name": "actionHash",
          "type": "bytes32"
        },
        {
          "indexed": true,
          "internalType": "address",
          "name": "target",
          "type": "address"
        },
        {
          "indexed": false,
          "internalType": "uint256",
          "name": "value",
          "type": "uint256"
        },
        {
          "indexed": false,
          "internalType": "string",
          "name": "signature",
          "type": "string"
        },
        {
          "indexed": false,
          "internalType": "bytes",
          "name": "data",
          "type": "bytes"
        },
        {
          "indexed": false,
          "internalType": "uint256",
          "name": "executionTime",
          "type": "uint256"
        },
        {
          "indexed": false,
          "internalType": "bool",
          "name": "withDelegatecall",
          "type": "bool"
        },
        {
          "indexed": false,
          "internalType": "bytes",
          "name": "resultData",
          "type": "bytes"
        }
      ],
      "name": "ExecutedAction",
      "type": "event"
    },
    {
      "anonymous": false,
      "inputs": [
        {
          "indexed": false,
          "internalType": "address",
          "name": "newAdmin",
          "type": "address"
        }
      ],
      "name": "NewAdmin",
      "type": "event"
    },
    {
      "anonymous": false,
      "inputs": [
        {
          "indexed": false,
          "internalType": "uint256",
          "name": "delay",
          "type": "uint256"
        }
      ],
      "name": "NewDelay",
      "type": "event"
    },
    {
      "anonymous": false,
      "inputs": [
        {
          "indexed": false,
          "internalType": "address",
          "name": "newPendingAdmin",
          "type": "address"
        }
      ],
      "name": "NewPendingAdmin",
      "type": "event"
    },
    {
      "anonymous": false,
      "inputs": [
        {
          "indexed": false,
          "internalType": "bytes32",
          "name": "actionHash",
          "type": "bytes32"
        },
        {
          "indexed": true,
          "internalType": "address",
          "name": "target",
          "type": "address"
        },
        {
          "indexed": false,
          "internalType": "uint256",
          "name": "value",
          "type": "uint256"
        },
        {
          "indexed": false,
          "internalType": "string",
          "name": "signature",
          "type": "string"
        },
        {
          "indexed": false,
          "internalType": "bytes",
          "name": "data",
          "type": "bytes"
        },
        {
          "indexed": false,
          "internalType": "uint256",
          "name": "executionTime",
          "type": "uint256"
        },
        {
          "indexed": false,
          "internalType": "bool",
          "name": "withDelegatecall",
          "type": "bool"
        }
      ],
      "name": "QueuedAction",
      "type": "event"
    },
    {
      "inputs": [],
      "name": "GRACE_PERIOD",
      "outputs": [
        {
          "internalType": "uint256",
          "name": "",
          "type": "uint256"
        }
      ],
      "stateMutability": "view",
      "type": "function"
    },
    {
      "inputs": [],
      "name": "GT",
      "outputs": [
        {
          "internalType": "contract GovernToken",
          "name": "",
          "type": "address"
        }
      ],
      "stateMutability": "view",
      "type": "function"
    },
    {
      "inputs": [],
      "name": "MAXIMUM_DELAY",
      "outputs": [
        {
          "internalType": "uint256",
          "name": "",
          "type": "uint256"
        }
      ],
      "stateMutability": "view",
      "type": "function"
    },
    {
      "inputs": [],
      "name": "MINIMUM_DELAY",
      "outputs": [
        {
          "internalType": "uint256",
          "name": "",
          "type": "uint256"
        }
      ],
      "stateMutability": "view",
      "type": "function"
    },
    {
      "inputs": [],
      "name": "ONE_HUNDRED_WITH_PRECISION",
      "outputs": [
        {
          "internalType": "uint256",
          "name": "",
          "type": "uint256"
        }
      ],
      "stateMutability": "view",
      "type": "function"
    },
    {
      "inputs": [],
      "name": "PROPOSITION_THRESHOLD",
      "outputs": [
        {
          "internalType": "uint256",
          "name": "",
          "type": "uint256"
        }
      ],
      "stateMutability": "view",
      "type": "function"
    },
    {
      "inputs": [],
      "name": "acceptAdmin",
      "outputs": [],
      "stateMutability": "nonpayable",
      "type": "function"
    },
    {
      "inputs": [
        {
          "internalType": "address",
          "name": "target",
          "type": "address"
        },
        {
          "internalType": "uint256",
          "name": "value",
          "type": "uint256"
        },
        {
          "internalType": "string",
          "name": "signature",
          "type": "string"
        },
        {
          "internalType": "bytes",
          "name": "data",
          "type": "bytes"
        },
        {
          "internalType": "uint256",
          "name": "executionBlock",
          "type": "uint256"
        },
        {
          "internalType": "bool",
          "name": "withDelegatecall",
          "type": "bool"
        }
      ],
      "name": "cancelTransaction",
      "outputs": [
        {
          "internalType": "bytes32",
          "name": "",
          "type": "bytes32"
        }
      ],
      "stateMutability": "nonpayable",
      "type": "function"
    },
    {
      "inputs": [
        {
          "internalType": "address",
          "name": "target",
          "type": "address"
        },
        {
          "internalType": "uint256",
          "name": "value",
          "type": "uint256"
        },
        {
          "internalType": "string",
          "name": "signature",
          "type": "string"
        },
        {
          "internalType": "bytes",
          "name": "data",
          "type": "bytes"
        },
        {
          "internalType": "uint256",
          "name": "executionBlock",
          "type": "uint256"
        },
        {
          "internalType": "bool",
          "name": "withDelegatecall",
          "type": "bool"
        }
      ],
      "name": "executeTransaction",
      "outputs": [
        {
          "internalType": "bytes",
          "name": "",
          "type": "bytes"
        }
      ],
      "stateMutability": "payable",
      "type": "function"
    },
    {
      "inputs": [],
      "name": "getAdmin",
      "outputs": [
        {
          "internalType": "address",
          "name": "",
          "type": "address"
        }
      ],
      "stateMutability": "view",
      "type": "function"
    },
    {
      "inputs": [],
      "name": "getDelay",
      "outputs": [
        {
          "internalType": "uint256",
          "name": "",
          "type": "uint256"
        }
      ],
      "stateMutability": "view",
      "type": "function"
    },
    {
      "inputs": [
        {
          "internalType": "contract IGovernance",
          "name": "governance",
          "type": "address"
        },
        {
          "internalType": "uint256",
          "name": "blockNumber",
          "type": "uint256"
        }
      ],
      "name": "getMinimumPowerNeeded",
      "outputs": [
        {
          "internalType": "uint256",
          "name": "",
          "type": "uint256"
        }
      ],
      "stateMutability": "view",
      "type": "function"
    },
    {
      "inputs": [],
      "name": "getPendingAdmin",
      "outputs": [
        {
          "internalType": "address",
          "name": "",
          "type": "address"
        }
      ],
      "stateMutability": "view",
      "type": "function"
    },
    {
      "inputs": [
        {
          "internalType": "bytes32",
          "name": "actionHash",
          "type": "bytes32"
        }
      ],
      "name": "isActionQueued",
      "outputs": [
        {
          "internalType": "bool",
          "name": "",
          "type": "bool"
        }
      ],
      "stateMutability": "view",
      "type": "function"
    },
    {
      "inputs": [
        {
          "internalType": "contract IGovernance",
          "name": "governance",
          "type": "address"
        },
        {
          "internalType": "address",
          "name": "user",
          "type": "address"
        },
        {
          "internalType": "uint256",
          "name": "blockNumber",
          "type": "uint256"
        }
      ],
      "name": "isPowerEnough",
      "outputs": [
        {
          "internalType": "bool",
          "name": "",
          "type": "bool"
        }
      ],
      "stateMutability": "view",
      "type": "function"
    },
    {
      "inputs": [
        {
          "internalType": "contract IGovernance",
          "name": "governance",
          "type": "address"
        },
        {
          "internalType": "uint256",
          "name": "proposalId",
          "type": "uint256"
        }
      ],
      "name": "isProposalOverGracePeriod",
      "outputs": [
        {
          "internalType": "bool",
          "name": "",
          "type": "bool"
        }
      ],
      "stateMutability": "view",
      "type": "function"
    },
    {
      "inputs": [
        {
          "internalType": "address",
          "name": "governance",
          "type": "address"
        },
        {
          "internalType": "contract IReview",
          "name": "review",
          "type": "address"
        },
        {
          "internalType": "uint256",
          "name": "proposalId",
          "type": "uint256"
        }
      ],
      "name": "isProposalPassed",
      "outputs": [
        {
          "internalType": "bool",
          "name": "",
          "type": "bool"
        }
      ],
      "stateMutability": "view",
      "type": "function"
    },
    {
      "inputs": [
        {
          "internalType": "address",
          "name": "target",
          "type": "address"
        },
        {
          "internalType": "uint256",
          "name": "value",
          "type": "uint256"
        },
        {
          "internalType": "string",
          "name": "signature",
          "type": "string"
        },
        {
          "internalType": "bytes",
          "name": "data",
          "type": "bytes"
        },
        {
          "internalType": "uint256",
          "name": "executionBlock",
          "type": "uint256"
        },
        {
          "internalType": "bool",
          "name": "withDelegatecall",
          "type": "bool"
        }
      ],
      "name": "queueTransaction",
      "outputs": [
        {
          "internalType": "bytes32",
          "name": "",
          "type": "bytes32"
        }
      ],
      "stateMutability": "nonpayable",
      "type": "function"
    },
    {
      "inputs": [
        {
          "internalType": "uint256",
          "name": "delay",
          "type": "uint256"
        }
      ],
      "name": "setDelay",
      "outputs": [],
      "stateMutability": "nonpayable",
      "type": "function"
    },
    {
      "inputs": [
        {
          "internalType": "address",
          "name": "newPendingAdmin",
          "type": "address"
        }
      ],
      "name": "setPendingAdmin",
      "outputs": [],
      "stateMutability": "nonpayable",
      "type": "function"
    },
    {
      "inputs": [
        {
          "internalType": "contract IGovernance",
          "name": "governance",
          "type": "address"
        },
        {
          "internalType": "address",
          "name": "user",
          "type": "address"
        }
      ],
      "name": "validateCreateOfMarket",
      "outputs": [
        {
          "internalType": "bool",
          "name": "",
          "type": "bool"
        }
      ],
      "stateMutability": "view",
      "type": "function"
    },
    {
      "inputs": [
        {
          "internalType": "contract IGovernance",
          "name": "governance",
          "type": "address"
        },
        {
          "internalType": "address",
          "name": "user",
          "type": "address"
        },
        {
          "internalType": "uint256",
          "name": "blockNumber",
          "type": "uint256"
        }
      ],
      "name": "validateCreatorOfProposal",
      "outputs": [
        {
          "internalType": "bool",
          "name": "",
          "type": "bool"
        }
      ],
      "stateMutability": "view",
      "type": "function"
    },
    {
      "inputs": [
        {
          "internalType": "contract IGovernance",
          "name": "governance",
          "type": "address"
        },
        {
          "internalType": "address",
          "name": "user",
          "type": "address"
        },
        {
          "internalType": "uint256",
          "name": "blockNumber",
          "type": "uint256"
        }
      ],
      "name": "validateProposalCancellation",
      "outputs": [
        {
          "internalType": "bool",
          "name": "",
          "type": "bool"
        }
      ],
      "stateMutability": "view",
      "type": "function"
    },
    {
      "stateMutability": "payable",
      "type": "receive"
    }
  ],
  "bytecode": "0x6101206040523480156200001257600080fd5b5060405162001bf238038062001bf2833981016040819052620000359162000148565b6001600160a01b03821660805260a0819052838610156200009d5760405162461bcd60e51b815260206004820152601a60248201527f44454c41595f53484f525445525f5448414e5f4d494e494d554d00000000000060448201526064015b60405180910390fd5b82861115620000ef5760405162461bcd60e51b815260206004820152601960248201527f44454c41595f4c4f4e4745525f5448414e5f4d4158494d554d00000000000000604482015260640162000094565b5050600293909355600080546001600160a01b0319166001600160a01b03959095169490941790935560c05260e09190915261010052620001b0565b80516001600160a01b03811681146200014357600080fd5b919050565b600080600080600080600060e0888a0312156200016457600080fd5b6200016f886200012b565b9650602088015195506040880151945060608801519350608088015192506200019b60a089016200012b565b915060c0880151905092959891949750929550565b60805160a05160c05160e051610100516119cc62000226600039600081816102c7015261105501526000818161033b0152610fe50152600081816103bf0152818161093d0152610eec0152600081816104ba0152610f2e0152600081816103f301528181610d4e0152610f4f01526119cc6000f3fe6080604052600436106101845760003560e01c8063b1b43ae5116100d6578063d04681561161007f578063f670a5f911610059578063f670a5f914610488578063fd58afd4146104a8578063ffbb0d7b146104dc57600080fd5b8063d04681561461042a578063d0d9029814610448578063e177246e1461046857600080fd5b8063c1a287e2116100b0578063c1a287e2146103ad578063c7917455146103e1578063cebc9a821461041557600080fd5b8063b1b43ae514610329578063b1fc87961461035d578063baea0cc41461038d57600080fd5b806331a7bc41116101385780637d645fab116101125780637d645fab146102b55780638902ab65146102e95780638d8fe2e31461030957600080fd5b806331a7bc41146102435780634dd18bf5146102635780636e9960c31461028357600080fd5b80630e18b681116101695780630e18b681146101e85780631d73fd6d146101ff5780631dc40b511461022357600080fd5b806302f725f01461019057806307e9f5fc146101c557600080fd5b3661018b57005b600080fd5b34801561019c57600080fd5b506101b06101ab3660046110db565b6104fc565b60405190151581526020015b60405180910390f35b3480156101d157600080fd5b506101b06101e036600461111c565b600092915050565b3480156101f457600080fd5b506101fd610594565b005b34801561020b57600080fd5b5061021561271081565b6040519081526020016101bc565b34801561022f57600080fd5b5061021561023e36600461124a565b610654565b34801561024f57600080fd5b506101b061025e3660046110db565b610740565b34801561026f57600080fd5b506101fd61027e36600461130e565b610756565b34801561028f57600080fd5b506000546001600160a01b03165b6040516001600160a01b0390911681526020016101bc565b3480156102c157600080fd5b506102157f000000000000000000000000000000000000000000000000000000000000000081565b6102fc6102f736600461124a565b610807565b6040516101bc919061137b565b34801561031557600080fd5b5061021561032436600461124a565b610bcb565b34801561033557600080fd5b506102157f000000000000000000000000000000000000000000000000000000000000000081565b34801561036957600080fd5b506101b061037836600461138e565b60009081526003602052604090205460ff1690565b34801561039957600080fd5b506101b06103a83660046110db565b610d03565b3480156103b957600080fd5b506102157f000000000000000000000000000000000000000000000000000000000000000081565b3480156103ed57600080fd5b5061029d7f000000000000000000000000000000000000000000000000000000000000000081565b34801561042157600080fd5b50600254610215565b34801561043657600080fd5b506001546001600160a01b031661029d565b34801561045457600080fd5b506101b06104633660046110db565b610dc3565b34801561047457600080fd5b506101fd61048336600461138e565b610dd0565b34801561049457600080fd5b506101b06104a33660046113a7565b610e5d565b3480156104b457600080fd5b506102157f000000000000000000000000000000000000000000000000000000000000000081565b3480156104e857600080fd5b506102156104f73660046113a7565b610f27565b6040517f06fbb3ab0000000000000000000000000000000000000000000000000000000081526001600160a01b03848116600483015260248201839052600091908416906306fbb3ab90604401602060405180830381865afa158015610566573d6000803e3d6000fd5b505050506040513d601f19601f8201168201806040525081019061058a91906113de565b90505b9392505050565b6001546001600160a01b031633146105f35760405162461bcd60e51b815260206004820152601560248201527f4f4e4c595f42595f50454e44494e475f41444d494e000000000000000000000060448201526064015b60405180910390fd5b600080543373ffffffffffffffffffffffffffffffffffffffff1991821681179092556001805490911690556040519081527f71614071b88dee5e0b2ae578a9dd7b2ebbe9ae832ba419dc0242cd065a290b6c9060200160405180910390a1565b600080546001600160a01b0316331461069f5760405162461bcd60e51b815260206004820152600d60248201526c27a7262cafa12cafa0a226a4a760991b60448201526064016105ea565b60008787878787876040516020016106bc969594939291906113fb565b60408051601f19818403018152828252805160209182012060008181526003909252919020805460ff1916905591506001600160a01b038916907f87c481aa909c37502caa37394ab791c26b68fa4fa5ae56de104de36444ae90699061072d9084908b908b908b908b908b90611450565b60405180910390a2979650505050505050565b600061074d848484610d03565b15949350505050565b3330146107a55760405162461bcd60e51b815260206004820152601560248201527f4f4e4c595f42595f544849535f54494d454c4f434b000000000000000000000060448201526064016105ea565b6001805473ffffffffffffffffffffffffffffffffffffffff19166001600160a01b0383169081179091556040519081527f69d78e38a01985fbb1462961809b4b2d65531bc93b2b94037f3334b82ca4a756906020015b60405180910390a150565b6000546060906001600160a01b031633146108545760405162461bcd60e51b815260206004820152600d60248201526c27a7262cafa12cafa0a226a4a760991b60448201526064016105ea565b6000878787878787604051602001610871969594939291906113fb565b60408051601f1981840301815291815281516020928301206000818152600390935291205490915060ff166108e85760405162461bcd60e51b815260206004820152601160248201527f414354494f4e5f4e4f545f51554555454400000000000000000000000000000060448201526064016105ea565b834310156109385760405162461bcd60e51b815260206004820152601560248201527f54494d454c4f434b5f4e4f545f46494e4953484544000000000000000000000060448201526064016105ea565b6109627f000000000000000000000000000000000000000000000000000000000000000085611485565b4311156109b15760405162461bcd60e51b815260206004820152601560248201527f47524143455f504552494f445f46494e4953484544000000000000000000000060448201526064016105ea565b6000818152600360205260408120805460ff191690558651606091036109d8575084610a04565b8680519060200120866040516020016109f2929190611498565b60405160208183030381529060405290505b600060608515610ac15789341015610a5e5760405162461bcd60e51b815260206004820152601460248201527f4e4f545f454e4f5547485f4d53475f56414c554500000000000000000000000060448201526064016105ea565b8a6001600160a01b031683604051610a7691906114e0565b600060405180830381855af49150503d8060008114610ab1576040519150601f19603f3d011682016040523d82523d6000602084013e610ab6565b606091505b509092509050610b23565b8a6001600160a01b03168a84604051610ada91906114e0565b60006040518083038185875af1925050503d8060008114610b17576040519150601f19603f3d011682016040523d82523d6000602084013e610b1c565b606091505b5090925090505b81610b705760405162461bcd60e51b815260206004820152601760248201527f4641494c45445f414354494f4e5f455845435554494f4e00000000000000000060448201526064016105ea565b8a6001600160a01b03167f97825080b472fa91fe888b62ec128814d60dec546a2dafb955e50923f4a1b7e7858c8c8c8c8c88604051610bb597969594939291906114fc565b60405180910390a29a9950505050505050505050565b600080546001600160a01b03163314610c165760405162461bcd60e51b815260206004820152600d60248201526c27a7262cafa12cafa0a226a4a760991b60448201526064016105ea565b600254610c239043611485565b831015610c725760405162461bcd60e51b815260206004820152601d60248201527f455845435554494f4e5f54494d455f554e444552455354494d4154454400000060448201526064016105ea565b6000878787878787604051602001610c8f969594939291906113fb565b60408051601f19818403018152828252805160209182012060008181526003909252919020805460ff1916600117905591506001600160a01b038916907f2191aed4c4733c76e08a9e7e1da0b8d87fa98753f22df49231ddc66e0f05f0229061072d9084908b908b908b908b908b90611450565b6000610d0f8483610f27565b6040517feaeded5f0000000000000000000000000000000000000000000000000000000081526001600160a01b038581166004830152602482018590527f0000000000000000000000000000000000000000000000000000000000000000169063eaeded5f90604401602060405180830381865afa158015610d95573d6000803e3d6000fd5b505050506040513d601f19601f82011682018060405250810190610db9919061155d565b1015949350505050565b600061058a848484610d03565b333014610e1f5760405162461bcd60e51b815260206004820152601560248201527f4f4e4c595f42595f544849535f54494d454c4f434b000000000000000000000060448201526064016105ea565b610e2881610fe3565b60028190556040518181527f948b1f6a42ee138b7e34058ba85a37f716d55ff25ff05a763f15bed6a04c8d2c906020016107fc565b6040517f3656de210000000000000000000000000000000000000000000000000000000081526004810182905260009081906001600160a01b03851690633656de2190602401600060405180830381865afa158015610ec0573d6000803e3d6000fd5b505050506040513d6000823e601f3d908101601f19168201604052610ee89190810190611798565b90507f0000000000000000000000000000000000000000000000000000000000000000816101600151610f1b9190611485565b43119150505b92915050565b60006127107f00000000000000000000000000000000000000000000000000000000000000007f00000000000000000000000000000000000000000000000000000000000000006001600160a01b03166318160ddd6040518163ffffffff1660e01b8152600401602060405180830381865afa158015610fab573d6000803e3d6000fd5b505050506040513d601f19601f82011682018060405250810190610fcf919061155d565b610fd9919061195d565b61058d9190611974565b7f00000000000000000000000000000000000000000000000000000000000000008110156110535760405162461bcd60e51b815260206004820152601a60248201527f44454c41595f53484f525445525f5448414e5f4d494e494d554d00000000000060448201526064016105ea565b7f00000000000000000000000000000000000000000000000000000000000000008111156110c35760405162461bcd60e51b815260206004820152601960248201527f44454c41595f4c4f4e4745525f5448414e5f4d4158494d554d0000000000000060448201526064016105ea565b50565b6001600160a01b03811681146110c357600080fd5b6000806000606084860312156110f057600080fd5b83356110fb816110c6565b9250602084013561110b816110c6565b929592945050506040919091013590565b6000806040838503121561112f57600080fd5b823561113a816110c6565b9150602083013561114a816110c6565b809150509250929050565b634e487b7160e01b600052604160045260246000fd5b604051610240810167ffffffffffffffff8111828210171561118f5761118f611155565b60405290565b604051601f8201601f1916810167ffffffffffffffff811182821017156111be576111be611155565b604052919050565b600067ffffffffffffffff8211156111e0576111e0611155565b50601f01601f191660200190565b60006112016111fc846111c6565b611195565b905082815283838301111561121557600080fd5b828260208301376000602084830101529392505050565b80151581146110c357600080fd5b80356112458161122c565b919050565b60008060008060008060c0878903121561126357600080fd5b863561126e816110c6565b955060208701359450604087013567ffffffffffffffff8082111561129257600080fd5b818901915089601f8301126112a657600080fd5b6112b58a8335602085016111ee565b955060608901359150808211156112cb57600080fd5b508701601f810189136112dd57600080fd5b6112ec898235602084016111ee565b9350506080870135915061130260a0880161123a565b90509295509295509295565b60006020828403121561132057600080fd5b813561058d816110c6565b60005b8381101561134657818101518382015260200161132e565b50506000910152565b6000815180845261136781602086016020860161132b565b601f01601f19169290920160200192915050565b60208152600061058d602083018461134f565b6000602082840312156113a057600080fd5b5035919050565b600080604083850312156113ba57600080fd5b82356113c5816110c6565b946020939093013593505050565b80516112458161122c565b6000602082840312156113f057600080fd5b815161058d8161122c565b6001600160a01b038716815285602082015260c06040820152600061142360c083018761134f565b8281036060840152611435818761134f565b6080840195909552505090151560a090910152949350505050565b86815285602082015260c06040820152600061142360c083018761134f565b634e487b7160e01b600052601160045260246000fd5b80820180821115610f2157610f2161146f565b7fffffffff0000000000000000000000000000000000000000000000000000000083168152600082516114d281600485016020870161132b565b919091016004019392505050565b600082516114f281846020870161132b565b9190910192915050565b87815286602082015260e06040820152600061151b60e083018861134f565b828103606084015261152d818861134f565b905085608084015284151560a084015282810360c084015261154f818561134f565b9a9950505050505050505050565b60006020828403121561156f57600080fd5b5051919050565b8051611245816110c6565b600067ffffffffffffffff82111561159b5761159b611155565b5060051b60200190565b600082601f8301126115b657600080fd5b815160206115c66111fc83611581565b82815260059290921b840181019181810190868411156115e557600080fd5b8286015b848110156116095780516115fc816110c6565b83529183019183016115e9565b509695505050505050565b600082601f83011261162557600080fd5b815160206116356111fc83611581565b82815260059290921b8401810191818101908684111561165457600080fd5b8286015b848110156116095780518352918301918301611658565b600061167d6111fc846111c6565b905082815283838301111561169157600080fd5b61058d83602083018461132b565b600082601f8301126116b057600080fd5b815160206116c06111fc83611581565b82815260059290921b840181019181810190868411156116df57600080fd5b8286015b8481101561160957805167ffffffffffffffff8111156117035760008081fd5b8701603f810189136117155760008081fd5b61172689868301516040840161166f565b8452509183019183016116e3565b600082601f83011261174557600080fd5b815160206117556111fc83611581565b82815260059290921b8401810191818101908684111561177457600080fd5b8286015b8481101561160957805161178b8161122c565b8352918301918301611778565b6000602082840312156117aa57600080fd5b815167ffffffffffffffff808211156117c257600080fd5b9083019061024082860312156117d757600080fd5b6117df61116b565b825181526117ef60208401611576565b60208201526040830151604082015261180a60608401611576565b606082015260808301518281111561182157600080fd5b61182d878286016115a5565b60808301525060a08301518281111561184557600080fd5b61185187828601611614565b60a08301525060c08301518281111561186957600080fd5b6118758782860161169f565b60c08301525060e08301518281111561188d57600080fd5b6118998782860161169f565b60e08301525061010080840151838111156118b357600080fd5b6118bf88828701611734565b918301919091525061012083810151908201526101408084015190820152610160808401519082015261018091506118f88284016113d3565b828201526101a0915061190c8284016113d3565b828201526101c091506119208284016113d3565b828201526101e0915081830151828201526102009150611941828401611576565b9181019190915261022091820151918101919091529392505050565b8082028115828204841417610f2157610f2161146f565b60008261199157634e487b7160e01b600052601260045260246000fd5b50049056fea2646970667358221220e8426c1389ba7926e03e23b34acd84403ce4928b2bc9605884269c0cae90860464736f6c63430008130033",
  "linkReferences": {},
  "deployedLinkReferences": {}
}