{
  "_format": "hh-sol-artifact-1",
  "contractName": "ConditionalTokens",
  "sourceName": "contracts/market/ConditionalTokens.sol",
  "abi": [
    {
      "inputs": [
        {
          "internalType": "string",
          "name": "uri_",
          "type": "string"
        }
      ],
      "stateMutability": "nonpayable",
      "type": "constructor"
    },
    {
      "anonymous": false,
      "inputs": [
        {
          "indexed": true,
          "internalType": "address",
          "name": "account",
          "type": "address"
        },
        {
          "indexed": true,
          "internalType": "address",
          "name": "operator",
          "type": "address"
        },
        {
          "indexed": false,
          "internalType": "bool",
          "name": "approved",
          "type": "bool"
        }
      ],
      "name": "ApprovalForAll",
      "type": "event"
    },
    {
      "anonymous": false,
      "inputs": [
        {
          "indexed": true,
          "internalType": "bytes32",
          "name": "conditionId",
          "type": "bytes32"
        },
        {
          "indexed": true,
          "internalType": "address",
          "name": "oracle",
          "type": "address"
        },
        {
          "indexed": true,
          "internalType": "bytes32",
          "name": "questionId",
          "type": "bytes32"
        },
        {
          "indexed": false,
          "internalType": "uint256",
          "name": "outcomeSlotCount",
          "type": "uint256"
        }
      ],
      "name": "ConditionPreparation",
      "type": "event"
    },
    {
      "anonymous": false,
      "inputs": [
        {
          "indexed": true,
          "internalType": "bytes32",
          "name": "conditionId",
          "type": "bytes32"
        },
        {
          "indexed": true,
          "internalType": "address",
          "name": "oracle",
          "type": "address"
        },
        {
          "indexed": true,
          "internalType": "bytes32",
          "name": "questionId",
          "type": "bytes32"
        },
        {
          "indexed": false,
          "internalType": "uint256",
          "name": "outcomeSlotCount",
          "type": "uint256"
        },
        {
          "indexed": false,
          "internalType": "uint256[]",
          "name": "payoutNumerators",
          "type": "uint256[]"
        }
      ],
      "name": "ConditionResolution",
      "type": "event"
    },
    {
      "anonymous": false,
      "inputs": [
        {
          "indexed": true,
          "internalType": "address",
          "name": "redeemer",
          "type": "address"
        },
        {
          "indexed": true,
          "internalType": "contract IERC20",
          "name": "collateralToken",
          "type": "address"
        },
        {
          "indexed": false,
          "internalType": "bytes32",
          "name": "conditionId",
          "type": "bytes32"
        },
        {
          "indexed": false,
          "internalType": "uint256[]",
          "name": "indexSets",
          "type": "uint256[]"
        },
        {
          "indexed": false,
          "internalType": "uint256",
          "name": "payout",
          "type": "uint256"
        }
      ],
      "name": "PayoutRedemption",
      "type": "event"
    },
    {
      "anonymous": false,
      "inputs": [
        {
          "indexed": true,
          "internalType": "address",
          "name": "stakeholder",
          "type": "address"
        },
        {
          "indexed": false,
          "internalType": "contract IERC20",
          "name": "collateralToken",
          "type": "address"
        },
        {
          "indexed": true,
          "internalType": "bytes32",
          "name": "conditionId",
          "type": "bytes32"
        },
        {
          "indexed": false,
          "internalType": "uint256[]",
          "name": "partition",
          "type": "uint256[]"
        },
        {
          "indexed": false,
          "internalType": "uint256",
          "name": "amount",
          "type": "uint256"
        }
      ],
      "name": "PositionSplit",
      "type": "event"
    },
    {
      "anonymous": false,
      "inputs": [
        {
          "indexed": true,
          "internalType": "address",
          "name": "stakeholder",
          "type": "address"
        },
        {
          "indexed": false,
          "internalType": "contract IERC20",
          "name": "collateralToken",
          "type": "address"
        },
        {
          "indexed": true,
          "internalType": "bytes32",
          "name": "conditionId",
          "type": "bytes32"
        },
        {
          "indexed": false,
          "internalType": "uint256[]",
          "name": "partition",
          "type": "uint256[]"
        },
        {
          "indexed": false,
          "internalType": "uint256",
          "name": "amount",
          "type": "uint256"
        }
      ],
      "name": "PositionsMerge",
      "type": "event"
    },
    {
      "anonymous": false,
      "inputs": [
        {
          "indexed": true,
          "internalType": "address",
          "name": "operator",
          "type": "address"
        },
        {
          "indexed": true,
          "internalType": "address",
          "name": "from",
          "type": "address"
        },
        {
          "indexed": true,
          "internalType": "address",
          "name": "to",
          "type": "address"
        },
        {
          "indexed": false,
          "internalType": "uint256[]",
          "name": "ids",
          "type": "uint256[]"
        },
        {
          "indexed": false,
          "internalType": "uint256[]",
          "name": "values",
          "type": "uint256[]"
        }
      ],
      "name": "TransferBatch",
      "type": "event"
    },
    {
      "anonymous": false,
      "inputs": [
        {
          "indexed": true,
          "internalType": "address",
          "name": "operator",
          "type": "address"
        },
        {
          "indexed": true,
          "internalType": "address",
          "name": "from",
          "type": "address"
        },
        {
          "indexed": true,
          "internalType": "address",
          "name": "to",
          "type": "address"
        },
        {
          "indexed": false,
          "internalType": "uint256",
          "name": "id",
          "type": "uint256"
        },
        {
          "indexed": false,
          "internalType": "uint256",
          "name": "value",
          "type": "uint256"
        }
      ],
      "name": "TransferSingle",
      "type": "event"
    },
    {
      "anonymous": false,
      "inputs": [
        {
          "indexed": false,
          "internalType": "string",
          "name": "value",
          "type": "string"
        },
        {
          "indexed": true,
          "internalType": "uint256",
          "name": "id",
          "type": "uint256"
        }
      ],
      "name": "URI",
      "type": "event"
    },
    {
      "inputs": [
        {
          "internalType": "address",
          "name": "account",
          "type": "address"
        },
        {
          "internalType": "uint256",
          "name": "id",
          "type": "uint256"
        }
      ],
      "name": "balanceOf",
      "outputs": [
        {
          "internalType": "uint256",
          "name": "",
          "type": "uint256"
        }
      ],
      "stateMutability": "view",
      "type": "function"
    },
    {
      "inputs": [
        {
          "internalType": "address[]",
          "name": "accounts",
          "type": "address[]"
        },
        {
          "internalType": "uint256[]",
          "name": "ids",
          "type": "uint256[]"
        }
      ],
      "name": "balanceOfBatch",
      "outputs": [
        {
          "internalType": "uint256[]",
          "name": "",
          "type": "uint256[]"
        }
      ],
      "stateMutability": "view",
      "type": "function"
    },
    {
      "inputs": [
        {
          "internalType": "bytes32",
          "name": "conditionId",
          "type": "bytes32"
        },
        {
          "internalType": "uint256",
          "name": "indexSet",
          "type": "uint256"
        }
      ],
      "name": "getCollectionId",
      "outputs": [
        {
          "internalType": "bytes32",
          "name": "",
          "type": "bytes32"
        }
      ],
      "stateMutability": "pure",
      "type": "function"
    },
    {
      "inputs": [
        {
          "internalType": "address",
          "name": "oracle",
          "type": "address"
        },
        {
          "internalType": "bytes32",
          "name": "questionId",
          "type": "bytes32"
        },
        {
          "internalType": "uint256",
          "name": "outcomeSlotCount",
          "type": "uint256"
        }
      ],
      "name": "getConditionId",
      "outputs": [
        {
          "internalType": "bytes32",
          "name": "",
          "type": "bytes32"
        }
      ],
      "stateMutability": "pure",
      "type": "function"
    },
    {
      "inputs": [
        {
          "internalType": "bytes32",
          "name": "conditionId",
          "type": "bytes32"
        }
      ],
      "name": "getOutcomeSlotCount",
      "outputs": [
        {
          "internalType": "uint256",
          "name": "",
          "type": "uint256"
        }
      ],
      "stateMutability": "view",
      "type": "function"
    },
    {
      "inputs": [
        {
          "internalType": "contract IERC20",
          "name": "collateralToken",
          "type": "address"
        },
        {
          "internalType": "bytes32",
          "name": "collectionId",
          "type": "bytes32"
        }
      ],
      "name": "getPositionId",
      "outputs": [
        {
          "internalType": "uint256",
          "name": "",
          "type": "uint256"
        }
      ],
      "stateMutability": "pure",
      "type": "function"
    },
    {
      "inputs": [
        {
          "internalType": "address",
          "name": "account",
          "type": "address"
        },
        {
          "internalType": "address",
          "name": "operator",
          "type": "address"
        }
      ],
      "name": "isApprovedForAll",
      "outputs": [
        {
          "internalType": "bool",
          "name": "",
          "type": "bool"
        }
      ],
      "stateMutability": "view",
      "type": "function"
    },
    {
      "inputs": [
        {
          "internalType": "contract IERC20",
          "name": "collateralToken",
          "type": "address"
        },
        {
          "internalType": "bytes32",
          "name": "conditionId",
          "type": "bytes32"
        },
        {
          "internalType": "uint256[]",
          "name": "partition",
          "type": "uint256[]"
        },
        {
          "internalType": "uint256",
          "name": "amount",
          "type": "uint256"
        }
      ],
      "name": "mergePositions",
      "outputs": [],
      "stateMutability": "nonpayable",
      "type": "function"
    },
    {
      "inputs": [
        {
          "internalType": "bytes32",
          "name": "",
          "type": "bytes32"
        }
      ],
      "name": "payoutDenominator",
      "outputs": [
        {
          "internalType": "uint256",
          "name": "",
          "type": "uint256"
        }
      ],
      "stateMutability": "view",
      "type": "function"
    },
    {
      "inputs": [
        {
          "internalType": "bytes32",
          "name": "",
          "type": "bytes32"
        },
        {
          "internalType": "uint256",
          "name": "",
          "type": "uint256"
        }
      ],
      "name": "payoutNumerators",
      "outputs": [
        {
          "internalType": "uint256",
          "name": "",
          "type": "uint256"
        }
      ],
      "stateMutability": "view",
      "type": "function"
    },
    {
      "inputs": [
        {
          "internalType": "address",
          "name": "oracle",
          "type": "address"
        },
        {
          "internalType": "bytes32",
          "name": "questionId",
          "type": "bytes32"
        },
        {
          "internalType": "uint256",
          "name": "outcomeSlotCount",
          "type": "uint256"
        }
      ],
      "name": "prepareCondition",
      "outputs": [],
      "stateMutability": "nonpayable",
      "type": "function"
    },
    {
      "inputs": [
        {
          "internalType": "contract IERC20",
          "name": "collateralToken",
          "type": "address"
        },
        {
          "internalType": "bytes32",
          "name": "conditionId",
          "type": "bytes32"
        },
        {
          "internalType": "uint256[]",
          "name": "indexSets",
          "type": "uint256[]"
        }
      ],
      "name": "redeemPositions",
      "outputs": [],
      "stateMutability": "nonpayable",
      "type": "function"
    },
    {
      "inputs": [
        {
          "internalType": "bytes32",
          "name": "questionId",
          "type": "bytes32"
        },
        {
          "internalType": "uint256[]",
          "name": "payouts",
          "type": "uint256[]"
        }
      ],
      "name": "reportPayouts",
      "outputs": [],
      "stateMutability": "nonpayable",
      "type": "function"
    },
    {
      "inputs": [
        {
          "internalType": "address",
          "name": "from",
          "type": "address"
        },
        {
          "internalType": "address",
          "name": "to",
          "type": "address"
        },
        {
          "internalType": "uint256[]",
          "name": "ids",
          "type": "uint256[]"
        },
        {
          "internalType": "uint256[]",
          "name": "amounts",
          "type": "uint256[]"
        },
        {
          "internalType": "bytes",
          "name": "data",
          "type": "bytes"
        }
      ],
      "name": "safeBatchTransferFrom",
      "outputs": [],
      "stateMutability": "nonpayable",
      "type": "function"
    },
    {
      "inputs": [
        {
          "internalType": "address",
          "name": "from",
          "type": "address"
        },
        {
          "internalType": "address",
          "name": "to",
          "type": "address"
        },
        {
          "internalType": "uint256",
          "name": "id",
          "type": "uint256"
        },
        {
          "internalType": "uint256",
          "name": "amount",
          "type": "uint256"
        },
        {
          "internalType": "bytes",
          "name": "data",
          "type": "bytes"
        }
      ],
      "name": "safeTransferFrom",
      "outputs": [],
      "stateMutability": "nonpayable",
      "type": "function"
    },
    {
      "inputs": [
        {
          "internalType": "address",
          "name": "operator",
          "type": "address"
        },
        {
          "internalType": "bool",
          "name": "approved",
          "type": "bool"
        }
      ],
      "name": "setApprovalForAll",
      "outputs": [],
      "stateMutability": "nonpayable",
      "type": "function"
    },
    {
      "inputs": [
        {
          "internalType": "contract IERC20",
          "name": "collateralToken",
          "type": "address"
        },
        {
          "internalType": "bytes32",
          "name": "conditionId",
          "type": "bytes32"
        },
        {
          "internalType": "uint256[]",
          "name": "partition",
          "type": "uint256[]"
        },
        {
          "internalType": "uint256",
          "name": "amount",
          "type": "uint256"
        }
      ],
      "name": "splitPosition",
      "outputs": [],
      "stateMutability": "nonpayable",
      "type": "function"
    },
    {
      "inputs": [
        {
          "internalType": "bytes4",
          "name": "interfaceId",
          "type": "bytes4"
        }
      ],
      "name": "supportsInterface",
      "outputs": [
        {
          "internalType": "bool",
          "name": "",
          "type": "bool"
        }
      ],
      "stateMutability": "view",
      "type": "function"
    },
    {
      "inputs": [
        {
          "internalType": "uint256",
          "name": "",
          "type": "uint256"
        }
      ],
      "name": "uri",
      "outputs": [
        {
          "internalType": "string",
          "name": "",
          "type": "string"
        }
      ],
      "stateMutability": "view",
      "type": "function"
    }
  ],
  "bytecode": "0x60806040523480156200001157600080fd5b50604051620035de380380620035de833981016040819052620000349162000070565b80620000408162000048565b5050620002a0565b6002620000568282620001d4565b5050565b634e487b7160e01b600052604160045260246000fd5b600060208083850312156200008457600080fd5b82516001600160401b03808211156200009c57600080fd5b818501915085601f830112620000b157600080fd5b815181811115620000c657620000c66200005a565b604051601f8201601f19908116603f01168101908382118183101715620000f157620000f16200005a565b8160405282815288868487010111156200010a57600080fd5b600093505b828410156200012e57848401860151818501870152928501926200010f565b600086848301015280965050505050505092915050565b600181811c908216806200015a57607f821691505b6020821081036200017b57634e487b7160e01b600052602260045260246000fd5b50919050565b601f821115620001cf57600081815260208120601f850160051c81016020861015620001aa5750805b601f850160051c820191505b81811015620001cb57828155600101620001b6565b5050505b505050565b81516001600160401b03811115620001f057620001f06200005a565b620002088162000201845462000145565b8462000181565b602080601f831160018114620002405760008415620002275750858301515b600019600386901b1c1916600185901b178555620001cb565b600085815260208120601f198616915b82811015620002715788860151825594840194600190910190840162000250565b5085821015620002905787850151600019600388901b60f8161c191681555b5050505050600190811b01905550565b61332e80620002b06000396000f3fe608060405234801561001057600080fd5b50600436106101505760003560e01c80639414207a116100cd578063d42dc0c211610081578063dd34de6711610066578063dd34de6714610319578063e985e9c514610339578063f242432a1461037557600080fd5b8063d42dc0c2146102e6578063d96ee7541461030657600080fd5b8063a22cb465116100b2578063a22cb465146102ad578063abdadfbc146102c0578063c49298ac146102d357600080fd5b80639414207a14610287578063a1e7b67e1461029a57600080fd5b80630e89341c1161012457806339dd75301161010957806339dd7530146101f95780634e1273f41461020c578063852c6ae21461022c57600080fd5b80630e89341c146101c65780632eb2c2d6146101e657600080fd5b8062fdd58e1461015557806301cee6911461017b57806301ffc9a7146101905780630504c814146101b3575b600080fd5b61016861016336600461290c565b610388565b6040519081526020015b60405180910390f35b61018e610189366004612984565b610434565b005b6101a361019e3660046129fe565b610898565b6040519015158152602001610172565b6101686101c1366004612a1b565b610933565b6101d96101d4366004612a3d565b610964565b6040516101729190612a9c565b61018e6101f4366004612bfb565b6109f8565b61016861020736600461290c565b610a9a565b61021f61021a366004612ca9565b610ae5565b6040516101729190612db1565b61016861023a366004612dc4565b6040805160609490941b6bffffffffffffffffffffffff19166020808601919091526034850193909352605480850192909252805180850390920182526074909301909252815191012090565b61018e610295366004612984565b610c23565b6101686102a8366004612a1b565b611074565b61018e6102bb366004612e07565b6110a4565b61018e6102ce366004612e40565b6110b3565b61018e6102e1366004612e9c565b61145d565b6101686102f4366004612a3d565b60009081526003602052604090205490565b61018e610314366004612dc4565b61176a565b610168610327366004612a3d565b60046020526000908152604090205481565b6101a3610347366004612ee8565b6001600160a01b03918216600090815260016020908152604080832093909416825291909152205460ff1690565b61018e610383366004612f16565b611976565b60006001600160a01b03831661040b5760405162461bcd60e51b815260206004820152602a60248201527f455243313135353a2061646472657373207a65726f206973206e6f742061207660448201527f616c6964206f776e65720000000000000000000000000000000000000000000060648201526084015b60405180910390fd5b506000818152602081815260408083206001600160a01b03861684529091529020545b92915050565b600182116104845760405162461bcd60e51b815260206004820181905260248201527f676f7420656d707479206f722073696e676c65746f6e20706172746974696f6e6044820152606401610402565b600084815260036020526040902054806104e05760405162461bcd60e51b815260206004820152601a60248201527f636f6e646974696f6e206e6f74207072657061726564207965740000000000006044820152606401610402565b60006104ef600180841b612f95565b90508060008567ffffffffffffffff81111561050d5761050d612aaf565b604051908082528060200260200182016040528015610536578160200160208202803683370190505b50905060008667ffffffffffffffff81111561055457610554612aaf565b60405190808252806020026020018201604052801561057d578160200160208202803683370190505b50905060005b8781101561071e57600089898381811061059f5761059f612fa8565b9050602002013590506000811180156105b757508581105b6106035760405162461bcd60e51b815260206004820152601560248201527f676f7420696e76616c696420696e6465782073657400000000000000000000006044820152606401610402565b80858216146106545760405162461bcd60e51b815260206004820152601660248201527f706172746974696f6e206e6f74206469736a6f696e74000000000000000000006044820152606401610402565b6040805160208082018e905281830184905282518083038401815260609092019092528051910120948118946106cf908d905b6040516bffffffffffffffffffffffff19606084901b1660208201526034810182905260009060540160408051601f1981840301815291905280516020909101209392505050565b8483815181106106e1576106e1612fa8565b6020026020010181815250508783838151811061070057610700612fa8565b6020908102919091010152508061071681612fbe565b915050610583565b5061072a338383611a11565b826000036107f45760405163a9059cbb60e01b8152336004820152602481018790526001600160a01b038b169063a9059cbb906044016020604051808303816000875af115801561077f573d6000803e3d6000fd5b505050506040513d601f19601f820116820180604052508101906107a39190612fd7565b6107ef5760405162461bcd60e51b815260206004820181905260248201527f636f756c64206e6f742073656e6420636f6c6c61746572616c20746f6b656e736044820152606401610402565b610844565b6040805160208082018c9052868618828401528251808303840181526060909201909252805191012061084490339061082e908d90610687565b8860405180602001604052806000815250611c55565b88336001600160a01b03167f49ea041b2b109156be755fa9ada095b43a6029832797cb78eebc2247545d1eca8c8b8b8b604051610884949392919061303f565b60405180910390a350505050505050505050565b60006001600160e01b031982167fd9b67a260000000000000000000000000000000000000000000000000000000014806108fb57506001600160e01b031982167f0e89341c00000000000000000000000000000000000000000000000000000000145b8061042e57507f01ffc9a7000000000000000000000000000000000000000000000000000000006001600160e01b031983161461042e565b6003602052816000526040600020818154811061094f57600080fd5b90600052602060002001600091509150505481565b60606002805461097390613073565b80601f016020809104026020016040519081016040528092919081815260200182805461099f90613073565b80156109ec5780601f106109c1576101008083540402835291602001916109ec565b820191906000526020600020905b8154815290600101906020018083116109cf57829003601f168201915b50505050509050919050565b6001600160a01b038516331480610a145750610a148533610347565b610a865760405162461bcd60e51b815260206004820152602e60248201527f455243313135353a2063616c6c6572206973206e6f7420746f6b656e206f776e60448201527f6572206f7220617070726f7665640000000000000000000000000000000000006064820152608401610402565b610a938585858585611d69565b5050505050565b60408051606084901b6bffffffffffffffffffffffff1916602080830191909152603480830185905283518084039091018152605490920190925280519101206000905b9392505050565b60608151835114610b5e5760405162461bcd60e51b815260206004820152602960248201527f455243313135353a206163636f756e747320616e6420696473206c656e67746860448201527f206d69736d6174636800000000000000000000000000000000000000000000006064820152608401610402565b6000835167ffffffffffffffff811115610b7a57610b7a612aaf565b604051908082528060200260200182016040528015610ba3578160200160208202803683370190505b50905060005b8451811015610c1b57610bee858281518110610bc757610bc7612fa8565b6020026020010151858381518110610be157610be1612fa8565b6020026020010151610388565b828281518110610c0057610c00612fa8565b6020908102919091010152610c1481612fbe565b9050610ba9565b509392505050565b60018211610c735760405162461bcd60e51b815260206004820181905260248201527f676f7420656d707479206f722073696e676c65746f6e20706172746974696f6e6044820152606401610402565b60008481526003602052604090205480610ccf5760405162461bcd60e51b815260206004820152601a60248201527f636f6e646974696f6e206e6f74207072657061726564207965740000000000006044820152606401610402565b6000610cde600180841b612f95565b90508060008567ffffffffffffffff811115610cfc57610cfc612aaf565b604051908082528060200260200182016040528015610d25578160200160208202803683370190505b50905060008667ffffffffffffffff811115610d4357610d43612aaf565b604051908082528060200260200182016040528015610d6c578160200160208202803683370190505b50905060005b87811015610ec9576000898983818110610d8e57610d8e612fa8565b905060200201359050600081118015610da657508581105b610df25760405162461bcd60e51b815260206004820152601560248201527f676f7420696e76616c696420696e6465782073657400000000000000000000006044820152606401610402565b8085821614610e435760405162461bcd60e51b815260206004820152601660248201527f706172746974696f6e206e6f74206469736a6f696e74000000000000000000006044820152606401610402565b6040805160208082018e90528183018490528251808303840181526060909201909252805191012094811894610e7a908d90610687565b848381518110610e8c57610e8c612fa8565b60200260200101818152505087838381518110610eab57610eab612fa8565b60209081029190910101525080610ec181612fbe565b915050610d72565b5082600003610fd9576040517f23b872dd000000000000000000000000000000000000000000000000000000008152336004820152306024820152604481018790526001600160a01b038b16906323b872dd906064016020604051808303816000875af1158015610f3e573d6000803e3d6000fd5b505050506040513d601f19601f82011682018060405250810190610f629190612fd7565b610fd45760405162461bcd60e51b815260206004820152602360248201527f636f756c64206e6f74207265636569766520636f6c6c61746572616c20746f6b60448201527f656e7300000000000000000000000000000000000000000000000000000000006064820152608401610402565b611019565b6040805160208082018c90528686188284015282518083038401815260609092019092528051910120611019903390611013908d90610687565b88611fc7565b61103433838360405180602001604052806000815250612143565b88336001600160a01b03167fabd70a423d85fc4d83a4313fc0825dbc987d74aa8d90354ad75926e693dbf76d8c8b8b8b604051610884949392919061303f565b60408051602080820185905281830184905282518083038401815260609092019092528051910120600090610ade565b6110af338383612309565b5050565b600083815260046020526040902054806111355760405162461bcd60e51b815260206004820152602560248201527f726573756c7420666f7220636f6e646974696f6e206e6f74207265636569766560448201527f64207965740000000000000000000000000000000000000000000000000000006064820152608401610402565b600084815260036020526040902054806111915760405162461bcd60e51b815260206004820152601a60248201527f636f6e646974696f6e206e6f74207072657061726564207965740000000000006044820152606401610402565b6000806111a1600180851b612f95565b905060005b858110156113185760008787838181106111c2576111c2612fa8565b9050602002013590506000811180156111da57508281105b6112265760405162461bcd60e51b815260206004820152601560248201527f676f7420696e76616c696420696e6465782073657400000000000000000000006044820152606401610402565b6040805160208082018c90528183018490528251808303840181526060909201909252805191012060009061125c908c90610687565b90506000805b878110156112c0576001811b8416156112ae5760008c815260036020526040902080548290811061129557611295612fa8565b9060005260206000200154826112ab91906130ad565b91505b806112b881612fbe565b915050611262565b5060006112cd3384610388565b9050801561130157886112e083836130c0565b6112ea91906130d7565b6112f490886130ad565b9650611301338483611fc7565b50505050808061131090612fbe565b9150506111a6565b5081156114025760405163a9059cbb60e01b8152336004820152602481018390526001600160a01b0389169063a9059cbb906044016020604051808303816000875af115801561136c573d6000803e3d6000fd5b505050506040513d601f19601f820116820180604052508101906113909190612fd7565b6114025760405162461bcd60e51b815260206004820152602b60248201527f636f756c64206e6f74207472616e73666572207061796f757420746f206d657360448201527f736167652073656e6465720000000000000000000000000000000000000000006064820152608401610402565b876001600160a01b0316336001600160a01b03167f21336e17fc856aa5e53e3b01d2deceb8e0609196d2756d9463463478727d81e98989898760405161144b94939291906130f9565b60405180910390a35050505050505050565b80600181116114c15760405162461bcd60e51b815260206004820152602a60248201527f74686572652073686f756c64206265206d6f7265207468616e206f6e65206f756044820152691d18dbdb59481cdb1bdd60b21b6064820152608401610402565b604080516bffffffffffffffffffffffff193360601b166020808301919091526034820187905260548083018590528351808403909101815260749092018352815191810191909120600081815260039092529190205482146115665760405162461bcd60e51b815260206004820152601f60248201527f636f6e646974696f6e206e6f74207072657061726564206f7220666f756e64006044820152606401610402565b600081815260046020526040902054156115c25760405162461bcd60e51b815260206004820152601e60248201527f7061796f75742064656e6f6d696e61746f7220616c72656164792073657400006044820152606401610402565b6000805b838110156116b75760008686838181106115e2576115e2612fa8565b90506020020135905080836115f791906130ad565b60008581526003602052604090208054919450908390811061161b5761161b612fa8565b90600052602060002001546000146116755760405162461bcd60e51b815260206004820152601c60248201527f7061796f7574206e756d657261746f7220616c726561647920736574000000006044820152606401610402565b600084815260036020526040902080548291908490811061169857611698612fa8565b60009182526020909120015550806116af81612fbe565b9150506115c6565b50600081116117085760405162461bcd60e51b815260206004820152601460248201527f7061796f757420697320616c6c207a65726f65730000000000000000000000006044820152606401610402565b600082815260046020908152604080832084905560039091529081902090518791339185917fb44d84d3289691f71497564b85d4233648d9dbae8cbdbb4329f301c3a01858949161175a918991613113565b60405180910390a4505050505050565b6101008111156117bc5760405162461bcd60e51b815260206004820152601660248201527f746f6f206d616e79206f7574636f6d6520736c6f7473000000000000000000006044820152606401610402565b6001811161181f5760405162461bcd60e51b815260206004820152602a60248201527f74686572652073686f756c64206265206d6f7265207468616e206f6e65206f756044820152691d18dbdb59481cdb1bdd60b21b6064820152608401610402565b604080516bffffffffffffffffffffffff19606086901b1660208083019190915260348201859052605480830185905283518084039091018152607490920183528151918101919091206000818152600390925291902054156118c45760405162461bcd60e51b815260206004820152601a60248201527f636f6e646974696f6e20616c72656164792070726570617265640000000000006044820152606401610402565b8167ffffffffffffffff8111156118dd576118dd612aaf565b604051908082528060200260200182016040528015611906578160200160208202803683370190505b506000828152600360209081526040909120825161192a9391929190910190612894565b5082846001600160a01b0316827fab3760c3bd2bb38b5bcf54dc79802ed67338b4cf29f3054ded67ed24661e41778560405161196891815260200190565b60405180910390a450505050565b6001600160a01b03851633148061199257506119928533610347565b611a045760405162461bcd60e51b815260206004820152602e60248201527f455243313135353a2063616c6c6572206973206e6f7420746f6b656e206f776e60448201527f6572206f7220617070726f7665640000000000000000000000000000000000006064820152608401610402565b610a9385858585856123fd565b6001600160a01b038316611a735760405162461bcd60e51b815260206004820152602360248201527f455243313135353a206275726e2066726f6d20746865207a65726f206164647260448201526265737360e81b6064820152608401610402565b8051825114611ad55760405162461bcd60e51b815260206004820152602860248201527f455243313135353a2069647320616e6420616d6f756e7473206c656e677468206044820152670dad2e6dac2e8c6d60c31b6064820152608401610402565b604080516020810190915260009081905233905b8351811015611be7576000848281518110611b0657611b06612fa8565b602002602001015190506000848381518110611b2457611b24612fa8565b602090810291909101810151600084815280835260408082206001600160a01b038c168352909352919091205490915081811015611bb05760405162461bcd60e51b8152602060048201526024808201527f455243313135353a206275726e20616d6f756e7420657863656564732062616c604482015263616e636560e01b6064820152608401610402565b6000928352602083815260408085206001600160a01b038b1686529091529092209103905580611bdf81612fbe565b915050611ae9565b5060006001600160a01b0316846001600160a01b0316826001600160a01b03167f4a39dc06d4c0dbc64b70af90fd698a233a518aa5d07e595d983b8c0526c8f7fb8686604051611c38929190613166565b60405180910390a460408051602081019091526000905250505050565b6001600160a01b038416611cb55760405162461bcd60e51b815260206004820152602160248201527f455243313135353a206d696e7420746f20746865207a65726f206164647265736044820152607360f81b6064820152608401610402565b336000611cc1856125a8565b90506000611cce856125a8565b90506000868152602081815260408083206001600160a01b038b16845290915281208054879290611d009084906130ad565b909155505060408051878152602081018790526001600160a01b03808a1692600092918716917fc3d58168c5ae7397731d063d5bbf3d657854427343f4c083240f7aacaa2d0f62910160405180910390a4611d60836000898989896125f3565b50505050505050565b8151835114611dcb5760405162461bcd60e51b815260206004820152602860248201527f455243313135353a2069647320616e6420616d6f756e7473206c656e677468206044820152670dad2e6dac2e8c6d60c31b6064820152608401610402565b6001600160a01b038416611e2f5760405162461bcd60e51b815260206004820152602560248201527f455243313135353a207472616e7366657220746f20746865207a65726f206164604482015264647265737360d81b6064820152608401610402565b3360005b8451811015611f59576000858281518110611e5057611e50612fa8565b602002602001015190506000858381518110611e6e57611e6e612fa8565b602090810291909101810151600084815280835260408082206001600160a01b038e168352909352919091205490915081811015611f015760405162461bcd60e51b815260206004820152602a60248201527f455243313135353a20696e73756666696369656e742062616c616e636520666f60448201526939103a3930b739b332b960b11b6064820152608401610402565b6000838152602081815260408083206001600160a01b038e8116855292528083208585039055908b16825281208054849290611f3e9084906130ad565b9250508190555050505080611f5290612fbe565b9050611e33565b50846001600160a01b0316866001600160a01b0316826001600160a01b03167f4a39dc06d4c0dbc64b70af90fd698a233a518aa5d07e595d983b8c0526c8f7fb8787604051611fa9929190613166565b60405180910390a4611fbf818787878787612798565b505050505050565b6001600160a01b0383166120295760405162461bcd60e51b815260206004820152602360248201527f455243313135353a206275726e2066726f6d20746865207a65726f206164647260448201526265737360e81b6064820152608401610402565b336000612035846125a8565b90506000612042846125a8565b60408051602080820183526000918290528882528181528282206001600160a01b038b16835290522054909150848110156120cb5760405162461bcd60e51b8152602060048201526024808201527f455243313135353a206275726e20616d6f756e7420657863656564732062616c604482015263616e636560e01b6064820152608401610402565b6000868152602081815260408083206001600160a01b038b81168086529184528285208a8703905582518b81529384018a90529092908816917fc3d58168c5ae7397731d063d5bbf3d657854427343f4c083240f7aacaa2d0f62910160405180910390a4604080516020810190915260009052611d60565b6001600160a01b0384166121a35760405162461bcd60e51b815260206004820152602160248201527f455243313135353a206d696e7420746f20746865207a65726f206164647265736044820152607360f81b6064820152608401610402565b81518351146122055760405162461bcd60e51b815260206004820152602860248201527f455243313135353a2069647320616e6420616d6f756e7473206c656e677468206044820152670dad2e6dac2e8c6d60c31b6064820152608401610402565b3360005b84518110156122a15783818151811061222457612224612fa8565b602002602001015160008087848151811061224157612241612fa8565b602002602001015181526020019081526020016000206000886001600160a01b03166001600160a01b03168152602001908152602001600020600082825461228991906130ad565b9091555081905061229981612fbe565b915050612209565b50846001600160a01b031660006001600160a01b0316826001600160a01b03167f4a39dc06d4c0dbc64b70af90fd698a233a518aa5d07e595d983b8c0526c8f7fb87876040516122f2929190613166565b60405180910390a4610a9381600087878787612798565b816001600160a01b0316836001600160a01b0316036123905760405162461bcd60e51b815260206004820152602960248201527f455243313135353a2073657474696e6720617070726f76616c2073746174757360448201527f20666f722073656c6600000000000000000000000000000000000000000000006064820152608401610402565b6001600160a01b03838116600081815260016020908152604080832094871680845294825291829020805460ff191686151590811790915591519182527f17307eab39ab6107e8899845ad3d59bd9653f200f220920489ca2b5937696c31910160405180910390a3505050565b6001600160a01b0384166124615760405162461bcd60e51b815260206004820152602560248201527f455243313135353a207472616e7366657220746f20746865207a65726f206164604482015264647265737360d81b6064820152608401610402565b33600061246d856125a8565b9050600061247a856125a8565b90506000868152602081815260408083206001600160a01b038c168452909152902054858110156125005760405162461bcd60e51b815260206004820152602a60248201527f455243313135353a20696e73756666696369656e742062616c616e636520666f60448201526939103a3930b739b332b960b11b6064820152608401610402565b6000878152602081815260408083206001600160a01b038d8116855292528083208985039055908a1682528120805488929061253d9084906130ad565b909155505060408051888152602081018890526001600160a01b03808b16928c821692918816917fc3d58168c5ae7397731d063d5bbf3d657854427343f4c083240f7aacaa2d0f62910160405180910390a461259d848a8a8a8a8a6125f3565b505050505050505050565b604080516001808252818301909252606091600091906020808301908036833701905050905082816000815181106125e2576125e2612fa8565b602090810291909101015292915050565b6001600160a01b0384163b15611fbf5760405163f23a6e6160e01b81526001600160a01b0385169063f23a6e61906126379089908990889088908890600401613194565b6020604051808303816000875af1925050508015612672575060408051601f3d908101601f1916820190925261266f918101906131d7565b60015b6127275761267e6131f4565b806308c379a0036126b75750612692613210565b8061269d57506126b9565b8060405162461bcd60e51b81526004016104029190612a9c565b505b60405162461bcd60e51b815260206004820152603460248201527f455243313135353a207472616e7366657220746f206e6f6e2d4552433131353560448201527f526563656976657220696d706c656d656e7465720000000000000000000000006064820152608401610402565b6001600160e01b0319811663f23a6e6160e01b14611d605760405162461bcd60e51b815260206004820152602860248201527f455243313135353a204552433131353552656365697665722072656a656374656044820152676420746f6b656e7360c01b6064820152608401610402565b6001600160a01b0384163b15611fbf5760405163bc197c8160e01b81526001600160a01b0385169063bc197c81906127dc908990899088908890889060040161329a565b6020604051808303816000875af1925050508015612817575060408051601f3d908101601f19168201909252612814918101906131d7565b60015b6128235761267e6131f4565b6001600160e01b0319811663bc197c8160e01b14611d605760405162461bcd60e51b815260206004820152602860248201527f455243313135353a204552433131353552656365697665722072656a656374656044820152676420746f6b656e7360c01b6064820152608401610402565b8280548282559060005260206000209081019282156128cf579160200282015b828111156128cf5782518255916020019190600101906128b4565b506128db9291506128df565b5090565b5b808211156128db57600081556001016128e0565b6001600160a01b038116811461290957600080fd5b50565b6000806040838503121561291f57600080fd5b823561292a816128f4565b946020939093013593505050565b60008083601f84011261294a57600080fd5b50813567ffffffffffffffff81111561296257600080fd5b6020830191508360208260051b850101111561297d57600080fd5b9250929050565b60008060008060006080868803121561299c57600080fd5b85356129a7816128f4565b945060208601359350604086013567ffffffffffffffff8111156129ca57600080fd5b6129d688828901612938565b96999598509660600135949350505050565b6001600160e01b03198116811461290957600080fd5b600060208284031215612a1057600080fd5b8135610ade816129e8565b60008060408385031215612a2e57600080fd5b50508035926020909101359150565b600060208284031215612a4f57600080fd5b5035919050565b6000815180845260005b81811015612a7c57602081850181015186830182015201612a60565b506000602082860101526020601f19601f83011685010191505092915050565b602081526000610ade6020830184612a56565b634e487b7160e01b600052604160045260246000fd5b601f8201601f1916810167ffffffffffffffff81118282101715612aeb57612aeb612aaf565b6040525050565b600067ffffffffffffffff821115612b0c57612b0c612aaf565b5060051b60200190565b600082601f830112612b2757600080fd5b81356020612b3482612af2565b604051612b418282612ac5565b83815260059390931b8501820192828101915086841115612b6157600080fd5b8286015b84811015612b7c5780358352918301918301612b65565b509695505050505050565b600082601f830112612b9857600080fd5b813567ffffffffffffffff811115612bb257612bb2612aaf565b604051612bc9601f8301601f191660200182612ac5565b818152846020838601011115612bde57600080fd5b816020850160208301376000918101602001919091529392505050565b600080600080600060a08688031215612c1357600080fd5b8535612c1e816128f4565b94506020860135612c2e816128f4565b9350604086013567ffffffffffffffff80821115612c4b57600080fd5b612c5789838a01612b16565b94506060880135915080821115612c6d57600080fd5b612c7989838a01612b16565b93506080880135915080821115612c8f57600080fd5b50612c9c88828901612b87565b9150509295509295909350565b60008060408385031215612cbc57600080fd5b823567ffffffffffffffff80821115612cd457600080fd5b818501915085601f830112612ce857600080fd5b81356020612cf582612af2565b604051612d028282612ac5565b83815260059390931b8501820192828101915089841115612d2257600080fd5b948201945b83861015612d49578535612d3a816128f4565b82529482019490820190612d27565b96505086013592505080821115612d5f57600080fd5b50612d6c85828601612b16565b9150509250929050565b600081518084526020808501945080840160005b83811015612da657815187529582019590820190600101612d8a565b509495945050505050565b602081526000610ade6020830184612d76565b600080600060608486031215612dd957600080fd5b8335612de4816128f4565b95602085013595506040909401359392505050565b801515811461290957600080fd5b60008060408385031215612e1a57600080fd5b8235612e25816128f4565b91506020830135612e3581612df9565b809150509250929050565b60008060008060608587031215612e5657600080fd5b8435612e61816128f4565b935060208501359250604085013567ffffffffffffffff811115612e8457600080fd5b612e9087828801612938565b95989497509550505050565b600080600060408486031215612eb157600080fd5b83359250602084013567ffffffffffffffff811115612ecf57600080fd5b612edb86828701612938565b9497909650939450505050565b60008060408385031215612efb57600080fd5b8235612f06816128f4565b91506020830135612e35816128f4565b600080600080600060a08688031215612f2e57600080fd5b8535612f39816128f4565b94506020860135612f49816128f4565b93506040860135925060608601359150608086013567ffffffffffffffff811115612f7357600080fd5b612c9c88828901612b87565b634e487b7160e01b600052601160045260246000fd5b8181038181111561042e5761042e612f7f565b634e487b7160e01b600052603260045260246000fd5b600060018201612fd057612fd0612f7f565b5060010190565b600060208284031215612fe957600080fd5b8151610ade81612df9565b81835260007f07ffffffffffffffffffffffffffffffffffffffffffffffffffffffffffffff83111561302657600080fd5b8260051b80836020870137939093016020019392505050565b6001600160a01b0385168152606060208201526000613062606083018587612ff4565b905082604083015295945050505050565b600181811c9082168061308757607f821691505b6020821081036130a757634e487b7160e01b600052602260045260246000fd5b50919050565b8082018082111561042e5761042e612f7f565b808202811582820484141761042e5761042e612f7f565b6000826130f457634e487b7160e01b600052601260045260246000fd5b500490565b848152606060208201526000613062606083018587612ff4565b60006040820184835260206040818501528185548084526060860191508660005282600020935060005b818110156131595784548352600194850194928401920161313d565b5090979650505050505050565b6040815260006131796040830185612d76565b828103602084015261318b8185612d76565b95945050505050565b60006001600160a01b03808816835280871660208401525084604083015283606083015260a060808301526131cc60a0830184612a56565b979650505050505050565b6000602082840312156131e957600080fd5b8151610ade816129e8565b600060033d111561320d5760046000803e5060005160e01c5b90565b600060443d101561321e5790565b6040516003193d81016004833e81513d67ffffffffffffffff816024840111818411171561324e57505050505090565b82850191508151818111156132665750505050505090565b843d87010160208285010111156132805750505050505090565b61328f60208286010187612ac5565b509095945050505050565b60006001600160a01b03808816835280871660208401525060a060408301526132c660a0830186612d76565b82810360608401526132d88186612d76565b905082810360808401526132ec8185612a56565b9897505050505050505056fea2646970667358221220ae6c126a351e0723d85eed05e85f76e678ebf8e4b9c58d7f6419a2ed85d8775464736f6c63430008130033",
  "linkReferences": {},
  "deployedLinkReferences": {}
}