{
  "_format": "hh-sol-artifact-1",
  "contractName": "GovernToken",
  "sourceName": "contracts/token/GovernToken.sol",
  "abi": [
    {
      "inputs": [
        {
          "internalType": "address",
          "name": "account",
          "type": "address"
        }
      ],
      "stateMutability": "nonpayable",
      "type": "constructor"
    },
    {
      "anonymous": false,
      "inputs": [
        {
          "indexed": true,
          "internalType": "address",
          "name": "owner",
          "type": "address"
        },
        {
          "indexed": true,
          "internalType": "address",
          "name": "spender",
          "type": "address"
        },
        {
          "indexed": false,
          "internalType": "uint256",
          "name": "value",
          "type": "uint256"
        }
      ],
      "name": "Approval",
      "type": "event"
    },
    {
      "anonymous": false,
      "inputs": [
        {
          "indexed": true,
          "internalType": "address",
          "name": "delegator",
          "type": "address"
        },
        {
          "indexed": true,
          "internalType": "address",
          "name": "fromDelegate",
          "type": "address"
        },
        {
          "indexed": true,
          "internalType": "address",
          "name": "toDelegate",
          "type": "address"
        }
      ],
      "name": "DelegateChanged",
      "type": "event"
    },
    {
      "anonymous": false,
      "inputs": [
        {
          "indexed": true,
          "internalType": "address",
          "name": "delegate",
          "type": "address"
        },
        {
          "indexed": false,
          "internalType": "uint256",
          "name": "previousBalance",
          "type": "uint256"
        },
        {
          "indexed": false,
          "internalType": "uint256",
          "name": "newBalance",
          "type": "uint256"
        }
      ],
      "name": "DelegateVotesChanged",
      "type": "event"
    },
    {
      "anonymous": false,
      "inputs": [
        {
          "indexed": true,
          "internalType": "address",
          "name": "from",
          "type": "address"
        },
        {
          "indexed": true,
          "internalType": "address",
          "name": "to",
          "type": "address"
        },
        {
          "indexed": false,
          "internalType": "uint256",
          "name": "value",
          "type": "uint256"
        }
      ],
      "name": "Transfer",
      "type": "event"
    },
    {
      "inputs": [
        {
          "internalType": "address",
          "name": "owner",
          "type": "address"
        },
        {
          "internalType": "address",
          "name": "spender",
          "type": "address"
        }
      ],
      "name": "allowance",
      "outputs": [
        {
          "internalType": "uint256",
          "name": "",
          "type": "uint256"
        }
      ],
      "stateMutability": "view",
      "type": "function"
    },
    {
      "inputs": [
        {
          "internalType": "address",
          "name": "spender",
          "type": "address"
        },
        {
          "internalType": "uint256",
          "name": "amount",
          "type": "uint256"
        }
      ],
      "name": "approve",
      "outputs": [
        {
          "internalType": "bool",
          "name": "",
          "type": "bool"
        }
      ],
      "stateMutability": "nonpayable",
      "type": "function"
    },
    {
      "inputs": [
        {
          "internalType": "address",
          "name": "account",
          "type": "address"
        }
      ],
      "name": "balanceOf",
      "outputs": [
        {
          "internalType": "uint256",
          "name": "",
          "type": "uint256"
        }
      ],
      "stateMutability": "view",
      "type": "function"
    },
    {
      "inputs": [
        {
          "internalType": "address",
          "name": "",
          "type": "address"
        },
        {
          "internalType": "uint256",
          "name": "",
          "type": "uint256"
        }
      ],
      "name": "checkpoints",
      "outputs": [
        {
          "internalType": "uint256",
          "name": "fromBlock",
          "type": "uint256"
        },
        {
          "internalType": "uint256",
          "name": "votes",
          "type": "uint256"
        }
      ],
      "stateMutability": "view",
      "type": "function"
    },
    {
      "inputs": [],
      "name": "decimals",
      "outputs": [
        {
          "internalType": "uint8",
          "name": "",
          "type": "uint8"
        }
      ],
      "stateMutability": "view",
      "type": "function"
    },
    {
      "inputs": [
        {
          "internalType": "address",
          "name": "spender",
          "type": "address"
        },
        {
          "internalType": "uint256",
          "name": "subtractedValue",
          "type": "uint256"
        }
      ],
      "name": "decreaseAllowance",
      "outputs": [
        {
          "internalType": "bool",
          "name": "",
          "type": "bool"
        }
      ],
      "stateMutability": "nonpayable",
      "type": "function"
    },
    {
      "inputs": [
        {
          "internalType": "address",
          "name": "delegatee",
          "type": "address"
        }
      ],
      "name": "delegate",
      "outputs": [],
      "stateMutability": "nonpayable",
      "type": "function"
    },
    {
      "inputs": [
        {
          "internalType": "address",
          "name": "",
          "type": "address"
        }
      ],
      "name": "delegates",
      "outputs": [
        {
          "internalType": "address",
          "name": "",
          "type": "address"
        }
      ],
      "stateMutability": "view",
      "type": "function"
    },
    {
      "inputs": [
        {
          "internalType": "address",
          "name": "account",
          "type": "address"
        }
      ],
      "name": "getCurrentVotingPower",
      "outputs": [
        {
          "internalType": "uint256",
          "name": "",
          "type": "uint256"
        }
      ],
      "stateMutability": "view",
      "type": "function"
    },
    {
      "inputs": [
        {
          "internalType": "address",
          "name": "account",
          "type": "address"
        },
        {
          "internalType": "uint256",
          "name": "blockNumber",
          "type": "uint256"
        }
      ],
      "name": "getVotingPowerAt",
      "outputs": [
        {
          "internalType": "uint256",
          "name": "",
          "type": "uint256"
        }
      ],
      "stateMutability": "view",
      "type": "function"
    },
    {
      "inputs": [
        {
          "internalType": "address",
          "name": "spender",
          "type": "address"
        },
        {
          "internalType": "uint256",
          "name": "addedValue",
          "type": "uint256"
        }
      ],
      "name": "increaseAllowance",
      "outputs": [
        {
          "internalType": "bool",
          "name": "",
          "type": "bool"
        }
      ],
      "stateMutability": "nonpayable",
      "type": "function"
    },
    {
      "inputs": [],
      "name": "name",
      "outputs": [
        {
          "internalType": "string",
          "name": "",
          "type": "string"
        }
      ],
      "stateMutability": "view",
      "type": "function"
    },
    {
      "inputs": [
        {
          "internalType": "address",
          "name": "",
          "type": "address"
        }
      ],
      "name": "numCheckpoints",
      "outputs": [
        {
          "internalType": "uint256",
          "name": "",
          "type": "uint256"
        }
      ],
      "stateMutability": "view",
      "type": "function"
    },
    {
      "inputs": [],
      "name": "symbol",
      "outputs": [
        {
          "internalType": "string",
          "name": "",
          "type": "string"
        }
      ],
      "stateMutability": "view",
      "type": "function"
    },
    {
      "inputs": [],
      "name": "totalSupply",
      "outputs": [
        {
          "internalType": "uint256",
          "name": "",
          "type": "uint256"
        }
      ],
      "stateMutability": "view",
      "type": "function"
    },
    {
      "inputs": [
        {
          "internalType": "address",
          "name": "to",
          "type": "address"
        },
        {
          "internalType": "uint256",
          "name": "amount",
          "type": "uint256"
        }
      ],
      "name": "transfer",
      "outputs": [
        {
          "internalType": "bool",
          "name": "",
          "type": "bool"
        }
      ],
      "stateMutability": "nonpayable",
      "type": "function"
    },
    {
      "inputs": [
        {
          "internalType": "address",
          "name": "from",
          "type": "address"
        },
        {
          "internalType": "address",
          "name": "to",
          "type": "address"
        },
        {
          "internalType": "uint256",
          "name": "amount",
          "type": "uint256"
        }
      ],
      "name": "transferFrom",
      "outputs": [
        {
          "internalType": "bool",
          "name": "",
          "type": "bool"
        }
      ],
      "stateMutability": "nonpayable",
      "type": "function"
    }
  ],
  "bytecode": "0x60806040523480156200001157600080fd5b50604051620016fc380380620016fc833981016040819052620000349162000469565b6040518060400160405280600581526020016450616e477560d81b81525060405180604001604052806002815260200161504760f01b81525081600390816200007e919062000537565b5060046200008d828262000537565b505050620000ad816a084595161401484a000000620000ef60201b60201c565b6040516a084595161401484a00000081526001600160a01b03821690600090600080516020620016dc8339815191529060200160405180910390a3506200064b565b6001600160a01b0382166200014a5760405162461bcd60e51b815260206004820152601f60248201527f45524332303a206d696e7420746f20746865207a65726f206164647265737300604482015260640160405180910390fd5b80600260008282546200015e919062000619565b90915550506001600160a01b03821660008181526020818152604080832080548601905551848152600080516020620016dc833981519152910160405180910390a3620001ae60008383620001b7565b5050565b505050565b6001600160a01b03838116600090815260056020526040808220548584168352912054620001b292918216911683818314801590620001f65750600081115b15620001b2576001600160a01b0383161562000291576001600160a01b0383166000908152600760205260408120549081620002345760006200026d565b6001600160a01b0385166000908152600660205260408120906200025a60018562000635565b8152602001908152602001600020600101545b905060006200027d848362000635565b90506200028d868484846200032a565b5050505b6001600160a01b03821615620001b2576001600160a01b0382166000908152600760205260408120549081620002c957600062000302565b6001600160a01b038416600090815260066020526040812090620002ef60018562000635565b8152602001908152602001600020600101545b9050600062000312848362000619565b905062000322858484846200032a565b505050505050565b4383158015906200037157506001600160a01b038516600090815260066020526040812082916200035d60018862000635565b815260200190815260200160002060000154145b15620003b8576001600160a01b038516600090815260066020526040812083916200039e60018862000635565b81526020810191909152604001600020600101556200041e565b60408051808201825282815260208082018581526001600160a01b0389166000908152600683528481208982529092529290209051815590516001918201556200040490859062000619565b6001600160a01b0386166000908152600760205260409020555b60408051848152602081018490526001600160a01b038716917fdec2bacdd2f05b59de34da9b523dff8be42e5e38e818c82fdb0bae774387a724910160405180910390a25050505050565b6000602082840312156200047c57600080fd5b81516001600160a01b03811681146200049457600080fd5b9392505050565b634e487b7160e01b600052604160045260246000fd5b600181811c90821680620004c657607f821691505b602082108103620004e757634e487b7160e01b600052602260045260246000fd5b50919050565b601f821115620001b257600081815260208120601f850160051c81016020861015620005165750805b601f850160051c820191505b81811015620003225782815560010162000522565b81516001600160401b038111156200055357620005536200049b565b6200056b81620005648454620004b1565b84620004ed565b602080601f831160018114620005a357600084156200058a5750858301515b600019600386901b1c1916600185901b17855562000322565b600085815260208120601f198616915b82811015620005d457888601518255948401946001909101908401620005b3565b5085821015620005f35787850151600019600388901b60f8161c191681555b5050505050600190811b01905550565b634e487b7160e01b600052601160045260246000fd5b808201808211156200062f576200062f62000603565b92915050565b818103818111156200062f576200062f62000603565b611081806200065b6000396000f3fe608060405234801561001057600080fd5b506004361061011b5760003560e01c8063587cde1e116100b257806395d89b4111610081578063a9059cbb11610066578063a9059cbb146102bc578063dd62ed3e146102cf578063eaeded5f1461030857600080fd5b806395d89b41146102a1578063a457c2d7146102a957600080fd5b8063587cde1e146102025780635c19a95c146102435780636fcfff451461025857806370a082311461027857600080fd5b806323b872dd116100ee57806323b872dd146101ba578063313ce567146101cd57806339509351146101dc578063436b5e8d146101ef57600080fd5b806306fdde0314610120578063095ea7b31461013e5780630cdfebfa1461016157806318160ddd146101a8575b600080fd5b61012861031b565b6040516101359190610e95565b60405180910390f35b61015161014c366004610eff565b6103ad565b6040519015158152602001610135565b61019361016f366004610eff565b60066020908152600092835260408084209091529082529020805460019091015482565b60408051928352602083019190915201610135565b6002545b604051908152602001610135565b6101516101c8366004610f29565b6103c7565b60405160128152602001610135565b6101516101ea366004610eff565b6103eb565b6101ac6101fd366004610f65565b61042a565b61022b610210366004610f65565b6005602052600090815260409020546001600160a01b031681565b6040516001600160a01b039091168152602001610135565b610256610251366004610f65565b61048d565b005b6101ac610266366004610f65565b60076020526000908152604090205481565b6101ac610286366004610f65565b6001600160a01b031660009081526020819052604090205490565b61012861049a565b6101516102b7366004610eff565b6104a9565b6101516102ca366004610eff565b610558565b6101ac6102dd366004610f80565b6001600160a01b03918216600090815260016020908152604080832093909416825291909152205490565b6101ac610316366004610eff565b610566565b60606003805461032a90610fb3565b80601f016020809104026020016040519081016040528092919081815260200182805461035690610fb3565b80156103a35780601f10610378576101008083540402835291602001916103a3565b820191906000526020600020905b81548152906001019060200180831161038657829003601f168201915b5050505050905090565b6000336103bb81858561077b565b60019150505b92915050565b6000336103d58582856108d3565b6103e0858585610965565b506001949350505050565b3360008181526001602090815260408083206001600160a01b03871684529091528120549091906103bb9082908690610425908790611003565b61077b565b6001600160a01b0381166000908152600760205260408120548061044f576000610486565b6001600160a01b038316600090815260066020526040812090610473600184611016565b8152602001908152602001600020600101545b9392505050565b6104973382610b58565b50565b60606004805461032a90610fb3565b3360008181526001602090815260408083206001600160a01b03871684529091528120549091908381101561054b5760405162461bcd60e51b815260206004820152602560248201527f45524332303a2064656372656173656420616c6c6f77616e63652062656c6f7760448201527f207a65726f00000000000000000000000000000000000000000000000000000060648201526084015b60405180910390fd5b6103e0828686840361077b565b6000336103bb818585610965565b60004382106105b75760405162461bcd60e51b815260206004820152601360248201527f424c4f434b4e554d4245525f494e56414c4944000000000000000000000000006044820152606401610542565b6001600160a01b038316600090815260076020526040812054908190036105e25760009150506103c1565b6001600160a01b03841660009081526006602052604081208491610607600185611016565b8152602001908152602001600020600001541161065c576001600160a01b038416600090815260066020526040812090610642600184611016565b8152602001908152602001600020600101549150506103c1565b6001600160a01b03841660009081526006602090815260408083208380529091529020548310156106915760009150506103c1565b60008061069f600184611016565b90505b8181111561074b57600060026106b88484611016565b6106c29190611029565b6106cc9083611016565b6001600160a01b0388166000908152600660209081526040808320848452825291829020825180840190935280548084526001909101549183019190915291925090879003610725576020015194506103c19350505050565b805187111561073657819350610744565b610741600183611016565b92505b50506106a2565b506001600160a01b0385166000908152600660209081526040808320938352929052206001015491505092915050565b6001600160a01b0383166107f65760405162461bcd60e51b8152602060048201526024808201527f45524332303a20617070726f76652066726f6d20746865207a65726f2061646460448201527f72657373000000000000000000000000000000000000000000000000000000006064820152608401610542565b6001600160a01b0382166108725760405162461bcd60e51b815260206004820152602260248201527f45524332303a20617070726f766520746f20746865207a65726f20616464726560448201527f73730000000000000000000000000000000000000000000000000000000000006064820152608401610542565b6001600160a01b0383811660008181526001602090815260408083209487168084529482529182902085905590518481527f8c5be1e5ebec7d5bd14f71427d1e84f3dd0314c0f7b2291e5b200ac8c7c3b925910160405180910390a3505050565b6001600160a01b03838116600090815260016020908152604080832093861683529290522054600019811461095f57818110156109525760405162461bcd60e51b815260206004820152601d60248201527f45524332303a20696e73756666696369656e7420616c6c6f77616e63650000006044820152606401610542565b61095f848484840361077b565b50505050565b6001600160a01b0383166109e15760405162461bcd60e51b815260206004820152602560248201527f45524332303a207472616e736665722066726f6d20746865207a65726f20616460448201527f64726573730000000000000000000000000000000000000000000000000000006064820152608401610542565b6001600160a01b038216610a5d5760405162461bcd60e51b815260206004820152602360248201527f45524332303a207472616e7366657220746f20746865207a65726f206164647260448201527f65737300000000000000000000000000000000000000000000000000000000006064820152608401610542565b6001600160a01b03831660009081526020819052604090205481811015610aec5760405162461bcd60e51b815260206004820152602660248201527f45524332303a207472616e7366657220616d6f756e742065786365656473206260448201527f616c616e636500000000000000000000000000000000000000000000000000006064820152608401610542565b6001600160a01b03848116600081815260208181526040808320878703905593871680835291849020805487019055925185815290927fddf252ad1be2c89b69c2b068fc378daa952ba7f163c4a11628f55a4df523b3ef910160405180910390a361095f848484610bee565b6001600160a01b038281166000818152600560208181526040808420805485845282862054949093528787167fffffffffffffffffffffffff00000000000000000000000000000000000000008416811790915590519190951694919391928592917f3134e8a2e6d97e929a7e54011ea5485d7d196dd5f0ba4d4ef95803e8e3fc257f9190a461095f828483610c1c565b505050565b6001600160a01b03808416600090815260056020526040808220548584168352912054610be9929182169116835b816001600160a01b0316836001600160a01b031614158015610c3e5750600081115b15610be9576001600160a01b03831615610ccf576001600160a01b0383166000908152600760205260408120549081610c78576000610caf565b6001600160a01b038516600090815260066020526040812090610c9c600185611016565b8152602001908152602001600020600101545b90506000610cbd8483611016565b9050610ccb86848484610d5f565b5050505b6001600160a01b03821615610be9576001600160a01b0382166000908152600760205260408120549081610d04576000610d3b565b6001600160a01b038416600090815260066020526040812090610d28600185611016565b8152602001908152602001600020600101545b90506000610d498483611003565b9050610d5785848484610d5f565b505050505050565b438315801590610da357506001600160a01b03851660009081526006602052604081208291610d8f600188611016565b815260200190815260200160002060000154145b15610de6576001600160a01b03851660009081526006602052604081208391610dcd600188611016565b8152602081019190915260400160002060010155610e4a565b60408051808201825282815260208082018581526001600160a01b038916600090815260068352848120898252909252929020905181559051600191820155610e30908590611003565b6001600160a01b0386166000908152600760205260409020555b60408051848152602081018490526001600160a01b038716917fdec2bacdd2f05b59de34da9b523dff8be42e5e38e818c82fdb0bae774387a724910160405180910390a25050505050565b600060208083528351808285015260005b81811015610ec257858101830151858201604001528201610ea6565b506000604082860101526040601f19601f8301168501019250505092915050565b80356001600160a01b0381168114610efa57600080fd5b919050565b60008060408385031215610f1257600080fd5b610f1b83610ee3565b946020939093013593505050565b600080600060608486031215610f3e57600080fd5b610f4784610ee3565b9250610f5560208501610ee3565b9150604084013590509250925092565b600060208284031215610f7757600080fd5b61048682610ee3565b60008060408385031215610f9357600080fd5b610f9c83610ee3565b9150610faa60208401610ee3565b90509250929050565b600181811c90821680610fc757607f821691505b602082108103610fe757634e487b7160e01b600052602260045260246000fd5b50919050565b634e487b7160e01b600052601160045260246000fd5b808201808211156103c1576103c1610fed565b818103818111156103c1576103c1610fed565b60008261104657634e487b7160e01b600052601260045260246000fd5b50049056fea2646970667358221220de226279579402552e43a603a4526360b767c86d15a00ceb9d3627f6cf5670bd64736f6c63430008130033ddf252ad1be2c89b69c2b068fc378daa952ba7f163c4a11628f55a4df523b3ef",
  "linkReferences": {},
  "deployedLinkReferences": {}
}