{
  "_format": "hh-sol-artifact-1",
  "contractName": "TimeTokenVote",
  "sourceName": "contracts/factory/TimeTokenVote.sol",
  "abi": [
    {
      "anonymous": false,
      "inputs": [
        {
          "indexed": false,
          "internalType": "uint8",
          "name": "version",
          "type": "uint8"
        }
      ],
      "name": "Initialized",
      "type": "event"
    },
    {
      "inputs": [],
      "name": "againstVotes",
      "outputs": [
        {
          "internalType": "uint256",
          "name": "",
          "type": "uint256"
        }
      ],
      "stateMutability": "view",
      "type": "function"
    },
    {
      "inputs": [
        {
          "internalType": "bool",
          "name": "support",
          "type": "bool"
        }
      ],
      "name": "castVote",
      "outputs": [],
      "stateMutability": "nonpayable",
      "type": "function"
    },
    {
      "inputs": [],
      "name": "forVotes",
      "outputs": [
        {
          "internalType": "uint256",
          "name": "",
          "type": "uint256"
        }
      ],
      "stateMutability": "view",
      "type": "function"
    },
    {
      "inputs": [],
      "name": "governance",
      "outputs": [
        {
          "internalType": "contract IGovernance",
          "name": "",
          "type": "address"
        }
      ],
      "stateMutability": "view",
      "type": "function"
    },
    {
      "inputs": [
        {
          "internalType": "address",
          "name": "_governance",
          "type": "address"
        },
        {
          "internalType": "uint256",
          "name": "_proposalId",
          "type": "uint256"
        }
      ],
      "name": "initialize",
      "outputs": [],
      "stateMutability": "nonpayable",
      "type": "function"
    },
    {
      "inputs": [],
      "name": "isProposalPassed",
      "outputs": [
        {
          "internalType": "bool",
          "name": "",
          "type": "bool"
        }
      ],
      "stateMutability": "view",
      "type": "function"
    },
    {
      "inputs": [],
      "name": "proposalId",
      "outputs": [
        {
          "internalType": "uint256",
          "name": "",
          "type": "uint256"
        }
      ],
      "stateMutability": "view",
      "type": "function"
    },
    {
      "inputs": [
        {
          "internalType": "address",
          "name": "",
          "type": "address"
        }
      ],
      "name": "votes",
      "outputs": [
        {
          "internalType": "bool",
          "name": "support",
          "type": "bool"
        },
        {
          "internalType": "uint256",
          "name": "votingPower",
          "type": "uint256"
        }
      ],
      "stateMutability": "view",
      "type": "function"
    }
  ],
  "bytecode": "0x608060405234801561001057600080fd5b50610b88806100206000396000f3fe608060405234801561001057600080fd5b50600436106100885760003560e01c8063cd6dc6871161005b578063cd6dc687146100f2578063d312b54714610105578063d6b225be1461011a578063d8bff5a51461012357600080fd5b80632dfca4451461008d5780635aa6e675146100a95780637ace48e7146100d4578063bd108fd4146100e9575b600080fd5b61009660045481565b6040519081526020015b60405180910390f35b6003546100bc906001600160a01b031681565b6040516001600160a01b0390911681526020016100a0565b6100e76100e23660046105ad565b610167565b005b61009660015481565b6100e76101003660046105e6565b610174565b600254600154604051911081526020016100a0565b61009660025481565b610150610131366004610612565b6005602052600090815260409020805460019091015460ff9091169082565b6040805192151583526020830191909152016100a0565b61017133826102cb565b50565b600054610100900460ff16158080156101945750600054600160ff909116105b806101ae5750303b1580156101ae575060005460ff166001145b6102255760405162461bcd60e51b815260206004820152602e60248201527f496e697469616c697a61626c653a20636f6e747261637420697320616c72656160448201527f647920696e697469616c697a656400000000000000000000000000000000000060648201526084015b60405180910390fd5b6000805460ff191660011790558015610248576000805461ff0019166101001790555b600380547fffffffffffffffffffffffff0000000000000000000000000000000000000000166001600160a01b038516179055600482905580156102c6576000805461ff0019169055604051600181527f7f26b83ff96e1f2b6a682f133852f6798a09c465da95921460cefb38474024989060200160405180910390a15b505050565b600354600480546040517f9080936f000000000000000000000000000000000000000000000000000000008152918201526002916001600160a01b031690639080936f90602401602060405180830381865afa15801561032f573d6000803e3d6000fd5b505050506040513d601f19601f820116820180604052508101906103539190610645565b60078111156103645761036461062f565b146103b15760405162461bcd60e51b815260206004820152600d60248201527f564f54494e475f434c4f53454400000000000000000000000000000000000000604482015260640161021c565b600354600480546040517f3656de21000000000000000000000000000000000000000000000000000000008152918201526000916001600160a01b031690633656de2190602401600060405180830381865afa158015610415573d6000803e3d6000fd5b505050506040513d6000823e601f3d908101601f1916820160405261043d919081019061094d565b6001600160a01b0384166000908152600560205260409020600181015491925090156104ab5760405162461bcd60e51b815260206004820152601660248201527f564f54455f414c52454144595f5355424d495454454400000000000000000000604482015260640161021c565b6102008201516101208301516040517feaeded5f0000000000000000000000000000000000000000000000000000000081526000926001600160a01b03169163eaeded5f916105129189916004016001600160a01b03929092168252602082015260400190565b6020604051808303816000875af1158015610531573d6000803e3d6000fd5b505050506040513d601f19601f820116820180604052508101906105559190610b12565b90508315610573578060015461056b9190610b2b565b600155610585565b806002546105819190610b2b565b6002555b815460ff1916931515939093178155600101919091555050565b801515811461017157600080fd5b6000602082840312156105bf57600080fd5b81356105ca8161059f565b9392505050565b6001600160a01b038116811461017157600080fd5b600080604083850312156105f957600080fd5b8235610604816105d1565b946020939093013593505050565b60006020828403121561062457600080fd5b81356105ca816105d1565b634e487b7160e01b600052602160045260246000fd5b60006020828403121561065757600080fd5b8151600881106105ca57600080fd5b634e487b7160e01b600052604160045260246000fd5b604051610240810167ffffffffffffffff811182821017156106a0576106a0610666565b60405290565b604051601f8201601f1916810167ffffffffffffffff811182821017156106cf576106cf610666565b604052919050565b80516106e2816105d1565b919050565b600067ffffffffffffffff82111561070157610701610666565b5060051b60200190565b600082601f83011261071c57600080fd5b8151602061073161072c836106e7565b6106a6565b82815260059290921b8401810191818101908684111561075057600080fd5b8286015b84811015610774578051610767816105d1565b8352918301918301610754565b509695505050505050565b600082601f83011261079057600080fd5b815160206107a061072c836106e7565b82815260059290921b840181019181810190868411156107bf57600080fd5b8286015b8481101561077457805183529183019183016107c3565b600067ffffffffffffffff8311156107f4576107f4610666565b6020610808601f8501601f191682016106a6565b915083825284848401111561081c57600080fd5b60005b848110156108385783810151838201830152810161081f565b506000818584010152509392505050565b600082601f83011261085a57600080fd5b8151602061086a61072c836106e7565b82815260059290921b8401810191818101908684111561088957600080fd5b8286015b8481101561077457805167ffffffffffffffff8111156108ad5760008081fd5b8701603f810189136108bf5760008081fd5b6108d08986830151604084016107da565b84525091830191830161088d565b80516106e28161059f565b600082601f8301126108fa57600080fd5b8151602061090a61072c836106e7565b82815260059290921b8401810191818101908684111561092957600080fd5b8286015b848110156107745780516109408161059f565b835291830191830161092d565b60006020828403121561095f57600080fd5b815167ffffffffffffffff8082111561097757600080fd5b90830190610240828603121561098c57600080fd5b61099461067c565b825181526109a4602084016106d7565b6020820152604083015160408201526109bf606084016106d7565b60608201526080830151828111156109d657600080fd5b6109e28782860161070b565b60808301525060a0830151828111156109fa57600080fd5b610a068782860161077f565b60a08301525060c083015182811115610a1e57600080fd5b610a2a87828601610849565b60c08301525060e083015182811115610a4257600080fd5b610a4e87828601610849565b60e0830152506101008084015183811115610a6857600080fd5b610a74888287016108e9565b91830191909152506101208381015190820152610140808401519082015261016080840151908201526101809150610aad8284016108de565b828201526101a09150610ac18284016108de565b828201526101c09150610ad58284016108de565b828201526101e0915081830151828201526102009150610af68284016106d7565b9181019190915261022091820151918101919091529392505050565b600060208284031215610b2457600080fd5b5051919050565b80820180821115610b4c57634e487b7160e01b600052601160045260246000fd5b9291505056fea264697066735822122020565a4d218086aa213c2560ed471dba05714277fea278776335de7a021c990064736f6c63430008130033",
  "linkReferences": {},
  "deployedLinkReferences": {}
}