{
  "_format": "hh-sol-artifact-1",
  "contractName": "Review",
  "sourceName": "contracts/governance/Review.sol",
  "abi": [
    {
      "inputs": [
        {
          "internalType": "address",
          "name": "_voteFactory",
          "type": "address"
        },
        {
          "internalType": "address",
          "name": "_ct",
          "type": "address"
        },
        {
          "internalType": "address",
          "name": "_oracle",
          "type": "address"
        }
      ],
      "stateMutability": "nonpayable",
      "type": "constructor"
    },
    {
      "inputs": [],
      "name": "REVIEW_DURATION",
      "outputs": [
        {
          "internalType": "uint256",
          "name": "",
          "type": "uint256"
        }
      ],
      "stateMutability": "view",
      "type": "function"
    },
    {
      "inputs": [
        {
          "internalType": "address",
          "name": "governance",
          "type": "address"
        },
        {
          "internalType": "uint256",
          "name": "proposalId",
          "type": "uint256"
        }
      ],
      "name": "createReview",
      "outputs": [],
      "stateMutability": "nonpayable",
      "type": "function"
    },
    {
      "inputs": [],
      "name": "ct",
      "outputs": [
        {
          "internalType": "contract IConditionalTokens",
          "name": "",
          "type": "address"
        }
      ],
      "stateMutability": "view",
      "type": "function"
    },
    {
      "inputs": [
        {
          "internalType": "address",
          "name": "reviewAddr",
          "type": "address"
        }
      ],
      "name": "getReviewResult",
      "outputs": [
        {
          "internalType": "bool",
          "name": "",
          "type": "bool"
        }
      ],
      "stateMutability": "view",
      "type": "function"
    },
    {
      "inputs": [
        {
          "internalType": "address",
          "name": "governance",
          "type": "address"
        },
        {
          "internalType": "uint256",
          "name": "proposalId",
          "type": "uint256"
        }
      ],
      "name": "isProposalPassed",
      "outputs": [
        {
          "internalType": "bool",
          "name": "",
          "type": "bool"
        }
      ],
      "stateMutability": "view",
      "type": "function"
    },
    {
      "inputs": [],
      "name": "voteFactory",
      "outputs": [
        {
          "internalType": "contract IVoteFactory",
          "name": "",
          "type": "address"
        }
      ],
      "stateMutability": "view",
      "type": "function"
    }
  ],
  "bytecode": "0x6080604052611c2060005534801561001657600080fd5b50604051610ac1380380610ac183398101604081905261003591610093565b600180546001600160a01b039485166001600160a01b0319918216179091556002805493851693821693909317909255600380549190931691161790556100d6565b80516001600160a01b038116811461008e57600080fd5b919050565b6000806000606084860312156100a857600080fd5b6100b184610077565b92506100bf60208501610077565b91506100cd60408501610077565b90509250925092565b6109dc806100e56000396000f3fe608060405234801561001057600080fd5b50600436106100725760003560e01c80636ae76d4f116100505780636ae76d4f146100cb578063a8369006146100f6578063b4b53e1c1461010957600080fd5b806306fbb3ab14610077578063597283921461009f5780635d73bb11146100b4575b600080fd5b61008a610085366004610456565b61011c565b60405190151581526020015b60405180910390f35b6100b26100ad366004610456565b61021a565b005b6100bd60005481565b604051908152602001610096565b6002546100de906001600160a01b031681565b6040516001600160a01b039091168152602001610096565b6001546100de906001600160a01b031681565b61008a610117366004610482565b6103d4565b6001546040517f3d97c0ca0000000000000000000000000000000000000000000000000000000081526001600160a01b038481166004830152602482018490526000928392911690633d97c0ca90604401602060405180830381865afa15801561018a573d6000803e3d6000fd5b505050506040513d601f19601f820116820180604052508101906101ae91906104b6565b9050806001600160a01b031663d312b5476040518163ffffffff1660e01b8152600401602060405180830381865afa1580156101ee573d6000803e3d6000fd5b505050506040513d601f19601f8201168201806040525081019061021291906104e3565b949350505050565b6040517f3656de21000000000000000000000000000000000000000000000000000000008152600481018290526000906001600160a01b03841690633656de2190602401600060405180830381865afa15801561027b573d6000803e3d6000fd5b505050506040513d6000823e601f3d908101601f191682016040526102a391908101906107e1565b9050806101c001511561033e57600280546003546040517fd96ee7540000000000000000000000000000000000000000000000000000000081526001600160a01b039182166004820152602481018690526044810193909352169063d96ee75490606401600060405180830381600087803b15801561032157600080fd5b505af1158015610335573d6000803e3d6000fd5b50505050505050565b6001546040517fb12d96f70000000000000000000000000000000000000000000000000000000081526001600160a01b038581166004830152602482018590529091169063b12d96f7906044016020604051808303816000875af11580156103aa573d6000803e3d6000fd5b505050506040513d601f19601f820116820180604052508101906103ce91906104b6565b50505050565b6000816001600160a01b031663d312b5476040518163ffffffff1660e01b8152600401602060405180830381865afa158015610414573d6000803e3d6000fd5b505050506040513d601f19601f8201168201806040525081019061043891906104e3565b92915050565b6001600160a01b038116811461045357600080fd5b50565b6000806040838503121561046957600080fd5b82356104748161043e565b946020939093013593505050565b60006020828403121561049457600080fd5b813561049f8161043e565b9392505050565b80516104b18161043e565b919050565b6000602082840312156104c857600080fd5b815161049f8161043e565b805180151581146104b157600080fd5b6000602082840312156104f557600080fd5b61049f826104d3565b7f4e487b7100000000000000000000000000000000000000000000000000000000600052604160045260246000fd5b604051610240810167ffffffffffffffff81118282101715610551576105516104fe565b60405290565b604051601f8201601f1916810167ffffffffffffffff81118282101715610580576105806104fe565b604052919050565b600067ffffffffffffffff8211156105a2576105a26104fe565b5060051b60200190565b600082601f8301126105bd57600080fd5b815160206105d26105cd83610588565b610557565b82815260059290921b840181019181810190868411156105f157600080fd5b8286015b848110156106155780516106088161043e565b83529183019183016105f5565b509695505050505050565b600082601f83011261063157600080fd5b815160206106416105cd83610588565b82815260059290921b8401810191818101908684111561066057600080fd5b8286015b848110156106155780518352918301918301610664565b600067ffffffffffffffff831115610695576106956104fe565b60206106a9601f8501601f19168201610557565b91508382528484840111156106bd57600080fd5b60005b848110156106d9578381015183820183015281016106c0565b506000818584010152509392505050565b600082601f8301126106fb57600080fd5b8151602061070b6105cd83610588565b82815260059290921b8401810191818101908684111561072a57600080fd5b8286015b8481101561061557805167ffffffffffffffff81111561074e5760008081fd5b8701603f810189136107605760008081fd5b61077189868301516040840161067b565b84525091830191830161072e565b600082601f83011261079057600080fd5b815160206107a06105cd83610588565b82815260059290921b840181019181810190868411156107bf57600080fd5b8286015b84811015610615576107d4816104d3565b83529183019183016107c3565b6000602082840312156107f357600080fd5b815167ffffffffffffffff8082111561080b57600080fd5b90830190610240828603121561082057600080fd5b61082861052d565b82518152610838602084016104a6565b602082015260408301516040820152610853606084016104a6565b606082015260808301518281111561086a57600080fd5b610876878286016105ac565b60808301525060a08301518281111561088e57600080fd5b61089a87828601610620565b60a08301525060c0830151828111156108b257600080fd5b6108be878286016106ea565b60c08301525060e0830151828111156108d657600080fd5b6108e2878286016106ea565b60e08301525061010080840151838111156108fc57600080fd5b6109088882870161077f565b918301919091525061012083810151908201526101408084015190820152610160808401519082015261018091506109418284016104d3565b828201526101a091506109558284016104d3565b828201526101c091506109698284016104d3565b828201526101e091508183015182820152610200915061098a8284016104a6565b918101919091526102209182015191810191909152939250505056fea264697066735822122072087ea88bba5b21c51488a2f99f843c8c2fba4b3ffa52e4f2a2591eaa78b64b64736f6c63430008130033",
  "linkReferences": {},
  "deployedLinkReferences": {}
}