{
  "_format": "hh-sol-artifact-1",
  "contractName": "MarketMaker",
  "sourceName": "contracts/market/MarketMaker.sol",
  "abi": [
    {
      "inputs": [
        {
          "internalType": "contract ConditionalTokens",
          "name": "_conditionalTokens",
          "type": "address"
        },
        {
          "internalType": "contract IERC20",
          "name": "_collateralToken",
          "type": "address"
        },
        {
          "internalType": "bytes32",
          "name": "_conditionId",
          "type": "bytes32"
        }
      ],
      "stateMutability": "nonpayable",
      "type": "constructor"
    },
    {
      "anonymous": false,
      "inputs": [],
      "name": "AMMClosed",
      "type": "event"
    },
    {
      "anonymous": false,
      "inputs": [
        {
          "indexed": false,
          "internalType": "uint256",
          "name": "initialFunding",
          "type": "uint256"
        }
      ],
      "name": "AMMCreated",
      "type": "event"
    },
    {
      "anonymous": false,
      "inputs": [
        {
          "indexed": false,
          "internalType": "uint64",
          "name": "newFee",
          "type": "uint64"
        }
      ],
      "name": "AMMFeeChanged",
      "type": "event"
    },
    {
      "anonymous": false,
      "inputs": [
        {
          "indexed": false,
          "internalType": "uint256",
          "name": "fees",
          "type": "uint256"
        }
      ],
      "name": "AMMFeeWithdrawal",
      "type": "event"
    },
    {
      "anonymous": false,
      "inputs": [
        {
          "indexed": false,
          "internalType": "int256",
          "name": "fundingChange",
          "type": "int256"
        }
      ],
      "name": "AMMFundingChanged",
      "type": "event"
    },
    {
      "anonymous": false,
      "inputs": [
        {
          "indexed": true,
          "internalType": "address",
          "name": "transactor",
          "type": "address"
        },
        {
          "indexed": false,
          "internalType": "int256[]",
          "name": "outcomeTokenAmounts",
          "type": "int256[]"
        },
        {
          "indexed": false,
          "internalType": "int256",
          "name": "outcomeTokenNetCost",
          "type": "int256"
        },
        {
          "indexed": false,
          "internalType": "uint256",
          "name": "marketFees",
          "type": "uint256"
        }
      ],
      "name": "AMMOutcomeTokenTrade",
      "type": "event"
    },
    {
      "anonymous": false,
      "inputs": [],
      "name": "AMMPaused",
      "type": "event"
    },
    {
      "anonymous": false,
      "inputs": [],
      "name": "AMMResumed",
      "type": "event"
    },
    {
      "anonymous": false,
      "inputs": [
        {
          "indexed": true,
          "internalType": "address",
          "name": "buyer",
          "type": "address"
        },
        {
          "indexed": false,
          "internalType": "uint256",
          "name": "investmentAmount",
          "type": "uint256"
        },
        {
          "indexed": false,
          "internalType": "uint256",
          "name": "feeAmount",
          "type": "uint256"
        },
        {
          "indexed": true,
          "internalType": "uint256",
          "name": "outcomeIndex",
          "type": "uint256"
        },
        {
          "indexed": false,
          "internalType": "uint256",
          "name": "outcomeTokensBought",
          "type": "uint256"
        }
      ],
      "name": "FPMMBuy",
      "type": "event"
    },
    {
      "anonymous": false,
      "inputs": [
        {
          "indexed": true,
          "internalType": "address",
          "name": "seller",
          "type": "address"
        },
        {
          "indexed": false,
          "internalType": "uint256",
          "name": "returnAmount",
          "type": "uint256"
        },
        {
          "indexed": false,
          "internalType": "uint256",
          "name": "feeAmount",
          "type": "uint256"
        },
        {
          "indexed": true,
          "internalType": "uint256",
          "name": "outcomeIndex",
          "type": "uint256"
        },
        {
          "indexed": false,
          "internalType": "uint256",
          "name": "outcomeTokensSold",
          "type": "uint256"
        }
      ],
      "name": "FPMMSell",
      "type": "event"
    },
    {
      "anonymous": false,
      "inputs": [
        {
          "indexed": true,
          "internalType": "address",
          "name": "previousOwner",
          "type": "address"
        },
        {
          "indexed": true,
          "internalType": "address",
          "name": "newOwner",
          "type": "address"
        }
      ],
      "name": "OwnershipTransferred",
      "type": "event"
    },
    {
      "inputs": [],
      "name": "FEE_RANGE",
      "outputs": [
        {
          "internalType": "uint64",
          "name": "",
          "type": "uint64"
        }
      ],
      "stateMutability": "view",
      "type": "function"
    },
    {
      "inputs": [],
      "name": "OutcomeSlotCount",
      "outputs": [
        {
          "internalType": "uint256",
          "name": "",
          "type": "uint256"
        }
      ],
      "stateMutability": "view",
      "type": "function"
    },
    {
      "inputs": [
        {
          "internalType": "uint256",
          "name": "investmentAmount",
          "type": "uint256"
        },
        {
          "internalType": "uint256",
          "name": "outcomeIndex",
          "type": "uint256"
        },
        {
          "internalType": "uint256",
          "name": "minOutcomeTokensToBuy",
          "type": "uint256"
        }
      ],
      "name": "buy",
      "outputs": [],
      "stateMutability": "nonpayable",
      "type": "function"
    },
    {
      "inputs": [
        {
          "internalType": "uint256",
          "name": "investmentAmount",
          "type": "uint256"
        },
        {
          "internalType": "uint256",
          "name": "outcomeIndex",
          "type": "uint256"
        }
      ],
      "name": "calcBuyAmount",
      "outputs": [
        {
          "internalType": "uint256",
          "name": "",
          "type": "uint256"
        }
      ],
      "stateMutability": "view",
      "type": "function"
    },
    {
      "inputs": [
        {
          "internalType": "uint256",
          "name": "returnAmount",
          "type": "uint256"
        },
        {
          "internalType": "uint256",
          "name": "outcomeIndex",
          "type": "uint256"
        }
      ],
      "name": "calcSellAmount",
      "outputs": [
        {
          "internalType": "uint256",
          "name": "outcomeTokenSellAmount",
          "type": "uint256"
        }
      ],
      "stateMutability": "view",
      "type": "function"
    },
    {
      "inputs": [
        {
          "internalType": "uint64",
          "name": "_fee",
          "type": "uint64"
        }
      ],
      "name": "changeFee",
      "outputs": [],
      "stateMutability": "nonpayable",
      "type": "function"
    },
    {
      "inputs": [
        {
          "internalType": "int256",
          "name": "fundingChange",
          "type": "int256"
        }
      ],
      "name": "changeFunding",
      "outputs": [],
      "stateMutability": "nonpayable",
      "type": "function"
    },
    {
      "inputs": [],
      "name": "close",
      "outputs": [],
      "stateMutability": "nonpayable",
      "type": "function"
    },
    {
      "inputs": [],
      "name": "collateralToken",
      "outputs": [
        {
          "internalType": "contract IERC20",
          "name": "",
          "type": "address"
        }
      ],
      "stateMutability": "view",
      "type": "function"
    },
    {
      "inputs": [],
      "name": "conditionId",
      "outputs": [
        {
          "internalType": "bytes32",
          "name": "",
          "type": "bytes32"
        }
      ],
      "stateMutability": "view",
      "type": "function"
    },
    {
      "inputs": [],
      "name": "conditionalTokens",
      "outputs": [
        {
          "internalType": "contract ConditionalTokens",
          "name": "",
          "type": "address"
        }
      ],
      "stateMutability": "view",
      "type": "function"
    },
    {
      "inputs": [],
      "name": "fee",
      "outputs": [
        {
          "internalType": "uint64",
          "name": "",
          "type": "uint64"
        }
      ],
      "stateMutability": "view",
      "type": "function"
    },
    {
      "inputs": [],
      "name": "funding",
      "outputs": [
        {
          "internalType": "uint256",
          "name": "",
          "type": "uint256"
        }
      ],
      "stateMutability": "view",
      "type": "function"
    },
    {
      "inputs": [
        {
          "internalType": "address",
          "name": "_operator",
          "type": "address"
        },
        {
          "internalType": "address",
          "name": "",
          "type": "address"
        },
        {
          "internalType": "uint256[]",
          "name": "",
          "type": "uint256[]"
        },
        {
          "internalType": "uint256[]",
          "name": "",
          "type": "uint256[]"
        },
        {
          "internalType": "bytes",
          "name": "",
          "type": "bytes"
        }
      ],
      "name": "onERC1155BatchReceived",
      "outputs": [
        {
          "internalType": "bytes4",
          "name": "",
          "type": "bytes4"
        }
      ],
      "stateMutability": "nonpayable",
      "type": "function"
    },
    {
      "inputs": [
        {
          "internalType": "address",
          "name": "operator",
          "type": "address"
        },
        {
          "internalType": "address",
          "name": "",
          "type": "address"
        },
        {
          "internalType": "uint256",
          "name": "",
          "type": "uint256"
        },
        {
          "internalType": "uint256",
          "name": "",
          "type": "uint256"
        },
        {
          "internalType": "bytes",
          "name": "",
          "type": "bytes"
        }
      ],
      "name": "onERC1155Received",
      "outputs": [
        {
          "internalType": "bytes4",
          "name": "",
          "type": "bytes4"
        }
      ],
      "stateMutability": "nonpayable",
      "type": "function"
    },
    {
      "inputs": [],
      "name": "owner",
      "outputs": [
        {
          "internalType": "address",
          "name": "",
          "type": "address"
        }
      ],
      "stateMutability": "view",
      "type": "function"
    },
    {
      "inputs": [],
      "name": "pause",
      "outputs": [],
      "stateMutability": "nonpayable",
      "type": "function"
    },
    {
      "inputs": [],
      "name": "renounceOwnership",
      "outputs": [],
      "stateMutability": "nonpayable",
      "type": "function"
    },
    {
      "inputs": [],
      "name": "resume",
      "outputs": [],
      "stateMutability": "nonpayable",
      "type": "function"
    },
    {
      "inputs": [
        {
          "internalType": "uint256",
          "name": "returnAmount",
          "type": "uint256"
        },
        {
          "internalType": "uint256",
          "name": "outcomeIndex",
          "type": "uint256"
        },
        {
          "internalType": "uint256",
          "name": "maxOutcomeTokensToSell",
          "type": "uint256"
        }
      ],
      "name": "sell",
      "outputs": [],
      "stateMutability": "nonpayable",
      "type": "function"
    },
    {
      "inputs": [],
      "name": "stage",
      "outputs": [
        {
          "internalType": "enum MarketMaker.Stage",
          "name": "",
          "type": "uint8"
        }
      ],
      "stateMutability": "view",
      "type": "function"
    },
    {
      "inputs": [
        {
          "internalType": "bytes4",
          "name": "interfaceId",
          "type": "bytes4"
        }
      ],
      "name": "supportsInterface",
      "outputs": [
        {
          "internalType": "bool",
          "name": "",
          "type": "bool"
        }
      ],
      "stateMutability": "view",
      "type": "function"
    },
    {
      "inputs": [
        {
          "internalType": "address",
          "name": "newOwner",
          "type": "address"
        }
      ],
      "name": "transferOwnership",
      "outputs": [],
      "stateMutability": "nonpayable",
      "type": "function"
    },
    {
      "inputs": [],
      "name": "withdrawFees",
      "outputs": [
        {
          "internalType": "uint256",
          "name": "fees",
          "type": "uint256"
        }
      ],
      "stateMutability": "nonpayable",
      "type": "function"
    }
  ],
  "bytecode": "0x60806040523480156200001157600080fd5b506040516200235d3803806200235d833981016040819052620000349162000297565b6200003f336200022e565b600060065560078054600160ff19909116811790915580546001600160a01b038581166001600160a01b0319928316811790935560028054918616919092161790556003829055604051636a16e06160e11b81526004810183905263d42dc0c290602401602060405180830381865afa158015620000c1573d6000803e3d6000fd5b505050506040513d601f19601f82011682018060405250810190620000e79190620002df565b60045560005b6004548110156200022457600180546003546040516350f3db3f60e11b8152600481019190915291831b60248301526000916001600160a01b039091169063a1e7b67e90604401602060405180830381865afa15801562000152573d6000803e3d6000fd5b505050506040513d601f19601f82011682018060405250810190620001789190620002df565b60015460025460405163039dd75360e41b81526001600160a01b039182166004820152602481018490529293506008929116906339dd753090604401602060405180830381865afa158015620001d2573d6000803e3d6000fd5b505050506040513d601f19601f82011682018060405250810190620001f89190620002df565b8154600181018355600092835260209092209091015550806200021b81620002f9565b915050620000ed565b5050505062000321565b600080546001600160a01b038381166001600160a01b0319831681178455604051919092169283917f8be0079c531659141344cd1fd0a4f28419497f9722a3daafe3b4186f6b6457e09190a35050565b6001600160a01b03811681146200029457600080fd5b50565b600080600060608486031215620002ad57600080fd5b8351620002ba816200027e565b6020850151909350620002cd816200027e565b80925050604084015190509250925092565b600060208284031215620002f257600080fd5b5051919050565b6000600182016200031a57634e487b7160e01b600052601160045260246000fd5b5060010190565b61202c80620003316000396000f3fe608060405234801561001057600080fd5b50600436106101985760003560e01c80638da5cb5b116100e3578063ddca3f431161008c578063f2fde38b11610066578063f2fde38b1461034c578063f55c79d01461035f578063fbde47f61461037257600080fd5b8063ddca3f43146102f9578063e7f3378914610326578063f23a6e611461033957600080fd5b8063c040e6b8116100bd578063c040e6b8146102c3578063cb4c86b7146102dd578063d3c9727c146102e657600080fd5b80638da5cb5b14610273578063b2016bd414610284578063bc197c811461029757600080fd5b8063476343ee116101455780638456cb591161011f5780638456cb591461024f57806387f39a5c14610257578063883834021461026a57600080fd5b8063476343ee146102145780635bd9e2991461021c578063715018a61461024757600080fd5b806340993b261161017657806340993b26146101e65780634343116a146101f957806343d726d61461020c57600080fd5b806301ffc9a71461019d578063046f7da2146101c55780632ddc7de7146101cf575b600080fd5b6101b06101ab366004611a37565b610381565b60405190151581526020015b60405180910390f35b6101cd6103ea565b005b6101d860035481565b6040519081526020016101bc565b6101cd6101f4366004611a61565b61044c565b6101d8610207366004611a8d565b610787565b6101cd610955565b6101d8610b9a565b60015461022f906001600160a01b031681565b6040516001600160a01b0390911681526020016101bc565b6101cd610cff565b6101cd610d13565b6101cd610265366004611aaf565b610d78565b6101d860045481565b6000546001600160a01b031661022f565b60025461022f906001600160a01b031681565b6102aa6102a5366004611b72565b61105f565b6040516001600160e01b031990911681526020016101bc565b6007546102d09060ff1681565b6040516101bc9190611c43565b6101d860065481565b6101cd6102f4366004611a61565b6110a8565b60055461030d9067ffffffffffffffff1681565b60405167ffffffffffffffff90911681526020016101bc565b6101cd610334366004611c6b565b611336565b6102aa610347366004611c95565b6113b2565b6101cd61035a366004611d0d565b6113f9565b6101d861036d366004611a8d565b611489565b61030d670de0b6b3a764000081565b60006001600160e01b031982167f4e2312e00000000000000000000000000000000000000000000000000000000014806103e457507f01ffc9a7000000000000000000000000000000000000000000000000000000006001600160e01b03198316145b92915050565b6103f2611630565b60018060075460ff16600281111561040c5761040c611c2d565b1461041657600080fd5b6007805460ff191690556040517fb0cf596e1402e50b88a6d1097918e48922e4a2878ece11d7bb51b5d81cf6c17890600090a150565b60006104588484611489565b9050818110156104af5760405162461bcd60e51b815260206004820152601e60248201527f6d696e696d756d2062757920616d6f756e74206e6f742072656163686564000060448201526064015b60405180910390fd5b6002546040516323b872dd60e01b8152336004820152306024820152604481018690526001600160a01b03909116906323b872dd906064016020604051808303816000875af1158015610506573d6000803e3d6000fd5b505050506040513d601f19601f8201168201806040525081019061052a9190611d28565b6105765760405162461bcd60e51b815260206004820152601460248201527f636f7374207472616e73666572206661696c656400000000000000000000000060448201526064016104a6565b600554600090670de0b6b3a76400009061059b90879067ffffffffffffffff1661168a565b6105a59190611d60565b905060006105b3868361169d565b60025460015460405163095ea7b360e01b81526001600160a01b03918216600482015260248101849052929350169063095ea7b3906044016020604051808303816000875af115801561060a573d6000803e3d6000fd5b505050506040513d601f19601f8201168201806040525081019061062e9190611d28565b61067a5760405162461bcd60e51b815260206004820152601a60248201527f617070726f76616c20666f722073706c697473206661696c656400000000000060448201526064016104a6565b610683816116a9565b600154600880546001600160a01b039092169163f242432a9130913391908a9081106106b1576106b1611d82565b60009182526020822001546040516001600160e01b031960e087901b1681526001600160a01b03948516600482015293909216602484015260448301919091526064820187905260a0608483015260a482015260c401600060405180830381600087803b15801561072157600080fd5b505af1158015610735573d6000803e3d6000fd5b505060408051898152602081018690529081018690528792503391507f4f62630f51608fc8a7603a9391a5101e58bd7c276139366fc107dc3b67c3dcf8906060015b60405180910390a3505050505050565b60085460009082106107db5760405162461bcd60e51b815260206004820152601560248201527f696e76616c6964206f7574636f6d6520696e646578000000000000000000000060448201526064016104a6565b60006107e5611743565b60055490915060009061080b90670de0b6b3a76400009067ffffffffffffffff1661169d565b61081d86670de0b6b3a764000061168a565b6108279190611d60565b9050600082858151811061083d5761083d611d82565b602002602001015190506000610864670de0b6b3a76400008361168a90919063ffffffff16565b905060005b84518110156108d3578681146108c157600085828151811061088d5761088d611d82565b602002602001015190506108bd6108ad868361169d90919063ffffffff16565b6108b7858461168a565b90611872565b9250505b806108cb81611d98565b915050610869565b50600081116109245760405162461bcd60e51b815260206004820152601b60248201527f6d7573742068617665206e6f6e2d7a65726f2062616c616e636573000000000060448201526064016104a6565b61094a8261094461093d84670de0b6b3a7640000611872565b86906118ac565b9061169d565b979650505050505050565b61095d611630565b600060075460ff16600281111561097657610976611c2d565b14806109985750600160075460ff16600281111561099657610996611c2d565b145b610a0a5760405162461bcd60e51b815260206004820152602360248201527f54686973204d61726b65742068617320616c7265616479206265656e20636c6f60448201527f736564000000000000000000000000000000000000000000000000000000000060648201526084016104a6565b60005b600454811015610b61576000610a22826118b8565b6001549091506001600160a01b031663f242432a30610a496000546001600160a01b031690565b6001546040517efdd58e0000000000000000000000000000000000000000000000000000000081523060048201526024810187905286916001600160a01b03169062fdd58e90604401602060405180830381865afa158015610aaf573d6000803e3d6000fd5b505050506040513d601f19601f82011682018060405250810190610ad39190611db1565b6040516001600160e01b031960e087901b1681526001600160a01b0394851660048201529390921660248401526044830152606482015260a06084820152600060a482015260c401600060405180830381600087803b158015610b3557600080fd5b505af1158015610b49573d6000803e3d6000fd5b50505050508080610b5990611d98565b915050610a0d565b506007805460ff191660021790556040517f6e18b1b14477b5922c6efa82206ed0e3b73c2500e8d1528c9a6e17554ea1255490600090a1565b6000610ba4611630565b6002546040517f70a082310000000000000000000000000000000000000000000000000000000081523060048201526001600160a01b03909116906370a0823190602401602060405180830381865afa158015610c05573d6000803e3d6000fd5b505050506040513d601f19601f82011682018060405250810190610c299190611db1565b6002549091506001600160a01b031663a9059cbb610c4f6000546001600160a01b031690565b6040516001600160e01b031960e084901b1681526001600160a01b039091166004820152602481018490526044016020604051808303816000875af1158015610c9c573d6000803e3d6000fd5b505050506040513d601f19601f82011682018060405250810190610cc09190611d28565b610cc957600080fd5b6040518181527fce1d35d26fbf6b3cc5cd924de10b5a52b08e484129ea7d93abc48d739fffe5b99060200160405180910390a190565b610d07611630565b610d1160006118df565b565b610d1b611630565b60008060075460ff166002811115610d3557610d35611c2d565b14610d3f57600080fd5b6007805460ff191660011790556040517fbb11914e7a395f00cf0920fe85f50088bd8d7681529fb0bd3c27ccb45a8bcd8f90600090a150565b610d80611630565b60018060075460ff166002811115610d9a57610d9a611c2d565b14610da457600080fd5b81600003610df45760405162461bcd60e51b815260206004820152601f60248201527f66756e64696e67206368616e6765206d757374206265206e6f6e2d7a65726f0060448201526064016104a6565b6000821315610f4f576002546040516323b872dd60e01b8152336004820152306024820152604481018490526001600160a01b03909116906323b872dd906064016020604051808303816000875af1158015610e54573d6000803e3d6000fd5b505050506040513d601f19601f82011682018060405250810190610e789190611d28565b8015610ef8575060025460015460405163095ea7b360e01b81526001600160a01b0391821660048201526024810185905291169063095ea7b3906044016020604051808303816000875af1158015610ed4573d6000803e3d6000fd5b505050506040513d601f19601f82011682018060405250810190610ef89190611d28565b610f0157600080fd5b610f0a826116a9565b81600654610f189190611dca565b6006556040518281527fc55e9a33fb8b1de5318b5c7b96a32937e54006c82000b2c468ed1fb9f73f67999060200160405180910390a15b600082121561105b57610f69610f6483611ddd565b611947565b610f7282611ddd565b600654610f7f9190611e15565b6006556002546001600160a01b031663a9059cbb610fa56000546001600160a01b031690565b610fae85611ddd565b6040516001600160e01b031960e085901b1681526001600160a01b03909216600483015260248201526044016020604051808303816000875af1158015610ff9573d6000803e3d6000fd5b505050506040513d601f19601f8201168201806040525081019061101d9190611d28565b61102657600080fd5b6040518281527fc55e9a33fb8b1de5318b5c7b96a32937e54006c82000b2c468ed1fb9f73f6799906020015b60405180910390a15b5050565b6000306001600160a01b038a160361109857507fbc197c810000000000000000000000000000000000000000000000000000000061109c565b5060005b98975050505050505050565b60006110b48484610787565b9050818111156111065760405162461bcd60e51b815260206004820152601c60248201527f6d6178696d756d2073656c6c20616d6f756e742065786365656465640000000060448201526064016104a6565b600154600880546001600160a01b039092169163f242432a9133913091908890811061113457611134611d82565b60009182526020822001546040516001600160e01b031960e087901b1681526001600160a01b03948516600482015293909216602484015260448301919091526064820185905260a0608483015260a482015260c401600060405180830381600087803b1580156111a457600080fd5b505af11580156111b8573d6000803e3d6000fd5b5050600554600092506111df9150670de0b6b3a76400009067ffffffffffffffff1661169d565b6005546111f790879067ffffffffffffffff1661168a565b6112019190611d60565b9050600061120f86836118ac565b905061121a81611947565b6002546040517fa9059cbb000000000000000000000000000000000000000000000000000000008152336004820152602481018890526001600160a01b039091169063a9059cbb906044016020604051808303816000875af1158015611284573d6000803e3d6000fd5b505050506040513d601f19601f820116820180604052508101906112a89190611d28565b6112f45760405162461bcd60e51b815260206004820152601660248201527f72657475726e207472616e73666572206661696c65640000000000000000000060448201526064016104a6565b6040805187815260208101849052908101849052859033907fadcf2a240ed9300d681d9a3f5382b6c1beed1b7e46643e0c7b42cbe6e2d766b490606001610777565b61133e611630565b60018060075460ff16600281111561135857611358611c2d565b1461136257600080fd5b6005805467ffffffffffffffff191667ffffffffffffffff84169081179091556040519081527f43acfe4f4a14c012959016586aee3b318a0a30e17bb8edae05a58d46c80b419990602001611052565b6000306001600160a01b038816036113eb57507ff23a6e61000000000000000000000000000000000000000000000000000000006113ef565b5060005b9695505050505050565b611401611630565b6001600160a01b03811661147d5760405162461bcd60e51b815260206004820152602660248201527f4f776e61626c653a206e6577206f776e657220697320746865207a65726f206160448201527f646472657373000000000000000000000000000000000000000000000000000060648201526084016104a6565b611486816118df565b50565b60085460009082106114dd5760405162461bcd60e51b815260206004820152601560248201527f696e76616c6964206f7574636f6d6520696e646578000000000000000000000060448201526064016104a6565b60006114e7611743565b60055490915060009061152490670de0b6b3a76400009061151390889067ffffffffffffffff1661168a565b61151d9190611d60565b869061169d565b9050600082858151811061153a5761153a611d82565b602002602001015190506000611561670de0b6b3a76400008361168a90919063ffffffff16565b905060005b84518110156115c0578681146115ae57600085828151811061158a5761158a611d82565b602002602001015190506115aa6108ad86836118ac90919063ffffffff16565b9250505b806115b881611d98565b915050611566565b50600081116116115760405162461bcd60e51b815260206004820152601b60248201527f6d7573742068617665206e6f6e2d7a65726f2062616c616e636573000000000060448201526064016104a6565b61094a61162682670de0b6b3a7640000611872565b61094484866118ac565b6000546001600160a01b03163314610d115760405162461bcd60e51b815260206004820181905260248201527f4f776e61626c653a2063616c6c6572206973206e6f7420746865206f776e657260448201526064016104a6565b60006116968284611e28565b9392505050565b60006116968284611e15565b60006116b66004546119ab565b6001546002546003546040517f9414207a0000000000000000000000000000000000000000000000000000000081529394506001600160a01b0392831693639414207a9361170d9316919086908890600401611e3f565b600060405180830381600087803b15801561172757600080fd5b505af115801561173b573d6000803e3d6000fd5b505050505050565b60085460609060009067ffffffffffffffff81111561176457611764611ea6565b60405190808252806020026020018201604052801561178d578160200160208202803683370190505b50905060005b6008548110156117da57308282815181106117b0576117b0611d82565b6001600160a01b0390921660209283029190910190910152806117d281611d98565b915050611793565b506001546040517f4e1273f40000000000000000000000000000000000000000000000000000000081526001600160a01b0390911690634e1273f490611827908490600890600401611ebc565b600060405180830381865afa158015611844573d6000803e3d6000fd5b505050506040513d6000823e601f3d908101601f1916820160405261186c9190810190611f44565b91505090565b600082156118a25781611886600185611e15565b6118909190611d60565b61189b906001611dca565b90506103e4565b6116968284611d60565b60006116968284611dca565b6000600882815481106118cd576118cd611d82565b90600052602060002001549050919050565b600080546001600160a01b038381167fffffffffffffffffffffffff0000000000000000000000000000000000000000831681178455604051919092169283917f8be0079c531659141344cd1fd0a4f28419497f9722a3daafe3b4186f6b6457e09190a35050565b60006119546004546119ab565b6001546002546003546040517f01cee6910000000000000000000000000000000000000000000000000000000081529394506001600160a01b03928316936301cee6919361170d9316919086908890600401611e3f565b60608167ffffffffffffffff8111156119c6576119c6611ea6565b6040519080825280602002602001820160405280156119ef578160200160208202803683370190505b50905060005b82811015611a3157806001901b828281518110611a1457611a14611d82565b602090810291909101015280611a2981611d98565b9150506119f5565b50919050565b600060208284031215611a4957600080fd5b81356001600160e01b03198116811461169657600080fd5b600080600060608486031215611a7657600080fd5b505081359360208301359350604090920135919050565b60008060408385031215611aa057600080fd5b50508035926020909101359150565b600060208284031215611ac157600080fd5b5035919050565b80356001600160a01b0381168114611adf57600080fd5b919050565b60008083601f840112611af657600080fd5b50813567ffffffffffffffff811115611b0e57600080fd5b6020830191508360208260051b8501011115611b2957600080fd5b9250929050565b60008083601f840112611b4257600080fd5b50813567ffffffffffffffff811115611b5a57600080fd5b602083019150836020828501011115611b2957600080fd5b60008060008060008060008060a0898b031215611b8e57600080fd5b611b9789611ac8565b9750611ba560208a01611ac8565b9650604089013567ffffffffffffffff80821115611bc257600080fd5b611bce8c838d01611ae4565b909850965060608b0135915080821115611be757600080fd5b611bf38c838d01611ae4565b909650945060808b0135915080821115611c0c57600080fd5b50611c198b828c01611b30565b999c989b5096995094979396929594505050565b634e487b7160e01b600052602160045260246000fd5b6020810160038310611c6557634e487b7160e01b600052602160045260246000fd5b91905290565b600060208284031215611c7d57600080fd5b813567ffffffffffffffff8116811461169657600080fd5b60008060008060008060a08789031215611cae57600080fd5b611cb787611ac8565b9550611cc560208801611ac8565b94506040870135935060608701359250608087013567ffffffffffffffff811115611cef57600080fd5b611cfb89828a01611b30565b979a9699509497509295939492505050565b600060208284031215611d1f57600080fd5b61169682611ac8565b600060208284031215611d3a57600080fd5b8151801515811461169657600080fd5b634e487b7160e01b600052601160045260246000fd5b600082611d7d57634e487b7160e01b600052601260045260246000fd5b500490565b634e487b7160e01b600052603260045260246000fd5b600060018201611daa57611daa611d4a565b5060010190565b600060208284031215611dc357600080fd5b5051919050565b808201808211156103e4576103e4611d4a565b60007f80000000000000000000000000000000000000000000000000000000000000008203611e0e57611e0e611d4a565b5060000390565b818103818111156103e4576103e4611d4a565b80820281158282048414176103e4576103e4611d4a565b6000608082016001600160a01b0387168352602086818501526080604085015281865180845260a086019150828801935060005b81811015611e8f57845183529383019391830191600101611e73565b505080935050505082606083015295945050505050565b634e487b7160e01b600052604160045260246000fd5b604080825283519082018190526000906020906060840190828701845b82811015611efe5781516001600160a01b031684529284019290840190600101611ed9565b505050838103828501528454808252600086815283812092840191905b81811015611f3757835483526001938401939285019201611f1b565b5090979650505050505050565b60006020808385031215611f5757600080fd5b825167ffffffffffffffff80821115611f6f57600080fd5b818501915085601f830112611f8357600080fd5b815181811115611f9557611f95611ea6565b8060051b604051601f19603f83011681018181108582111715611fba57611fba611ea6565b604052918252848201925083810185019188831115611fd857600080fd5b938501935b8285101561109c57845184529385019392850192611fdd56fea2646970667358221220829855dee41b794bc3881c29c15d8144eb228b66799e8af0364ee442ce3590f164736f6c63430008130033",
  "linkReferences": {},
  "deployedLinkReferences": {}
}