{
  "_format": "hh-sol-artifact-1",
  "contractName": "MyLiquidityProvider",
  "sourceName": "contracts/MyLiquidityProvider.sol",
  "abi": [
    {
      "inputs": [
        {
          "internalType": "contract IPoolManager",
          "name": "_poolManager",
          "type": "address"
        }
      ],
      "stateMutability": "nonpayable",
      "type": "constructor"
    },
    {
      "inputs": [],
      "name": "OnlyPoolManager",
      "type": "error"
    },
    {
      "inputs": [],
      "name": "SwapExpired",
      "type": "error"
    },
    {
      "inputs": [],
      "name": "addLiquidity",
      "outputs": [],
      "stateMutability": "nonpayable",
      "type": "function"
    },
    {
      "inputs": [],
      "name": "amount0",
      "outputs": [
        {
          "internalType": "uint256",
          "name": "",
          "type": "uint256"
        }
      ],
      "stateMutability": "view",
      "type": "function"
    },
    {
      "inputs": [],
      "name": "amount1",
      "outputs": [
        {
          "internalType": "uint256",
          "name": "",
          "type": "uint256"
        }
      ],
      "stateMutability": "view",
      "type": "function"
    },
    {
      "inputs": [],
      "name": "donate",
      "outputs": [],
      "stateMutability": "nonpayable",
      "type": "function"
    },
    {
      "inputs": [],
      "name": "executeSwap",
      "outputs": [],
      "stateMutability": "nonpayable",
      "type": "function"
    },
    {
      "inputs": [],
      "name": "key",
      "outputs": [
        {
          "internalType": "Currency",
          "name": "currency0",
          "type": "address"
        },
        {
          "internalType": "Currency",
          "name": "currency1",
          "type": "address"
        },
        {
          "internalType": "uint24",
          "name": "fee",
          "type": "uint24"
        },
        {
          "internalType": "int24",
          "name": "tickSpacing",
          "type": "int24"
        },
        {
          "internalType": "contract IHooks",
          "name": "hooks",
          "type": "address"
        }
      ],
      "stateMutability": "view",
      "type": "function"
    },
    {
      "inputs": [
        {
          "internalType": "uint256",
          "name": "id",
          "type": "uint256"
        },
        {
          "internalType": "bytes",
          "name": "data",
          "type": "bytes"
        }
      ],
      "name": "lockAcquired",
      "outputs": [
        {
          "internalType": "bytes",
          "name": "",
          "type": "bytes"
        }
      ],
      "stateMutability": "nonpayable",
      "type": "function"
    },
    {
      "inputs": [],
      "name": "myaddress",
      "outputs": [
        {
          "internalType": "address",
          "name": "",
          "type": "address"
        }
      ],
      "stateMutability": "view",
      "type": "function"
    },
    {
      "inputs": [],
      "name": "poolManager",
      "outputs": [
        {
          "internalType": "contract IPoolManager",
          "name": "",
          "type": "address"
        }
      ],
      "stateMutability": "view",
      "type": "function"
    },
    {
      "inputs": [],
      "name": "positionParams",
      "outputs": [
        {
          "internalType": "int24",
          "name": "tickLower",
          "type": "int24"
        },
        {
          "internalType": "int24",
          "name": "tickUpper",
          "type": "int24"
        },
        {
          "internalType": "int256",
          "name": "liquidityDelta",
          "type": "int256"
        }
      ],
      "stateMutability": "view",
      "type": "function"
    },
    {
      "inputs": [
        {
          "components": [
            {
              "internalType": "Currency",
              "name": "currency0",
              "type": "address"
            },
            {
              "internalType": "Currency",
              "name": "currency1",
              "type": "address"
            },
            {
              "internalType": "uint24",
              "name": "fee",
              "type": "uint24"
            },
            {
              "internalType": "int24",
              "name": "tickSpacing",
              "type": "int24"
            },
            {
              "internalType": "contract IHooks",
              "name": "hooks",
              "type": "address"
            }
          ],
          "internalType": "struct IPoolManager.PoolKey",
          "name": "_key",
          "type": "tuple"
        },
        {
          "internalType": "uint256",
          "name": "_amount0",
          "type": "uint256"
        },
        {
          "internalType": "uint256",
          "name": "_amount1",
          "type": "uint256"
        }
      ],
      "name": "setDonateParameters",
      "outputs": [],
      "stateMutability": "nonpayable",
      "type": "function"
    },
    {
      "inputs": [
        {
          "components": [
            {
              "internalType": "Currency",
              "name": "currency0",
              "type": "address"
            },
            {
              "internalType": "Currency",
              "name": "currency1",
              "type": "address"
            },
            {
              "internalType": "uint24",
              "name": "fee",
              "type": "uint24"
            },
            {
              "internalType": "int24",
              "name": "tickSpacing",
              "type": "int24"
            },
            {
              "internalType": "contract IHooks",
              "name": "hooks",
              "type": "address"
            }
          ],
          "internalType": "struct IPoolManager.PoolKey",
          "name": "_key",
          "type": "tuple"
        },
        {
          "components": [
            {
              "internalType": "int24",
              "name": "tickLower",
              "type": "int24"
            },
            {
              "internalType": "int24",
              "name": "tickUpper",
              "type": "int24"
            },
            {
              "internalType": "int256",
              "name": "liquidityDelta",
              "type": "int256"
            }
          ],
          "internalType": "struct IPoolManager.ModifyPositionParams",
          "name": "_params",
          "type": "tuple"
        }
      ],
      "name": "setPositionParameters",
      "outputs": [],
      "stateMutability": "nonpayable",
      "type": "function"
    },
    {
      "inputs": [
        {
          "components": [
            {
              "internalType": "Currency",
              "name": "currency0",
              "type": "address"
            },
            {
              "internalType": "Currency",
              "name": "currency1",
              "type": "address"
            },
            {
              "internalType": "uint24",
              "name": "fee",
              "type": "uint24"
            },
            {
              "internalType": "int24",
              "name": "tickSpacing",
              "type": "int24"
            },
            {
              "internalType": "contract IHooks",
              "name": "hooks",
              "type": "address"
            }
          ],
          "internalType": "struct IPoolManager.PoolKey",
          "name": "_key",
          "type": "tuple"
        },
        {
          "components": [
            {
              "internalType": "bool",
              "name": "zeroForOne",
              "type": "bool"
            },
            {
              "internalType": "int256",
              "name": "amountSpecified",
              "type": "int256"
            },
            {
              "internalType": "uint160",
              "name": "sqrtPriceLimitX96",
              "type": "uint160"
            }
          ],
          "internalType": "struct IPoolManager.SwapParams",
          "name": "_params",
          "type": "tuple"
        }
      ],
      "name": "setSwapParameters",
      "outputs": [],
      "stateMutability": "nonpayable",
      "type": "function"
    },
    {
      "inputs": [],
      "name": "swapParams",
      "outputs": [
        {
          "internalType": "bool",
          "name": "zeroForOne",
          "type": "bool"
        },
        {
          "internalType": "int256",
          "name": "amountSpecified",
          "type": "int256"
        },
        {
          "internalType": "uint160",
          "name": "sqrtPriceLimitX96",
          "type": "uint160"
        }
      ],
      "stateMutability": "view",
      "type": "function"
    }
  ],
  "bytecode": "0x608060405234801561000f575f80fd5b5060405161181f38038061181f83398101604081905261002e91610052565b5f80546001600160a01b0319166001600160a01b039290921691909117905561007f565b5f60208284031215610062575f80fd5b81516001600160a01b0381168114610078575f80fd5b9392505050565b6117938061008c5f395ff3fe608060405234801561000f575f80fd5b50600436106100e5575f3560e01c8063d6237a5711610088578063ed88c68e11610063578063ed88c68e1461024d578063f400fde41461032e578063f59e8d3114610337578063fcf814c31461034a575f80fd5b8063d6237a57146102c3578063dc4c90d314610304578063e8078d941461024d575f80fd5b8063599f5810116100c3578063599f58101461024d578063873d80ec146102555780639906d17514610299578063d05de6e3146102b0575f80fd5b80631657ab3c146100e95780633943380c146101ad5780633c74bf4c1461022d575b5f80fd5b6101ab6100f7366004611186565b82516001805473ffffffffffffffffffffffffffffffffffffffff199081166001600160a01b03938416179091556020850151600280546040880151606089015193861676ffffffffffffffffffffffffffffffffffffffffffffff1990921691909117600160a01b62ffffff928316021762ffffff60b81b1916600160b81b9190931602919091179055608090940151600380548616919092161790556009805433941693909317909255600a55600b55565b005b600154600280546003546101e8936001600160a01b03908116938382169362ffffff600160a01b82041693600160b81b90910490910b911685565b604080516001600160a01b039687168152948616602086015262ffffff9093169284019290925260020b606083015291909116608082015260a0015b60405180910390f35b61024061023b3660046111b7565b61035d565b6040516102249190611279565b6101ab6105dc565b6006546007546008546102739260ff1691906001600160a01b031683565b60408051931515845260208401929092526001600160a01b031690820152606001610224565b6102a2600a5481565b604051908152602001610224565b6101ab6102be3660046112d8565b610680565b6004546005546102e191600281810b926301000000909204900b9083565b60408051600294850b81529290930b602083015291810191909152606001610224565b5f54610316906001600160a01b031681565b6040516001600160a01b039091168152602001610224565b6102a2600b5481565b6101ab610345366004611363565b6107a1565b600954610316906001600160a01b031681565b606061039d6040518060400160405280600d81526020017f6c6f636b41637175697265643000000000000000000000000000000000000000815250610895565b5f808080806103ae8789018961138e565b9450945094509450945083604001515f1461049f575f805460405163555a473360e01b81526001600160a01b039091169063555a4733906103f590899089906004016113e6565b6020604051808303815f875af1158015610411573d5f803e3d5ffd5b505050506040513d601f19601f82011682018060405250810190610435919061145f565b90506104756040518060400160405280601181526020017f6c6f636b4163717569726564206c697131000000000000000000000000000000815250610895565b855161048a906104858360801c90565b6108d8565b61049986602001516104858390565b506105c1565b60208301511561052e575f8054604051630f140bef60e11b81526001600160a01b0390911690631e2817de906104db9089908890600401611476565b6020604051808303815f875af11580156104f7573d5f803e3d5ffd5b505050506040513d601f19601f8201168201806040525081019061051b919061145f565b905061048a865f01516104858360801c90565b8115158061053b57508015155b15610574575f805460405163a67dd8f360e01b81526001600160a01b039091169063a67dd8f3906104db908990879087906004016114f4565b60405162461bcd60e51b815260206004820152600e60248201527f696e76616c696420706172616d7300000000000000000000000000000000000060448201526064015b60405180910390fd5b505060408051602081019091525f8152979650505050505050565b5f54600a54600b546040516001600160a01b0390931692638154831992610610926001926004926006929091602001611555565b6040516020818303038152906040526040518263ffffffff1660e01b815260040161063b9190611279565b5f604051808303815f875af1158015610656573d5f803e3d5ffd5b505050506040513d5f823e601f3d908101601f1916820160405261067d9190810190611608565b50565b600980543373ffffffffffffffffffffffffffffffffffffffff199182161790915582516001805483166001600160a01b039283161790556020808501516002805460408089015160608a015194871676ffffffffffffffffffffffffffffffffffffffffffffff1990931692909217600160a01b62ffffff938416021762ffffff60b81b1916600160b81b94831694909402939093179091556080870151600380549096169416939093179093558351600480548684015192851665ffffffffffff19909116176301000000929094169190910292909217909155828201516005558151808301909252601882527f70313131313131313131313131313131313131313131312000000000000000009082015261079d90610895565b5050565b600980543373ffffffffffffffffffffffffffffffffffffffff199182161790915582516001805483166001600160a01b03928316179055602080850151600280546040808901516060808b015195881676ffffffffffffffffffffffffffffffffffffffffffffff1990941693909317600160a01b62ffffff928316021762ffffff60b81b1916600160b81b919095160293909317909155608087015160038054871691861691909117905585516006805460ff19169115159190911790558583015160075585820151600880549096169416939093179093558251918201909252602780825261079d92611760908301395b61067d816040516024016108a99190611279565b60408051601f198184030181529190526020810180516001600160e01b031663104c13eb60e21b179052610ce7565b5f81600f0b1215610996575f546009546001600160a01b0391821691630b0d9c0991859116610906856116a5565b6040517fffffffff0000000000000000000000000000000000000000000000000000000060e086901b1681526001600160a01b0393841660048201529290911660248301526fffffffffffffffffffffffffffffffff1660448201526064015f604051808303815f87803b15801561097c575f80fd5b505af115801561098e573d5f803e3d5ffd5b505050505050565b6001600160a01b038216610c44576109e26040518060400160405280601781526020017f5f736574746c6543757272656e637942616c616e636532000000000000000000815250610895565b610a336040518060400160405280600b81526020017f64656c7461416d6f756e74000000000000000000000000000000000000000000815250826fffffffffffffffffffffffffffffffff16610cf0565b610a726040518060400160405280600a81526020017f6d73672e73656e6465720000000000000000000000000000000000000000000081525033610d35565b60408051808201909152600b81527f706f6f6c4d616e6167657200000000000000000000000000000000000000000060208201525f54610abb91906001600160a01b0316610d35565b610afa6040518060400160405280600d81526020017f62616c616e63656f66746869730000000000000000000000000000000000000081525047610cf0565b60408051808201909152601281527f62616c616e63656f666d796164647265737300000000000000000000000000006020820152600954610b4591906001600160a01b031631610cf0565b610b846040518060400160405280600d81526020017f616464726573736f66746869730000000000000000000000000000000000000081525030610d35565b5f54604051636a256b2960e01b81526001600160a01b03848116600483015290911690636a256b29906fffffffffffffffffffffffffffffffff84169060240160206040518083038185885af1158015610be0573d5f803e3d5ffd5b50505050506040513d601f19601f82011682018060405250810190610c05919061145f565b5061079d6040518060400160405280601781526020017f5f736574746c6543757272656e637942616c616e636533000000000000000000815250610895565b6009545f54610c76916001600160a01b038581169291811691166fffffffffffffffffffffffffffffffff8516610d7a565b5f54604051636a256b2960e01b81526001600160a01b03848116600483015290911690636a256b29906024016020604051808303815f875af1158015610cbe573d5f803e3d5ffd5b505050506040513d601f19601f82011682018060405250810190610ce2919061145f565b505050565b61067d81610dda565b61079d8282604051602401610d069291906116de565b60408051601f198184030181529190526020810180516001600160e01b0316632d839cb360e21b179052610ce7565b61079d8282604051602401610d4b9291906116ff565b60408051601f198184030181529190526020810180516001600160e01b031663319af33360e01b179052610ce7565b604080516001600160a01b0385811660248301528416604482015260648082018490528251808303909101815260849091019091526020810180516001600160e01b03166323b872dd60e01b179052610dd4908590610df9565b50505050565b5f6a636f6e736f6c652e6c6f6790505f80835160208501845afa505050565b5f610e4d826040518060400160405280602081526020017f5361666545524332303a206c6f772d6c6576656c2063616c6c206661696c6564815250856001600160a01b0316610edf9092919063ffffffff16565b905080515f1480610e6d575080806020019051810190610e6d9190611729565b610ce25760405162461bcd60e51b815260206004820152602a60248201527f5361666545524332303a204552433230206f7065726174696f6e20646964206e60448201527f6f7420737563636565640000000000000000000000000000000000000000000060648201526084016105b8565b6060610eed84845f85610ef5565b949350505050565b606082471015610f6d5760405162461bcd60e51b815260206004820152602660248201527f416464726573733a20696e73756666696369656e742062616c616e636520666f60448201527f722063616c6c000000000000000000000000000000000000000000000000000060648201526084016105b8565b5f80866001600160a01b03168587604051610f889190611744565b5f6040518083038185875af1925050503d805f8114610fc2576040519150601f19603f3d011682016040523d82523d5f602084013e610fc7565b606091505b5091509150610fd887838387610fe3565b979650505050505050565b606083156110515782515f0361104a576001600160a01b0385163b61104a5760405162461bcd60e51b815260206004820152601d60248201527f416464726573733a2063616c6c20746f206e6f6e2d636f6e747261637400000060448201526064016105b8565b5081610eed565b610eed83838151156110665781518083602001fd5b8060405162461bcd60e51b81526004016105b89190611279565b634e487b7160e01b5f52604160045260245ffd5b6040516060810167ffffffffffffffff811182821017156110b7576110b7611080565b60405290565b6001600160a01b038116811461067d575f80fd5b8035600281900b81146110e2575f80fd5b919050565b5f60a082840312156110f7575f80fd5b60405160a0810181811067ffffffffffffffff8211171561111a5761111a611080565b604052905080823561112b816110bd565b8152602083013561113b816110bd565b6020820152604083013562ffffff81168114611155575f80fd5b6040820152611166606084016110d1565b60608201526080830135611179816110bd565b6080919091015292915050565b5f805f60e08486031215611198575f80fd5b6111a285856110e7565b9560a0850135955060c0909401359392505050565b5f805f604084860312156111c9575f80fd5b83359250602084013567ffffffffffffffff808211156111e7575f80fd5b818601915086601f8301126111fa575f80fd5b813581811115611208575f80fd5b876020828501011115611219575f80fd5b6020830194508093505050509250925092565b5f5b8381101561124657818101518382015260200161122e565b50505f910152565b5f815180845261126581602086016020860161122c565b601f01601f19169290920160200192915050565b602081525f61128b602083018461124e565b9392505050565b5f606082840312156112a2575f80fd5b6112aa611094565b90506112b5826110d1565b81526112c3602083016110d1565b60208201526040820135604082015292915050565b5f8061010083850312156112ea575f80fd5b6112f484846110e7565b91506113038460a08501611292565b90509250929050565b801515811461067d575f80fd5b5f60608284031215611329575f80fd5b611331611094565b9050813561133e8161130c565b8152602082810135908201526040820135611358816110bd565b604082015292915050565b5f806101008385031215611375575f80fd5b61137f84846110e7565b91506113038460a08501611319565b5f805f805f6101a086880312156113a3575f80fd5b6113ad87876110e7565b94506113bc8760a08801611292565b93506113cc876101008801611319565b949793965093946101608101359450610180013592915050565b610100810161143782856001600160a01b0380825116835280602083015116602084015262ffffff6040830151166040840152606082015160020b6060840152806080830151166080840152505050565b825160020b60a0830152602083015160020b60c0830152604083015160e08301529392505050565b5f6020828403121561146f575f80fd5b5051919050565b61010081016114c782856001600160a01b0380825116835280602083015116602084015262ffffff6040830151166040840152606082015160020b6060840152806080830151166080840152505050565b8251151560a0830152602083015160c08301526001600160a01b0360408401511660e08301529392505050565b60e0810161154482866001600160a01b0380825116835280602083015116602084015262ffffff6040830151166040840152606082015160020b6060840152806080830151166080840152505050565b60a082019390935260c00152919050565b5f6101a0820190506001600160a01b038088541683526001880154818116602085015262ffffff8160a01c1660408501528060b81c60020b6060850152508060028901541660808401525085548060020b60a08401528060181c60020b60c084015250600186015460e08301526115f3610100830186805460ff161515825260018101546020830152600201546001600160a01b0316604090910152565b61016082019390935261018001529392505050565b5f60208284031215611618575f80fd5b815167ffffffffffffffff8082111561162f575f80fd5b818401915084601f830112611642575f80fd5b81518181111561165457611654611080565b604051601f8201601f19908116603f0116810190838211818310171561167c5761167c611080565b81604052828152876020848701011115611694575f80fd5b610fd883602083016020880161122c565b5f81600f0b6f7fffffffffffffffffffffffffffffff1981036116d657634e487b7160e01b5f52601160045260245ffd5b5f0392915050565b604081525f6116f0604083018561124e565b90508260208301529392505050565b604081525f611711604083018561124e565b90506001600160a01b03831660208301529392505050565b5f60208284031215611739575f80fd5b815161128b8161130c565b5f825161175581846020870161122c565b919091019291505056fe53776170506172616d7320616e64206b6579323232323232323232323232323232323232323220a164736f6c6343000814000a",
  "linkReferences": {},
  "deployedLinkReferences": {}
}