{
  "_format": "hh-sol-artifact-1",
  "contractName": "PoolManager",
  "sourceName": "contracts/PoolManager.sol",
  "abi": [
    {
      "inputs": [
        {
          "internalType": "uint256",
          "name": "_controllerGasLimit",
          "type": "uint256"
        }
      ],
      "stateMutability": "nonpayable",
      "type": "constructor"
    },
    {
      "inputs": [],
      "name": "CannotUpdateEmptyPosition",
      "type": "error"
    },
    {
      "inputs": [],
      "name": "CurrencyNotSettled",
      "type": "error"
    },
    {
      "inputs": [],
      "name": "DelegateCallNotAllowed",
      "type": "error"
    },
    {
      "inputs": [],
      "name": "ERC20TransferFailed",
      "type": "error"
    },
    {
      "inputs": [],
      "name": "FeeTooLarge",
      "type": "error"
    },
    {
      "inputs": [
        {
          "internalType": "address",
          "name": "hooks",
          "type": "address"
        }
      ],
      "name": "HookAddressNotValid",
      "type": "error"
    },
    {
      "inputs": [],
      "name": "InvalidCaller",
      "type": "error"
    },
    {
      "inputs": [],
      "name": "InvalidHookResponse",
      "type": "error"
    },
    {
      "inputs": [],
      "name": "InvalidSqrtRatio",
      "type": "error"
    },
    {
      "inputs": [],
      "name": "InvalidTick",
      "type": "error"
    },
    {
      "inputs": [
        {
          "internalType": "address",
          "name": "locker",
          "type": "address"
        }
      ],
      "name": "LockedBy",
      "type": "error"
    },
    {
      "inputs": [],
      "name": "MaxCurrenciesTouched",
      "type": "error"
    },
    {
      "inputs": [],
      "name": "NativeTransferFailed",
      "type": "error"
    },
    {
      "inputs": [],
      "name": "NoLiquidityToReceiveFees",
      "type": "error"
    },
    {
      "inputs": [],
      "name": "NotPoolManagerToken",
      "type": "error"
    },
    {
      "inputs": [],
      "name": "PoolAlreadyInitialized",
      "type": "error"
    },
    {
      "inputs": [],
      "name": "PoolNotInitialized",
      "type": "error"
    },
    {
      "inputs": [
        {
          "internalType": "uint160",
          "name": "sqrtPriceCurrentX96",
          "type": "uint160"
        },
        {
          "internalType": "uint160",
          "name": "sqrtPriceLimitX96",
          "type": "uint160"
        }
      ],
      "name": "PriceLimitAlreadyExceeded",
      "type": "error"
    },
    {
      "inputs": [
        {
          "internalType": "uint160",
          "name": "sqrtPriceLimitX96",
          "type": "uint160"
        }
      ],
      "name": "PriceLimitOutOfBounds",
      "type": "error"
    },
    {
      "inputs": [],
      "name": "ProtocolFeeCannotBeFetched",
      "type": "error"
    },
    {
      "inputs": [],
      "name": "SwapAmountCannotBeZero",
      "type": "error"
    },
    {
      "inputs": [
        {
          "internalType": "int24",
          "name": "tick",
          "type": "int24"
        }
      ],
      "name": "TickLiquidityOverflow",
      "type": "error"
    },
    {
      "inputs": [
        {
          "internalType": "int24",
          "name": "tickLower",
          "type": "int24"
        }
      ],
      "name": "TickLowerOutOfBounds",
      "type": "error"
    },
    {
      "inputs": [
        {
          "internalType": "int24",
          "name": "tick",
          "type": "int24"
        },
        {
          "internalType": "int24",
          "name": "tickSpacing",
          "type": "int24"
        }
      ],
      "name": "TickMisaligned",
      "type": "error"
    },
    {
      "inputs": [],
      "name": "TickSpacingTooLarge",
      "type": "error"
    },
    {
      "inputs": [],
      "name": "TickSpacingTooSmall",
      "type": "error"
    },
    {
      "inputs": [
        {
          "internalType": "int24",
          "name": "tickUpper",
          "type": "int24"
        }
      ],
      "name": "TickUpperOutOfBounds",
      "type": "error"
    },
    {
      "inputs": [
        {
          "internalType": "int24",
          "name": "tickLower",
          "type": "int24"
        },
        {
          "internalType": "int24",
          "name": "tickUpper",
          "type": "int24"
        }
      ],
      "name": "TicksMisordered",
      "type": "error"
    },
    {
      "anonymous": false,
      "inputs": [
        {
          "indexed": true,
          "internalType": "address",
          "name": "account",
          "type": "address"
        },
        {
          "indexed": true,
          "internalType": "address",
          "name": "operator",
          "type": "address"
        },
        {
          "indexed": false,
          "internalType": "bool",
          "name": "approved",
          "type": "bool"
        }
      ],
      "name": "ApprovalForAll",
      "type": "event"
    },
    {
      "anonymous": false,
      "inputs": [
        {
          "indexed": true,
          "internalType": "PoolId",
          "name": "id",
          "type": "bytes32"
        },
        {
          "indexed": false,
          "internalType": "uint8",
          "name": "hookSwapFee",
          "type": "uint8"
        },
        {
          "indexed": false,
          "internalType": "uint8",
          "name": "hookWithdrawFee",
          "type": "uint8"
        }
      ],
      "name": "HookFeeUpdated",
      "type": "event"
    },
    {
      "anonymous": false,
      "inputs": [
        {
          "indexed": true,
          "internalType": "PoolId",
          "name": "id",
          "type": "bytes32"
        },
        {
          "indexed": true,
          "internalType": "Currency",
          "name": "currency0",
          "type": "address"
        },
        {
          "indexed": true,
          "internalType": "Currency",
          "name": "currency1",
          "type": "address"
        },
        {
          "indexed": false,
          "internalType": "uint24",
          "name": "fee",
          "type": "uint24"
        },
        {
          "indexed": false,
          "internalType": "int24",
          "name": "tickSpacing",
          "type": "int24"
        },
        {
          "indexed": false,
          "internalType": "contract IHooks",
          "name": "hooks",
          "type": "address"
        }
      ],
      "name": "Initialize",
      "type": "event"
    },
    {
      "anonymous": false,
      "inputs": [
        {
          "indexed": true,
          "internalType": "PoolId",
          "name": "id",
          "type": "bytes32"
        },
        {
          "indexed": true,
          "internalType": "address",
          "name": "sender",
          "type": "address"
        },
        {
          "indexed": false,
          "internalType": "int24",
          "name": "tickLower",
          "type": "int24"
        },
        {
          "indexed": false,
          "internalType": "int24",
          "name": "tickUpper",
          "type": "int24"
        },
        {
          "indexed": false,
          "internalType": "int256",
          "name": "liquidityDelta",
          "type": "int256"
        }
      ],
      "name": "ModifyPosition",
      "type": "event"
    },
    {
      "anonymous": false,
      "inputs": [
        {
          "indexed": true,
          "internalType": "address",
          "name": "oldOwner",
          "type": "address"
        },
        {
          "indexed": true,
          "internalType": "address",
          "name": "newOwner",
          "type": "address"
        }
      ],
      "name": "OwnerChanged",
      "type": "event"
    },
    {
      "anonymous": false,
      "inputs": [
        {
          "indexed": false,
          "internalType": "address",
          "name": "protocolFeeController",
          "type": "address"
        }
      ],
      "name": "ProtocolFeeControllerUpdated",
      "type": "event"
    },
    {
      "anonymous": false,
      "inputs": [
        {
          "indexed": true,
          "internalType": "PoolId",
          "name": "id",
          "type": "bytes32"
        },
        {
          "indexed": false,
          "internalType": "uint8",
          "name": "protocolSwapFee",
          "type": "uint8"
        },
        {
          "indexed": false,
          "internalType": "uint8",
          "name": "protocolWithdrawFee",
          "type": "uint8"
        }
      ],
      "name": "ProtocolFeeUpdated",
      "type": "event"
    },
    {
      "anonymous": false,
      "inputs": [
        {
          "indexed": true,
          "internalType": "PoolId",
          "name": "id",
          "type": "bytes32"
        },
        {
          "indexed": true,
          "internalType": "address",
          "name": "sender",
          "type": "address"
        },
        {
          "indexed": false,
          "internalType": "int128",
          "name": "amount0",
          "type": "int128"
        },
        {
          "indexed": false,
          "internalType": "int128",
          "name": "amount1",
          "type": "int128"
        },
        {
          "indexed": false,
          "internalType": "uint160",
          "name": "sqrtPriceX96",
          "type": "uint160"
        },
        {
          "indexed": false,
          "internalType": "uint128",
          "name": "liquidity",
          "type": "uint128"
        },
        {
          "indexed": false,
          "internalType": "int24",
          "name": "tick",
          "type": "int24"
        },
        {
          "indexed": false,
          "internalType": "uint24",
          "name": "fee",
          "type": "uint24"
        }
      ],
      "name": "Swap",
      "type": "event"
    },
    {
      "anonymous": false,
      "inputs": [
        {
          "indexed": true,
          "internalType": "address",
          "name": "operator",
          "type": "address"
        },
        {
          "indexed": true,
          "internalType": "address",
          "name": "from",
          "type": "address"
        },
        {
          "indexed": true,
          "internalType": "address",
          "name": "to",
          "type": "address"
        },
        {
          "indexed": false,
          "internalType": "uint256[]",
          "name": "ids",
          "type": "uint256[]"
        },
        {
          "indexed": false,
          "internalType": "uint256[]",
          "name": "values",
          "type": "uint256[]"
        }
      ],
      "name": "TransferBatch",
      "type": "event"
    },
    {
      "anonymous": false,
      "inputs": [
        {
          "indexed": true,
          "internalType": "address",
          "name": "operator",
          "type": "address"
        },
        {
          "indexed": true,
          "internalType": "address",
          "name": "from",
          "type": "address"
        },
        {
          "indexed": true,
          "internalType": "address",
          "name": "to",
          "type": "address"
        },
        {
          "indexed": false,
          "internalType": "uint256",
          "name": "id",
          "type": "uint256"
        },
        {
          "indexed": false,
          "internalType": "uint256",
          "name": "value",
          "type": "uint256"
        }
      ],
      "name": "TransferSingle",
      "type": "event"
    },
    {
      "anonymous": false,
      "inputs": [
        {
          "indexed": false,
          "internalType": "string",
          "name": "value",
          "type": "string"
        },
        {
          "indexed": true,
          "internalType": "uint256",
          "name": "id",
          "type": "uint256"
        }
      ],
      "name": "URI",
      "type": "event"
    },
    {
      "stateMutability": "nonpayable",
      "type": "fallback"
    },
    {
      "inputs": [],
      "name": "MAX_TICK_SPACING",
      "outputs": [
        {
          "internalType": "int24",
          "name": "",
          "type": "int24"
        }
      ],
      "stateMutability": "view",
      "type": "function"
    },
    {
      "inputs": [],
      "name": "MIN_PROTOCOL_FEE_DENOMINATOR",
      "outputs": [
        {
          "internalType": "uint8",
          "name": "",
          "type": "uint8"
        }
      ],
      "stateMutability": "view",
      "type": "function"
    },
    {
      "inputs": [],
      "name": "MIN_TICK_SPACING",
      "outputs": [
        {
          "internalType": "int24",
          "name": "",
          "type": "int24"
        }
      ],
      "stateMutability": "view",
      "type": "function"
    },
    {
      "inputs": [
        {
          "internalType": "address",
          "name": "account",
          "type": "address"
        },
        {
          "internalType": "uint256",
          "name": "id",
          "type": "uint256"
        }
      ],
      "name": "balanceOf",
      "outputs": [
        {
          "internalType": "uint256",
          "name": "",
          "type": "uint256"
        }
      ],
      "stateMutability": "view",
      "type": "function"
    },
    {
      "inputs": [
        {
          "internalType": "address[]",
          "name": "accounts",
          "type": "address[]"
        },
        {
          "internalType": "uint256[]",
          "name": "ids",
          "type": "uint256[]"
        }
      ],
      "name": "balanceOfBatch",
      "outputs": [
        {
          "internalType": "uint256[]",
          "name": "",
          "type": "uint256[]"
        }
      ],
      "stateMutability": "view",
      "type": "function"
    },
    {
      "inputs": [
        {
          "internalType": "address",
          "name": "recipient",
          "type": "address"
        },
        {
          "internalType": "Currency",
          "name": "currency",
          "type": "address"
        },
        {
          "internalType": "uint256",
          "name": "amount",
          "type": "uint256"
        }
      ],
      "name": "collectHookFees",
      "outputs": [
        {
          "internalType": "uint256",
          "name": "amountCollected",
          "type": "uint256"
        }
      ],
      "stateMutability": "nonpayable",
      "type": "function"
    },
    {
      "inputs": [
        {
          "internalType": "address",
          "name": "recipient",
          "type": "address"
        },
        {
          "internalType": "Currency",
          "name": "currency",
          "type": "address"
        },
        {
          "internalType": "uint256",
          "name": "amount",
          "type": "uint256"
        }
      ],
      "name": "collectProtocolFees",
      "outputs": [
        {
          "internalType": "uint256",
          "name": "amountCollected",
          "type": "uint256"
        }
      ],
      "stateMutability": "nonpayable",
      "type": "function"
    },
    {
      "inputs": [
        {
          "components": [
            {
              "internalType": "Currency",
              "name": "currency0",
              "type": "address"
            },
            {
              "internalType": "Currency",
              "name": "currency1",
              "type": "address"
            },
            {
              "internalType": "uint24",
              "name": "fee",
              "type": "uint24"
            },
            {
              "internalType": "int24",
              "name": "tickSpacing",
              "type": "int24"
            },
            {
              "internalType": "contract IHooks",
              "name": "hooks",
              "type": "address"
            }
          ],
          "internalType": "struct IPoolManager.PoolKey",
          "name": "key",
          "type": "tuple"
        },
        {
          "internalType": "uint256",
          "name": "amount0",
          "type": "uint256"
        },
        {
          "internalType": "uint256",
          "name": "amount1",
          "type": "uint256"
        }
      ],
      "name": "donate",
      "outputs": [
        {
          "internalType": "BalanceDelta",
          "name": "delta",
          "type": "int256"
        }
      ],
      "stateMutability": "nonpayable",
      "type": "function"
    },
    {
      "inputs": [
        {
          "internalType": "bytes32",
          "name": "slot",
          "type": "bytes32"
        }
      ],
      "name": "extsload",
      "outputs": [
        {
          "internalType": "bytes32",
          "name": "value",
          "type": "bytes32"
        }
      ],
      "stateMutability": "view",
      "type": "function"
    },
    {
      "inputs": [
        {
          "internalType": "bytes32",
          "name": "startSlot",
          "type": "bytes32"
        },
        {
          "internalType": "uint256",
          "name": "nSlots",
          "type": "uint256"
        }
      ],
      "name": "extsload",
      "outputs": [
        {
          "internalType": "bytes",
          "name": "",
          "type": "bytes"
        }
      ],
      "stateMutability": "view",
      "type": "function"
    },
    {
      "inputs": [
        {
          "internalType": "uint256",
          "name": "id",
          "type": "uint256"
        },
        {
          "internalType": "Currency",
          "name": "currency",
          "type": "address"
        }
      ],
      "name": "getCurrencyDelta",
      "outputs": [
        {
          "internalType": "int256",
          "name": "",
          "type": "int256"
        }
      ],
      "stateMutability": "view",
      "type": "function"
    },
    {
      "inputs": [
        {
          "internalType": "PoolId",
          "name": "id",
          "type": "bytes32"
        },
        {
          "internalType": "address",
          "name": "owner",
          "type": "address"
        },
        {
          "internalType": "int24",
          "name": "tickLower",
          "type": "int24"
        },
        {
          "internalType": "int24",
          "name": "tickUpper",
          "type": "int24"
        }
      ],
      "name": "getLiquidity",
      "outputs": [
        {
          "internalType": "uint128",
          "name": "liquidity",
          "type": "uint128"
        }
      ],
      "stateMutability": "view",
      "type": "function"
    },
    {
      "inputs": [
        {
          "internalType": "PoolId",
          "name": "id",
          "type": "bytes32"
        }
      ],
      "name": "getLiquidity",
      "outputs": [
        {
          "internalType": "uint128",
          "name": "liquidity",
          "type": "uint128"
        }
      ],
      "stateMutability": "view",
      "type": "function"
    },
    {
      "inputs": [
        {
          "internalType": "uint256",
          "name": "id",
          "type": "uint256"
        }
      ],
      "name": "getNonzeroDeltaCount",
      "outputs": [
        {
          "internalType": "uint256",
          "name": "",
          "type": "uint256"
        }
      ],
      "stateMutability": "view",
      "type": "function"
    },
    {
      "inputs": [
        {
          "internalType": "PoolId",
          "name": "id",
          "type": "bytes32"
        },
        {
          "internalType": "address",
          "name": "owner",
          "type": "address"
        },
        {
          "internalType": "int24",
          "name": "tickLower",
          "type": "int24"
        },
        {
          "internalType": "int24",
          "name": "tickUpper",
          "type": "int24"
        }
      ],
      "name": "getPosition",
      "outputs": [
        {
          "components": [
            {
              "internalType": "uint128",
              "name": "liquidity",
              "type": "uint128"
            },
            {
              "internalType": "uint256",
              "name": "feeGrowthInside0LastX128",
              "type": "uint256"
            },
            {
              "internalType": "uint256",
              "name": "feeGrowthInside1LastX128",
              "type": "uint256"
            }
          ],
          "internalType": "struct Position.Info",
          "name": "position",
          "type": "tuple"
        }
      ],
      "stateMutability": "view",
      "type": "function"
    },
    {
      "inputs": [
        {
          "internalType": "PoolId",
          "name": "id",
          "type": "bytes32"
        }
      ],
      "name": "getSlot0",
      "outputs": [
        {
          "internalType": "uint160",
          "name": "sqrtPriceX96",
          "type": "uint160"
        },
        {
          "internalType": "int24",
          "name": "tick",
          "type": "int24"
        },
        {
          "internalType": "uint8",
          "name": "protocolSwapFee",
          "type": "uint8"
        },
        {
          "internalType": "uint8",
          "name": "protocolWithdrawFee",
          "type": "uint8"
        },
        {
          "internalType": "uint8",
          "name": "hookSwapFee",
          "type": "uint8"
        },
        {
          "internalType": "uint8",
          "name": "hookWithdrawFee",
          "type": "uint8"
        }
      ],
      "stateMutability": "view",
      "type": "function"
    },
    {
      "inputs": [
        {
          "internalType": "address",
          "name": "hookAddress",
          "type": "address"
        },
        {
          "internalType": "Currency",
          "name": "currency",
          "type": "address"
        }
      ],
      "name": "hookFeesAccrued",
      "outputs": [
        {
          "internalType": "uint256",
          "name": "",
          "type": "uint256"
        }
      ],
      "stateMutability": "view",
      "type": "function"
    },
    {
      "inputs": [
        {
          "components": [
            {
              "internalType": "Currency",
              "name": "currency0",
              "type": "address"
            },
            {
              "internalType": "Currency",
              "name": "currency1",
              "type": "address"
            },
            {
              "internalType": "uint24",
              "name": "fee",
              "type": "uint24"
            },
            {
              "internalType": "int24",
              "name": "tickSpacing",
              "type": "int24"
            },
            {
              "internalType": "contract IHooks",
              "name": "hooks",
              "type": "address"
            }
          ],
          "internalType": "struct IPoolManager.PoolKey",
          "name": "key",
          "type": "tuple"
        },
        {
          "internalType": "uint160",
          "name": "sqrtPriceX96",
          "type": "uint160"
        }
      ],
      "name": "initialize",
      "outputs": [
        {
          "internalType": "int24",
          "name": "tick",
          "type": "int24"
        }
      ],
      "stateMutability": "nonpayable",
      "type": "function"
    },
    {
      "inputs": [
        {
          "internalType": "address",
          "name": "account",
          "type": "address"
        },
        {
          "internalType": "address",
          "name": "operator",
          "type": "address"
        }
      ],
      "name": "isApprovedForAll",
      "outputs": [
        {
          "internalType": "bool",
          "name": "",
          "type": "bool"
        }
      ],
      "stateMutability": "view",
      "type": "function"
    },
    {
      "inputs": [
        {
          "internalType": "bytes",
          "name": "data",
          "type": "bytes"
        }
      ],
      "name": "lock",
      "outputs": [
        {
          "internalType": "bytes",
          "name": "result",
          "type": "bytes"
        }
      ],
      "stateMutability": "nonpayable",
      "type": "function"
    },
    {
      "inputs": [
        {
          "internalType": "uint256",
          "name": "",
          "type": "uint256"
        }
      ],
      "name": "lockedBy",
      "outputs": [
        {
          "internalType": "address",
          "name": "",
          "type": "address"
        }
      ],
      "stateMutability": "view",
      "type": "function"
    },
    {
      "inputs": [],
      "name": "lockedByLength",
      "outputs": [
        {
          "internalType": "uint256",
          "name": "",
          "type": "uint256"
        }
      ],
      "stateMutability": "view",
      "type": "function"
    },
    {
      "inputs": [
        {
          "internalType": "Currency",
          "name": "currency",
          "type": "address"
        },
        {
          "internalType": "address",
          "name": "to",
          "type": "address"
        },
        {
          "internalType": "uint256",
          "name": "amount",
          "type": "uint256"
        }
      ],
      "name": "mint",
      "outputs": [],
      "stateMutability": "nonpayable",
      "type": "function"
    },
    {
      "inputs": [
        {
          "components": [
            {
              "internalType": "Currency",
              "name": "currency0",
              "type": "address"
            },
            {
              "internalType": "Currency",
              "name": "currency1",
              "type": "address"
            },
            {
              "internalType": "uint24",
              "name": "fee",
              "type": "uint24"
            },
            {
              "internalType": "int24",
              "name": "tickSpacing",
              "type": "int24"
            },
            {
              "internalType": "contract IHooks",
              "name": "hooks",
              "type": "address"
            }
          ],
          "internalType": "struct IPoolManager.PoolKey",
          "name": "key",
          "type": "tuple"
        },
        {
          "components": [
            {
              "internalType": "int24",
              "name": "tickLower",
              "type": "int24"
            },
            {
              "internalType": "int24",
              "name": "tickUpper",
              "type": "int24"
            },
            {
              "internalType": "int256",
              "name": "liquidityDelta",
              "type": "int256"
            }
          ],
          "internalType": "struct IPoolManager.ModifyPositionParams",
          "name": "params",
          "type": "tuple"
        }
      ],
      "name": "modifyPosition",
      "outputs": [
        {
          "internalType": "BalanceDelta",
          "name": "delta",
          "type": "int256"
        }
      ],
      "stateMutability": "nonpayable",
      "type": "function"
    },
    {
      "inputs": [
        {
          "internalType": "address",
          "name": "",
          "type": "address"
        },
        {
          "internalType": "address",
          "name": "",
          "type": "address"
        },
        {
          "internalType": "uint256[]",
          "name": "ids",
          "type": "uint256[]"
        },
        {
          "internalType": "uint256[]",
          "name": "values",
          "type": "uint256[]"
        },
        {
          "internalType": "bytes",
          "name": "",
          "type": "bytes"
        }
      ],
      "name": "onERC1155BatchReceived",
      "outputs": [
        {
          "internalType": "bytes4",
          "name": "",
          "type": "bytes4"
        }
      ],
      "stateMutability": "nonpayable",
      "type": "function"
    },
    {
      "inputs": [
        {
          "internalType": "address",
          "name": "",
          "type": "address"
        },
        {
          "internalType": "address",
          "name": "",
          "type": "address"
        },
        {
          "internalType": "uint256",
          "name": "id",
          "type": "uint256"
        },
        {
          "internalType": "uint256",
          "name": "value",
          "type": "uint256"
        },
        {
          "internalType": "bytes",
          "name": "",
          "type": "bytes"
        }
      ],
      "name": "onERC1155Received",
      "outputs": [
        {
          "internalType": "bytes4",
          "name": "",
          "type": "bytes4"
        }
      ],
      "stateMutability": "nonpayable",
      "type": "function"
    },
    {
      "inputs": [],
      "name": "owner",
      "outputs": [
        {
          "internalType": "address",
          "name": "",
          "type": "address"
        }
      ],
      "stateMutability": "view",
      "type": "function"
    },
    {
      "inputs": [
        {
          "internalType": "PoolId",
          "name": "id",
          "type": "bytes32"
        }
      ],
      "name": "pools",
      "outputs": [
        {
          "components": [
            {
              "internalType": "uint160",
              "name": "sqrtPriceX96",
              "type": "uint160"
            },
            {
              "internalType": "int24",
              "name": "tick",
              "type": "int24"
            },
            {
              "internalType": "uint8",
              "name": "protocolSwapFee",
              "type": "uint8"
            },
            {
              "internalType": "uint8",
              "name": "protocolWithdrawFee",
              "type": "uint8"
            },
            {
              "internalType": "uint8",
              "name": "hookSwapFee",
              "type": "uint8"
            },
            {
              "internalType": "uint8",
              "name": "hookWithdrawFee",
              "type": "uint8"
            }
          ],
          "internalType": "struct Pool.Slot0",
          "name": "slot0",
          "type": "tuple"
        },
        {
          "internalType": "uint256",
          "name": "feeGrowthGlobal0X128",
          "type": "uint256"
        },
        {
          "internalType": "uint256",
          "name": "feeGrowthGlobal1X128",
          "type": "uint256"
        },
        {
          "internalType": "uint128",
          "name": "liquidity",
          "type": "uint128"
        }
      ],
      "stateMutability": "view",
      "type": "function"
    },
    {
      "inputs": [],
      "name": "protocolFeeController",
      "outputs": [
        {
          "internalType": "contract IProtocolFeeController",
          "name": "",
          "type": "address"
        }
      ],
      "stateMutability": "view",
      "type": "function"
    },
    {
      "inputs": [
        {
          "internalType": "Currency",
          "name": "currency",
          "type": "address"
        }
      ],
      "name": "protocolFeesAccrued",
      "outputs": [
        {
          "internalType": "uint256",
          "name": "",
          "type": "uint256"
        }
      ],
      "stateMutability": "view",
      "type": "function"
    },
    {
      "inputs": [
        {
          "internalType": "Currency",
          "name": "currency",
          "type": "address"
        }
      ],
      "name": "reservesOf",
      "outputs": [
        {
          "internalType": "uint256",
          "name": "",
          "type": "uint256"
        }
      ],
      "stateMutability": "view",
      "type": "function"
    },
    {
      "inputs": [
        {
          "internalType": "address",
          "name": "from",
          "type": "address"
        },
        {
          "internalType": "address",
          "name": "to",
          "type": "address"
        },
        {
          "internalType": "uint256[]",
          "name": "ids",
          "type": "uint256[]"
        },
        {
          "internalType": "uint256[]",
          "name": "amounts",
          "type": "uint256[]"
        },
        {
          "internalType": "bytes",
          "name": "data",
          "type": "bytes"
        }
      ],
      "name": "safeBatchTransferFrom",
      "outputs": [],
      "stateMutability": "nonpayable",
      "type": "function"
    },
    {
      "inputs": [
        {
          "internalType": "address",
          "name": "from",
          "type": "address"
        },
        {
          "internalType": "address",
          "name": "to",
          "type": "address"
        },
        {
          "internalType": "uint256",
          "name": "id",
          "type": "uint256"
        },
        {
          "internalType": "uint256",
          "name": "amount",
          "type": "uint256"
        },
        {
          "internalType": "bytes",
          "name": "data",
          "type": "bytes"
        }
      ],
      "name": "safeTransferFrom",
      "outputs": [],
      "stateMutability": "nonpayable",
      "type": "function"
    },
    {
      "inputs": [
        {
          "internalType": "address",
          "name": "operator",
          "type": "address"
        },
        {
          "internalType": "bool",
          "name": "approved",
          "type": "bool"
        }
      ],
      "name": "setApprovalForAll",
      "outputs": [],
      "stateMutability": "nonpayable",
      "type": "function"
    },
    {
      "inputs": [
        {
          "components": [
            {
              "internalType": "Currency",
              "name": "currency0",
              "type": "address"
            },
            {
              "internalType": "Currency",
              "name": "currency1",
              "type": "address"
            },
            {
              "internalType": "uint24",
              "name": "fee",
              "type": "uint24"
            },
            {
              "internalType": "int24",
              "name": "tickSpacing",
              "type": "int24"
            },
            {
              "internalType": "contract IHooks",
              "name": "hooks",
              "type": "address"
            }
          ],
          "internalType": "struct IPoolManager.PoolKey",
          "name": "key",
          "type": "tuple"
        }
      ],
      "name": "setHookFees",
      "outputs": [],
      "stateMutability": "nonpayable",
      "type": "function"
    },
    {
      "inputs": [
        {
          "internalType": "address",
          "name": "_owner",
          "type": "address"
        }
      ],
      "name": "setOwner",
      "outputs": [],
      "stateMutability": "nonpayable",
      "type": "function"
    },
    {
      "inputs": [
        {
          "internalType": "contract IProtocolFeeController",
          "name": "controller",
          "type": "address"
        }
      ],
      "name": "setProtocolFeeController",
      "outputs": [],
      "stateMutability": "nonpayable",
      "type": "function"
    },
    {
      "inputs": [
        {
          "components": [
            {
              "internalType": "Currency",
              "name": "currency0",
              "type": "address"
            },
            {
              "internalType": "Currency",
              "name": "currency1",
              "type": "address"
            },
            {
              "internalType": "uint24",
              "name": "fee",
              "type": "uint24"
            },
            {
              "internalType": "int24",
              "name": "tickSpacing",
              "type": "int24"
            },
            {
              "internalType": "contract IHooks",
              "name": "hooks",
              "type": "address"
            }
          ],
          "internalType": "struct IPoolManager.PoolKey",
          "name": "key",
          "type": "tuple"
        }
      ],
      "name": "setProtocolFees",
      "outputs": [],
      "stateMutability": "nonpayable",
      "type": "function"
    },
    {
      "inputs": [
        {
          "internalType": "Currency",
          "name": "currency",
          "type": "address"
        }
      ],
      "name": "settle",
      "outputs": [
        {
          "internalType": "uint256",
          "name": "paid",
          "type": "uint256"
        }
      ],
      "stateMutability": "payable",
      "type": "function"
    },
    {
      "inputs": [
        {
          "internalType": "bytes4",
          "name": "interfaceId",
          "type": "bytes4"
        }
      ],
      "name": "supportsInterface",
      "outputs": [
        {
          "internalType": "bool",
          "name": "",
          "type": "bool"
        }
      ],
      "stateMutability": "view",
      "type": "function"
    },
    {
      "inputs": [
        {
          "components": [
            {
              "internalType": "Currency",
              "name": "currency0",
              "type": "address"
            },
            {
              "internalType": "Currency",
              "name": "currency1",
              "type": "address"
            },
            {
              "internalType": "uint24",
              "name": "fee",
              "type": "uint24"
            },
            {
              "internalType": "int24",
              "name": "tickSpacing",
              "type": "int24"
            },
            {
              "internalType": "contract IHooks",
              "name": "hooks",
              "type": "address"
            }
          ],
          "internalType": "struct IPoolManager.PoolKey",
          "name": "key",
          "type": "tuple"
        },
        {
          "components": [
            {
              "internalType": "bool",
              "name": "zeroForOne",
              "type": "bool"
            },
            {
              "internalType": "int256",
              "name": "amountSpecified",
              "type": "int256"
            },
            {
              "internalType": "uint160",
              "name": "sqrtPriceLimitX96",
              "type": "uint160"
            }
          ],
          "internalType": "struct IPoolManager.SwapParams",
          "name": "params",
          "type": "tuple"
        }
      ],
      "name": "swap",
      "outputs": [
        {
          "internalType": "BalanceDelta",
          "name": "delta",
          "type": "int256"
        }
      ],
      "stateMutability": "nonpayable",
      "type": "function"
    },
    {
      "inputs": [
        {
          "internalType": "Currency",
          "name": "currency",
          "type": "address"
        },
        {
          "internalType": "address",
          "name": "to",
          "type": "address"
        },
        {
          "internalType": "uint256",
          "name": "amount",
          "type": "uint256"
        }
      ],
      "name": "take",
      "outputs": [],
      "stateMutability": "nonpayable",
      "type": "function"
    },
    {
      "inputs": [
        {
          "internalType": "uint256",
          "name": "",
          "type": "uint256"
        }
      ],
      "name": "uri",
      "outputs": [
        {
          "internalType": "string",
          "name": "",
          "type": "string"
        }
      ],
      "stateMutability": "view",
      "type": "function"
    },
    {
      "stateMutability": "payable",
      "type": "receive"
    }
  ],
  "bytecode": "0x60c060405234801562000010575f80fd5b506040516200741b3803806200741b8339810160408190526200003391620000a8565b604080516020810182525f80825280546001600160a01b03191633908117825592519192917fb532073b38c83145e3e5135377a08bf9aab55bc0fd7c1179cd4fb995d2a5159c908290a3306080526200008c8162000096565b5060a05262000228565b6003620000a4828262000160565b5050565b5f60208284031215620000b9575f80fd5b5051919050565b634e487b7160e01b5f52604160045260245ffd5b600181811c90821680620000e957607f821691505b6020821081036200010857634e487b7160e01b5f52602260045260245ffd5b50919050565b601f8211156200015b575f81815260208120601f850160051c81016020861015620001365750805b601f850160051c820191505b81811015620001575782815560010162000142565b5050505b505050565b81516001600160401b038111156200017c576200017c620000c0565b62000194816200018d8454620000d4565b846200010e565b602080601f831160018114620001ca575f8415620001b25750858301515b5f19600386901b1c1916600185901b17855562000157565b5f85815260208120601f198616915b82811015620001fa57888601518255948401946001909101908401620001d9565b50858210156200021857878501515f19600388901b60f8161c191681555b5050505050600190811b01905550565b60805160a0516171ca620002515f395f81816131ca015261322e01525f6126a501526171ca5ff3fe6080604052600436106102de575f3560e01c80638154831911610183578063bc197c81116100d5578063effd18c011610089578063f242432a11610063578063f242432a14610ab1578063f39feb5f14610ad0578063fa6793d514610afb576102e5565b8063effd18c014610a54578063f02de3b214610a73578063f23a6e6114610a92576102e5565b8063c815641c116100ba578063c815641c14610909578063e1e77855146109ee578063e985e9c514610a0d576102e5565b8063bc197c81146108b2578063c6c3bbe6146108ea576102e5565b806397e8cd4e11610137578063af440f8211610111578063af440f82146107a1578063b4c41939146107c0578063b5217bb4146107f6576102e5565b806397e8cd4e14610738578063a22cb46514610763578063a67dd8f314610782576102e5565b806384e41c5e1161016857806384e41c5e146106b15780638da5cb5b146106d757806393c85a211461070d576102e5565b806381548319146106735780638161b87414610692576102e5565b80632d7713891161023c5780634fb28fbf116101f05780636276cbbe116101ca5780636276cbbe146105fc5780636a256b291461061b57806378f5e4381461062e576102e5565b80634fb28fbf146105b4578063555a4733146105c857806360460f06146105e7576102e5565b806333aa955b1161022157806333aa955b146104c857806335fd631a146105695780634e1273f414610588576102e5565b80632d7713891461048a5780632eb2c2d6146104a9576102e5565b80630e89341c116102935780631e2817de116102785780631e2817de1461042e5780631e2eaeaf1461044d578063282076cc1461046b576102e5565b80630e89341c146103e357806313af40351461040f576102e5565b8063048d9c70116102c4578063048d9c701461035357806307eff0dd1461039d5780630b0d9c09146103c4576102e5565b8062fdd58e146102f257806301ffc9a714610324576102e5565b366102e557005b3480156102f0575f80fd5b005b3480156102fd575f80fd5b5061031161030c366004615e4d565b610b32565b6040519081526020015b60405180910390f35b34801561032f575f80fd5b5061034361033e366004615e8c565b610bde565b604051901515815260200161031b565b34801561035e575f80fd5b5061037261036d366004615eb8565b610c2d565b6040805182516001600160801b0316815260208084015190820152918101519082015260600161031b565b3480156103a8575f80fd5b506103b1600181565b60405160029190910b815260200161031b565b3480156103cf575f80fd5b506102f06103de366004615f04565b610cea565b3480156103ee575f80fd5b506104026103fd366004615f42565b610daf565b60405161031b9190615fa6565b34801561041a575f80fd5b506102f0610429366004615fb8565b610e41565b348015610439575f80fd5b506103116104483660046160f1565b610ec4565b348015610458575f80fd5b50610311610467366004615f42565b5490565b348015610476575f80fd5b506102f0610485366004616164565b6113a3565b348015610495575f80fd5b506102f06104a4366004615fb8565b61141d565b3480156104b4575f80fd5b506102f06104c336600461628e565b61149b565b3480156104d3575f80fd5b506105516104e2366004615eb8565b5f938452600860209081526040808620815160609690961b6bffffffffffffffffffffffff19168684015260e894851b60348701529290931b60378501528251601a818603018152603a909401835283519381019390932084526006019091529020546001600160801b031690565b6040516001600160801b03909116815260200161031b565b348015610574575f80fd5b50610402610583366004616335565b61152e565b348015610593575f80fd5b506105a76105a2366004616355565b6115ac565b60405161031b9190616455565b3480156105bf575f80fd5b50600554610311565b3480156105d3575f80fd5b506103116105e2366004616467565b6116e0565b3480156105f2575f80fd5b506103b1617fff81565b348015610607575f80fd5b506103b16106163660046164d6565b611ac3565b610311610629366004615fb8565b611df9565b348015610639575f80fd5b5061031161064836600461650c565b5f8281526006602090815260408083206001600160a01b038516845260010190915290205492915050565b34801561067e575f80fd5b5061040261068d366004616574565b611f93565b34801561069d575f80fd5b506103116106ac366004615f04565b6120ae565b3480156106bc575f80fd5b506106c5600481565b60405160ff909116815260200161031b565b3480156106e2575f80fd5b505f546106f5906001600160a01b031681565b6040516001600160a01b03909116815260200161031b565b348015610718575f80fd5b50610311610727366004615fb8565b60076020525f908152604090205481565b348015610743575f80fd5b50610311610752366004615fb8565b60096020525f908152604090205481565b34801561076e575f80fd5b506102f061077d3660046165b3565b612164565b34801561078d575f80fd5b5061031161079c3660046165e6565b612173565b3480156107ac575f80fd5b506102f06107bb366004616164565b612371565b3480156107cb575f80fd5b506103116107da366004616617565b600a60209081525f928352604080842090915290825290205481565b348015610801575f80fd5b506108a2610810366004615f42565b600860209081525f918252604091829020825160c08101845281546001600160a01b0381168252600160a01b8104600290810b9483019490945260ff600160b81b8204811695830195909552600160c01b810485166060830152600160c81b810485166080830152600160d01b900490931660a08401526001810154918101546003909101546001600160801b031684565b60405161031b9493929190616643565b3480156108bd575f80fd5b506108d16108cc3660046166fc565b6123e1565b6040516001600160e01b0319909116815260200161031b565b3480156108f5575f80fd5b506102f0610904366004615f04565b61246a565b348015610914575f80fd5b506109a9610923366004615f42565b5f90815260086020908152604091829020825160c08101845290546001600160a01b038116808352600160a01b820460020b93830184905260ff600160b81b83048116958401869052600160c01b8304811660608501819052600160c81b8404821660808601819052600160d01b90940490911660a09094018490529095939493909290565b604080516001600160a01b03909716875260029590950b602087015260ff938416948601949094529082166060850152811660808401521660a082015260c00161031b565b3480156109f9575f80fd5b506106f5610a08366004615f42565b612506565b348015610a18575f80fd5b50610343610a27366004616617565b6001600160a01b039182165f90815260026020908152604080832093909416825291909152205460ff1690565b348015610a5f575f80fd5b50610311610a6e366004615f04565b61252e565b348015610a7e575f80fd5b506004546106f5906001600160a01b031681565b348015610a9d575f80fd5b506108d1610aac3660046167b3565b6125d0565b348015610abc575f80fd5b506102f0610acb36600461682a565b61260e565b348015610adb575f80fd5b50610311610aea366004615f42565b5f9081526006602052604090205490565b348015610b06575f80fd5b50610551610b15366004615f42565b5f908152600860205260409020600301546001600160801b031690565b5f6001600160a01b038316610bb45760405162461bcd60e51b815260206004820152602a60248201527f455243313135353a2061646472657373207a65726f206973206e6f742061207660448201527f616c6964206f776e65720000000000000000000000000000000000000000000060648201526084015b60405180910390fd5b505f8181526001602090815260408083206001600160a01b03861684529091529020545b92915050565b5f6001600160e01b03198216636cdb3d1360e11b1480610c0e57506001600160e01b031982166303a24d0760e21b145b80610bd857506301ffc9a760e01b6001600160e01b0319831614610bd8565b610c5760405180606001604052805f6001600160801b031681526020015f81526020015f81525090565b5f85815260086020908152604080832081516bffffffffffffffffffffffff1960608a901b168185015260e888811b603483015287901b60378201528251808203601a018152603a9091018352805190840120845260060190915290206040805160608101825282546001600160801b03168152600183015460208201526002909201549082015290505b949350505050565b610cf261269a565b600580545f9190610d05906001906168a2565b81548110610d1557610d156168b5565b5f918252602090912001546001600160a01b03169050338114610d56576040516313d2c13360e21b81526001600160a01b0382166004820152602401610bab565b610d6884610d63846126e5565b612706565b6001600160a01b0384165f9081526007602052604081208054849290610d8f9084906168a2565b90915550610da990506001600160a01b03851684846127ad565b50505050565b606060038054610dbe906168c9565b80601f0160208091040260200160405190810160405280929190818152602001828054610dea906168c9565b8015610e355780601f10610e0c57610100808354040283529160200191610e35565b820191905f5260205f20905b815481529060010190602001808311610e1857829003601f168201915b50505050509050919050565b5f546001600160a01b03163314610e6b576040516348f5c3ed60e01b815260040160405180910390fd5b5f80546040516001600160a01b03808516939216917fb532073b38c83145e3e5135377a08bf9aab55bc0fd7c1179cd4fb995d2a5159c91a35f80546001600160a01b0319166001600160a01b0392909216919091179055565b5f610ecd61269a565b600580545f9190610ee0906001906168a2565b81548110610ef057610ef06168b5565b5f918252602090912001546001600160a01b03169050338114610f31576040516313d2c13360e21b81526001600160a01b0382166004820152602401610bab565b60808401517308000000000000000000000000000000000000001615610fef576080840151604051630167f2ff60e71b808252916001600160a01b03169063b3f97f8090610f87903390899089906004016168fb565b6020604051808303815f875af1158015610fa3573d5f803e3d5ffd5b505050506040513d601f19601f82011682018060405250810190610fc79190616987565b6001600160e01b03191614610fef57604051631e048e1d60e01b815260040160405180910390fd5b60408401515f906280000016156110dd5761103e6040518060400160405280601381526020017f504d203a2069732044594e414d4943204645450000000000000000000000000081525061283f565b84608001516001600160a01b03166369516b74866040518263ffffffff1660e01b815260040161106e91906169a2565b6020604051808303815f875af115801561108a573d5f803e3d5ffd5b505050506040513d601f19601f820116820180604052508101906110ae91906169f2565b9050620f42408162ffffff16106110d857604051637e2df70960e11b815260040160405180910390fd5b6110e9565b506040840151620fffff165b6040805160c0810182525f80825260208201819052918101829052606081018290526080810182905260a0810182905281905f6111258961289a565b90506111926040518060a001604052808762ffffff1681526020018b6060015160020b81526020018a5f0151151581526020018a6020015181526020018a604001516001600160a01b031681525060085f8481526020019081526020015f206128c990919063ffffffff16565b929950909550935091506111a68988613194565b83156111e5578360095f8a5f01516111c2578b602001516111c5565b8b515b6001600160a01b0316815260208101919091526040015f20805490910190555b821561123c5760808901516001600160a01b03165f908152600a602052604081208951859290611219578b6020015161121c565b8b515b6001600160a01b0316815260208101919091526040015f20805490910190555b608089015173040000000000000000000000000000000000000016156112fc5760808901516040516352d51b8560e11b808252916001600160a01b03169063a5aa370a906112949033908e908e908e90600401616a0d565b6020604051808303815f875af11580156112b0573d5f803e3d5ffd5b505050506040513d601f19601f820116820180604052508101906112d49190616987565b6001600160e01b031916146112fc57604051631e048e1d60e01b815260040160405180910390fd5b33817f40e9cecb9f5f1f1c5b9c97dec2917b7ee92e57ba5563708daca94dd84ad7112f6113298a60801c90565b8a60408088015160a089015160608a0151925161138f959493908e90600f96870b81529490950b60208501526001600160a01b039290921660408401526001600160801b0316606083015260020b608082015262ffffff9190911660a082015260c00190565b60405180910390a350505050505092915050565b5f806113ae836131b3565b915091505f6113bc8461289a565b5f8181526008602052604090209091506113d79084846132b5565b6040805160ff80861682528416602082015282917f68cf4f9df39d4652e13d29995bfc957b7194ed36d602f1328593dcedcdfa626c91015b60405180910390a250505050565b5f546001600160a01b03163314611447576040516348f5c3ed60e01b815260040160405180910390fd5b600480546001600160a01b0319166001600160a01b0383169081179091556040519081527fb4bd8ef53df690b9943d3318996006dbb82a25f54719d8c8035b516a2a5b8acc9060200160405180910390a150565b6001600160a01b0385163314806114b757506114b78533610a27565b61151a5760405162461bcd60e51b815260206004820152602e60248201527f455243313135353a2063616c6c6572206973206e6f7420746f6b656e206f776e60448201526d195c881bdc88185c1c1c9bdd995960921b6064820152608401610bab565b611527858585858561330b565b5050505050565b60605f61153c836020616aa5565b67ffffffffffffffff81111561155457611554615fd3565b6040519080825280601f01601f19166020018201604052801561157e576020820181803683370190505b5090505f5b838110156115a4578085015460206001830102830152600181019050611583565b509392505050565b606081518351146116255760405162461bcd60e51b815260206004820152602960248201527f455243313135353a206163636f756e747320616e6420696473206c656e67746860448201527f206d69736d6174636800000000000000000000000000000000000000000000006064820152608401610bab565b5f835167ffffffffffffffff81111561164057611640615fd3565b604051908082528060200260200182016040528015611669578160200160208202803683370190505b5090505f5b84518110156115a4576116b385828151811061168c5761168c6168b5565b60200260200101518583815181106116a6576116a66168b5565b6020026020010151610b32565b8282815181106116c5576116c56168b5565b60209081029190910101526116d981616abc565b905061166e565b5f6116e961269a565b600580545f91906116fc906001906168a2565b8154811061170c5761170c6168b5565b5f918252602090912001546001600160a01b0316905033811461174d576040516313d2c13360e21b81526001600160a01b0382166004820152602401610bab565b6080840151732000000000000000000000000000000000000000161561180b576080840151604051630dbe5dbd60e01b808252916001600160a01b031690630dbe5dbd906117a390339089908990600401616ad4565b6020604051808303815f875af11580156117bf573d5f803e3d5ffd5b505050506040513d601f19601f820116820180604052508101906117e39190616987565b6001600160e01b0319161461180b57604051631e048e1d60e01b815260040160405180910390fd5b5f6118158561289a565b905061183e60405180608001604052805f81526020015f81526020015f81526020015f81525090565b6118a76040518060a00160405280336001600160a01b03168152602001875f015160020b8152602001876020015160020b8152602001611881886040015161357c565b600f0b8152606089015160020b6020918201525f85815260089091526040902090613591565b90945090506118b68685613194565b8051156118df57805186516001600160a01b03165f908152600960205260409020805490910190555b60208101511561191257602080820151878201516001600160a01b03165f90815260099092526040909120805490910190555b6040810151156119575760408082015160808801516001600160a01b039081165f908152600a60209081528482208b5190931682529190915291909120805490910190555b60608101511561199b57606081015160808701516001600160a01b039081165f908152600a60209081526040808320828c0151909416835292905220805490910190555b60808601517310000000000000000000000000000000000000001615611a5b576080860151604051630e2059f560e01b808252916001600160a01b031690630e2059f5906119f39033908b908b908b90600401616b5c565b6020604051808303815f875af1158015611a0f573d5f803e3d5ffd5b505050506040513d601f19601f82011682018060405250810190611a339190616987565b6001600160e01b03191614611a5b57604051631e048e1d60e01b815260040160405180910390fd5b845160208601516040808801519051339386937fc54f65a0367b92850ef8e90f7e302da8b0a137ab343132a9b8d0e63e684bf53c93611ab293600293840b81529190920b6020820152604081019190915260600190565b60405180910390a350505092915050565b5f620f4240620fffff84604001511662ffffff1610611af557604051637e2df70960e11b815260040160405180910390fd5b6060830151617fff60029190910b1315611b2257604051635815aee160e11b815260040160405180910390fd5b600160020b836060015160020b1215611b4e57604051630b7f3b4b60e11b815260040160405180910390fd5b611b72836040015184608001516001600160a01b0316613b0f90919063ffffffff16565b611ba0576080830151604051630732d7b560e51b81526001600160a01b039091166004820152602401610bab565b60808301517380000000000000000000000000000000000000001615611c5e576080830151604051636e4c1aa760e11b808252916001600160a01b03169063dc98354e90611bf690339088908890600401616be4565b6020604051808303815f875af1158015611c12573d5f803e3d5ffd5b505050506040513d601f19601f82011682018060405250810190611c369190616987565b6001600160e01b03191614611c5e57604051631e048e1d60e01b815260040160405180910390fd5b5f611c688461289a565b90505f80611c75866131b3565b915091505f80611c8488613b8f565b5f8781526008602052604090209193509150611ca4908886858786613c99565b60808901519096507340000000000000000000000000000000000000001615611d67576080880151604051636fe7e6eb60e01b808252916001600160a01b031690636fe7e6eb90611cff9033908d908d908d90600401616c56565b6020604051808303815f875af1158015611d1b573d5f803e3d5ffd5b505050506040513d601f19601f82011682018060405250810190611d3f9190616987565b6001600160e01b03191614611d6757604051631e048e1d60e01b815260040160405180910390fd5b87602001516001600160a01b0316885f01516001600160a01b0316867f3fd553db44f207b1f41348cfc4d251860814af9eadc470e8e7895e4d120511f48b604001518c606001518d60800151604051611de69392919062ffffff93909316835260029190910b60208301526001600160a01b0316604082015260600190565b60405180910390a4505050505092915050565b5f611e386040518060400160405280600981526020017f534554544c494e4730000000000000000000000000000000000000000000000081525061283f565b5f60075f846001600160a01b03166001600160a01b031681526020019081526020015f20549050611e9d6040518060400160405280600981526020017f534554544c494e4731000000000000000000000000000000000000000000000081525061283f565b611eaf836001600160a01b0316613d9d565b60075f856001600160a01b03166001600160a01b031681526020019081526020015f2081905550611f146040518060400160405280600981526020017f534554544c494e4732000000000000000000000000000000000000000000000081525061283f565b6001600160a01b0383165f90815260076020526040902054611f379082906168a2565b9150611f776040518060400160405280600981526020017f534554544c494e4733000000000000000000000000000000000000000000000081525061283f565b611f8d83611f84846126e5565b610d6390616cd3565b50919050565b600580546001810182555f919091527f036b6384b5eca791c62761152d0c79bb0604c104a5fb6f4eb0703f3154bb3db0810180546001600160a01b03191633908117909155604051630f1d2fd360e21b81526060929190633c74bf4c9061200290849088908890600401616d00565b5f604051808303815f875af115801561201d573d5f803e3d5ffd5b505050506040513d5f823e601f3d908101601f191682016040526120449190810190616d35565b5f8281526006602052604090208054919350901561207557604051635212cba160e01b815260040160405180910390fd5b50600580548061208757612087616db2565b5f8281526020902081015f1990810180546001600160a01b03191690550190555092915050565b5f80546001600160a01b031633148015906120d457506004546001600160a01b03163314155b156120f2576040516348f5c3ed60e01b815260040160405180910390fd5b81156120fe5781612117565b6001600160a01b0383165f908152600960205260409020545b6001600160a01b0384165f908152600960205260408120805492935083929091906121439084906168a2565b9091555061215d90506001600160a01b03841685836127ad565b9392505050565b61216f338383613e19565b5050565b5f61217c61269a565b600580545f919061218f906001906168a2565b8154811061219f5761219f6168b5565b5f918252602090912001546001600160a01b031690503381146121e0576040516313d2c13360e21b81526001600160a01b0382166004820152602401610bab565b608085015173020000000000000000000000000000000000000016156122a05760808501516040516326ddccd360e11b808252916001600160a01b031690634dbb99a6906122389033908a908a908a90600401616dc6565b6020604051808303815f875af1158015612254573d5f803e3d5ffd5b505050506040513d601f19601f820116820180604052508101906122789190616987565b6001600160e01b031916146122a057604051631e048e1d60e01b815260040160405180910390fd5b6122b584846122ae88613f0c565b9190613f2d565b91506122c18583613194565b6080850151600160981b16156115a45760808501516040516321e2203f60e11b808252916001600160a01b0316906343c4407e906123099033908a908a908a90600401616dc6565b6020604051808303815f875af1158015612325573d5f803e3d5ffd5b505050506040513d601f19601f820116820180604052508101906123499190616987565b6001600160e01b031916146115a457604051631e048e1d60e01b815260040160405180910390fd5b5f8061237c83613b8f565b915091505f61238a8461289a565b5f8181526008602052604090209091506123a5908484613fdb565b6040805160ff80861682528416602082015282917f7f755ba49aaf4c878728e1cd51f7b56f649f123b45e0d9346ab32fe3cbdd1483910161140f565b5f333014612402576040516314fe96b960e21b815260040160405180910390fd5b5f5b868110156124545761244c61242e898984818110612424576124246168b5565b9050602002013590565b878784818110612440576124406168b5565b90506020020135614031565b600101612404565b5063bc197c8160e01b9998505050505050505050565b61247261269a565b600580545f9190612485906001906168a2565b81548110612495576124956168b5565b5f918252602090912001546001600160a01b031690503381146124d6576040516313d2c13360e21b81526001600160a01b0382166004820152602401610bab565b6124e384610d63846126e5565b610da9836001600160a01b0386168460405180602001604052805f815250614052565b60058181548110612515575f80fd5b5f918252602090912001546001600160a01b0316905081565b5f33821561253c5782612562565b6001600160a01b038082165f908152600a60209081526040808320938816835292905220545b91506001600160a01b03851615612579578461257b565b805b6001600160a01b038083165f908152600a602090815260408083209389168352929052908120805492975084929091906125b69084906168a2565b909155506115a490506001600160a01b03851686846127ad565b5f3330146125f1576040516314fe96b960e21b815260040160405180910390fd5b6125fb8585614031565b5063f23a6e6160e01b9695505050505050565b6001600160a01b03851633148061262a575061262a8533610a27565b61268d5760405162461bcd60e51b815260206004820152602e60248201527f455243313135353a2063616c6c6572206973206e6f7420746f6b656e206f776e60448201526d195c881bdc88185c1c1c9bdd995960921b6064820152608401610bab565b6115278585858585614163565b306001600160a01b037f000000000000000000000000000000000000000000000000000000000000000016146126e3576040516306c4a1c760e11b815260040160405180910390fd5b565b5f6f7fffffffffffffffffffffffffffffff821115612702575f80fd5b5090565b80600f0b5f03612714575050565b5f60065f600160058054905061272a91906168a2565b815260208082019290925260409081015f9081206001600160a01b03871682526001810190935290812054919250612766600f85900b83616e38565b9050805f0361277b5782545f1901835561278a565b815f0361278a57825460010183555b6001600160a01b039094165f908152600190920160205250604090209190915550565b5f6001600160a01b0384166127e9575f805f8085875af19050806127e457604051633d2cec6f60e21b815260040160405180910390fd5b610da9565b60405163a9059cbb60e01b5f52836004528260245260205f60445f80895af13d15601f3d1160015f511416171691505f606052806040525080610da957604051633c9fd93960e21b815260040160405180910390fd5b612897816040516024016128539190615fa6565b60408051601f198184030181529190526020810180517bffffffffffffffffffffffffffffffffffffffffffffffffffffffff1663104c13eb60e21b17905261430e565b50565b5f816040516020016128ac91906169a2565b604051602081830303815290604052805190602001209050919050565b6040805160c0810182525f80825260208201819052918101829052606081018290526080810182905260a081018290528190819084606001515f036129215760405163be8b850760e01b815260040160405180910390fd5b6040805160c08101825287546001600160a01b038116808352600160a01b820460020b602084015260ff600160b81b8304811694840194909452600160c01b820484166060840152600160c81b820484166080840152600160d01b90910490921660a0820152905f036129a75760405163486aa30760e01b815260040160405180910390fd5b856040015115612a5557805f01516001600160a01b031686608001516001600160a01b031610612a045780516080870151604051637c9c6e8f60e01b81526001600160a01b03928316600482015291166024820152604401610bab565b6401000276a36001600160a01b031686608001516001600160a01b031611612a50576080860151604051639e4d7cc760e01b81526001600160a01b039091166004820152602401610bab565b612b03565b805f01516001600160a01b031686608001516001600160a01b031611612aa85780516080870151604051637c9c6e8f60e01b81526001600160a01b03928316600482015291166024820152604401610bab565b73fffd8963efd1fc6a506488495d951d5263988d266001600160a01b031686608001516001600160a01b031610612b03576080860151604051639e4d7cc760e01b81526001600160a01b039091166004820152602401610bab565b6040805160608101825260038901546001600160801b03168152908701515f91906020820190612b3e576004846040015160ff16901c612b4f565b60108460400151612b4f9190616e73565b60ff1681526020018860400151612b71576004846080015160ff16901c612b82565b60108460800151612b829190616e73565b60ff1681525090505f8088606001511390506040518060c00160405280896060015181526020015f8152602001845f01516001600160a01b03168152602001846020015160020b81526020018960400151612be1578a60020154612be7565b8a600101545b815283516001600160801b03166020918201526040805160e0810182525f808252928101839052908101829052606081018290526080810182905260a0810182905260c08101919091529094505b845115801590612c5f575088608001516001600160a01b031685604001516001600160a01b031614155b1561305b576040808601516001600160a01b03168252606086015160208b0151918b0151612c929260058e019291614317565b1515604083015260020b60208201819052620d89e7191315612cbd57620d89e7196020820152612cf1565b612cca620d89e719616e94565b60020b816020015160020b1315612cf157612ce8620d89e719616e94565b60020b60208201525b612cfe8160200151614451565b6001600160a01b03166060820152604080860151908a0151612d819190612d41578a608001516001600160a01b031683606001516001600160a01b031611612d5f565b8a608001516001600160a01b031683606001516001600160a01b0316105b612d6d578260600151612d73565b8a608001515b60a088015188518d5161476c565b60c085015260a084015260808301526001600160a01b031660408601528115612de357612db78160c00151826080015101614954565b855103855260a0810151612dca90614954565b8560200151612dd99190616eac565b6020860152612e26565b612df08160a00151614954565b855101855260c08101516080820151612e1191612e0c91616ed2565b614954565b8560200151612e209190616e38565b60208601525b602083015160ff1615612e5d575f836020015160ff168260c00151612e4b9190616ee5565b60c08301805182900390529790970196505b604083015160ff1615612e94575f836040015160ff168260c00151612e829190616ee5565b60c08301805182900390529690960195505b60a08501516001600160801b031615612ed357612ec78160c00151600160801b8760a001516001600160801b0316614981565b60808601805190910190525b80606001516001600160a01b031685604001516001600160a01b03160361302957806040015115613000575f612faa8b83602001518c60400151612f1b578d60010154612f21565b88608001515b8d60400151612f6a578960800151600292830b5f90815260049094016020526040909320600181018054909203909155908101805490920390915554600160801b9004600f0b90565b8e60020154600292830b5f90815260049094016020526040909320600181018054909203909155908101805490920390915554600160801b9004600f0b90565b9050896040015115612fb9575f035b5f81600f0b12612fd857808660a00151612fd39190616ef8565b612ff0565b612fe181616cd3565b8660a00151612ff09190616f18565b6001600160801b031660a0870152505b886040015161301357806020015161301c565b60018160200151035b60020b6060860152612c35565b805f01516001600160a01b031685604001516001600160a01b0316146130565761301c8560400151614a1d565b612c35565b604085015160608601518b5476ffffffffffffffffffffffffffffffffffffffffffffff1916600160a01b62ffffff909216919091026001600160a01b031916176001600160a01b03909116178a5560a085015183516001600160801b039182169116146130f35760a085015160038b0180546fffffffffffffffffffffffffffffffff19166001600160801b039092169190911790555b88604001511561310c57608085015160018b0155613117565b608085015160028b01555b81151589604001511515036131625761315b61313b865f01518b606001510361357c565b613148876020015161357c565b6001600160801b031660809190911b1790565b9750613187565b613184613172866020015161357c565b613148875f01518c606001510361357c565b97505b5050505092959194509250565b81516131a490610d638360801c90565b61216f8260200151610d638390565b6004545f9081906001600160a01b0316156132b0577f00000000000000000000000000000000000000000000000000000000000000005a101561320957604051630f724b8160e11b815260040160405180910390fd5b6004805460405163d6ec458560e01b81526001600160a01b039091169163d6ec4585917f00000000000000000000000000000000000000000000000000000000000000009161325a918891016169a2565b60408051808303818786fa93505050508015613293575060408051601f3d908101601f1916820190925261329091810190616f48565b60015b1561329e5790925090505b6132a782614d2f565b6132b081614d2f565b915091565b82546001600160a01b03165f036132df5760405163486aa30760e01b815260040160405180910390fd5b825461ffff60b81b1916600160b81b60ff9384160260ff60c01b191617600160c01b9190921602179055565b81518351146133825760405162461bcd60e51b815260206004820152602860248201527f455243313135353a2069647320616e6420616d6f756e7473206c656e6774682060448201527f6d69736d617463680000000000000000000000000000000000000000000000006064820152608401610bab565b6001600160a01b0384166133e65760405162461bcd60e51b815260206004820152602560248201527f455243313135353a207472616e7366657220746f20746865207a65726f206164604482015264647265737360d81b6064820152608401610bab565b335f5b845181101561350e575f858281518110613405576134056168b5565b602002602001015190505f858381518110613422576134226168b5565b6020908102919091018101515f8481526001835260408082206001600160a01b038e1683529093529190912054909150818110156134b55760405162461bcd60e51b815260206004820152602a60248201527f455243313135353a20696e73756666696369656e742062616c616e636520666f60448201526939103a3930b739b332b960b11b6064820152608401610bab565b5f8381526001602090815260408083206001600160a01b038e8116855292528083208585039055908b168252812080548492906134f3908490616ed2565b925050819055505050508061350790616abc565b90506133e9565b50846001600160a01b0316866001600160a01b0316826001600160a01b03167f4a39dc06d4c0dbc64b70af90fd698a233a518aa5d07e595d983b8c0526c8f7fb878760405161355e929190616f70565b60405180910390a4613574818787878787614da1565b505050505050565b80600f81900b811461358c575f80fd5b919050565b5f6135b960405180608001604052805f81526020015f81526020015f81526020015f81525090565b6135f76040518060400160405280601381526020017f706f6f6c206d6f64696679506f736974696f6e0000000000000000000000000081525061283f565b83546001600160a01b03165f036136215760405163486aa30760e01b815260040160405180910390fd5b61363383602001518460400151614f45565b6040805160c0810182525f80825260208201819052918101829052606081018290526080810182905260a0810182905281906060860151600f0b156137b25761368687876020015188606001515f614fe1565b6001600160801b0316602083015215158152604086015160608701516136af9189916001614fe1565b6001600160801b031660608084019190915290151560408301528601515f600f9190910b1315613771575f6136e787608001516150b8565b9050806001600160801b031682602001516001600160801b0316111561372c57602087015160405163b8e3c38560e01b815260029190910b6004820152602401610bab565b806001600160801b031682606001516001600160801b0316111561376f57604080880151905163b8e3c38560e01b815260029190910b6004820152602401610bab565b505b80511561379057602086015160808701516137909160058a01916150e5565b8060400151156137b257604086015160808701516137b29160058a01916150e5565b6137c58787602001518860400151615182565b60a0830181905260808301829052606088810151895160208b8101516040808e015181519490961b6bffffffffffffffffffffffff19168484015260e891821b603485015294901b60378301528351601a818403018152603a90920184528151918101919091205f90815260068d0190915291909120613846939092615238565b80935081945050505f8660600151600f0b12156138c05780511561389057613890878760200151600290810b5f908152600490920160205260408220828155600181018390550155565b8060400151156138c057604080870151600290810b5f90815260048a016020529182208281556001810183905501555b506060850151600f0b15613a645760208501518654600291820b600160a01b90910490910b12156139335761392c8461392761392161391c6139058a60200151614451565b6139128b60400151614451565b8b60600151615364565b61357c565b60801b90565b61539f565b9350613a64565b60408501518654600291820b600160a01b90910490910b1215613a2f57855460408601516139a79186916139279161397c9161391c916001600160a01b03169061391290614451565b61314861391c61398f8b60200151614451565b8c5460608d01516001600160a01b03909116906153c8565b93505f8560600151600f0b126139d957606085015160038701546139d491906001600160801b0316616ef8565b6139ff565b84606001516139e790616cd3565b60038701546139ff91906001600160801b0316616f18565b6003870180546fffffffffffffffffffffffffffffffff19166001600160801b0392909216919091179055613a64565b613a61846139275f61314861391c613a4a8b60200151614451565b613a578c60400151614451565b8c606001516153c8565b93505b5f8560600151600f0b128015613a8457508554600160d01b900460ff1615155b15613ae657613a9386856153f4565b9250613ae384613927613aa8865f01516126e5565b613ab587604001516126e5565b613abf9190616f94565b613acc87602001516126e5565b613ad988606001516126e5565b6131489190616f94565b93505b613b0484613aff613af6856126e5565b613148856126e5565b61559d565b935050509250929050565b5f6001600160a01b03831615613b6657600160981b836001600160a01b0316101580613b3f575062800000821615155b80613b4e575062400000821615155b80613b615750622000008216151561215d565b61215d565b628000008216158015613b7c5750624000008216155b801561215d575050622000001615919050565b60408101515f908190624000001615613c145782608001516001600160a01b0316630f485773846040518263ffffffff1660e01b8152600401613bd291906169a2565b602060405180830381865afa158015613bed573d5f803e3d5ffd5b505050506040513d601f19601f82011682018060405250810190613c119190616fd3565b91505b60408301516220000016156132b05782608001516001600160a01b03166339dfff16846040518263ffffffff1660e01b8152600401613c5391906169a2565b602060405180830381865afa158015613c6e573d5f803e3d5ffd5b505050506040513d601f19601f82011682018060405250810190613c929190616fd3565b9050915091565b85545f906001600160a01b031615613cc457604051637983c05160e01b815260040160405180910390fd5b613ccd86614a1d565b6040805160c0810182526001600160a01b0398909816808952600283900b60208a015260ff97881691890182905294871660608901819052958716608089018190529390961660a0909701879052875476ffffffffffffffffffffffffffffffffffffffffffffff1916909317600160a01b62ffffff8516021761ffff60b81b1916600160b81b90950260ff60c01b191694909417600160c01b9093029290921761ffff60c81b1916600160c81b90920260ff60d01b191691909117600160d01b90930292909217909255919050565b5f6001600160a01b038216613db3575047919050565b6040516370a0823160e01b81523060048201526001600160a01b038316906370a0823190602401602060405180830381865afa158015613df5573d5f803e3d5ffd5b505050506040513d601f19601f82011682018060405250810190610bd89190616fec565b816001600160a01b0316836001600160a01b031603613ea05760405162461bcd60e51b815260206004820152602960248201527f455243313135353a2073657474696e6720617070726f76616c2073746174757360448201527f20666f722073656c6600000000000000000000000000000000000000000000006064820152608401610bab565b6001600160a01b038381165f81815260026020908152604080832094871680845294825291829020805460ff191686151590811790915591519182527f17307eab39ab6107e8899845ad3d59bd9653f200f220920489ca2b5937696c31910160405180910390a3505050565b5f60085f613f198461289a565b81526020019081526020015f209050919050565b60038301545f906001600160801b03168103613f5c5760405163a74f97ab60e01b815260040160405180910390fd5b613f71613f68846126e5565b613148846126e5565b90508215613fa4576003840154613f98908490600160801b906001600160801b0316614981565b60018501805490910190555b811561215d576003840154613fc9908390600160801b906001600160801b0316614981565b60028501805490910190559392505050565b82546001600160a01b03165f036140055760405163486aa30760e01b815260040160405180910390fd5b825461ffff60c81b1916600160c81b60ff9384160260ff60d01b191617600160d01b9190921602179055565b614045306001600160a01b038416836155c9565b61216f82611f84836126e5565b6001600160a01b0384166140b25760405162461bcd60e51b815260206004820152602160248201527f455243313135353a206d696e7420746f20746865207a65726f206164647265736044820152607360f81b6064820152608401610bab565b335f6140bd85615743565b90505f6140c985615743565b90505f8681526001602090815260408083206001600160a01b038b168452909152812080548792906140fc908490616ed2565b909155505060408051878152602081018790526001600160a01b03808a16925f92918716917fc3d58168c5ae7397731d063d5bbf3d657854427343f4c083240f7aacaa2d0f62910160405180910390a461415a835f8989898961578c565b50505050505050565b6001600160a01b0384166141c75760405162461bcd60e51b815260206004820152602560248201527f455243313135353a207472616e7366657220746f20746865207a65726f206164604482015264647265737360d81b6064820152608401610bab565b335f6141d285615743565b90505f6141de85615743565b90505f8681526001602090815260408083206001600160a01b038c168452909152902054858110156142655760405162461bcd60e51b815260206004820152602a60248201527f455243313135353a20696e73756666696369656e742062616c616e636520666f60448201526939103a3930b739b332b960b11b6064820152608401610bab565b5f8781526001602090815260408083206001600160a01b038d8116855292528083208985039055908a168252812080548892906142a3908490616ed2565b909155505060408051888152602081018890526001600160a01b03808b16928c821692918816917fc3d58168c5ae7397731d063d5bbf3d657854427343f4c083240f7aacaa2d0f62910160405180910390a4614303848a8a8a8a8a61578c565b505050505050505050565b61289781615887565b5f805f8460020b8660020b8161432f5761432f616e5f565b0590505f8660020b12801561435b57508460020b8660020b8161435457614354616e5f565b0760020b15155b15614364575f19015b83156143d657600281900b600881901d600181810b5f90815260208b9052604090205461010090930760ff81169190911b80015f1901928316801515955091929091856143b857888360ff168603026143cb565b886143c2826158a6565b840360ff168603025b965050505050614447565b600181810160020b600881901d80830b5f90815260208b9052604090205461010090920760ff81169390931b5f1901199182168015159550909291908561442a57888360ff0360ff16866001010102614440565b888361443583615944565b0360ff168660010101025b9650505050505b5094509492505050565b5f805f8360020b12614466578260020b61446d565b8260020b5f035b9050620d89e8811115614493576040516333a3bdff60e21b815260040160405180910390fd5b5f816001165f036144a857600160801b6144ba565b6ffffcb933bd6fad37aa2d162d1a5940015b70ffffffffffffffffffffffffffffffffff16905060028216156144ee576ffff97272373d413259a46990580e213a0260801c5b600482161561450d576ffff2e50f5f656932ef12357cf3c7fdcc0260801c5b600882161561452c576fffe5caca7e10e4e61c3624eaa0941cd00260801c5b601082161561454b576fffcb9843d60f6159c9db58835c9266440260801c5b602082161561456a576fff973b41fa98c081472e6896dfb254c00260801c5b6040821615614589576fff2ea16466c96a3843ec78b326b528610260801c5b60808216156145a8576ffe5dee046a99a2a811c461f1969c30530260801c5b6101008216156145c8576ffcbe86c7900a88aedcffc83b479aa3a40260801c5b6102008216156145e8576ff987a7253ac413176f2b074cf7815e540260801c5b610400821615614608576ff3392b0822b70005940c7a398e4b70f30260801c5b610800821615614628576fe7159475a2c29b7443b29c7fa6e889d90260801c5b611000821615614648576fd097f3bdfd2022b8845ad8f792aa58250260801c5b612000821615614668576fa9f746462d870fdf8a65dc1f90e061e50260801c5b614000821615614688576f70d869a156d2a1b890bb3df62baf32f70260801c5b6180008216156146a8576f31be135f97d08fd981231505542fcfa60260801c5b620100008216156146c9576f09aa508b5b7a84e1c677de54f3e99bc90260801c5b620200008216156146e9576e5d6af8dedb81196699c329225ee6040260801c5b62040000821615614708576d2216e584f5fa1ea926041bedfe980260801c5b62080000821615614725576b048a170391f7dc42444e8fa20260801c5b5f8460020b131561474457805f198161474057614740616e5f565b0490505b64010000000081061561475857600161475a565b5f5b60ff16602082901c0192505050919050565b5f8080806001600160a01b03808916908a1610158187128015906147ef575f6147a38989620f42400362ffffff16620f4240614981565b9050826147bc576147b78c8c8c6001615a2b565b6147c9565b6147c98b8d8c6001615ab1565b95508581106147da578a96506147e9565b6147e68c8b8386615b78565b96505b50614835565b81614805576148008b8b8b5f615ab1565b614811565b6148118a8c8b5f615a2b565b935083885f031061482457899550614835565b6148328b8a8a5f0385615bc0565b95505b6001600160a01b038a8116908716148215614897578080156148545750815b61486a57614865878d8c6001615ab1565b61486c565b855b9550808015614879575081155b61488e57614889878d8c5f615a2b565b614890565b845b94506148e0565b8080156148a15750815b6148b7576148b28c888c6001615a2b565b6148b9565b855b95508080156148c6575081155b6148db576148d68c888c5f615ab1565b6148dd565b845b94505b811580156148ef5750885f0385115b156148fa57885f0394505b81801561491957508a6001600160a01b0316876001600160a01b031614155b15614928578589039350614945565b614942868962ffffff168a620f42400362ffffff16615c06565b93505b50505095509550955095915050565b5f7f7fffffffffffffffffffffffffffffffffffffffffffffffffffffffffffffff821115612702575f80fd5b5f838302815f19858709828110838203039150508084116149a0575f80fd5b805f036149b25750829004905061215d565b5f848688095f868103871696879004966002600389028118808a02820302808a02820302808a02820302808a02820302808a02820302808a02909103029181900381900460010186841190950394909402919094039290920491909117919091029150509392505050565b5f6401000276a36001600160a01b0383161080614a57575073fffd8963efd1fc6a506488495d951d5263988d266001600160a01b03831610155b15614a755760405163015680db60e11b815260040160405180910390fd5b77ffffffffffffffffffffffffffffffffffffffff00000000602083901b166001600160801b03811160071b81811c67ffffffffffffffff811160061b90811c63ffffffff811160051b90811c61ffff811160041b90811c60ff8111600390811b91821c600f811160021b90811c918211600190811b92831c97908811961790941790921717909117171760808110614b1657607f810383901c9150614b20565b80607f0383901b91505b908002607f81811c60ff83811c9190911c800280831c81831c1c800280841c81841c1c800280851c81851c1c800280861c81861c1c800280871c81871c1c800280881c81881c1c800280891c81891c1c8002808a1c818a1c1c8002808b1c818b1c1c8002808c1c818c1c1c8002808d1c818d1c1c8002808e1c9c81901c9c909c1c80029c8d901c9e9d607f198f0160401b60c09190911c678000000000000000161760c19b909b1c674000000000000000169a909a1760c29990991c672000000000000000169890981760c39790971c671000000000000000169690961760c49590951c670800000000000000169490941760c59390931c670400000000000000169290921760c69190911c670200000000000000161760c79190911c670100000000000000161760c89190911c6680000000000000161760c99190911c6640000000000000161760ca9190911c6620000000000000161760cb9190911c6610000000000000161760cc9190911c6608000000000000161760cd9190911c66040000000000001617693627a301d71055774c8581026f028f6481ab7f045a5af012a19d003aa9198101608090811d906fdb2df09e81959a81455e260799a0632f8301901d600281810b9083900b14614d2057886001600160a01b0316614d0582614451565b6001600160a01b03161115614d1a5781614d22565b80614d22565b815b9998505050505050505050565b60ff811615612897575f614d44601083616e73565b9050600f600483901c1660ff821615801590614d635750600460ff8316105b80614d7e575060ff811615801590614d7e5750600460ff8216105b15614d9c57604051637e2df70960e11b815260040160405180910390fd5b505050565b6001600160a01b0384163b156135745760405163bc197c8160e01b81526001600160a01b0385169063bc197c8190614de59089908990889088908890600401617003565b6020604051808303815f875af1925050508015614e1f575060408051601f3d908101601f19168201909252614e1c91810190616987565b60015b614ed457614e2b617060565b806308c379a003614e645750614e3f617079565b80614e4a5750614e66565b8060405162461bcd60e51b8152600401610bab9190615fa6565b505b60405162461bcd60e51b815260206004820152603460248201527f455243313135353a207472616e7366657220746f206e6f6e2d4552433131353560448201527f526563656976657220696d706c656d656e7465720000000000000000000000006064820152608401610bab565b6001600160e01b0319811663bc197c8160e01b1461415a5760405162461bcd60e51b815260206004820152602860248201527f455243313135353a204552433131353552656365697665722072656a656374656044820152676420746f6b656e7360c01b6064820152608401610bab565b8060020b8260020b12614f795760405163c4433ed560e01b8152600283810b600483015282900b6024820152604401610bab565b620d89e719600283900b1215614fa85760405163d5e2f7ab60e01b8152600283900b6004820152602401610bab565b614fb5620d89e719616e94565b60020b8160020b131561216f5760405163035aeeff60e31b8152600282900b6004820152602401610bab565b600283900b5f908152600485016020526040812080548291906001600160801b0381169060801c600f87900b84136150225761501d8783616ef8565b615035565b61502b87616cd3565b6150359083616f18565b6001600160801b03808216159084168015919091141596509094505f03615082578854600160a01b9004600290810b9089900b13615082576001808a0154908401556002808a0154908401555b5f86615097576150928883616f94565b6150a1565b6150a18883617102565b90508060801b851784555050505094509492505050565b5f621b13d08201600290810b9083900b6001600160801b0302816150de576150de616e5f565b0492915050565b8060020b8260020b816150fa576150fa616e5f565b0760020b1561512a57604051636a6c79f360e11b8152600283810b600483015282900b6024820152604401610bab565b5f806151578360020b8560020b8161514457615144616e5f565b0560020b600881901d9161010090910790565b600191820b5f9081526020979097526040909620805460ff9097169190911b90951890945550505050565b600282810b5f81815260048601602052604080822085850b835290822087549294859492939192600160a01b909204900b908112156151da57816001015483600101540394508160020154836002015403935061522d565b8560020b8160020b1261520657826001015482600101540394508260020154826002015403935061522d565b81600101548360010154896001015403039450816002015483600201548960020154030393505b505050935093915050565b6040805160608101825285546001600160801b03168152600186015460208201526002860154918101919091525f90819081600f87900b81036152a75781516001600160801b03165f0361529f57604051632bbfae4960e21b815260040160405180910390fd5b5080516152db565b5f87600f0b126152c35781516152be908890616ef8565b6152d8565b6152cc87616cd3565b82516152d89190616f18565b90505b6152fc82602001518703835f01516001600160801b0316600160801b614981565b935061531f82604001518603835f01516001600160801b0316600160801b614981565b925086600f0b5f1461534e5787546fffffffffffffffffffffffffffffffff19166001600160801b0382161788555b5050600186019390935560029094015591929050565b5f8082600f0b126153845761537f612e0c8585856001615ab1565b610ce2565b615395612e0c8585855f035f615ab1565b5f03949350505050565b5f61215d6153ad8360801c90565b6153b78560801c90565b6153c19190616f94565b8385613ad9565b5f8082600f0b126153e35761537f612e0c8585856001615a2b565b615395612e0c8585855f035f615a2b565b61541b60405180608001604052805f81526020015f81526020015f81526020015f81525090565b5f6154268360801c90565b845490915083905f9061544590601090600160d01b900460ff16616e73565b8654909150600f600160d01b820460041c16905f9061547090601090600160c01b900460ff16616e73565b8854909150600f600160c01b90910460041c8116905f9087900b12801561549957505f8460ff16115b156154c45760ff84166154ab87616cd3565b6154b59190617141565b6001600160801b031660408801525b5f85600f0b1280156154d857505f8360ff16115b156155035760ff83166154ea86616cd3565b6154f49190617141565b6001600160801b031660608801525b5f8260ff1611801561551857505f8760400151115b15615548578160ff1687604001516155309190616ee5565b8088526040880180516155449083906168a2565b9052505b5f8160ff1611801561555d57505f8760600151115b15615591578060ff1687606001516155759190616ee5565b6020880181905260608801805161558d9083906168a2565b9052505b50505050505092915050565b5f61215d6155ab8360801c90565b6155b58560801c90565b6155bf9190617102565b6131488486617102565b6001600160a01b03831661562b5760405162461bcd60e51b815260206004820152602360248201527f455243313135353a206275726e2066726f6d20746865207a65726f206164647260448201526265737360e81b6064820152608401610bab565b335f61563684615743565b90505f61564284615743565b60408051602080820183525f91829052888252600181528282206001600160a01b038b16835290522054909150848110156156cb5760405162461bcd60e51b8152602060048201526024808201527f455243313135353a206275726e20616d6f756e7420657863656564732062616c604482015263616e636560e01b6064820152608401610bab565b5f8681526001602090815260408083206001600160a01b038b81168086529184528285208a8703905582518b81529384018a90529092908816917fc3d58168c5ae7397731d063d5bbf3d657854427343f4c083240f7aacaa2d0f62910160405180910390a460408051602081019091525f905261415a565b6040805160018082528183019092526060915f91906020808301908036833701905050905082815f8151811061577b5761577b6168b5565b602090810291909101015292915050565b6001600160a01b0384163b156135745760405163f23a6e6160e01b81526001600160a01b0385169063f23a6e61906157d09089908990889088908890600401617166565b6020604051808303815f875af192505050801561580a575060408051601f3d908101601f1916820190925261580791810190616987565b60015b61581657614e2b617060565b6001600160e01b0319811663f23a6e6160e01b1461415a5760405162461bcd60e51b815260206004820152602860248201527f455243313135353a204552433131353552656365697665722072656a656374656044820152676420746f6b656e7360c01b6064820152608401610bab565b5f6a636f6e736f6c652e6c6f6790505f80835160208501845afa505050565b5f8082116158b2575f80fd5b600160801b82106158c557608091821c91015b6801000000000000000082106158dd57604091821c91015b64010000000082106158f157602091821c91015b62010000821061590357601091821c91015b610100821061591457600891821c91015b6010821061592457600491821c91015b6004821061593457600291821c91015b6002821061358c57600101919050565b5f808211615950575f80fd5b5060ff6001600160801b0382161561596b57607f1901615973565b608082901c91505b67ffffffffffffffff82161561598c57603f1901615994565b604082901c91505b63ffffffff8216156159a957601f19016159b1565b602082901c91505b61ffff8216156159c457600f19016159cc565b601082901c91505b60ff8216156159de57600719016159e6565b600882901c91505b600f8216156159f85760031901615a00565b600482901c91505b6003821615615a125760011901615a1a565b600282901c91505b600182161561358c575f1901919050565b5f836001600160a01b0316856001600160a01b03161115615a4a579293925b81615a7e57615a796001600160801b038416615a66878761719d565b6001600160a01b0316600160601b614981565b615aa8565b615aa86001600160801b038416615a95878761719d565b6001600160a01b0316600160601b615c06565b95945050505050565b5f836001600160a01b0316856001600160a01b03161115615ad0579293925b7bffffffffffffffffffffffffffffffff000000000000000000000000606084901b166001600160a01b038686038116908716615b0b575f80fd5b83615b4157866001600160a01b0316615b2e8383896001600160a01b0316614981565b81615b3b57615b3b616e5f565b04615b6d565b615b6d615b588383896001600160a01b0316615c06565b886001600160a01b0316808204910615150190565b979650505050505050565b5f80856001600160a01b031611615b8d575f80fd5b5f846001600160801b031611615ba1575f80fd5b81615bb357615a798585856001615c42565b615aa88585856001615d25565b5f80856001600160a01b031611615bd5575f80fd5b5f846001600160801b031611615be9575f80fd5b81615bfa57615a798585855f615d25565b615aa88585855f615c42565b5f615c12848484614981565b90505f8280615c2357615c23616e5f565b848609111561215d575f198110615c38575f80fd5b6001019392505050565b5f8115615cb2575f6001600160a01b03841115615c7657615c7184600160601b876001600160801b0316614981565b615c8d565b615c8d6001600160801b038616606086901b616ee5565b9050615caa615ca5826001600160a01b038916616ed2565b615e24565b915050610ce2565b5f6001600160a01b03841115615cdf57615cda84600160601b876001600160801b0316615c06565b615cfc565b615cfc606085901b6001600160801b038716808204910615150190565b905080866001600160a01b031611615d12575f80fd5b615caa816001600160a01b0388166168a2565b5f825f03615d34575083610ce2565b7bffffffffffffffffffffffffffffffff000000000000000000000000606085901b168215615dd8576001600160a01b03861684810290858281615d7a57615d7a616e5f565b0403615daa57818101828110615da857615d9e83896001600160a01b031683615c06565b9350505050610ce2565b505b50615caa8185615dc36001600160a01b038a1683616ee5565b615dcd9190616ed2565b808204910615150190565b6001600160a01b03861684810290858281615df557615df5616e5f565b04148015615e0257508082115b615e0a575f80fd5b808203615d9e615ca5846001600160a01b038b1684615c06565b806001600160a01b038116811461358c575f80fd5b6001600160a01b0381168114612897575f80fd5b5f8060408385031215615e5e575f80fd5b8235615e6981615e39565b946020939093013593505050565b6001600160e01b031981168114612897575f80fd5b5f60208284031215615e9c575f80fd5b813561215d81615e77565b8035600281900b811461358c575f80fd5b5f805f8060808587031215615ecb575f80fd5b843593506020850135615edd81615e39565b9250615eeb60408601615ea7565b9150615ef960608601615ea7565b905092959194509250565b5f805f60608486031215615f16575f80fd5b8335615f2181615e39565b92506020840135615f3181615e39565b929592945050506040919091013590565b5f60208284031215615f52575f80fd5b5035919050565b5f5b83811015615f73578181015183820152602001615f5b565b50505f910152565b5f8151808452615f92816020860160208601615f59565b601f01601f19169290920160200192915050565b602081525f61215d6020830184615f7b565b5f60208284031215615fc8575f80fd5b813561215d81615e39565b634e487b7160e01b5f52604160045260245ffd5b6060810181811067ffffffffffffffff8211171561600757616007615fd3565b60405250565b601f8201601f1916810167ffffffffffffffff8111828210171561603357616033615fd3565b6040525050565b62ffffff81168114612897575f80fd5b5f60a0828403121561605a575f80fd5b60405160a0810181811067ffffffffffffffff8211171561607d5761607d615fd3565b604052905080823561608e81615e39565b8152602083013561609e81615e39565b602082015260408301356160b18161603a565b60408201526160c260608401615ea7565b606082015260808301356160d581615e39565b6080919091015292915050565b8035801515811461358c575f80fd5b5f80828403610100811215616104575f80fd5b61610e858561604a565b92506060609f1982011215616121575f80fd5b5060405161612e81615fe7565b61613a60a085016160e2565b815260c0840135602082015260e084013561615481615e39565b6040820152919491935090915050565b5f60a08284031215616174575f80fd5b61215d838361604a565b5f67ffffffffffffffff82111561619757616197615fd3565b5060051b60200190565b5f82601f8301126161b0575f80fd5b813560206161bd8261617e565b6040516161ca828261600d565b83815260059390931b85018201928281019150868411156161e9575f80fd5b8286015b8481101561620457803583529183019183016161ed565b509695505050505050565b5f67ffffffffffffffff82111561622857616228615fd3565b50601f01601f191660200190565b5f82601f830112616245575f80fd5b81356162508161620f565b60405161625d828261600d565b828152856020848701011115616271575f80fd5b826020860160208301375f92810160200192909252509392505050565b5f805f805f60a086880312156162a2575f80fd5b85356162ad81615e39565b945060208601356162bd81615e39565b9350604086013567ffffffffffffffff808211156162d9575f80fd5b6162e589838a016161a1565b945060608801359150808211156162fa575f80fd5b61630689838a016161a1565b9350608088013591508082111561631b575f80fd5b5061632888828901616236565b9150509295509295909350565b5f8060408385031215616346575f80fd5b50508035926020909101359150565b5f8060408385031215616366575f80fd5b823567ffffffffffffffff8082111561637d575f80fd5b818501915085601f830112616390575f80fd5b8135602061639d8261617e565b6040516163aa828261600d565b83815260059390931b85018201928281019150898411156163c9575f80fd5b948201945b838610156163f05785356163e181615e39565b825294820194908201906163ce565b96505086013592505080821115616405575f80fd5b50616412858286016161a1565b9150509250929050565b5f8151808452602080850194508084015f5b8381101561644a5781518752958201959082019060010161642e565b509495945050505050565b602081525f61215d602083018461641c565b5f8082840361010081121561647a575f80fd5b616484858561604a565b92506060609f1982011215616497575f80fd5b506040516164a481615fe7565b6164b060a08501615ea7565b81526164be60c08501615ea7565b602082015260e0939093013560408401525092909150565b5f8060c083850312156164e7575f80fd5b6164f1848461604a565b915060a083013561650181615e39565b809150509250929050565b5f806040838503121561651d575f80fd5b82359150602083013561650181615e39565b5f8083601f84011261653f575f80fd5b50813567ffffffffffffffff811115616556575f80fd5b60208301915083602082850101111561656d575f80fd5b9250929050565b5f8060208385031215616585575f80fd5b823567ffffffffffffffff81111561659b575f80fd5b6165a78582860161652f565b90969095509350505050565b5f80604083850312156165c4575f80fd5b82356165cf81615e39565b91506165dd602084016160e2565b90509250929050565b5f805f60e084860312156165f8575f80fd5b616602858561604a565b9560a0850135955060c0909401359392505050565b5f8060408385031215616628575f80fd5b823561663381615e39565b9150602083013561650181615e39565b5f610120820190506001600160a01b038651168252602086015160020b602083015260ff604087015116604083015260ff606087015116606083015260ff608087015116608083015260ff60a08701511660a08301528460c08301528360e0830152615aa86101008301846001600160801b03169052565b5f8083601f8401126166cb575f80fd5b50813567ffffffffffffffff8111156166e2575f80fd5b6020830191508360208260051b850101111561656d575f80fd5b5f805f805f805f8060a0898b031215616713575f80fd5b883561671e81615e39565b9750602089013561672e81615e39565b9650604089013567ffffffffffffffff8082111561674a575f80fd5b6167568c838d016166bb565b909850965060608b013591508082111561676e575f80fd5b61677a8c838d016166bb565b909650945060808b0135915080821115616792575f80fd5b5061679f8b828c0161652f565b999c989b5096995094979396929594505050565b5f805f805f8060a087890312156167c8575f80fd5b86356167d381615e39565b955060208701356167e381615e39565b94506040870135935060608701359250608087013567ffffffffffffffff81111561680c575f80fd5b61681889828a0161652f565b979a9699509497509295939492505050565b5f805f805f60a0868803121561683e575f80fd5b853561684981615e39565b9450602086013561685981615e39565b93506040860135925060608601359150608086013567ffffffffffffffff811115616882575f80fd5b61632888828901616236565b634e487b7160e01b5f52601160045260245ffd5b81810381811115610bd857610bd861688e565b634e487b7160e01b5f52603260045260245ffd5b600181811c908216806168dd57607f821691505b602082108103611f8d57634e487b7160e01b5f52602260045260245ffd5b6001600160a01b0384168152610120810161695b60208301856001600160a01b0380825116835280602083015116602084015262ffffff6040830151166040840152606082015160020b6060840152806080830151166080840152505050565b8251151560c0830152602083015160e083015260408301516001600160a01b0316610100830152610ce2565b5f60208284031215616997575f80fd5b815161215d81615e77565b60a08101610bd882846001600160a01b0380825116835280602083015116602084015262ffffff6040830151166040840152606082015160020b6060840152806080830151166080840152505050565b5f60208284031215616a02575f80fd5b815161215d8161603a565b6001600160a01b03851681526101408101616a6d60208301866001600160a01b0380825116835280602083015116602084015262ffffff6040830151166040840152606082015160020b6060840152806080830151166080840152505050565b8351151560c0830152602084015160e083015260408401516001600160a01b03166101008301525b8261012083015295945050505050565b8082028115828204841417610bd857610bd861688e565b5f60018201616acd57616acd61688e565b5060010190565b6001600160a01b03841681526101208101616b3460208301856001600160a01b0380825116835280602083015116602084015262ffffff6040830151166040840152606082015160020b6060840152806080830151166080840152505050565b8251600290810b60c08401526020840151900b60e08301526040830151610100830152610ce2565b6001600160a01b03851681526101408101616bbc60208301866001600160a01b0380825116835280602083015116602084015262ffffff6040830151166040840152606082015160020b6060840152806080830151166080840152505050565b8351600290810b60c08401526020850151900b60e08301526040840151610100830152616a95565b6001600160a01b03848116825260e0820190616c4560208401866001600160a01b0380825116835280602083015116602084015262ffffff6040830151166040840152606082015160020b6060840152806080830151166080840152505050565b80841660c084015250949350505050565b6001600160a01b038581168252610100820190616cb860208401876001600160a01b0380825116835280602083015116602084015262ffffff6040830151166040840152606082015160020b6060840152806080830151166080840152505050565b80851660c0840152508260020b60e083015295945050505050565b5f81600f0b6f7fffffffffffffffffffffffffffffff198103616cf857616cf861688e565b5f0392915050565b83815260406020820152816040820152818360608301375f818301606090810191909152601f909201601f1916010192915050565b5f60208284031215616d45575f80fd5b815167ffffffffffffffff811115616d5b575f80fd5b8201601f81018413616d6b575f80fd5b8051616d768161620f565b604051616d83828261600d565b828152866020848601011115616d97575f80fd5b616da8836020830160208701615f59565b9695505050505050565b634e487b7160e01b5f52603160045260245ffd5b6001600160a01b03851681526101008101616e2660208301866001600160a01b0380825116835280602083015116602084015262ffffff6040830151166040840152606082015160020b6060840152806080830151166080840152505050565b60c082019390935260e0015292915050565b8082018281125f831280158216821582161715616e5757616e5761688e565b505092915050565b634e487b7160e01b5f52601260045260245ffd5b5f60ff831680616e8557616e85616e5f565b8060ff84160691505092915050565b5f8160020b627fffff198103616cf857616cf861688e565b8181035f831280158383131683831282161715616ecb57616ecb61688e565b5092915050565b80820180821115610bd857610bd861688e565b5f82616ef357616ef3616e5f565b500490565b6001600160801b03818116838216019080821115616ecb57616ecb61688e565b6001600160801b03828116828216039080821115616ecb57616ecb61688e565b805160ff8116811461358c575f80fd5b5f8060408385031215616f59575f80fd5b616f6283616f38565b91506165dd60208401616f38565b604081525f616f82604083018561641c565b8281036020840152615aa8818561641c565b600f81810b9083900b016f7fffffffffffffffffffffffffffffff81136f7fffffffffffffffffffffffffffffff1982121715610bd857610bd861688e565b5f60208284031215616fe3575f80fd5b61215d82616f38565b5f60208284031215616ffc575f80fd5b5051919050565b5f6001600160a01b03808816835280871660208401525060a0604083015261702e60a083018661641c565b8281036060840152617040818661641c565b905082810360808401526170548185615f7b565b98975050505050505050565b5f60033d11156170765760045f803e505f5160e01c5b90565b5f60443d10156170865790565b6040516003193d81016004833e81513d67ffffffffffffffff81602484011181841117156170b657505050505090565b82850191508151818111156170ce5750505050505090565b843d87010160208285010111156170e85750505050505090565b6170f76020828601018761600d565b509095945050505050565b600f82810b9082900b036f7fffffffffffffffffffffffffffffff1981126f7fffffffffffffffffffffffffffffff82131715610bd857610bd861688e565b5f6001600160801b038084168061715a5761715a616e5f565b92169190910492915050565b5f6001600160a01b03808816835280871660208401525084604083015283606083015260a06080830152615b6d60a0830184615f7b565b6001600160a01b03828116828216039080821115616ecb57616ecb61688e56fea164736f6c6343000814000a",
  "linkReferences": {},
  "deployedLinkReferences": {}
}