{
  "_format": "hh-sol-artifact-1",
  "contractName": "TimeTokenSuit",
  "sourceName": "contracts/token/HoldingTime.sol",
  "abi": [
    {
      "inputs": [
        {
          "internalType": "address",
          "name": "addr",
          "type": "address"
        }
      ],
      "name": "getVotingPower",
      "outputs": [
        {
          "internalType": "uint256",
          "name": "holdingTime",
          "type": "uint256"
        }
      ],
      "stateMutability": "view",
      "type": "function"
    },
    {
      "inputs": [
        {
          "internalType": "address",
          "name": "",
          "type": "address"
        }
      ],
      "name": "stackTop",
      "outputs": [
        {
          "internalType": "uint256",
          "name": "",
          "type": "uint256"
        }
      ],
      "stateMutability": "view",
      "type": "function"
    },
    {
      "inputs": [
        {
          "internalType": "address",
          "name": "",
          "type": "address"
        },
        {
          "internalType": "uint256",
          "name": "",
          "type": "uint256"
        }
      ],
      "name": "timeStack",
      "outputs": [
        {
          "internalType": "uint32",
          "name": "blocknumber",
          "type": "uint32"
        },
        {
          "internalType": "uint256",
          "name": "amount",
          "type": "uint256"
        }
      ],
      "stateMutability": "view",
      "type": "function"
    }
  ],
  "bytecode": "0x608060405234801561001057600080fd5b506102aa806100206000396000f3fe608060405234801561001057600080fd5b50600436106100415760003560e01c80634b8a5c16146100465780635014f6bb1461009f578063bb4d4436146100cd575b600080fd5b61007e61005436600461019d565b60016020818152600093845260408085209091529183529120805491015463ffffffff9091169082565b6040805163ffffffff90931683526020830191909152015b60405180910390f35b6100bf6100ad3660046101c7565b60006020819052908152604090205481565b604051908152602001610096565b6100bf6100db3660046101c7565b73ffffffffffffffffffffffffffffffffffffffff81166000908152602081815260408083205460019092528220825b8281101561016c576000818152602083905260409020546101329063ffffffff1643610218565b60008281526020849052604090206001015461014e9190610231565b6101589085610248565b9350806101648161025b565b91505061010b565b505050919050565b803573ffffffffffffffffffffffffffffffffffffffff8116811461019857600080fd5b919050565b600080604083850312156101b057600080fd5b6101b983610174565b946020939093013593505050565b6000602082840312156101d957600080fd5b6101e282610174565b9392505050565b7f4e487b7100000000000000000000000000000000000000000000000000000000600052601160045260246000fd5b8181038181111561022b5761022b6101e9565b92915050565b808202811582820484141761022b5761022b6101e9565b8082018082111561022b5761022b6101e9565b60006001820161026d5761026d6101e9565b506001019056fea2646970667358221220ea1476903748aefe73f52f62331db3add9e1e7630936fa1d9bd20f500b06e75b64736f6c63430008130033",
  "linkReferences": {},
  "deployedLinkReferences": {}
}