{
  "_format": "hh-sol-artifact-1",
  "contractName": "Governance",
  "sourceName": "contracts/governance/Governance.sol",
  "abi": [
    {
      "inputs": [
        {
          "internalType": "address",
          "name": "governanceStrategy",
          "type": "address"
        },
        {
          "internalType": "address",
          "name": "_review",
          "type": "address"
        },
        {
          "internalType": "address",
          "name": "_governanceToken",
          "type": "address"
        },
        {
          "internalType": "uint256",
          "name": "stakingDelay",
          "type": "uint256"
        },
        {
          "internalType": "uint256",
          "name": "stake_threshold",
          "type": "uint256"
        },
        {
          "internalType": "address[]",
          "name": "executors",
          "type": "address[]"
        }
      ],
      "stateMutability": "nonpayable",
      "type": "constructor"
    },
    {
      "anonymous": false,
      "inputs": [
        {
          "indexed": true,
          "internalType": "address",
          "name": "newStrategy",
          "type": "address"
        },
        {
          "indexed": true,
          "internalType": "address",
          "name": "initiatorChange",
          "type": "address"
        }
      ],
      "name": "GovernanceStrategyChanged",
      "type": "event"
    },
    {
      "anonymous": false,
      "inputs": [
        {
          "indexed": true,
          "internalType": "address",
          "name": "previousOwner",
          "type": "address"
        },
        {
          "indexed": true,
          "internalType": "address",
          "name": "newOwner",
          "type": "address"
        }
      ],
      "name": "OwnershipTransferred",
      "type": "event"
    },
    {
      "anonymous": false,
      "inputs": [
        {
          "indexed": false,
          "internalType": "uint256",
          "name": "id",
          "type": "uint256"
        }
      ],
      "name": "ProposalCanceled",
      "type": "event"
    },
    {
      "anonymous": false,
      "inputs": [
        {
          "indexed": false,
          "internalType": "uint256",
          "name": "id",
          "type": "uint256"
        },
        {
          "indexed": true,
          "internalType": "address",
          "name": "creator",
          "type": "address"
        },
        {
          "indexed": false,
          "internalType": "uint256",
          "name": "proposalType",
          "type": "uint256"
        },
        {
          "indexed": true,
          "internalType": "contract IExecutor",
          "name": "executor",
          "type": "address"
        },
        {
          "indexed": false,
          "internalType": "address[]",
          "name": "targets",
          "type": "address[]"
        },
        {
          "indexed": false,
          "internalType": "uint256[]",
          "name": "values",
          "type": "uint256[]"
        },
        {
          "indexed": false,
          "internalType": "string[]",
          "name": "signatures",
          "type": "string[]"
        },
        {
          "indexed": false,
          "internalType": "bytes[]",
          "name": "calldatas",
          "type": "bytes[]"
        },
        {
          "indexed": false,
          "internalType": "bool[]",
          "name": "withDelegatecalls",
          "type": "bool[]"
        },
        {
          "indexed": false,
          "internalType": "uint256",
          "name": "startBlock",
          "type": "uint256"
        },
        {
          "indexed": false,
          "internalType": "uint256",
          "name": "endBlock",
          "type": "uint256"
        },
        {
          "indexed": false,
          "internalType": "address",
          "name": "strategy",
          "type": "address"
        },
        {
          "indexed": false,
          "internalType": "bytes32",
          "name": "ipfsHash",
          "type": "bytes32"
        }
      ],
      "name": "ProposalCreated",
      "type": "event"
    },
    {
      "anonymous": false,
      "inputs": [
        {
          "indexed": false,
          "internalType": "uint256",
          "name": "id",
          "type": "uint256"
        },
        {
          "indexed": true,
          "internalType": "address",
          "name": "initiatorExecution",
          "type": "address"
        }
      ],
      "name": "ProposalExecuted",
      "type": "event"
    },
    {
      "anonymous": false,
      "inputs": [
        {
          "indexed": false,
          "internalType": "uint256",
          "name": "id",
          "type": "uint256"
        },
        {
          "indexed": false,
          "internalType": "uint256",
          "name": "executionBlock",
          "type": "uint256"
        },
        {
          "indexed": true,
          "internalType": "address",
          "name": "initiatorQueueing",
          "type": "address"
        }
      ],
      "name": "ProposalQueued",
      "type": "event"
    },
    {
      "anonymous": false,
      "inputs": [
        {
          "indexed": false,
          "internalType": "uint256",
          "name": "newStakeThreshold",
          "type": "uint256"
        },
        {
          "indexed": true,
          "internalType": "address",
          "name": "initiatorChange",
          "type": "address"
        }
      ],
      "name": "StakeThresholdChanged",
      "type": "event"
    },
    {
      "anonymous": false,
      "inputs": [
        {
          "indexed": false,
          "internalType": "uint256",
          "name": "newStakingDelay",
          "type": "uint256"
        },
        {
          "indexed": true,
          "internalType": "address",
          "name": "initiatorChange",
          "type": "address"
        }
      ],
      "name": "StakingDelayChanged",
      "type": "event"
    },
    {
      "inputs": [
        {
          "internalType": "address[]",
          "name": "executors",
          "type": "address[]"
        }
      ],
      "name": "authorizeExecutors",
      "outputs": [],
      "stateMutability": "nonpayable",
      "type": "function"
    },
    {
      "inputs": [
        {
          "internalType": "uint256",
          "name": "proposalId",
          "type": "uint256"
        }
      ],
      "name": "cancel",
      "outputs": [],
      "stateMutability": "nonpayable",
      "type": "function"
    },
    {
      "inputs": [
        {
          "internalType": "uint256",
          "name": "proposalType",
          "type": "uint256"
        },
        {
          "internalType": "contract IExecutor",
          "name": "executor",
          "type": "address"
        },
        {
          "internalType": "address[]",
          "name": "targets",
          "type": "address[]"
        },
        {
          "internalType": "uint256[]",
          "name": "values",
          "type": "uint256[]"
        },
        {
          "internalType": "string[]",
          "name": "signatures",
          "type": "string[]"
        },
        {
          "internalType": "bytes[]",
          "name": "calldatas",
          "type": "bytes[]"
        },
        {
          "internalType": "bool[]",
          "name": "withDelegatecalls",
          "type": "bool[]"
        },
        {
          "internalType": "bytes32",
          "name": "ipfsHash",
          "type": "bytes32"
        }
      ],
      "name": "create",
      "outputs": [
        {
          "internalType": "uint256",
          "name": "",
          "type": "uint256"
        }
      ],
      "stateMutability": "nonpayable",
      "type": "function"
    },
    {
      "inputs": [
        {
          "internalType": "uint256",
          "name": "proposalId",
          "type": "uint256"
        }
      ],
      "name": "createReview",
      "outputs": [],
      "stateMutability": "nonpayable",
      "type": "function"
    },
    {
      "inputs": [
        {
          "internalType": "uint256",
          "name": "proposalId",
          "type": "uint256"
        }
      ],
      "name": "deposit",
      "outputs": [],
      "stateMutability": "nonpayable",
      "type": "function"
    },
    {
      "inputs": [
        {
          "internalType": "uint256",
          "name": "proposalId",
          "type": "uint256"
        }
      ],
      "name": "execute",
      "outputs": [],
      "stateMutability": "payable",
      "type": "function"
    },
    {
      "inputs": [],
      "name": "getGovernanceStrategy",
      "outputs": [
        {
          "internalType": "address",
          "name": "",
          "type": "address"
        }
      ],
      "stateMutability": "view",
      "type": "function"
    },
    {
      "inputs": [
        {
          "internalType": "uint256",
          "name": "proposalId",
          "type": "uint256"
        }
      ],
      "name": "getProposalById",
      "outputs": [
        {
          "components": [
            {
              "internalType": "uint256",
              "name": "id",
              "type": "uint256"
            },
            {
              "internalType": "address",
              "name": "creator",
              "type": "address"
            },
            {
              "internalType": "uint256",
              "name": "proposalType",
              "type": "uint256"
            },
            {
              "internalType": "contract IExecutor",
              "name": "executor",
              "type": "address"
            },
            {
              "internalType": "address[]",
              "name": "targets",
              "type": "address[]"
            },
            {
              "internalType": "uint256[]",
              "name": "values",
              "type": "uint256[]"
            },
            {
              "internalType": "string[]",
              "name": "signatures",
              "type": "string[]"
            },
            {
              "internalType": "bytes[]",
              "name": "calldatas",
              "type": "bytes[]"
            },
            {
              "internalType": "bool[]",
              "name": "withDelegatecalls",
              "type": "bool[]"
            },
            {
              "internalType": "uint256",
              "name": "startBlock",
              "type": "uint256"
            },
            {
              "internalType": "uint256",
              "name": "endBlock",
              "type": "uint256"
            },
            {
              "internalType": "uint256",
              "name": "executionBlock",
              "type": "uint256"
            },
            {
              "internalType": "bool",
              "name": "executed",
              "type": "bool"
            },
            {
              "internalType": "bool",
              "name": "canceled",
              "type": "bool"
            },
            {
              "internalType": "bool",
              "name": "marketReview",
              "type": "bool"
            },
            {
              "internalType": "uint256",
              "name": "stakeAmount",
              "type": "uint256"
            },
            {
              "internalType": "address",
              "name": "strategy",
              "type": "address"
            },
            {
              "internalType": "bytes32",
              "name": "ipfsHash",
              "type": "bytes32"
            }
          ],
          "internalType": "struct IGovernance.ProposalInfo",
          "name": "",
          "type": "tuple"
        }
      ],
      "stateMutability": "view",
      "type": "function"
    },
    {
      "inputs": [
        {
          "internalType": "uint256",
          "name": "proposalId",
          "type": "uint256"
        }
      ],
      "name": "getProposalState",
      "outputs": [
        {
          "internalType": "enum IGovernance.ProposalState",
          "name": "",
          "type": "uint8"
        }
      ],
      "stateMutability": "view",
      "type": "function"
    },
    {
      "inputs": [],
      "name": "getProposalsCount",
      "outputs": [
        {
          "internalType": "uint256",
          "name": "",
          "type": "uint256"
        }
      ],
      "stateMutability": "view",
      "type": "function"
    },
    {
      "inputs": [
        {
          "internalType": "uint256",
          "name": "proposalId",
          "type": "uint256"
        },
        {
          "internalType": "address",
          "name": "user",
          "type": "address"
        }
      ],
      "name": "getStakeOnProposal",
      "outputs": [
        {
          "internalType": "uint256",
          "name": "",
          "type": "uint256"
        }
      ],
      "stateMutability": "view",
      "type": "function"
    },
    {
      "inputs": [],
      "name": "getStakingDelay",
      "outputs": [
        {
          "internalType": "uint256",
          "name": "",
          "type": "uint256"
        }
      ],
      "stateMutability": "view",
      "type": "function"
    },
    {
      "inputs": [],
      "name": "governanceToken",
      "outputs": [
        {
          "internalType": "contract IERC20",
          "name": "",
          "type": "address"
        }
      ],
      "stateMutability": "view",
      "type": "function"
    },
    {
      "inputs": [
        {
          "internalType": "address",
          "name": "executor",
          "type": "address"
        }
      ],
      "name": "isExecutorAuthorized",
      "outputs": [
        {
          "internalType": "bool",
          "name": "",
          "type": "bool"
        }
      ],
      "stateMutability": "view",
      "type": "function"
    },
    {
      "inputs": [],
      "name": "owner",
      "outputs": [
        {
          "internalType": "address",
          "name": "",
          "type": "address"
        }
      ],
      "stateMutability": "view",
      "type": "function"
    },
    {
      "inputs": [
        {
          "internalType": "uint256",
          "name": "proposalId",
          "type": "uint256"
        }
      ],
      "name": "prepareMarket",
      "outputs": [],
      "stateMutability": "nonpayable",
      "type": "function"
    },
    {
      "inputs": [
        {
          "internalType": "uint256",
          "name": "proposalId",
          "type": "uint256"
        }
      ],
      "name": "queue",
      "outputs": [],
      "stateMutability": "nonpayable",
      "type": "function"
    },
    {
      "inputs": [],
      "name": "renounceOwnership",
      "outputs": [],
      "stateMutability": "nonpayable",
      "type": "function"
    },
    {
      "inputs": [],
      "name": "review",
      "outputs": [
        {
          "internalType": "contract IReview",
          "name": "",
          "type": "address"
        }
      ],
      "stateMutability": "view",
      "type": "function"
    },
    {
      "inputs": [
        {
          "internalType": "address",
          "name": "governanceStrategy",
          "type": "address"
        }
      ],
      "name": "setGovernanceStrategy",
      "outputs": [],
      "stateMutability": "nonpayable",
      "type": "function"
    },
    {
      "inputs": [
        {
          "internalType": "uint256",
          "name": "StakingDelay",
          "type": "uint256"
        }
      ],
      "name": "setStakingDelay",
      "outputs": [],
      "stateMutability": "nonpayable",
      "type": "function"
    },
    {
      "inputs": [
        {
          "internalType": "uint256",
          "name": "proposalId",
          "type": "uint256"
        },
        {
          "internalType": "uint256",
          "name": "amount",
          "type": "uint256"
        }
      ],
      "name": "stakeForMarket",
      "outputs": [],
      "stateMutability": "nonpayable",
      "type": "function"
    },
    {
      "inputs": [
        {
          "internalType": "address",
          "name": "newOwner",
          "type": "address"
        }
      ],
      "name": "transferOwnership",
      "outputs": [],
      "stateMutability": "nonpayable",
      "type": "function"
    },
    {
      "inputs": [
        {
          "internalType": "address[]",
          "name": "executors",
          "type": "address[]"
        }
      ],
      "name": "unauthorizeExecutors",
      "outputs": [],
      "stateMutability": "nonpayable",
      "type": "function"
    }
  ],
  "bytecode": "0x60c06040523480156200001157600080fd5b5060405162003617380380620036178339810160408190526200003491620002b2565b6200003f336200008a565b6200004a86620000da565b620000558362000127565b6001600160a01b0380861660a0528416608052620000738262000165565b6200007e816200019d565b50505050505062000410565b600080546001600160a01b038381166001600160a01b0319831681178455604051919092169283917f8be0079c531659141344cd1fd0a4f28419497f9722a3daafe3b4186f6b6457e09190a35050565b600580546001600160a01b0319166001600160a01b0383169081179091556040513391907f9e8e9f668db69a2cefb172dabe284d0d3aea2b7ee64212a205bd033bd03a3d5590600090a350565b600481905560405181815233907f772dedeeae921593e2e8072b32b59edda207267b188dc5d6a7efd09a7a143aec906020015b60405180910390a250565b600681905560405181815233907f7da7972d5593418a0cfec3d63699d40665ceb4af13100d71d65083b1d59c460b906020016200015a565b620001a7620001fa565b60005b8151811015620001f657620001e1828281518110620001cd57620001cd620003d2565b60200260200101516200025b60201b60201c565b80620001ed81620003e8565b915050620001aa565b5050565b6000546001600160a01b03163314620002595760405162461bcd60e51b815260206004820181905260248201527f4f776e61626c653a2063616c6c6572206973206e6f7420746865206f776e6572604482015260640160405180910390fd5b565b6001600160a01b03166000908152600260205260409020805460ff19166001179055565b80516001600160a01b03811681146200029757600080fd5b919050565b634e487b7160e01b600052604160045260246000fd5b60008060008060008060c08789031215620002cc57600080fd5b620002d7876200027f565b95506020620002e88189016200027f565b9550620002f8604089016200027f565b606089015160808a015160a08b015192975090955093506001600160401b03808211156200032557600080fd5b818a0191508a601f8301126200033a57600080fd5b8151818111156200034f576200034f6200029c565b8060051b604051601f19603f830116810181811085821117156200037757620003776200029c565b60405291825284820192508381018501918d8311156200039657600080fd5b938501935b82851015620003bf57620003af856200027f565b845293850193928501926200039b565b8096505050505050509295509295509295565b634e487b7160e01b600052603260045260246000fd5b6000600182016200040957634e487b7160e01b600052601160045260246000fd5b5060010190565b60805160a0516131be6200045960003960008181610425015281816111030152818161124a01526116b10152600081816104b901528181610f28015261194501526131be6000f3fe60806040526004361061018b5760003560e01c80638da5cb5b116100d65780639d3f08f71161007f578063f2fde38b11610059578063f2fde38b14610487578063f96dae0a146104a7578063fe0d94c1146104db57600080fd5b80639d3f08f714610413578063b6b55f2514610447578063ddf0b0091461046757600080fd5b806398e527d3116100b057806398e527d3146103be5780639aad6f6a146103d35780639b690c32146103f357600080fd5b80638da5cb5b146103535780638dd2e6ae146103715780639080936f1461039157600080fd5b80634db448d41161013857806370363fdd1161011257806370363fdd146102fe578063715018a61461031e5780638bfb08e11461033357600080fd5b80634db448d414610275578063548b514e1461029557806364c786d9146102de57600080fd5b80631ae14518116101695780631ae14518146102095780633656de211461022857806340e58ee51461025557600080fd5b806301973cba1461019057806306be3e8e146101b25780631a1caf7f146101e9575b600080fd5b34801561019c57600080fd5b506101b06101ab366004612511565b6104ee565b005b3480156101be57600080fd5b506005546001600160a01b03165b6040516001600160a01b0390911681526020015b60405180910390f35b3480156101f557600080fd5b506101b061020436600461261e565b6105c9565b34801561021557600080fd5b506004545b6040519081526020016101e0565b34801561023457600080fd5b50610248610243366004612511565b610631565b6040516101e091906127a6565b34801561026157600080fd5b506101b0610270366004612511565b610a8b565b34801561028157600080fd5b5061021a61029036600461292e565b610dfc565b3480156102a157600080fd5b506102ce6102b036600461295e565b6001600160a01b031660009081526002602052604090205460ff1690565b60405190151581526020016101e0565b3480156102ea57600080fd5b506101b06102f936600461261e565b610e29565b34801561030a57600080fd5b506101b0610319366004612982565b610e90565b34801561032a57600080fd5b506101b061103d565b34801561033f57600080fd5b506101b061034e366004612511565b611051565b34801561035f57600080fd5b506000546001600160a01b03166101cc565b34801561037d57600080fd5b506101b061038c366004612511565b611065565b34801561039d57600080fd5b506103b16103ac366004612511565b61116a565b6040516101e091906129ba565b3480156103ca57600080fd5b5060035461021a565b3480156103df57600080fd5b506101b06103ee36600461295e565b6113a8565b3480156103ff57600080fd5b5061021a61040e366004612c4a565b6113b9565b34801561041f57600080fd5b506101cc7f000000000000000000000000000000000000000000000000000000000000000081565b34801561045357600080fd5b506101b0610462366004612511565b611815565b34801561047357600080fd5b506101b0610482366004612511565b6119b2565b34801561049357600080fd5b506101b06104a236600461295e565b611d14565b3480156104b357600080fd5b506101cc7f000000000000000000000000000000000000000000000000000000000000000081565b6101b06104e9366004612511565b611da1565b60006104f98261116a565b9050600081600781111561050f5761050f6129a4565b146105505760405162461bcd60e51b815260206004820152600c60248201526b4f4e4c595f5354414b494e4760a01b60448201526064015b60405180910390fd5b6000828152600160205260409020600654600d820154116105b35760405162461bcd60e51b815260206004820152601060248201527f5354414b455f4e4f545f454e4f554748000000000000000000000000000000006044820152606401610547565b600c01805462ff00001916620100001790555050565b6105d1611fec565b60005b815181101561062d5761061b8282815181106105f2576105f2612d40565b60200260200101516001600160a01b03166000908152600260205260409020805460ff19169055565b8061062581612d6c565b9150506105d4565b5050565b6106e36040518061024001604052806000815260200160006001600160a01b031681526020016000815260200160006001600160a01b0316815260200160608152602001606081526020016060815260200160608152602001606081526020016000815260200160008152602001600081526020016000151581526020016000151581526020016000151581526020016000815260200160006001600160a01b03168152602001600080191681525090565b600082815260016020818152604080842081516102408101835281548152938101546001600160a01b03908116858501526002820154858401526003820154166060850152600481018054835181860281018601909452808452919594936080850193929083018282801561078157602002820191906000526020600020905b81546001600160a01b03168152600190910190602001808311610763575b50505050508152602001836005018054806020026020016040519081016040528092919081815260200182805480156107d957602002820191906000526020600020905b8154815260200190600101908083116107c5575b5050505050815260200183600601805480602002602001604051908101604052809291908181526020016000905b828210156108b357838290600052602060002001805461082690612d85565b80601f016020809104026020016040519081016040528092919081815260200182805461085290612d85565b801561089f5780601f106108745761010080835404028352916020019161089f565b820191906000526020600020905b81548152906001019060200180831161088257829003601f168201915b505050505081526020019060010190610807565b50505050815260200183600701805480602002602001604051908101604052809291908181526020016000905b8282101561098c5783829060005260206000200180546108ff90612d85565b80601f016020809104026020016040519081016040528092919081815260200182805461092b90612d85565b80156109785780601f1061094d57610100808354040283529160200191610978565b820191906000526020600020905b81548152906001019060200180831161095b57829003601f168201915b5050505050815260200190600101906108e0565b50505050815260200183600801805480602002602001604051908101604052809291908181526020018280548015610a0357602002820191906000526020600020906000905b825461010083900a900460ff1615158152602060019283018181049485019490930390920291018084116109d25790505b505050918352505060098401546020820152600a8401546040820152600b8401546060820152600c84015460ff808216151560808401526101008083048216151560a08501526201000090920416151560c0830152600d85015460e0830152600e8501546001600160a01b031690820152600f90930154610120909301929092525092915050565b6000610a968261116a565b90506006816007811115610aac57610aac6129a4565b14158015610acc57506001816007811115610ac957610ac96129a4565b14155b8015610aea57506005816007811115610ae757610ae76129a4565b14155b610b365760405162461bcd60e51b815260206004820152601460248201527f4f4e4c595f4245464f52455f45584543555445440000000000000000000000006044820152606401610547565b600082815260016020819052604090912060038101548183015491926001600160a01b03918216926331a7bc41923092911690610b739043612db9565b6040517fffffffff0000000000000000000000000000000000000000000000000000000060e086901b1681526001600160a01b0393841660048201529290911660248301526044820152606401602060405180830381865afa158015610bdd573d6000803e3d6000fd5b505050506040513d601f19601f82011682018060405250810190610c019190612dcc565b610c4d5760405162461bcd60e51b815260206004820181905260248201527f50524f504f534954494f4e5f43414e43454c4c4154494f4e5f494e56414c49446044820152606401610547565b600c8101805461ff00191661010017905560005b6004820154811015610dc35760038201546004830180546001600160a01b0390921691631dc40b51919084908110610c9b57610c9b612d40565b6000918252602090912001546005850180546001600160a01b039092169185908110610cc957610cc9612d40565b9060005260206000200154856006018581548110610ce957610ce9612d40565b90600052602060002001866007018681548110610d0857610d08612d40565b9060005260206000200187600b0154886008018881548110610d2c57610d2c612d40565b90600052602060002090602091828204019190069054906101000a900460ff166040518763ffffffff1660e01b8152600401610d6d96959493929190612e66565b6020604051808303816000875af1158015610d8c573d6000803e3d6000fd5b505050506040513d601f19601f82011682018060405250810190610db09190612ebb565b5080610dbb81612d6c565b915050610c61565b506040518381527f789cf55be980739dad1d0699b93b58e806b51c9d96619bfa8fe0a28abaa7b30c9060200160405180910390a1505050565b60008281526001602090815260408083206001600160a01b03851684526010019091529020545b92915050565b610e31611fec565b60005b815181101561062d57610e7e828281518110610e5257610e52612d40565b60200260200101516001600160a01b03166000908152600260205260409020805460ff19166001179055565b80610e8881612d6c565b915050610e34565b6000610e9b8361116a565b90506000816007811115610eb157610eb16129a4565b14610eed5760405162461bcd60e51b815260206004820152600c60248201526b4f4e4c595f5354414b494e4760a01b6044820152606401610547565b6040517f23b872dd000000000000000000000000000000000000000000000000000000008152336004820152306024820152604481018390527f00000000000000000000000000000000000000000000000000000000000000006001600160a01b0316906323b872dd906064016020604051808303816000875af1158015610f79573d6000803e3d6000fd5b505050506040513d601f19601f82011682018060405250810190610f9d9190612dcc565b610fe95760405162461bcd60e51b815260206004820152601f60248201527f474f5645524e41434e45544f4b454e5f5452414e534645525f4641494c4544006044820152606401610547565b6000838152600160205260408120600d810180549192859261100c908490612ed4565b909155505033600090815260108201602052604081208054859290611032908490612ed4565b909155505050505050565b611045611fec565b61104f6000612046565b565b611059611fec565b61106281612096565b50565b60026110708261116a565b6007811115611081576110816129a4565b146110ce5760405162461bcd60e51b815260206004820152600d60248201527f5245564945575f434c4f534544000000000000000000000000000000000000006044820152606401610547565b6040517f59728392000000000000000000000000000000000000000000000000000000008152306004820152602481018290527f00000000000000000000000000000000000000000000000000000000000000006001600160a01b031690635972839290604401600060405180830381600087803b15801561114f57600080fd5b505af1158015611163573d6000803e3d6000fd5b5050505050565b60008160035410156111be5760405162461bcd60e51b815260206004820152601360248201527f494e56414c49445f50524f504f53414c5f4944000000000000000000000000006044820152606401610547565b6000828152600160205260409020600c810154610100900460ff16156111e75750600192915050565b806009015443116111fb5750600092915050565b80600a0154431161120f5750600292915050565b60038101546040517f02f725f00000000000000000000000000000000000000000000000000000000081523060048201526001600160a01b037f00000000000000000000000000000000000000000000000000000000000000008116602483015260448201869052909116906302f725f090606401602060405180830381865afa1580156112a1573d6000803e3d6000fd5b505050506040513d601f19601f820116820180604052508101906112c59190612dcc565b6112d25750600392915050565b80600b01546000036112e75750600492915050565b600c81015460ff16156112fd5750600692915050565b60038101546040517ff670a5f9000000000000000000000000000000000000000000000000000000008152306004820152602481018590526001600160a01b039091169063f670a5f990604401602060405180830381865afa158015611367573d6000803e3d6000fd5b505050506040513d601f19601f8201168201806040525081019061138b9190612dcc565b156113995750600592915050565b50600792915050565b50919050565b6113b0611fec565b611062816120d3565b6000865160000361140c5760405162461bcd60e51b815260206004820152601560248201527f494e56414c49445f454d5054595f5441524745545300000000000000000000006044820152606401610547565b8551875114801561141e575084518751145b801561142b575083518751145b8015611438575082518751145b6114845760405162461bcd60e51b815260206004820152601a60248201527f494e434f4e53495354454e545f504152414d535f4c454e4754480000000000006044820152606401610547565b6001600160a01b03881660009081526002602052604090205460ff166114ec5760405162461bcd60e51b815260206004820152601760248201527f4558454355544f525f4e4f545f415554484f52495a45440000000000000000006044820152606401610547565b6001600160a01b03881663d0d902983033611508600143612db9565b6040517fffffffff0000000000000000000000000000000000000000000000000000000060e086901b1681526001600160a01b0393841660048201529290911660248301526044820152606401602060405180830381865afa158015611572573d6000803e3d6000fd5b505050506040513d601f19601f820116820180604052508101906115969190612dcc565b6115e25760405162461bcd60e51b815260206004820152601c60248201527f50524f504f534954494f4e5f4352454154494f4e5f494e56414c4944000000006044820152606401610547565b600380546000818152600160208181526040909220928355600283018d905582018054336001600160a01b03199182161790915592820180549093166001600160a01b038c1617909255885190916116419160048401918b01906122a8565b50865161165790600583019060208a019061230d565b50855161166d9060068301906020890190612348565b508451611683906007830190602088019061239a565b50835161169990600883019060208701906123ec565b506004546116a79043612ed4565b81600901819055507f00000000000000000000000000000000000000000000000000000000000000006001600160a01b0316635d73bb116040518163ffffffff1660e01b8152600401602060405180830381865afa15801561170d573d6000803e3d6000fd5b505050506040513d601f19601f820116820180604052508101906117319190612ebb565b81600901546117409190612ed4565b600a820155600554600e820180546001600160a01b0319166001600160a01b03909216919091179055600f81018390556003805490600061178083612d6c565b9190505550886001600160a01b0316336001600160a01b03167f73852a98777da79d52dfa189e36d7bc6cf04af60c2997c9cd3588f842a09a64883600001548d8c8c8c8c8c8a600901548b600a01548c600e0160009054906101000a90046001600160a01b03168f6040516117ff9b9a99989796959493929190612ee7565b60405180910390a3549998505050505050505050565b60006118208261116a565b90506000816007811115611836576118366129a4565b036118835760405162461bcd60e51b815260206004820152601060248201527f50524f504f53414c5f5354414b494e47000000000000000000000000000000006044820152606401610547565b60008281526001602090815260408083203384526010810190925282205490918190036118f25760405162461bcd60e51b815260206004820152600a60248201527f5a45524f5f5354414b45000000000000000000000000000000000000000000006044820152606401610547565b33600081815260108401602052604080822091909155517fa9059cbb0000000000000000000000000000000000000000000000000000000081526004810191909152602481018290526001600160a01b037f0000000000000000000000000000000000000000000000000000000000000000169063a9059cbb906044016020604051808303816000875af115801561198e573d6000803e3d6000fd5b505050506040513d601f19601f820116820180604052508101906111639190612dcc565b60046119bd8261116a565b60078111156119ce576119ce6129a4565b14611a1b5760405162461bcd60e51b815260206004820152601760248201527f494e56414c49445f53544154455f464f525f51554555450000000000000000006044820152606401610547565b6000818152600160209081526040808320600381015482517fcebc9a8200000000000000000000000000000000000000000000000000000000815292519194936001600160a01b039091169263cebc9a8292600480830193928290030181865afa158015611a8d573d6000803e3d6000fd5b505050506040513d601f19601f82011682018060405250810190611ab19190612ebb565b611abb9043612ed4565b905060005b6004830154811015611ccc576003830154600484018054611cba926001600160a01b0316919084908110611af657611af6612d40565b6000918252602090912001546005860180546001600160a01b039092169185908110611b2457611b24612d40565b9060005260206000200154866006018581548110611b4457611b44612d40565b906000526020600020018054611b5990612d85565b80601f0160208091040260200160405190810160405280929190818152602001828054611b8590612d85565b8015611bd25780601f10611ba757610100808354040283529160200191611bd2565b820191906000526020600020905b815481529060010190602001808311611bb557829003601f168201915b5050505050876007018681548110611bec57611bec612d40565b906000526020600020018054611c0190612d85565b80601f0160208091040260200160405190810160405280929190818152602001828054611c2d90612d85565b8015611c7a5780601f10611c4f57610100808354040283529160200191611c7a565b820191906000526020600020905b815481529060010190602001808311611c5d57829003601f168201915b505050505087896008018881548110611c9557611c95612d40565b90600052602060002090602091828204019190069054906101000a900460ff16612120565b80611cc481612d6c565b915050611ac0565b50600b8201819055604080518481526020810183905233917f11a0b38e70585e4b09b794bd1d9f9b1a51a802eb8ee2101eeee178d0349e73fe910160405180910390a2505050565b611d1c611fec565b6001600160a01b038116611d985760405162461bcd60e51b815260206004820152602660248201527f4f776e61626c653a206e6577206f776e657220697320746865207a65726f206160448201527f64647265737300000000000000000000000000000000000000000000000000006064820152608401610547565b61106281612046565b6007611dac8261116a565b6007811115611dbd57611dbd6129a4565b14611e0a5760405162461bcd60e51b815260206004820152601560248201527f4f4e4c595f5155455545445f50524f504f53414c5300000000000000000000006044820152606401610547565b60008181526001602081905260408220600c8101805460ff1916909217909155905b6004820154811015611fb25760038201546005830180546001600160a01b0390921691638902ab65919084908110611e6657611e66612d40565b9060005260206000200154846004018481548110611e8657611e86612d40565b6000918252602090912001546005860180546001600160a01b039092169186908110611eb457611eb4612d40565b9060005260206000200154866006018681548110611ed457611ed4612d40565b90600052602060002001876007018781548110611ef357611ef3612d40565b9060005260206000200188600b0154896008018981548110611f1757611f17612d40565b90600052602060002090602091828204019190069054906101000a900460ff166040518863ffffffff1660e01b8152600401611f5896959493929190612e66565b60006040518083038185885af1158015611f76573d6000803e3d6000fd5b50505050506040513d6000823e601f3d908101601f19168201604052611f9f9190810190612fc8565b5080611faa81612d6c565b915050611e2c565b5060405182815233907f9c85b616f29fca57a17eafe71cf9ff82ffef41766e2cf01ea7f8f7878dd3ec249060200160405180910390a25050565b6000546001600160a01b0316331461104f5760405162461bcd60e51b815260206004820181905260248201527f4f776e61626c653a2063616c6c6572206973206e6f7420746865206f776e65726044820152606401610547565b600080546001600160a01b038381166001600160a01b0319831681178455604051919092169283917f8be0079c531659141344cd1fd0a4f28419497f9722a3daafe3b4186f6b6457e09190a35050565b600481905560405181815233907f772dedeeae921593e2e8072b32b59edda207267b188dc5d6a7efd09a7a143aec9060200160405180910390a250565b600580546001600160a01b0319166001600160a01b0383169081179091556040513391907f9e8e9f668db69a2cefb172dabe284d0d3aea2b7ee64212a205bd033bd03a3d5590600090a350565b866001600160a01b031663b1fc879687878787878760405160200161214a9695949392919061303f565b604051602081830303815290604052805190602001206040518263ffffffff1660e01b815260040161217e91815260200190565b602060405180830381865afa15801561219b573d6000803e3d6000fd5b505050506040513d601f19601f820116820180604052508101906121bf9190612dcc565b1561220c5760405162461bcd60e51b815260206004820152601160248201527f4455504c4943415445445f414354494f4e0000000000000000000000000000006044820152606401610547565b6040517f8d8fe2e30000000000000000000000000000000000000000000000000000000081526001600160a01b03881690638d8fe2e39061225b9089908990899089908990899060040161303f565b6020604051808303816000875af115801561227a573d6000803e3d6000fd5b505050506040513d601f19601f8201168201806040525081019061229e9190612ebb565b5050505050505050565b8280548282559060005260206000209081019282156122fd579160200282015b828111156122fd57825182546001600160a01b0319166001600160a01b039091161782556020909201916001909101906122c8565b50612309929150612488565b5090565b8280548282559060005260206000209081019282156122fd579160200282015b828111156122fd57825182559160200191906001019061232d565b82805482825590600052602060002090810192821561238e579160200282015b8281111561238e578251829061237e90826130c8565b5091602001919060010190612368565b5061230992915061249d565b8280548282559060005260206000209081019282156123e0579160200282015b828111156123e057825182906123d090826130c8565b50916020019190600101906123ba565b506123099291506124ba565b82805482825590600052602060002090601f016020900481019282156122fd5791602002820160005b8382111561245257835183826101000a81548160ff0219169083151502179055509260200192600101602081600001049283019260010302612415565b801561247f5782816101000a81549060ff0219169055600101602081600001049283019260010302612452565b50506123099291505b5b808211156123095760008155600101612489565b808211156123095760006124b182826124d7565b5060010161249d565b808211156123095760006124ce82826124d7565b506001016124ba565b5080546124e390612d85565b6000825580601f106124f3575050565b601f0160209004906000526020600020908101906110629190612488565b60006020828403121561252357600080fd5b5035919050565b634e487b7160e01b600052604160045260246000fd5b604051601f8201601f1916810167ffffffffffffffff811182821017156125695761256961252a565b604052919050565b600067ffffffffffffffff82111561258b5761258b61252a565b5060051b60200190565b6001600160a01b038116811461106257600080fd5b600082601f8301126125bb57600080fd5b813560206125d06125cb83612571565b612540565b82815260059290921b840181019181810190868411156125ef57600080fd5b8286015b8481101561261357803561260681612595565b83529183019183016125f3565b509695505050505050565b60006020828403121561263057600080fd5b813567ffffffffffffffff81111561264757600080fd5b612653848285016125aa565b949350505050565b600081518084526020808501945080840160005b838110156126945781516001600160a01b03168752958201959082019060010161266f565b509495945050505050565b600081518084526020808501945080840160005b83811015612694578151875295820195908201906001016126b3565b60005b838110156126ea5781810151838201526020016126d2565b50506000910152565b6000815180845261270b8160208601602086016126cf565b601f01601f19169290920160200192915050565b600081518084526020808501808196508360051b8101915082860160005b858110156127675782840389526127558483516126f3565b9885019893509084019060010161273d565b5091979650505050505050565b600081518084526020808501945080840160005b83811015612694578151151587529582019590820190600101612788565b6020815281516020820152600060208301516127cd60408401826001600160a01b03169052565b506040830151606083015260608301516127f260808401826001600160a01b03169052565b5060808301516102408060a085015261280f61026085018361265b565b915060a0850151601f19808685030160c087015261282d848361269f565b935060c08701519150808685030160e087015261284a848361271f565b935060e08701519150610100818786030181880152612869858461271f565b9450808801519250506101208187860301818801526128888584612774565b9088015161014088810191909152880151610160808901919091528801516101808089019190915288015190945091506101a090506128ca8187018315159052565b86015190506101c06128df8682018315159052565b86015190506101e06128f48682018315159052565b86015161020086810191909152860151905061022061291d818701836001600160a01b03169052565b959095015193019290925250919050565b6000806040838503121561294157600080fd5b82359150602083013561295381612595565b809150509250929050565b60006020828403121561297057600080fd5b813561297b81612595565b9392505050565b6000806040838503121561299557600080fd5b50508035926020909101359150565b634e487b7160e01b600052602160045260246000fd5b60208101600883106129dc57634e487b7160e01b600052602160045260246000fd5b91905290565b80356129ed81612595565b919050565b600082601f830112612a0357600080fd5b81356020612a136125cb83612571565b82815260059290921b84018101918181019086841115612a3257600080fd5b8286015b848110156126135780358352918301918301612a36565b600067ffffffffffffffff821115612a6757612a6761252a565b50601f01601f191660200190565b6000612a836125cb84612a4d565b9050828152838383011115612a9757600080fd5b828260208301376000602084830101529392505050565b600082601f830112612abf57600080fd5b81356020612acf6125cb83612571565b82815260059290921b84018101918181019086841115612aee57600080fd5b8286015b8481101561261357803567ffffffffffffffff811115612b125760008081fd5b8701603f81018913612b245760008081fd5b612b35898683013560408401612a75565b845250918301918301612af2565b600082601f830112612b5457600080fd5b81356020612b646125cb83612571565b82815260059290921b84018101918181019086841115612b8357600080fd5b8286015b8481101561261357803567ffffffffffffffff811115612ba75760008081fd5b8701603f81018913612bb95760008081fd5b612bca898683013560408401612a75565b845250918301918301612b87565b801515811461106257600080fd5b600082601f830112612bf757600080fd5b81356020612c076125cb83612571565b82815260059290921b84018101918181019086841115612c2657600080fd5b8286015b84811015612613578035612c3d81612bd8565b8352918301918301612c2a565b600080600080600080600080610100898b031215612c6757600080fd5b88359750612c7760208a016129e2565b9650604089013567ffffffffffffffff80821115612c9457600080fd5b612ca08c838d016125aa565b975060608b0135915080821115612cb657600080fd5b612cc28c838d016129f2565b965060808b0135915080821115612cd857600080fd5b612ce48c838d01612aae565b955060a08b0135915080821115612cfa57600080fd5b612d068c838d01612b43565b945060c08b0135915080821115612d1c57600080fd5b50612d298b828c01612be6565b92505060e089013590509295985092959890939650565b634e487b7160e01b600052603260045260246000fd5b634e487b7160e01b600052601160045260246000fd5b600060018201612d7e57612d7e612d56565b5060010190565b600181811c90821680612d9957607f821691505b6020821081036113a257634e487b7160e01b600052602260045260246000fd5b81810381811115610e2357610e23612d56565b600060208284031215612dde57600080fd5b815161297b81612bd8565b60008154612df681612d85565b808552602060018381168015612e135760018114612e2d57612e5b565b60ff1985168884015283151560051b880183019550612e5b565b866000528260002060005b85811015612e535781548a8201860152908301908401612e38565b890184019650505b505050505092915050565b6001600160a01b038716815285602082015260c060408201526000612e8e60c0830187612de9565b8281036060840152612ea08187612de9565b6080840195909552505090151560a090910152949350505050565b600060208284031215612ecd57600080fd5b5051919050565b80820180821115610e2357610e23612d56565b8b815260208082018c9052610160604083018190528b519083018190526000916101808401918d82019190845b81811015612f395783516001600160a01b031685529382019392820192600101612f14565b505050508281036060840152612f4f818c61269f565b90508281036080840152612f63818b61271f565b905082810360a0840152612f77818a61271f565b905082810360c0840152612f8b8189612774565b9150508560e083015284610100830152612fb16101208301856001600160a01b03169052565b826101408301529c9b505050505050505050505050565b600060208284031215612fda57600080fd5b815167ffffffffffffffff811115612ff157600080fd5b8201601f8101841361300257600080fd5b80516130106125cb82612a4d565b81815285602083850101111561302557600080fd5b6130368260208301602086016126cf565b95945050505050565b6001600160a01b038716815285602082015260c06040820152600061306760c08301876126f3565b8281036060840152612ea081876126f3565b601f8211156130c357600081815260208120601f850160051c810160208610156130a05750805b601f850160051c820191505b818110156130bf578281556001016130ac565b5050505b505050565b815167ffffffffffffffff8111156130e2576130e261252a565b6130f6816130f08454612d85565b84613079565b602080601f83116001811461312b57600084156131135750858301515b600019600386901b1c1916600185901b1785556130bf565b600085815260208120601f198616915b8281101561315a5788860151825594840194600190910190840161313b565b50858210156131785787850151600019600388901b60f8161c191681555b5050505050600190811b0190555056fea264697066735822122049e0a20271fd4b051053cff1b8e0c15927299a59d24fc48baf16e06d23817c3564736f6c63430008130033",
  "linkReferences": {},
  "deployedLinkReferences": {}
}