{
  "_format": "hh-sol-artifact-1",
  "contractName": "EthVault",
  "sourceName": "contracts/src/vaults/EthVault.sol",
  "abi": [
    {
      "inputs": [
        {
          "internalType": "contract PlasmaFramework",
          "name": "_framework",
          "type": "address"
        },
        {
          "internalType": "uint256",
          "name": "_safeGasStipend",
          "type": "uint256"
        }
      ],
      "stateMutability": "nonpayable",
      "type": "constructor"
    },
    {
      "anonymous": false,
      "inputs": [
        {
          "indexed": true,
          "internalType": "address",
          "name": "depositor",
          "type": "address"
        },
        {
          "indexed": true,
          "internalType": "address",
          "name": "receiver",
          "type": "address"
        },
        {
          "indexed": true,
          "internalType": "address",
          "name": "token",
          "type": "address"
        },
        {
          "indexed": false,
          "internalType": "uint256",
          "name": "amount",
          "type": "uint256"
        }
      ],
      "name": "DepositCreated",
      "type": "event"
    },
    {
      "anonymous": false,
      "inputs": [
        {
          "indexed": true,
          "internalType": "address",
          "name": "receiver",
          "type": "address"
        },
        {
          "indexed": false,
          "internalType": "uint256",
          "name": "amount",
          "type": "uint256"
        }
      ],
      "name": "EthWithdrawn",
      "type": "event"
    },
    {
      "anonymous": false,
      "inputs": [
        {
          "indexed": false,
          "internalType": "address",
          "name": "nextDepositVerifier",
          "type": "address"
        }
      ],
      "name": "SetDepositVerifierCalled",
      "type": "event"
    },
    {
      "anonymous": false,
      "inputs": [
        {
          "indexed": true,
          "internalType": "address",
          "name": "receiver",
          "type": "address"
        },
        {
          "indexed": false,
          "internalType": "uint256",
          "name": "amount",
          "type": "uint256"
        }
      ],
      "name": "WithdrawFailed",
      "type": "event"
    },
    {
      "inputs": [
        {
          "internalType": "bytes",
          "name": "_txInput",
          "type": "bytes"
        }
      ],
      "name": "deposit",
      "outputs": [],
      "stateMutability": "payable",
      "type": "function"
    },
    {
      "inputs": [
        {
          "internalType": "uint256",
          "name": "",
          "type": "uint256"
        }
      ],
      "name": "depositVerifiers",
      "outputs": [
        {
          "internalType": "address",
          "name": "",
          "type": "address"
        }
      ],
      "stateMutability": "view",
      "type": "function"
    },
    {
      "inputs": [],
      "name": "getEffectiveDepositVerifier",
      "outputs": [
        {
          "internalType": "address",
          "name": "",
          "type": "address"
        }
      ],
      "stateMutability": "view",
      "type": "function"
    },
    {
      "inputs": [],
      "name": "newDepositVerifierMaturityTimestamp",
      "outputs": [
        {
          "internalType": "uint256",
          "name": "",
          "type": "uint256"
        }
      ],
      "stateMutability": "view",
      "type": "function"
    },
    {
      "inputs": [],
      "name": "safeGasStipend",
      "outputs": [
        {
          "internalType": "uint256",
          "name": "",
          "type": "uint256"
        }
      ],
      "stateMutability": "view",
      "type": "function"
    },
    {
      "inputs": [
        {
          "internalType": "address",
          "name": "_verifier",
          "type": "address"
        }
      ],
      "name": "setDepositVerifier",
      "outputs": [],
      "stateMutability": "nonpayable",
      "type": "function"
    },
    {
      "inputs": [
        {
          "internalType": "address payable",
          "name": "receiver",
          "type": "address"
        },
        {
          "internalType": "uint256",
          "name": "amount",
          "type": "uint256"
        }
      ],
      "name": "withdraw",
      "outputs": [],
      "stateMutability": "nonpayable",
      "type": "function"
    }
  ],
  "bytecode": "0x6080604052600160ff1b60035534801561001857600080fd5b506040516109c43803806109c483398101604081905261003791610060565b600080546001600160a01b0319166001600160a01b03939093169290921790915560045561009a565b6000806040838503121561007357600080fd5b82516001600160a01b038116811461008a57600080fd5b6020939093015192949293505050565b61091b806100a96000396000f3fe6080604052600436106100705760003560e01c806398b1e06a1161004e57806398b1e06a146100e9578063a7e5994f146100fc578063ccbd217614610120578063f3fef3a31461013657600080fd5b806302e9b07b146100755780632c6ce78b146100b257806352518b7f146100d4575b600080fd5b34801561008157600080fd5b50610095610090366004610704565b610156565b6040516001600160a01b0390911681526020015b60405180910390f35b3480156100be57600080fd5b506100d26100cd366004610735565b610176565b005b3480156100e057600080fd5b506100956103da565b6100d26100f7366004610759565b610403565b34801561010857600080fd5b5061011260035481565b6040519081526020016100a9565b34801561012c57600080fd5b5061011260045481565b34801561014257600080fd5b506100d26101513660046107cb565b61052b565b6001816002811061016657600080fd5b01546001600160a01b0316905081565b60008054906101000a90046001600160a01b03166001600160a01b0316634b0a72bc6040518163ffffffff1660e01b8152600401602060405180830381865afa1580156101c7573d6000803e3d6000fd5b505050506040513d601f19601f820116820180604052508101906101eb91906107f7565b336001600160a01b038216146102485760405162461bcd60e51b815260206004820152601e60248201527f43616c6c6572206164647265737320697320756e617574686f72697a6564000060448201526064015b60405180910390fd5b6001600160a01b0382166102b65760405162461bcd60e51b815260206004820152602f60248201527f43616e6e6f742073657420616e20656d7074792061646472657373206173206460448201526e32b837b9b4ba103b32b934b334b2b960891b606482015260840161023f565b6001546001600160a01b03161561037e576102cf6103da565b600180546001600160a01b03199081166001600160a01b0393841617909155600280549091168483161790556000546040805163d4a2b4ef60e01b81529051919092169163d4a2b4ef9160048083019260209291908290030181865afa15801561033d573d6000803e3d6000fd5b505050506040513d601f19601f820116820180604052508101906103619190610814565b61036c906002610843565b6103769042610862565b60035561039a565b600180546001600160a01b0319166001600160a01b0384161790555b6040516001600160a01b03831681527f11e5a7570e0de4b31179f8c9cf5e8a1e6cfd23731ec7a5a06e3006d71dd321fd9060200160405180910390a15050565b60006003544210156103fb57600160005b01546001600160a01b0316919050565b6001806103eb565b600061040d6103da565b90506001600160a01b03811661046f5760405162461bcd60e51b815260206004820152602160248201527f4465706f73697420766572696669657220686173206e6f74206265656e2073656044820152601d60fa1b606482015260840161023f565b600061047d83850185610735565b60405163aee150c760e01b81529091506001600160a01b0383169063aee150c7906104b290879087903490339060040161087a565b60006040518083038186803b1580156104ca57600080fd5b505afa1580156104de573d6000803e3d6000fd5b5050604051348152600092506001600160a01b038416915033907f60a06e513f2af9831be44238214db7d8ab72b0081e112a0895924a58079a10159060200160405180910390a450505050565b600054604051632d0816d760e11b81523360048201526001600160a01b0390911690635a102dae90602401602060405180830381865afa158015610573573d6000803e3d6000fd5b505050506040513d601f19601f8201168201806040525081019061059791906108c3565b6106095760405162461bcd60e51b815260206004820152603e60248201527f43616c6c65642066726f6d2061206e6f6e2d72656769737465726564206f722060448201527f71756172616e74696e656420657869742067616d6520636f6e74726163740000606482015260840161023f565b600061061883836004546106a3565b9050801561066857826001600160a01b03167f8455ae6be5d92f1df1c3c1484388e247a36c7e60d72055ae216dbc258f257d4b8360405161065b91815260200190565b60405180910390a2505050565b826001600160a01b03167fa2269912b47133fae1d7f448c9284ea248951ac29b8c7c41d301f8721a38d10d8360405161065b91815260200190565b600080846001600160a01b03168385604051600060405180830381858888f193505050503d80600081146106f3576040519150601f19603f3d011682016040523d82523d6000602084013e6106f8565b606091505b50909695505050505050565b60006020828403121561071657600080fd5b5035919050565b6001600160a01b038116811461073257600080fd5b50565b60006020828403121561074757600080fd5b81356107528161071d565b9392505050565b6000806020838503121561076c57600080fd5b823567ffffffffffffffff8082111561078457600080fd5b818501915085601f83011261079857600080fd5b8135818111156107a757600080fd5b8660208285010111156107b957600080fd5b60209290920196919550909350505050565b600080604083850312156107de57600080fd5b82356107e98161071d565b946020939093013593505050565b60006020828403121561080957600080fd5b81516107528161071d565b60006020828403121561082657600080fd5b5051919050565b634e487b7160e01b600052601160045260246000fd5b600081600019048311821515161561085d5761085d61082d565b500290565b600082198211156108755761087561082d565b500190565b60608152836060820152838560808301376000608085830181019190915260208201939093526001600160a01b03919091166040820152601f909201601f191690910101919050565b6000602082840312156108d557600080fd5b8151801515811461075257600080fdfea2646970667358221220626eeed544a56d6ee5f4186bce2726f527972a72a64d2d07b006010e2736fa8564736f6c634300080a0033",
  "linkReferences": {},
  "deployedLinkReferences": {}
}