{
  "_format": "hh-sol-artifact-1",
  "contractName": "VoteFactory",
  "sourceName": "contracts/factory/VoteFactory.sol",
  "abi": [
    {
      "inputs": [],
      "stateMutability": "nonpayable",
      "type": "constructor"
    },
    {
      "inputs": [
        {
          "internalType": "address",
          "name": "governance",
          "type": "address"
        },
        {
          "internalType": "uint256",
          "name": "proposalId",
          "type": "uint256"
        }
      ],
      "name": "createTimeTokenVote",
      "outputs": [
        {
          "internalType": "address",
          "name": "ret",
          "type": "address"
        }
      ],
      "stateMutability": "nonpayable",
      "type": "function"
    },
    {
      "inputs": [
        {
          "internalType": "address",
          "name": "governance",
          "type": "address"
        },
        {
          "internalType": "uint256",
          "name": "proposalId",
          "type": "uint256"
        }
      ],
      "name": "createVote",
      "outputs": [
        {
          "internalType": "address",
          "name": "",
          "type": "address"
        }
      ],
      "stateMutability": "nonpayable",
      "type": "function"
    },
    {
      "inputs": [
        {
          "internalType": "address",
          "name": "governance",
          "type": "address"
        },
        {
          "internalType": "uint256",
          "name": "proposalId",
          "type": "uint256"
        }
      ],
      "name": "getContractAddress",
      "outputs": [
        {
          "internalType": "address",
          "name": "",
          "type": "address"
        }
      ],
      "stateMutability": "view",
      "type": "function"
    },
    {
      "inputs": [],
      "name": "timeTokenVoteImplementation",
      "outputs": [
        {
          "internalType": "contract TimeTokenVote",
          "name": "",
          "type": "address"
        }
      ],
      "stateMutability": "view",
      "type": "function"
    }
  ],
  "bytecode": "0x60a060405234801561001057600080fd5b5060405161001d9061004b565b604051809103906000f080158015610039573d6000803e3d6000fd5b506001600160a01b0316608052610058565b610ba88061096983390190565b6080516108e961008060003960008181608501528181610113015261020b01526108e96000f3fe608060405234801561001057600080fd5b506004361061004c5760003560e01c80633d97c0ca146100515780634a84d9b114610080578063794667b8146100a7578063b12d96f7146100ba575b600080fd5b61006461005f3660046102f7565b6100cd565b6040516001600160a01b03909116815260200160405180910390f35b6100647f000000000000000000000000000000000000000000000000000000000000000081565b6100646100b53660046102f7565b6101c6565b6100646100c83660046102f7565b6102ac565b60006101bd8260001b604051806020016100e6906102ea565b601f1982820381018352601f9091011660408190526001600160a01b0387166024820152604481018690527f00000000000000000000000000000000000000000000000000000000000000009060640160408051601f19818403018152918152602080830180517bffffffffffffffffffffffffffffffffffffffffffffffffffffffff1663cd6dc68760e01b179052905161018493929101610353565b60408051601f19818403018152908290526101a29291602001610396565b604051602081830303815290604052805190602001206102b8565b90505b92915050565b6000806101d384846100cd565b90506001600160a01b0381163b80156101ee575090506101c0565b6040516001600160a01b03861660248201526044810185905284907f00000000000000000000000000000000000000000000000000000000000000009060640160408051601f198184030181529181526020820180517bffffffffffffffffffffffffffffffffffffffffffffffffffffffff1663cd6dc68760e01b17905251610277906102ea565b610282929190610353565b8190604051809103906000f59050801580156102a2573d6000803e3d6000fd5b5095945050505050565b60006101bd83836101c6565b60006101bd8383306000604051836040820152846020820152828152600b8101905060ff815360559020949350505050565b6104ee806103c683390190565b6000806040838503121561030a57600080fd5b82356001600160a01b038116811461032157600080fd5b946020939093013593505050565b60005b8381101561034a578181015183820152602001610332565b50506000910152565b6001600160a01b0383168152604060208201526000825180604084015261038181606085016020870161032f565b601f01601f1916919091016060019392505050565b600083516103a881846020880161032f565b8351908301906103bc81836020880161032f565b0194935050505056fe60806040526040516104ee3803806104ee833981016040819052610022916102de565b61002e82826000610035565b50506103fb565b61003e83610061565b60008251118061004b5750805b1561005c5761005a83836100a1565b505b505050565b61006a816100cd565b6040516001600160a01b038216907fbc7cd75a20ee27fd9adebab32041f755214dbc6bffa90cc0225b39da2e5c2d3b90600090a250565b60606100c683836040518060600160405280602781526020016104c760279139610180565b9392505050565b6001600160a01b0381163b61013f5760405162461bcd60e51b815260206004820152602d60248201527f455243313936373a206e657720696d706c656d656e746174696f6e206973206e60448201526c1bdd08184818dbdb9d1c9858dd609a1b60648201526084015b60405180910390fd5b7f360894a13ba1a3210667c828492db98dca3e2076cc3735a920a3ca505d382bbc80546001600160a01b0319166001600160a01b0392909216919091179055565b6060600080856001600160a01b03168560405161019d91906103ac565b600060405180830381855af49150503d80600081146101d8576040519150601f19603f3d011682016040523d82523d6000602084013e6101dd565b606091505b5090925090506101ef868383876101f9565b9695505050505050565b60608315610268578251600003610261576001600160a01b0385163b6102615760405162461bcd60e51b815260206004820152601d60248201527f416464726573733a2063616c6c20746f206e6f6e2d636f6e74726163740000006044820152606401610136565b5081610272565b610272838361027a565b949350505050565b81511561028a5781518083602001fd5b8060405162461bcd60e51b815260040161013691906103c8565b634e487b7160e01b600052604160045260246000fd5b60005b838110156102d55781810151838201526020016102bd565b50506000910152565b600080604083850312156102f157600080fd5b82516001600160a01b038116811461030857600080fd5b60208401519092506001600160401b038082111561032557600080fd5b818501915085601f83011261033957600080fd5b81518181111561034b5761034b6102a4565b604051601f8201601f19908116603f01168101908382118183101715610373576103736102a4565b8160405282815288602084870101111561038c57600080fd5b61039d8360208301602088016102ba565b80955050505050509250929050565b600082516103be8184602087016102ba565b9190910192915050565b60208152600082518060208401526103e78160408501602087016102ba565b601f01601f19169190910160400192915050565b60be806104096000396000f3fe608060405236601057600e6013565b005b600e5b601f601b6021565b6065565b565b600060607f360894a13ba1a3210667c828492db98dca3e2076cc3735a920a3ca505d382bbc5473ffffffffffffffffffffffffffffffffffffffff1690565b905090565b3660008037600080366000845af43d6000803e8080156083573d6000f35b3d6000fdfea264697066735822122060274ee52c58eff057b761dc85245175f149b83941138ab918bdbdd93bf626a664736f6c63430008130033416464726573733a206c6f772d6c6576656c2064656c65676174652063616c6c206661696c6564a26469706673582212209504347ffc458350ef680338c3d0a31b3fb67ecf028a37ec268362e1837c7e7d64736f6c63430008130033608060405234801561001057600080fd5b50610b88806100206000396000f3fe608060405234801561001057600080fd5b50600436106100885760003560e01c8063cd6dc6871161005b578063cd6dc687146100f2578063d312b54714610105578063d6b225be1461011a578063d8bff5a51461012357600080fd5b80632dfca4451461008d5780635aa6e675146100a95780637ace48e7146100d4578063bd108fd4146100e9575b600080fd5b61009660045481565b6040519081526020015b60405180910390f35b6003546100bc906001600160a01b031681565b6040516001600160a01b0390911681526020016100a0565b6100e76100e23660046105ad565b610167565b005b61009660015481565b6100e76101003660046105e6565b610174565b600254600154604051911081526020016100a0565b61009660025481565b610150610131366004610612565b6005602052600090815260409020805460019091015460ff9091169082565b6040805192151583526020830191909152016100a0565b61017133826102cb565b50565b600054610100900460ff16158080156101945750600054600160ff909116105b806101ae5750303b1580156101ae575060005460ff166001145b6102255760405162461bcd60e51b815260206004820152602e60248201527f496e697469616c697a61626c653a20636f6e747261637420697320616c72656160448201527f647920696e697469616c697a656400000000000000000000000000000000000060648201526084015b60405180910390fd5b6000805460ff191660011790558015610248576000805461ff0019166101001790555b600380547fffffffffffffffffffffffff0000000000000000000000000000000000000000166001600160a01b038516179055600482905580156102c6576000805461ff0019169055604051600181527f7f26b83ff96e1f2b6a682f133852f6798a09c465da95921460cefb38474024989060200160405180910390a15b505050565b600354600480546040517f9080936f000000000000000000000000000000000000000000000000000000008152918201526002916001600160a01b031690639080936f90602401602060405180830381865afa15801561032f573d6000803e3d6000fd5b505050506040513d601f19601f820116820180604052508101906103539190610645565b60078111156103645761036461062f565b146103b15760405162461bcd60e51b815260206004820152600d60248201527f564f54494e475f434c4f53454400000000000000000000000000000000000000604482015260640161021c565b600354600480546040517f3656de21000000000000000000000000000000000000000000000000000000008152918201526000916001600160a01b031690633656de2190602401600060405180830381865afa158015610415573d6000803e3d6000fd5b505050506040513d6000823e601f3d908101601f1916820160405261043d919081019061094d565b6001600160a01b0384166000908152600560205260409020600181015491925090156104ab5760405162461bcd60e51b815260206004820152601660248201527f564f54455f414c52454144595f5355424d495454454400000000000000000000604482015260640161021c565b6102008201516101208301516040517feaeded5f0000000000000000000000000000000000000000000000000000000081526000926001600160a01b03169163eaeded5f916105129189916004016001600160a01b03929092168252602082015260400190565b6020604051808303816000875af1158015610531573d6000803e3d6000fd5b505050506040513d601f19601f820116820180604052508101906105559190610b12565b90508315610573578060015461056b9190610b2b565b600155610585565b806002546105819190610b2b565b6002555b815460ff1916931515939093178155600101919091555050565b801515811461017157600080fd5b6000602082840312156105bf57600080fd5b81356105ca8161059f565b9392505050565b6001600160a01b038116811461017157600080fd5b600080604083850312156105f957600080fd5b8235610604816105d1565b946020939093013593505050565b60006020828403121561062457600080fd5b81356105ca816105d1565b634e487b7160e01b600052602160045260246000fd5b60006020828403121561065757600080fd5b8151600881106105ca57600080fd5b634e487b7160e01b600052604160045260246000fd5b604051610240810167ffffffffffffffff811182821017156106a0576106a0610666565b60405290565b604051601f8201601f1916810167ffffffffffffffff811182821017156106cf576106cf610666565b604052919050565b80516106e2816105d1565b919050565b600067ffffffffffffffff82111561070157610701610666565b5060051b60200190565b600082601f83011261071c57600080fd5b8151602061073161072c836106e7565b6106a6565b82815260059290921b8401810191818101908684111561075057600080fd5b8286015b84811015610774578051610767816105d1565b8352918301918301610754565b509695505050505050565b600082601f83011261079057600080fd5b815160206107a061072c836106e7565b82815260059290921b840181019181810190868411156107bf57600080fd5b8286015b8481101561077457805183529183019183016107c3565b600067ffffffffffffffff8311156107f4576107f4610666565b6020610808601f8501601f191682016106a6565b915083825284848401111561081c57600080fd5b60005b848110156108385783810151838201830152810161081f565b506000818584010152509392505050565b600082601f83011261085a57600080fd5b8151602061086a61072c836106e7565b82815260059290921b8401810191818101908684111561088957600080fd5b8286015b8481101561077457805167ffffffffffffffff8111156108ad5760008081fd5b8701603f810189136108bf5760008081fd5b6108d08986830151604084016107da565b84525091830191830161088d565b80516106e28161059f565b600082601f8301126108fa57600080fd5b8151602061090a61072c836106e7565b82815260059290921b8401810191818101908684111561092957600080fd5b8286015b848110156107745780516109408161059f565b835291830191830161092d565b60006020828403121561095f57600080fd5b815167ffffffffffffffff8082111561097757600080fd5b90830190610240828603121561098c57600080fd5b61099461067c565b825181526109a4602084016106d7565b6020820152604083015160408201526109bf606084016106d7565b60608201526080830151828111156109d657600080fd5b6109e28782860161070b565b60808301525060a0830151828111156109fa57600080fd5b610a068782860161077f565b60a08301525060c083015182811115610a1e57600080fd5b610a2a87828601610849565b60c08301525060e083015182811115610a4257600080fd5b610a4e87828601610849565b60e0830152506101008084015183811115610a6857600080fd5b610a74888287016108e9565b91830191909152506101208381015190820152610140808401519082015261016080840151908201526101809150610aad8284016108de565b828201526101a09150610ac18284016108de565b828201526101c09150610ad58284016108de565b828201526101e0915081830151828201526102009150610af68284016106d7565b9181019190915261022091820151918101919091529392505050565b600060208284031215610b2457600080fd5b5051919050565b80820180821115610b4c57634e487b7160e01b600052601160045260246000fd5b9291505056fea264697066735822122020565a4d218086aa213c2560ed471dba05714277fea278776335de7a021c990064736f6c63430008130033",
  "linkReferences": {},
  "deployedLinkReferences": {}
}