{
  "_format": "hh-sol-artifact-1",
  "contractName": "Review",
  "sourceName": "contracts/governance/Review.sol",
  "abi": [
    {
      "inputs": [
        {
          "internalType": "address",
          "name": "_voteFactory",
          "type": "address"
        },
        {
          "internalType": "address",
          "name": "_ct",
          "type": "address"
        },
        {
          "internalType": "address",
          "name": "_oracle",
          "type": "address"
        }
      ],
      "stateMutability": "nonpayable",
      "type": "constructor"
    },
    {
      "inputs": [],
      "name": "REVIEW_DURATION",
      "outputs": [
        {
          "internalType": "uint256",
          "name": "",
          "type": "uint256"
        }
      ],
      "stateMutability": "view",
      "type": "function"
    },
    {
      "inputs": [
        {
          "internalType": "address",
          "name": "governance",
          "type": "address"
        },
        {
          "internalType": "uint256",
          "name": "proposalId",
          "type": "uint256"
        }
      ],
      "name": "createReview",
      "outputs": [],
      "stateMutability": "nonpayable",
      "type": "function"
    },
    {
      "inputs": [],
      "name": "ct",
      "outputs": [
        {
          "internalType": "contract IConditionalTokens",
          "name": "",
          "type": "address"
        }
      ],
      "stateMutability": "view",
      "type": "function"
    },
    {
      "inputs": [
        {
          "internalType": "address",
          "name": "reviewAddr",
          "type": "address"
        }
      ],
      "name": "getReviewResult",
      "outputs": [
        {
          "internalType": "bool",
          "name": "",
          "type": "bool"
        }
      ],
      "stateMutability": "view",
      "type": "function"
    },
    {
      "inputs": [
        {
          "internalType": "uint256",
          "name": "",
          "type": "uint256"
        }
      ],
      "name": "isInitialized",
      "outputs": [
        {
          "internalType": "bool",
          "name": "",
          "type": "bool"
        }
      ],
      "stateMutability": "view",
      "type": "function"
    },
    {
      "inputs": [
        {
          "internalType": "address",
          "name": "governance",
          "type": "address"
        },
        {
          "internalType": "uint256",
          "name": "proposalId",
          "type": "uint256"
        }
      ],
      "name": "isProposalPassed",
      "outputs": [
        {
          "internalType": "bool",
          "name": "",
          "type": "bool"
        }
      ],
      "stateMutability": "view",
      "type": "function"
    },
    {
      "inputs": [],
      "name": "voteFactory",
      "outputs": [
        {
          "internalType": "contract IVoteFactory",
          "name": "",
          "type": "address"
        }
      ],
      "stateMutability": "view",
      "type": "function"
    }
  ],
  "bytecode": "0x6080604052611c2060005534801561001657600080fd5b50604051610be5380380610be583398101604081905261003591610093565b600180546001600160a01b039485166001600160a01b0319918216179091556002805493851693821693909317909255600380549190931691161790556100d6565b80516001600160a01b038116811461008e57600080fd5b919050565b6000806000606084860312156100a857600080fd5b6100b184610077565b92506100bf60208501610077565b91506100cd60408501610077565b90509250925092565b610b00806100e56000396000f3fe608060405234801561001057600080fd5b506004361061007d5760003560e01c80636ae76d4f1161005b5780636ae76d4f146100d6578063a836900614610101578063b4b53e1c14610114578063d9a845d81461012757600080fd5b806306fbb3ab1461008257806359728392146100aa5780635d73bb11146100bf575b600080fd5b610095610090366004610561565b61014a565b60405190151581526020015b60405180910390f35b6100bd6100b8366004610561565b6102ac565b005b6100c860005481565b6040519081526020016100a1565b6002546100e9906001600160a01b031681565b6040516001600160a01b0390911681526020016100a1565b6001546100e9906001600160a01b031681565b61009561012236600461058d565b6104df565b6100956101353660046105b1565b60046020526000908152604090205460ff1681565b6001546040517f3d97c0ca0000000000000000000000000000000000000000000000000000000081526001600160a01b038481166004830152602482018490526000928392911690633d97c0ca90604401602060405180830381865afa1580156101b8573d6000803e3d6000fd5b505050506040513d601f19601f820116820180604052508101906101dc91906105da565b60008481526004602052604090205490915060ff166102425760405162461bcd60e51b815260206004820152600860248201527f50616e677535303200000000000000000000000000000000000000000000000060448201526064015b60405180910390fd5b806001600160a01b031663d312b5476040518163ffffffff1660e01b8152600401602060405180830381865afa158015610280573d6000803e3d6000fd5b505050506040513d601f19601f820116820180604052508101906102a49190610607565b949350505050565b6040517f3656de21000000000000000000000000000000000000000000000000000000008152600481018290526000906001600160a01b03841690633656de2190602401600060405180830381865afa15801561030d573d6000803e3d6000fd5b505050506040513d6000823e601f3d908101601f191682016040526103359190810190610905565b60008381526004602052604090205490915060ff16156103975760405162461bcd60e51b815260206004820152600860248201527f50616e67753530310000000000000000000000000000000000000000000000006044820152606401610239565b806101c001511561043057600280546003546040517fd96ee7540000000000000000000000000000000000000000000000000000000081526001600160a01b039182166004820152602481018690526044810193909352169063d96ee75490606401600060405180830381600087803b15801561041357600080fd5b505af1158015610427573d6000803e3d6000fd5b505050506104c2565b6001546040517fb12d96f70000000000000000000000000000000000000000000000000000000081526001600160a01b038581166004830152602482018590529091169063b12d96f7906044016020604051808303816000875af115801561049c573d6000803e3d6000fd5b505050506040513d601f19601f820116820180604052508101906104c091906105da565b505b506000908152600460205260409020805460ff1916600117905550565b6000816001600160a01b031663d312b5476040518163ffffffff1660e01b8152600401602060405180830381865afa15801561051f573d6000803e3d6000fd5b505050506040513d601f19601f820116820180604052508101906105439190610607565b92915050565b6001600160a01b038116811461055e57600080fd5b50565b6000806040838503121561057457600080fd5b823561057f81610549565b946020939093013593505050565b60006020828403121561059f57600080fd5b81356105aa81610549565b9392505050565b6000602082840312156105c357600080fd5b5035919050565b80516105d581610549565b919050565b6000602082840312156105ec57600080fd5b81516105aa81610549565b805180151581146105d557600080fd5b60006020828403121561061957600080fd5b6105aa826105f7565b7f4e487b7100000000000000000000000000000000000000000000000000000000600052604160045260246000fd5b604051610240810167ffffffffffffffff8111828210171561067557610675610622565b60405290565b604051601f8201601f1916810167ffffffffffffffff811182821017156106a4576106a4610622565b604052919050565b600067ffffffffffffffff8211156106c6576106c6610622565b5060051b60200190565b600082601f8301126106e157600080fd5b815160206106f66106f1836106ac565b61067b565b82815260059290921b8401810191818101908684111561071557600080fd5b8286015b8481101561073957805161072c81610549565b8352918301918301610719565b509695505050505050565b600082601f83011261075557600080fd5b815160206107656106f1836106ac565b82815260059290921b8401810191818101908684111561078457600080fd5b8286015b848110156107395780518352918301918301610788565b600067ffffffffffffffff8311156107b9576107b9610622565b60206107cd601f8501601f1916820161067b565b91508382528484840111156107e157600080fd5b60005b848110156107fd578381015183820183015281016107e4565b506000818584010152509392505050565b600082601f83011261081f57600080fd5b8151602061082f6106f1836106ac565b82815260059290921b8401810191818101908684111561084e57600080fd5b8286015b8481101561073957805167ffffffffffffffff8111156108725760008081fd5b8701603f810189136108845760008081fd5b61089589868301516040840161079f565b845250918301918301610852565b600082601f8301126108b457600080fd5b815160206108c46106f1836106ac565b82815260059290921b840181019181810190868411156108e357600080fd5b8286015b84811015610739576108f8816105f7565b83529183019183016108e7565b60006020828403121561091757600080fd5b815167ffffffffffffffff8082111561092f57600080fd5b90830190610240828603121561094457600080fd5b61094c610651565b8251815261095c602084016105ca565b602082015260408301516040820152610977606084016105ca565b606082015260808301518281111561098e57600080fd5b61099a878286016106d0565b60808301525060a0830151828111156109b257600080fd5b6109be87828601610744565b60a08301525060c0830151828111156109d657600080fd5b6109e28782860161080e565b60c08301525060e0830151828111156109fa57600080fd5b610a068782860161080e565b60e0830152506101008084015183811115610a2057600080fd5b610a2c888287016108a3565b91830191909152506101208381015190820152610140808401519082015261016080840151908201526101809150610a658284016105f7565b828201526101a09150610a798284016105f7565b828201526101c09150610a8d8284016105f7565b828201526101e0915081830151828201526102009150610aae8284016105ca565b918101919091526102209182015191810191909152939250505056fea264697066735822122069fa632a9d2d7fc654bdc5b30c5026d12d7be65351b17724b936ee897e69936864736f6c63430008130033",
  "linkReferences": {},
  "deployedLinkReferences": {}
}